{"contracts/PlayoffPool.sol":{"PlayoffPool":{"abi":[{"inputs":[{"internalType":"uint256","name":"_entryFee","type":"uint256"},{"internalType":"uint256","name":"_maxEntries","type":"uint256"},{"internalType":"uint256","name":"_one","type":"uint256"},{"internalType":"uint256","name":"_two","type":"uint256"},{"internalType":"uint256","name":"_three","type":"uint256"},{"internalType":"uint256","name":"_four","type":"uint256"},{"internalType":"uint256","name":"_unlockTimestamp","type":"uint256"},{"internalType":"uint256","name":"_lockTimestamp","type":"uint256"},{"internalType":"uint256","name":"_semisComplete","type":"uint256"},{"internalType":"uint256","name":"_champComplete","type":"uint256"}],"stateMutability":"nonpayable","type":"constructor"},{"anonymous":false,"inputs":[{"indexed":false,"internalType":"uint256","name":"","type":"uint256"},{"indexed":false,"internalType":"uint256","name":"","type":"uint256"}],"name":"ScoredSemis","type":"event"},{"anonymous":false,"inputs":[{"indexed":false,"internalType":"address","name":"","type":"address"},{"indexed":false,"internalType":"uint256","name":"","type":"uint256"}],"name":"Winner","type":"event"},{"anonymous":false,"inputs":[{"indexed":false,"internalType":"address","name":"","type":"address"},{"indexed":false,"internalType":"uint256","name":"","type":"uint256"},{"indexed":false,"internalType":"bool","name":"","type":"bool"},{"indexed":false,"internalType":"uint256","name":"","type":"uint256"}],"name":"WinnerPaid","type":"event"},{"inputs":[{"internalType":"uint256","name":"","type":"uint256"}],"name":"allBrackets","outputs":[{"internalType":"address","name":"owner","type":"address"},{"internalType":"uint256","name":"semifinalOneWinner","type":"uint256"},{"internalType":"uint256","name":"semifinalTwoWinner","type":"uint256"},{"internalType":"uint256","name":"champion","type":"uint256"},{"internalType":"uint256","name":"championshipTotalPoints","type":"uint256"},{"internalType":"uint256","name":"bracketPoints","type":"uint256"},{"internalType":"uint256","name":"id","type":"uint256"}],"stateMutability":"view","type":"function"},{"inputs":[{"internalType":"address","name":"","type":"address"},{"internalType":"uint256","name":"","type":"uint256"}],"name":"brackets","outputs":[{"internalType":"address","name":"owner","type":"address"},{"internalType":"uint256","name":"semifinalOneWinner","type":"uint256"},{"internalType":"uint256","name":"semifinalTwoWinner","type":"uint256"},{"internalType":"uint256","name":"champion","type":"uint256"},{"internalType":"uint256","name":"championshipTotalPoints","type":"uint256"},{"internalType":"uint256","name":"bracketPoints","type":"uint256"},{"internalType":"uint256","name":"id","type":"uint256"}],"stateMutability":"view","type":"function"},{"inputs":[],"name":"champComplete","outputs":[{"internalType":"uint256","name":"","type":"uint256"}],"stateMutability":"view","type":"function"},{"inputs":[],"name":"champion","outputs":[{"internalType":"uint256","name":"","type":"uint256"}],"stateMutability":"view","type":"function"},{"inputs":[],"name":"championshipTotalPoints","outputs":[{"internalType":"uint256","name":"","type":"uint256"}],"stateMutability":"view","type":"function"},{"inputs":[],"name":"commissioner","outputs":[{"internalType":"address","name":"","type":"address"}],"stateMutability":"view","type":"function"},{"inputs":[{"internalType":"uint256","name":"","type":"uint256"},{"internalType":"uint256","name":"","type":"uint256"}],"name":"differences","outputs":[{"internalType":"address","name":"","type":"address"}],"stateMutability":"view","type":"function"},{"inputs":[{"internalType":"uint256","name":"","type":"uint256"},{"internalType":"uint256","name":"","type":"uint256"}],"name":"differencesIDs","outputs":[{"internalType":"uint256","name":"","type":"uint256"}],"stateMutability":"view","type":"function"},{"inputs":[{"internalType":"uint256","name":"","type":"uint256"}],"name":"entrants","outputs":[{"internalType":"address","name":"","type":"address"}],"stateMutability":"view","type":"function"},{"inputs":[{"internalType":"address","name":"","type":"address"}],"name":"entries","outputs":[{"internalType":"uint256","name":"","type":"uint256"}],"stateMutability":"view","type":"function"},{"inputs":[],"name":"entryFee","outputs":[{"internalType":"uint256","name":"","type":"uint256"}],"stateMutability":"view","type":"function"},{"inputs":[],"name":"four","outputs":[{"internalType":"uint256","name":"","type":"uint256"}],"stateMutability":"view","type":"function"},{"inputs":[],"name":"getAllEntries","outputs":[{"components":[{"internalType":"address","name":"owner","type":"address"},{"internalType":"uint256","name":"semifinalOneWinner","type":"uint256"},{"internalType":"uint256","name":"semifinalTwoWinner","type":"uint256"},{"internalType":"uint256","name":"champion","type":"uint256"},{"internalType":"uint256","name":"championshipTotalPoints","type":"uint256"},{"internalType":"uint256","name":"bracketPoints","type":"uint256"},{"internalType":"uint256","name":"id","type":"uint256"}],"internalType":"struct PlayoffPool.Bracket[]","name":"","type":"tuple[]"}],"stateMutability":"view","type":"function"},{"inputs":[],"name":"getMyBrackets","outputs":[{"components":[{"internalType":"address","name":"owner","type":"address"},{"internalType":"uint256","name":"semifinalOneWinner","type":"uint256"},{"internalType":"uint256","name":"semifinalTwoWinner","type":"uint256"},{"internalType":"uint256","name":"champion","type":"uint256"},{"internalType":"uint256","name":"championshipTotalPoints","type":"uint256"},{"internalType":"uint256","name":"bracketPoints","type":"uint256"},{"internalType":"uint256","name":"id","type":"uint256"}],"internalType":"struct PlayoffPool.Bracket[]","name":"","type":"tuple[]"},{"internalType":"uint256","name":"","type":"uint256"}],"stateMutability":"view","type":"function"},{"inputs":[],"name":"getWinnerIDs","outputs":[{"internalType":"uint256[]","name":"","type":"uint256[]"}],"stateMutability":"view","type":"function"},{"inputs":[{"internalType":"uint256","name":"_semifinalOneWinner","type":"uint256"},{"internalType":"uint256","name":"_semifinalTwoWinner","type":"uint256"},{"internalType":"uint256","name":"_champion","type":"uint256"},{"internalType":"uint256","name":"_championshipTotalPoints","type":"uint256"}],"name":"joinPool","outputs":[],"stateMutability":"payable","type":"function"},{"inputs":[],"name":"lockTimestamp","outputs":[{"internalType":"uint256","name":"","type":"uint256"}],"stateMutability":"view","type":"function"},{"inputs":[],"name":"maxEntries","outputs":[{"internalType":"uint256","name":"","type":"uint256"}],"stateMutability":"view","type":"function"},{"inputs":[],"name":"mostPoints","outputs":[{"internalType":"uint256","name":"","type":"uint256"}],"stateMutability":"view","type":"function"},{"inputs":[],"name":"one","outputs":[{"internalType":"uint256","name":"","type":"uint256"}],"stateMutability":"view","type":"function"},{"inputs":[{"internalType":"uint256","name":"","type":"uint256"},{"internalType":"uint256","name":"","type":"uint256"}],"name":"points","outputs":[{"internalType":"address","name":"","type":"address"}],"stateMutability":"view","type":"function"},{"inputs":[],"name":"pot","outputs":[{"internalType":"uint256","name":"","type":"uint256"}],"stateMutability":"view","type":"function"},{"inputs":[],"name":"randNonce","outputs":[{"internalType":"uint256","name":"","type":"uint256"}],"stateMutability":"view","type":"function"},{"inputs":[{"internalType":"uint256","name":"_champion","type":"uint256"},{"internalType":"uint256","name":"_championshipTotalPoints","type":"uint256"}],"name":"scoreFinal","outputs":[],"stateMutability":"nonpayable","type":"function"},{"inputs":[{"internalType":"uint256","name":"_semifinalOneWinner","type":"uint256"},{"internalType":"uint256","name":"_semifinalTwoWinner","type":"uint256"}],"name":"scoreSemifinal","outputs":[],"stateMutability":"nonpayable","type":"function"},{"inputs":[{"internalType":"uint256","name":"","type":"uint256"}],"name":"scoredAfterChamp","outputs":[{"internalType":"address","name":"owner","type":"address"},{"internalType":"uint256","name":"semifinalOneWinner","type":"uint256"},{"internalType":"uint256","name":"semifinalTwoWinner","type":"uint256"},{"internalType":"uint256","name":"champion","type":"uint256"},{"internalType":"uint256","name":"championshipTotalPoints","type":"uint256"},{"internalType":"uint256","name":"bracketPoints","type":"uint256"},{"internalType":"uint256","name":"id","type":"uint256"}],"stateMutability":"view","type":"function"},{"inputs":[{"internalType":"uint256","name":"","type":"uint256"}],"name":"scoredAfterSemis","outputs":[{"internalType":"address","name":"owner","type":"address"},{"internalType":"uint256","name":"semifinalOneWinner","type":"uint256"},{"internalType":"uint256","name":"semifinalTwoWinner","type":"uint256"},{"internalType":"uint256","name":"champion","type":"uint256"},{"internalType":"uint256","name":"championshipTotalPoints","type":"uint256"},{"internalType":"uint256","name":"bracketPoints","type":"uint256"},{"internalType":"uint256","name":"id","type":"uint256"}],"stateMutability":"view","type":"function"},{"inputs":[{"internalType":"uint256","name":"","type":"uint256"},{"internalType":"uint256","name":"","type":"uint256"}],"name":"scoredBrackets","outputs":[{"internalType":"address","name":"owner","type":"address"},{"internalType":"uint256","name":"semifinalOneWinner","type":"uint256"},{"internalType":"uint256","name":"semifinalTwoWinner","type":"uint256"},{"internalType":"uint256","name":"champion","type":"uint256"},{"internalType":"uint256","name":"championshipTotalPoints","type":"uint256"},{"internalType":"uint256","name":"bracketPoints","type":"uint256"},{"internalType":"uint256","name":"id","type":"uint256"}],"stateMutability":"view","type":"function"},{"inputs":[],"name":"semifinalOneWinner","outputs":[{"internalType":"uint256","name":"","type":"uint256"}],"stateMutability":"view","type":"function"},{"inputs":[],"name":"semifinalTwoWinner","outputs":[{"internalType":"uint256","name":"","type":"uint256"}],"stateMutability":"view","type":"function"},{"inputs":[],"name":"semisComplete","outputs":[{"internalType":"uint256","name":"","type":"uint256"}],"stateMutability":"view","type":"function"},{"inputs":[],"name":"three","outputs":[{"internalType":"uint256","name":"","type":"uint256"}],"stateMutability":"view","type":"function"},{"inputs":[],"name":"totalEntries","outputs":[{"internalType":"uint256","name":"","type":"uint256"}],"stateMutability":"view","type":"function"},{"inputs":[],"name":"two","outputs":[{"internalType":"uint256","name":"","type":"uint256"}],"stateMutability":"view","type":"function"},{"inputs":[],"name":"unlockTimestamp","outputs":[{"internalType":"uint256","name":"","type":"uint256"}],"stateMutability":"view","type":"function"},{"inputs":[{"internalType":"uint256","name":"","type":"uint256"}],"name":"winningIDs","outputs":[{"internalType":"uint256","name":"","type":"uint256"}],"stateMutability":"view","type":"function"}],"evm":{"bytecode":{"linkReferences":{},"object":"608060405260016012553480156200001657600080fd5b50604051620036a5380380620036a583398181016040528101906200003c919062000112565b336000806101000a81548173ffffffffffffffffffffffffffffffffffffffff021916908373ffffffffffffffffffffffffffffffffffffffff16021790555089600181905550886002819055508760038190555086600481905550856005819055508460068190555083600e8190555082600f8190555081601081905550806011819055505050505050505050505062000208565b600080fd5b6000819050919050565b620000ec81620000d7565b8114620000f857600080fd5b50565b6000815190506200010c81620000e1565b92915050565b6000806000806000806000806000806101408b8d031215620001395762000138620000d2565b5b6000620001498d828e01620000fb565b9a505060206200015c8d828e01620000fb565b99505060406200016f8d828e01620000fb565b9850506060620001828d828e01620000fb565b9750506080620001958d828e01620000fb565b96505060a0620001a88d828e01620000fb565b95505060c0620001bb8d828e01620000fb565b94505060e0620001ce8d828e01620000fb565b935050610100620001e28d828e01620000fb565b925050610120620001f68d828e01620000fb565b9150509295989b9194979a5092959850565b61348d80620002186000396000f3fe60806040526004361061020f5760003560e01c8063a1fca2b611610118578063cf92a0c7116100a0578063e7b4e5ab1161006f578063e7b4e5ab146107f7578063f189449814610834578063f23f3ba51461085f578063f29ee1251461088a578063ffe81da8146108c75761020f565b8063cf92a0c71461070f578063d60dac3d14610752578063dd917b291461077d578063e3cdda39146107ba5761020f565b8063b7ce8a99116100e7578063b7ce8a9914610620578063be6b33371461064b578063c37996f114610676578063cc789085146106b9578063cf065419146106e45761020f565b8063a1fca2b614610562578063a337a6041461058d578063aa082a9d146105ca578063b544bf83146105f55761020f565b80634d3c3a411161019b5780637fef036e1161016a5780637fef036e1461048a57806388c113d6146104b5578063901717d1146104f2578063931e55aa1461051d57806398f6a197146105465761020f565b80634d3c3a41146103c65780635fdf05d71461040957806361e013561461043457806375662e961461045f5761020f565b8063443e4a39116101e2578063443e4a39146102f1578063448669551461031a57806345caa117146103455780634a0364e8146103705780634ba2363a1461039b5761020f565b8063072ea61c1461021457806318901b711461023f57806334ff56441461026b5780633bca800f146102ae575b600080fd5b34801561022057600080fd5b506102296108f2565b60405161023691906127be565b60405180910390f35b34801561024b57600080fd5b506102546108f8565b604051610262929190612966565b60405180910390f35b34801561027757600080fd5b50610292600480360381019061028d91906129f3565b610ae4565b6040516102a59796959493929190612a42565b60405180910390f35b3480156102ba57600080fd5b506102d560048036038101906102d09190612ab1565b610b63565b6040516102e89796959493929190612a42565b60405180910390f35b3480156102fd57600080fd5b5061031860048036038101906103139190612ade565b610bd5565b005b34801561032657600080fd5b5061032f610ccc565b60405161033c91906127be565b60405180910390f35b34801561035157600080fd5b5061035a610cd2565b60405161036791906127be565b60405180910390f35b34801561037c57600080fd5b50610385610cd8565b6040516103929190612b1e565b60405180910390f35b3480156103a757600080fd5b506103b0610e72565b6040516103bd91906127be565b60405180910390f35b3480156103d257600080fd5b506103ed60048036038101906103e89190612ade565b610e78565b6040516104009796959493929190612a42565b60405180910390f35b34801561041557600080fd5b5061041e610ef7565b60405161042b91906127be565b60405180910390f35b34801561044057600080fd5b50610449610efd565b60405161045691906127be565b60405180910390f35b34801561046b57600080fd5b50610474610f03565b6040516104819190612bef565b60405180910390f35b34801561049657600080fd5b5061049f610f5b565b6040516104ac91906127be565b60405180910390f35b3480156104c157600080fd5b506104dc60048036038101906104d79190612ab1565b610f61565b6040516104e991906127be565b60405180910390f35b3480156104fe57600080fd5b50610507610f85565b60405161051491906127be565b60405180910390f35b34801561052957600080fd5b50610544600480360381019061053f9190612ade565b610f8b565b005b610560600480360381019061055b9190612c11565b61107a565b005b34801561056e57600080fd5b50610577611531565b60405161058491906127be565b60405180910390f35b34801561059957600080fd5b506105b460048036038101906105af9190612ade565b611537565b6040516105c191906127be565b60405180910390f35b3480156105d657600080fd5b506105df611568565b6040516105ec91906127be565b60405180910390f35b34801561060157600080fd5b5061060a61156e565b60405161061791906127be565b60405180910390f35b34801561062c57600080fd5b50610635611574565b60405161064291906127be565b60405180910390f35b34801561065757600080fd5b5061066061157a565b60405161066d91906127be565b60405180910390f35b34801561068257600080fd5b5061069d60048036038101906106989190612ab1565b611580565b6040516106b09796959493929190612a42565b60405180910390f35b3480156106c557600080fd5b506106ce6115f2565b6040516106db91906127be565b60405180910390f35b3480156106f057600080fd5b506106f96115f8565b60405161070691906127be565b60405180910390f35b34801561071b57600080fd5b5061073660048036038101906107319190612ab1565b6115fe565b6040516107499796959493929190612a42565b60405180910390f35b34801561075e57600080fd5b50610767611670565b60405161077491906127be565b60405180910390f35b34801561078957600080fd5b506107a4600480360381019061079f9190612ade565b611676565b6040516107b19190612c78565b60405180910390f35b3480156107c657600080fd5b506107e160048036038101906107dc9190612ade565b6116c4565b6040516107ee9190612c78565b60405180910390f35b34801561080357600080fd5b5061081e60048036038101906108199190612ab1565b611712565b60405161082b9190612c78565b60405180910390f35b34801561084057600080fd5b50610849611751565b6040516108569190612c78565b60405180910390f35b34801561086b57600080fd5b50610874611775565b60405161088191906127be565b60405180910390f35b34801561089657600080fd5b506108b160048036038101906108ac9190612c93565b61177b565b6040516108be91906127be565b60405180910390f35b3480156108d357600080fd5b506108dc611793565b6040516108e991906127be565b60405180910390f35b60015481565b6060600080601960003373ffffffffffffffffffffffffffffffffffffffff1673ffffffffffffffffffffffffffffffffffffffff16815260200190815260200160002090506000818054905067ffffffffffffffff81111561095e5761095d612cc0565b5b60405190808252806020026020018201604052801561099757816020015b610984612752565b81526020019060019003908161097c5790505b50905060005b8280549050811015610a98578281815481106109bc576109bb612cef565b5b90600052602060002090600702016040518060e00160405290816000820160009054906101000a900473ffffffffffffffffffffffffffffffffffffffff1673ffffffffffffffffffffffffffffffffffffffff1673ffffffffffffffffffffffffffffffffffffffff1681526020016001820154815260200160028201548152602001600382015481526020016004820154815260200160058201548152602001600682015481525050828281518110610a7a57610a79612cef565b5b60200260200101819052508080610a9090612d4d565b91505061099d565b5080601860003373ffffffffffffffffffffffffffffffffffffffff1673ffffffffffffffffffffffffffffffffffffffff168152602001908152602001600020549350935050509091565b60196020528160005260406000208181548110610b0057600080fd5b9060005260206000209060070201600091509150508060000160009054906101000a900473ffffffffffffffffffffffffffffffffffffffff16908060010154908060020154908060030154908060040154908060050154908060060154905087565b60158181548110610b7357600080fd5b90600052602060002090600702016000915090508060000160009054906101000a900473ffffffffffffffffffffffffffffffffffffffff16908060010154908060020154908060030154908060040154908060050154908060060154905087565b60008054906101000a900473ffffffffffffffffffffffffffffffffffffffff1673ffffffffffffffffffffffffffffffffffffffff163373ffffffffffffffffffffffffffffffffffffffff1614610c63576040517f08c379a0000000000000000000000000000000000000000000000000000000008152600401610c5a90612df2565b60405180910390fd5b601154421015610ca8576040517f08c379a0000000000000000000000000000000000000000000000000000000008152600401610c9f90612e84565b60405180910390fd5b8160098190555080600a81905550610cc06000611799565b610cc8612052565b5050565b60095481565b60055481565b60606000806015805490501115610cf25760159050610d0f565b60006014805490501115610d095760149050610d0e565b601390505b5b6000818054905067ffffffffffffffff811115610d2f57610d2e612cc0565b5b604051908082528060200260200182016040528015610d6857816020015b610d55612752565b815260200190600190039081610d4d5790505b50905060005b8280549050811015610e6957828181548110610d8d57610d8c612cef565b5b90600052602060002090600702016040518060e00160405290816000820160009054906101000a900473ffffffffffffffffffffffffffffffffffffffff1673ffffffffffffffffffffffffffffffffffffffff1673ffffffffffffffffffffffffffffffffffffffff1681526020016001820154815260200160028201548152602001600382015481526020016004820154815260200160058201548152602001600682015481525050828281518110610e4b57610e4a612cef565b5b60200260200101819052508080610e6190612d4d565b915050610d6e565b50809250505090565b600d5481565b601b6020528160005260406000208181548110610e9457600080fd5b9060005260206000209060070201600091509150508060000160009054906101000a900473ffffffffffffffffffffffffffffffffffffffff16908060010154908060020154908060030154908060040154908060050154908060060154905087565b60045481565b60125481565b60606017805480602002602001604051908101604052809291908181526020018280548015610f5157602002820191906000526020600020905b815481526020019060010190808311610f3d575b5050505050905090565b600c5481565b60178181548110610f7157600080fd5b906000526020600020016000915090505481565b60035481565b60008054906101000a900473ffffffffffffffffffffffffffffffffffffffff1673ffffffffffffffffffffffffffffffffffffffff163373ffffffffffffffffffffffffffffffffffffffff1614611019576040517f08c379a000000000000000000000000000000000000000000000000000000000815260040161101090612df2565b60405180910390fd5b60105442101561105e576040517f08c379a000000000000000000000000000000000000000000000000000000000815260040161105590612f16565b60405180910390fd5b81600781905550806008819055506110766001611799565b5050565b60015434146110be576040517f08c379a00000000000000000000000000000000000000000000000000000000081526004016110b590612f82565b60405180910390fd5b600e54421015611103576040517f08c379a00000000000000000000000000000000000000000000000000000000081526004016110fa90613014565b60405180910390fd5b600f54421115611148576040517f08c379a000000000000000000000000000000000000000000000000000000000815260040161113f90613080565b60405180910390fd5b600254601860003373ffffffffffffffffffffffffffffffffffffffff1673ffffffffffffffffffffffffffffffffffffffff16815260200190815260200160002054106111cb576040517f08c379a00000000000000000000000000000000000000000000000000000000081526004016111c290613112565b60405180910390fd5b60006111d83384846125e9565b90506000601860003373ffffffffffffffffffffffffffffffffffffffff1673ffffffffffffffffffffffffffffffffffffffff1681526020019081526020016000205411611285576016339080600181540180825580915050600190039060005260206000200160009091909190916101000a81548173ffffffffffffffffffffffffffffffffffffffff021916908373ffffffffffffffffffffffffffffffffffffffff1602179055505b601860003373ffffffffffffffffffffffffffffffffffffffff1673ffffffffffffffffffffffffffffffffffffffff16815260200190815260200160002060008154809291906112d590612d4d565b9190505550601960003373ffffffffffffffffffffffffffffffffffffffff1673ffffffffffffffffffffffffffffffffffffffff1681526020019081526020016000206040518060e001604052803373ffffffffffffffffffffffffffffffffffffffff1681526020018781526020018681526020018581526020018481526020016000815260200183815250908060018154018082558091505060019003906000526020600020906007020160009091909190915060008201518160000160006101000a81548173ffffffffffffffffffffffffffffffffffffffff021916908373ffffffffffffffffffffffffffffffffffffffff1602179055506020820151816001015560408201518160020155606082015181600301556080820151816004015560a0820151816005015560c08201518160060155505060136040518060e001604052803373ffffffffffffffffffffffffffffffffffffffff1681526020018781526020018681526020018581526020018481526020016000815260200183815250908060018154018082558091505060019003906000526020600020906007020160009091909190915060008201518160000160006101000a81548173ffffffffffffffffffffffffffffffffffffffff021916908373ffffffffffffffffffffffffffffffffffffffff1602179055506020820151816001015560408201518160020155606082015181600301556080820151816004015560a0820151816005015560c082015181600601555050600c600081548092919061151e90612d4d565b919050555047600d819055505050505050565b60065481565b601d602052816000526040600020818154811061155357600080fd5b90600052602060002001600091509150505481565b600e5481565b600f5481565b60085481565b600a5481565b6013818154811061159057600080fd5b90600052602060002090600702016000915090508060000160009054906101000a900473ffffffffffffffffffffffffffffffffffffffff16908060010154908060020154908060030154908060040154908060050154908060060154905087565b60105481565b600b5481565b6014818154811061160e57600080fd5b90600052602060002090600702016000915090508060000160009054906101000a900473ffffffffffffffffffffffffffffffffffffffff16908060010154908060020154908060030154908060040154908060050154908060060154905087565b60115481565b601c602052816000526040600020818154811061169257600080fd5b906000526020600020016000915091509054906101000a900473ffffffffffffffffffffffffffffffffffffffff1681565b601a60205281600052604060002081815481106116e057600080fd5b906000526020600020016000915091509054906101000a900473ffffffffffffffffffffffffffffffffffffffff1681565b6016818154811061172257600080fd5b906000526020600020016000915054906101000a900473ffffffffffffffffffffffffffffffffffffffff1681565b60008054906101000a900473ffffffffffffffffffffffffffffffffffffffff1681565b60025481565b60186020528060005260406000206000915090505481565b60075481565b60008060005b60168054905081101561204c57601681815481106117c0576117bf612cef565b5b9060005260206000200160009054906101000a900473ffffffffffffffffffffffffffffffffffffffff16925060005b601860008573ffffffffffffffffffffffffffffffffffffffff1673ffffffffffffffffffffffffffffffffffffffff1681526020019081526020016000205481101561203857601960008573ffffffffffffffffffffffffffffffffffffffff1673ffffffffffffffffffffffffffffffffffffffff168152602001908152602001600020818154811061188857611887612cef565b5b906000526020600020906007020192508415611b1f57600754836001015403611926576003601960008673ffffffffffffffffffffffffffffffffffffffff1673ffffffffffffffffffffffffffffffffffffffff16815260200190815260200160002082815481106118fe576118fd612cef565b5b9060005260206000209060070201600501600082825461191e9190613132565b925050819055505b6008548360020154036119ae576003601960008673ffffffffffffffffffffffffffffffffffffffff1673ffffffffffffffffffffffffffffffffffffffff168152602001908152602001600020828154811061198657611985612cef565b5b906000526020600020906007020160050160008282546119a69190613132565b925050819055505b6014601960008673ffffffffffffffffffffffffffffffffffffffff1673ffffffffffffffffffffffffffffffffffffffff1681526020019081526020016000208281548110611a0157611a00612cef565b5b906000526020600020906007020190806001815401808255809150506001900390600052602060002090600702016000909190919091506000820160009054906101000a900473ffffffffffffffffffffffffffffffffffffffff168160000160006101000a81548173ffffffffffffffffffffffffffffffffffffffff021916908373ffffffffffffffffffffffffffffffffffffffff16021790555060018201548160010155600282015481600201556003820154816003015560048201548160040155600582015481600501556006820154816006015550507f72b70d4f70717c443c3f728467b5c6595439e31928db630e2892cab279692b2e600754600854604051611b12929190613166565b60405180910390a1612025565b600954836003015403611ba7576007601960008673ffffffffffffffffffffffffffffffffffffffff1673ffffffffffffffffffffffffffffffffffffffff1681526020019081526020016000208281548110611b7f57611b7e612cef565b5b90600052602060002090600702016005016000828254611b9f9190613132565b925050819055505b600b54601960008673ffffffffffffffffffffffffffffffffffffffff1673ffffffffffffffffffffffffffffffffffffffff1681526020019081526020016000208281548110611bfb57611bfa612cef565b5b9060005260206000209060070201600501541115611c7d57601960008573ffffffffffffffffffffffffffffffffffffffff1673ffffffffffffffffffffffffffffffffffffffff1681526020019081526020016000208181548110611c6457611c63612cef565b5b906000526020600020906007020160050154600b819055505b601a6000601960008773ffffffffffffffffffffffffffffffffffffffff1673ffffffffffffffffffffffffffffffffffffffff1681526020019081526020016000208381548110611cd257611cd1612cef565b5b9060005260206000209060070201600501548152602001908152602001600020849080600181540180825580915050600190039060005260206000200160009091909190916101000a81548173ffffffffffffffffffffffffffffffffffffffff021916908373ffffffffffffffffffffffffffffffffffffffff160217905550601b6000601960008773ffffffffffffffffffffffffffffffffffffffff1673ffffffffffffffffffffffffffffffffffffffff1681526020019081526020016000208381548110611da857611da7612cef565b5b9060005260206000209060070201600501548152602001908152602001600020601960008673ffffffffffffffffffffffffffffffffffffffff1673ffffffffffffffffffffffffffffffffffffffff1681526020019081526020016000208281548110611e1957611e18612cef565b5b906000526020600020906007020190806001815401808255809150506001900390600052602060002090600702016000909190919091506000820160009054906101000a900473ffffffffffffffffffffffffffffffffffffffff168160000160006101000a81548173ffffffffffffffffffffffffffffffffffffffff021916908373ffffffffffffffffffffffffffffffffffffffff16021790555060018201548160010155600282015481600201556003820154816003015560048201548160040155600582015481600501556006820154816006015550506015601960008673ffffffffffffffffffffffffffffffffffffffff1673ffffffffffffffffffffffffffffffffffffffff1681526020019081526020016000208281548110611f4857611f47612cef565b5b906000526020600020906007020190806001815401808255809150506001900390600052602060002090600702016000909190919091506000820160009054906101000a900473ffffffffffffffffffffffffffffffffffffffff168160000160006101000a81548173ffffffffffffffffffffffffffffffffffffffff021916908373ffffffffffffffffffffffffffffffffffffffff16021790555060018201548160010155600282015481600201556003820154816003015560048201548160040155600582015481600501556006820154816006015550505b808061203090612d4d565b9150506117f0565b50808061204490612d4d565b91505061179f565b50505050565b47600d8190555060008060006001601a6000600b548152602001908152602001600020805490500361216d576120db601a6000600b5481526020019081526020016000206000815481106120a9576120a8612cef565b5b9060005260206000200160009054906101000a900473ffffffffffffffffffffffffffffffffffffffff16600161264e565b7f9c2270628a9b29d30ae96b6c4c14ed646ee134febdce38a5b77f2bde9cea2e20601a6000600b54815260200190815260200160002060008154811061212457612123612cef565b5b9060005260206000200160009054906101000a900473ffffffffffffffffffffffffffffffffffffffff16600b5460405161216092919061318f565b60405180910390a16125e4565b60005b601a6000600b5481526020019081526020016000208054905081101561230957601b6000600b54815260200190815260200160002081815481106121b7576121b6612cef565b5b90600052602060002090600702019150600a54826004015411156121ee57600a5482600401546121e791906131b8565b9250612203565b8160040154600a5461220091906131b8565b92505b6000810361221357829350612220565b8383101561221f578293505b5b601d600084815260200190815260200160002082600601549080600181540180825580915050600190039060005260206000200160009091909190915055601c60008481526020019081526020016000208260000160009054906101000a900473ffffffffffffffffffffffffffffffffffffffff169080600181540180825580915050600190039060005260206000200160009091909190916101000a81548173ffffffffffffffffffffffffffffffffffffffff021916908373ffffffffffffffffffffffffffffffffffffffff160217905550808061230190612d4d565b915050612170565b506001601c6000858152602001908152602001600020805490500361246c576017601d60008581526020019081526020016000206000815481106123505761234f612cef565b5b906000526020600020015490806001815401808255809150506001900390600052602060002001600090919091909150556123dc601c60008581526020019081526020016000206000815481106123aa576123a9612cef565b5b9060005260206000200160009054906101000a900473ffffffffffffffffffffffffffffffffffffffff16600161264e565b7f9c2270628a9b29d30ae96b6c4c14ed646ee134febdce38a5b77f2bde9cea2e20601c600085815260200190815260200160002060008154811061242357612422612cef565b5b9060005260206000200160009054906101000a900473ffffffffffffffffffffffffffffffffffffffff16600b5460405161245f92919061318f565b60405180910390a16125e3565b6000601c600085815260200190815260200160002080549050905060005b818110156125e0576017601d600087815260200190815260200160002082815481106124b9576124b8612cef565b5b90600052602060002001549080600181540180825580915050600190039060005260206000200160009091909190915055612543601c6000878152602001908152602001600020828154811061251257612511612cef565b5b9060005260206000200160009054906101000a900473ffffffffffffffffffffffffffffffffffffffff168361264e565b7f9c2270628a9b29d30ae96b6c4c14ed646ee134febdce38a5b77f2bde9cea2e20601c6000878152602001908152602001600020828154811061258957612588612cef565b5b9060005260206000200160009054906101000a900473ffffffffffffffffffffffffffffffffffffffff16600b546040516125c592919061318f565b60405180910390a180806125d890612d4d565b91505061248a565b50505b5b505050565b6000601260008154809291906125fe90612d4d565b9190505550620f424042858585601254604051602001612622959493929190613255565b6040516020818303038152906040528051906020012060001c61264591906132e3565b90509392505050565b600081600d5461265e9190613314565b905060008373ffffffffffffffffffffffffffffffffffffffff168260405161268690613376565b60006040518083038185875af1925050503d80600081146126c3576040519150601f19603f3d011682016040523d82523d6000602084013e6126c8565b606091505b505090508061270c576040517f08c379a0000000000000000000000000000000000000000000000000000000008152600401612703906133d7565b60405180910390fd5b7f31f01f46758b6b42c15b03a08187ad5b638ba4231ca58df20b00c5d53c2e1ac4848360018611866040516127449493929190613412565b60405180910390a150505050565b6040518060e00160405280600073ffffffffffffffffffffffffffffffffffffffff1681526020016000815260200160008152602001600081526020016000815260200160008152602001600081525090565b6000819050919050565b6127b8816127a5565b82525050565b60006020820190506127d360008301846127af565b92915050565b600081519050919050565b600082825260208201905092915050565b6000819050602082019050919050565b600073ffffffffffffffffffffffffffffffffffffffff82169050919050565b600061283082612805565b9050919050565b61284081612825565b82525050565b61284f816127a5565b82525050565b60e08201600082015161286b6000850182612837565b50602082015161287e6020850182612846565b5060408201516128916040850182612846565b5060608201516128a46060850182612846565b5060808201516128b76080850182612846565b5060a08201516128ca60a0850182612846565b5060c08201516128dd60c0850182612846565b50505050565b60006128ef8383612855565b60e08301905092915050565b6000602082019050919050565b6000612913826127d9565b61291d81856127e4565b9350612928836127f5565b8060005b8381101561295957815161294088826128e3565b975061294b836128fb565b92505060018101905061292c565b5085935050505092915050565b600060408201905081810360008301526129808185612908565b905061298f60208301846127af565b9392505050565b600080fd5b6129a481612825565b81146129af57600080fd5b50565b6000813590506129c18161299b565b92915050565b6129d0816127a5565b81146129db57600080fd5b50565b6000813590506129ed816129c7565b92915050565b60008060408385031215612a0a57612a09612996565b5b6000612a18858286016129b2565b9250506020612a29858286016129de565b9150509250929050565b612a3c81612825565b82525050565b600060e082019050612a57600083018a612a33565b612a6460208301896127af565b612a7160408301886127af565b612a7e60608301876127af565b612a8b60808301866127af565b612a9860a08301856127af565b612aa560c08301846127af565b98975050505050505050565b600060208284031215612ac757612ac6612996565b5b6000612ad5848285016129de565b91505092915050565b60008060408385031215612af557612af4612996565b5b6000612b03858286016129de565b9250506020612b14858286016129de565b9150509250929050565b60006020820190508181036000830152612b388184612908565b905092915050565b600081519050919050565b600082825260208201905092915050565b6000819050602082019050919050565b6000612b788383612846565b60208301905092915050565b6000602082019050919050565b6000612b9c82612b40565b612ba68185612b4b565b9350612bb183612b5c565b8060005b83811015612be2578151612bc98882612b6c565b9750612bd483612b84565b925050600181019050612bb5565b5085935050505092915050565b60006020820190508181036000830152612c098184612b91565b905092915050565b60008060008060808587031215612c2b57612c2a612996565b5b6000612c39878288016129de565b9450506020612c4a878288016129de565b9350506040612c5b878288016129de565b9250506060612c6c878288016129de565b91505092959194509250565b6000602082019050612c8d6000830184612a33565b92915050565b600060208284031215612ca957612ca8612996565b5b6000612cb7848285016129b2565b91505092915050565b7f4e487b7100000000000000000000000000000000000000000000000000000000600052604160045260246000fd5b7f4e487b7100000000000000000000000000000000000000000000000000000000600052603260045260246000fd5b7f4e487b7100000000000000000000000000000000000000000000000000000000600052601160045260246000fd5b6000612d58826127a5565b91507fffffffffffffffffffffffffffffffffffffffffffffffffffffffffffffffff8203612d8a57612d89612d1e565b5b600182019050919050565b600082825260208201905092915050565b7f4e6f7420617574686f72697a65642e0000000000000000000000000000000000600082015250565b6000612ddc600f83612d95565b9150612de782612da6565b602082019050919050565b60006020820190508181036000830152612e0b81612dcf565b9050919050565b7f43616e6e6f742073636f726520756e74696c204e6174696f6e616c204368616d60008201527f70696f6e7368697020686173206265656e20706c617965642e00000000000000602082015250565b6000612e6e603983612d95565b9150612e7982612e12565b604082019050919050565b60006020820190508181036000830152612e9d81612e61565b9050919050565b7f43616e6e6f742073636f726520756e74696c2053656d6966696e616c7320686160008201527f7665206265656e20706c617965642e0000000000000000000000000000000000602082015250565b6000612f00602f83612d95565b9150612f0b82612ea4565b604082019050919050565b60006020820190508181036000830152612f2f81612ef3565b9050919050565b7f496e636f727265637420656e747279206665652e000000000000000000000000600082015250565b6000612f6c601483612d95565b9150612f7782612f36565b602082019050919050565b60006020820190508181036000830152612f9b81612f5f565b9050919050565b7f4346502073656c656374696f6e732068617665206e6f74206265656e2066696e60008201527f616c697a65642e00000000000000000000000000000000000000000000000000602082015250565b6000612ffe602783612d95565b915061300982612fa2565b604082019050919050565b6000602082019050818103600083015261302d81612ff1565b9050919050565b7f456e74727920706572696f642068617320636c6f7365642e0000000000000000600082015250565b600061306a601883612d95565b915061307582613034565b602082019050919050565b600060208201905081810360008301526130998161305d565b9050919050565b7f4d6178696d756d20616d6f756e74206f6620656e74726965732072656163686560008201527f6420666f72207468697320616464726573732e00000000000000000000000000602082015250565b60006130fc603383612d95565b9150613107826130a0565b604082019050919050565b6000602082019050818103600083015261312b816130ef565b9050919050565b600061313d826127a5565b9150613148836127a5565b92508282019050808211156131605761315f612d1e565b5b92915050565b600060408201905061317b60008301856127af565b61318860208301846127af565b9392505050565b60006040820190506131a46000830185612a33565b6131b160208301846127af565b9392505050565b60006131c3826127a5565b91506131ce836127a5565b92508282039050818111156131e6576131e5612d1e565b5b92915050565b6000819050919050565b613207613202826127a5565b6131ec565b82525050565b60008160601b9050919050565b60006132258261320d565b9050919050565b60006132378261321a565b9050919050565b61324f61324a82612825565b61322c565b82525050565b600061326182886131f6565b602082019150613271828761323e565b60148201915061328182866131f6565b60208201915061329182856131f6565b6020820191506132a182846131f6565b6020820191508190509695505050505050565b7f4e487b7100000000000000000000000000000000000000000000000000000000600052601260045260246000fd5b60006132ee826127a5565b91506132f9836127a5565b925082613309576133086132b4565b5b828206905092915050565b600061331f826127a5565b915061332a836127a5565b92508261333a576133396132b4565b5b828204905092915050565b600081905092915050565b50565b6000613360600083613345565b915061336b82613350565b600082019050919050565b600061338182613353565b9150819050919050565b7f4661696c656420746f2073656e642077696e6e696e67732e0000000000000000600082015250565b60006133c1601883612d95565b91506133cc8261338b565b602082019050919050565b600060208201905081810360008301526133f0816133b4565b9050919050565b60008115159050919050565b61340c816133f7565b82525050565b60006080820190506134276000830187612a33565b61343460208301866127af565b6134416040830185613403565b61344e60608301846127af565b9594505050505056fea2646970667358221220e636de8c83a0bd1487a64e4bdd2c10d6183724d14c8f55dc1e77509d34e2e4eb64736f6c63430008140033","opcodes":"PUSH1 0x80 PUSH1 0x40 MSTORE PUSH1 0x1 PUSH1 0x12 SSTORE CALLVALUE DUP1 ISZERO PUSH3 0x16 JUMPI PUSH1 0x0 DUP1 REVERT JUMPDEST POP PUSH1 0x40 MLOAD PUSH3 0x36A5 CODESIZE SUB DUP1 PUSH3 0x36A5 DUP4 CODECOPY DUP2 DUP2 ADD PUSH1 0x40 MSTORE DUP2 ADD SWAP1 PUSH3 0x3C SWAP2 SWAP1 PUSH3 0x112 JUMP JUMPDEST CALLER PUSH1 0x0 DUP1 PUSH2 0x100 EXP DUP2 SLOAD DUP2 PUSH20 0xFFFFFFFFFFFFFFFFFFFFFFFFFFFFFFFFFFFFFFFF MUL NOT AND SWAP1 DUP4 PUSH20 0xFFFFFFFFFFFFFFFFFFFFFFFFFFFFFFFFFFFFFFFF AND MUL OR SWAP1 SSTORE POP DUP10 PUSH1 0x1 DUP2 SWAP1 SSTORE POP DUP9 PUSH1 0x2 DUP2 SWAP1 SSTORE POP DUP8 PUSH1 0x3 DUP2 SWAP1 SSTORE POP DUP7 PUSH1 0x4 DUP2 SWAP1 SSTORE POP DUP6 PUSH1 0x5 DUP2 SWAP1 SSTORE POP DUP5 PUSH1 0x6 DUP2 SWAP1 SSTORE POP DUP4 PUSH1 0xE DUP2 SWAP1 SSTORE POP DUP3 PUSH1 0xF DUP2 SWAP1 SSTORE POP DUP2 PUSH1 0x10 DUP2 SWAP1 SSTORE POP DUP1 PUSH1 0x11 DUP2 SWAP1 SSTORE POP POP POP POP POP POP POP POP POP POP POP PUSH3 0x208 JUMP JUMPDEST PUSH1 0x0 DUP1 REVERT JUMPDEST PUSH1 0x0 DUP2 SWAP1 POP SWAP2 SWAP1 POP JUMP JUMPDEST PUSH3 0xEC DUP2 PUSH3 0xD7 JUMP JUMPDEST DUP2 EQ PUSH3 0xF8 JUMPI PUSH1 0x0 DUP1 REVERT JUMPDEST POP JUMP JUMPDEST PUSH1 0x0 DUP2 MLOAD SWAP1 POP PUSH3 0x10C DUP2 PUSH3 0xE1 JUMP JUMPDEST SWAP3 SWAP2 POP POP JUMP JUMPDEST PUSH1 0x0 DUP1 PUSH1 0x0 DUP1 PUSH1 0x0 DUP1 PUSH1 0x0 DUP1 PUSH1 0x0 DUP1 PUSH2 0x140 DUP12 DUP14 SUB SLT ISZERO PUSH3 0x139 JUMPI PUSH3 0x138 PUSH3 0xD2 JUMP JUMPDEST JUMPDEST PUSH1 0x0 PUSH3 0x149 DUP14 DUP3 DUP15 ADD PUSH3 0xFB JUMP JUMPDEST SWAP11 POP POP PUSH1 0x20 PUSH3 0x15C DUP14 DUP3 DUP15 ADD PUSH3 0xFB JUMP JUMPDEST SWAP10 POP POP PUSH1 0x40 PUSH3 0x16F DUP14 DUP3 DUP15 ADD PUSH3 0xFB JUMP JUMPDEST SWAP9 POP POP PUSH1 0x60 PUSH3 0x182 DUP14 DUP3 DUP15 ADD PUSH3 0xFB JUMP JUMPDEST SWAP8 POP POP PUSH1 0x80 PUSH3 0x195 DUP14 DUP3 DUP15 ADD PUSH3 0xFB JUMP JUMPDEST SWAP7 POP POP PUSH1 0xA0 PUSH3 0x1A8 DUP14 DUP3 DUP15 ADD PUSH3 0xFB JUMP JUMPDEST SWAP6 POP POP PUSH1 0xC0 PUSH3 0x1BB DUP14 DUP3 DUP15 ADD PUSH3 0xFB JUMP JUMPDEST SWAP5 POP POP PUSH1 0xE0 PUSH3 0x1CE DUP14 DUP3 DUP15 ADD PUSH3 0xFB JUMP JUMPDEST SWAP4 POP POP PUSH2 0x100 PUSH3 0x1E2 DUP14 DUP3 DUP15 ADD PUSH3 0xFB JUMP JUMPDEST SWAP3 POP POP PUSH2 0x120 PUSH3 0x1F6 DUP14 DUP3 DUP15 ADD PUSH3 0xFB JUMP JUMPDEST SWAP2 POP POP SWAP3 SWAP6 SWAP9 SWAP12 SWAP2 SWAP5 SWAP8 SWAP11 POP SWAP3 SWAP6 SWAP9 POP JUMP JUMPDEST PUSH2 0x348D DUP1 PUSH3 0x218 PUSH1 0x0 CODECOPY PUSH1 0x0 RETURN INVALID PUSH1 0x80 PUSH1 0x40 MSTORE PUSH1 0x4 CALLDATASIZE LT PUSH2 0x20F JUMPI PUSH1 0x0 CALLDATALOAD PUSH1 0xE0 SHR DUP1 PUSH4 0xA1FCA2B6 GT PUSH2 0x118 JUMPI DUP1 PUSH4 0xCF92A0C7 GT PUSH2 0xA0 JUMPI DUP1 PUSH4 0xE7B4E5AB GT PUSH2 0x6F JUMPI DUP1 PUSH4 0xE7B4E5AB EQ PUSH2 0x7F7 JUMPI DUP1 PUSH4 0xF1894498 EQ PUSH2 0x834 JUMPI DUP1 PUSH4 0xF23F3BA5 EQ PUSH2 0x85F JUMPI DUP1 PUSH4 0xF29EE125 EQ PUSH2 0x88A JUMPI DUP1 PUSH4 0xFFE81DA8 EQ PUSH2 0x8C7 JUMPI PUSH2 0x20F JUMP JUMPDEST DUP1 PUSH4 0xCF92A0C7 EQ PUSH2 0x70F JUMPI DUP1 PUSH4 0xD60DAC3D EQ PUSH2 0x752 JUMPI DUP1 PUSH4 0xDD917B29 EQ PUSH2 0x77D JUMPI DUP1 PUSH4 0xE3CDDA39 EQ PUSH2 0x7BA JUMPI PUSH2 0x20F JUMP JUMPDEST DUP1 PUSH4 0xB7CE8A99 GT PUSH2 0xE7 JUMPI DUP1 PUSH4 0xB7CE8A99 EQ PUSH2 0x620 JUMPI DUP1 PUSH4 0xBE6B3337 EQ PUSH2 0x64B JUMPI DUP1 PUSH4 0xC37996F1 EQ PUSH2 0x676 JUMPI DUP1 PUSH4 0xCC789085 EQ PUSH2 0x6B9 JUMPI DUP1 PUSH4 0xCF065419 EQ PUSH2 0x6E4 JUMPI PUSH2 0x20F JUMP JUMPDEST DUP1 PUSH4 0xA1FCA2B6 EQ PUSH2 0x562 JUMPI DUP1 PUSH4 0xA337A604 EQ PUSH2 0x58D JUMPI DUP1 PUSH4 0xAA082A9D EQ PUSH2 0x5CA JUMPI DUP1 PUSH4 0xB544BF83 EQ PUSH2 0x5F5 JUMPI PUSH2 0x20F JUMP JUMPDEST DUP1 PUSH4 0x4D3C3A41 GT PUSH2 0x19B JUMPI DUP1 PUSH4 0x7FEF036E GT PUSH2 0x16A JUMPI DUP1 PUSH4 0x7FEF036E EQ PUSH2 0x48A JUMPI DUP1 PUSH4 0x88C113D6 EQ PUSH2 0x4B5 JUMPI DUP1 PUSH4 0x901717D1 EQ PUSH2 0x4F2 JUMPI DUP1 PUSH4 0x931E55AA EQ PUSH2 0x51D JUMPI DUP1 PUSH4 0x98F6A197 EQ PUSH2 0x546 JUMPI PUSH2 0x20F JUMP JUMPDEST DUP1 PUSH4 0x4D3C3A41 EQ PUSH2 0x3C6 JUMPI DUP1 PUSH4 0x5FDF05D7 EQ PUSH2 0x409 JUMPI DUP1 PUSH4 0x61E01356 EQ PUSH2 0x434 JUMPI DUP1 PUSH4 0x75662E96 EQ PUSH2 0x45F JUMPI PUSH2 0x20F JUMP JUMPDEST DUP1 PUSH4 0x443E4A39 GT PUSH2 0x1E2 JUMPI DUP1 PUSH4 0x443E4A39 EQ PUSH2 0x2F1 JUMPI DUP1 PUSH4 0x44866955 EQ PUSH2 0x31A JUMPI DUP1 PUSH4 0x45CAA117 EQ PUSH2 0x345 JUMPI DUP1 PUSH4 0x4A0364E8 EQ PUSH2 0x370 JUMPI DUP1 PUSH4 0x4BA2363A EQ PUSH2 0x39B JUMPI PUSH2 0x20F JUMP JUMPDEST DUP1 PUSH4 0x72EA61C EQ PUSH2 0x214 JUMPI DUP1 PUSH4 0x18901B71 EQ PUSH2 0x23F JUMPI DUP1 PUSH4 0x34FF5644 EQ PUSH2 0x26B JUMPI DUP1 PUSH4 0x3BCA800F EQ PUSH2 0x2AE JUMPI JUMPDEST PUSH1 0x0 DUP1 REVERT JUMPDEST CALLVALUE DUP1 ISZERO PUSH2 0x220 JUMPI PUSH1 0x0 DUP1 REVERT JUMPDEST POP PUSH2 0x229 PUSH2 0x8F2 JUMP JUMPDEST PUSH1 0x40 MLOAD PUSH2 0x236 SWAP2 SWAP1 PUSH2 0x27BE JUMP JUMPDEST PUSH1 0x40 MLOAD DUP1 SWAP2 SUB SWAP1 RETURN JUMPDEST CALLVALUE DUP1 ISZERO PUSH2 0x24B JUMPI PUSH1 0x0 DUP1 REVERT JUMPDEST POP PUSH2 0x254 PUSH2 0x8F8 JUMP JUMPDEST PUSH1 0x40 MLOAD PUSH2 0x262 SWAP3 SWAP2 SWAP1 PUSH2 0x2966 JUMP JUMPDEST PUSH1 0x40 MLOAD DUP1 SWAP2 SUB SWAP1 RETURN JUMPDEST CALLVALUE DUP1 ISZERO PUSH2 0x277 JUMPI PUSH1 0x0 DUP1 REVERT JUMPDEST POP PUSH2 0x292 PUSH1 0x4 DUP1 CALLDATASIZE SUB DUP2 ADD SWAP1 PUSH2 0x28D SWAP2 SWAP1 PUSH2 0x29F3 JUMP JUMPDEST PUSH2 0xAE4 JUMP JUMPDEST PUSH1 0x40 MLOAD PUSH2 0x2A5 SWAP8 SWAP7 SWAP6 SWAP5 SWAP4 SWAP3 SWAP2 SWAP1 PUSH2 0x2A42 JUMP JUMPDEST PUSH1 0x40 MLOAD DUP1 SWAP2 SUB SWAP1 RETURN JUMPDEST CALLVALUE DUP1 ISZERO PUSH2 0x2BA JUMPI PUSH1 0x0 DUP1 REVERT JUMPDEST POP PUSH2 0x2D5 PUSH1 0x4 DUP1 CALLDATASIZE SUB DUP2 ADD SWAP1 PUSH2 0x2D0 SWAP2 SWAP1 PUSH2 0x2AB1 JUMP JUMPDEST PUSH2 0xB63 JUMP JUMPDEST PUSH1 0x40 MLOAD PUSH2 0x2E8 SWAP8 SWAP7 SWAP6 SWAP5 SWAP4 SWAP3 SWAP2 SWAP1 PUSH2 0x2A42 JUMP JUMPDEST PUSH1 0x40 MLOAD DUP1 SWAP2 SUB SWAP1 RETURN JUMPDEST CALLVALUE DUP1 ISZERO PUSH2 0x2FD JUMPI PUSH1 0x0 DUP1 REVERT JUMPDEST POP PUSH2 0x318 PUSH1 0x4 DUP1 CALLDATASIZE SUB DUP2 ADD SWAP1 PUSH2 0x313 SWAP2 SWAP1 PUSH2 0x2ADE JUMP JUMPDEST PUSH2 0xBD5 JUMP JUMPDEST STOP JUMPDEST CALLVALUE DUP1 ISZERO PUSH2 0x326 JUMPI PUSH1 0x0 DUP1 REVERT JUMPDEST POP PUSH2 0x32F PUSH2 0xCCC JUMP JUMPDEST PUSH1 0x40 MLOAD PUSH2 0x33C SWAP2 SWAP1 PUSH2 0x27BE JUMP JUMPDEST PUSH1 0x40 MLOAD DUP1 SWAP2 SUB SWAP1 RETURN JUMPDEST CALLVALUE DUP1 ISZERO PUSH2 0x351 JUMPI PUSH1 0x0 DUP1 REVERT JUMPDEST POP PUSH2 0x35A PUSH2 0xCD2 JUMP JUMPDEST PUSH1 0x40 MLOAD PUSH2 0x367 SWAP2 SWAP1 PUSH2 0x27BE JUMP JUMPDEST PUSH1 0x40 MLOAD DUP1 SWAP2 SUB SWAP1 RETURN JUMPDEST CALLVALUE DUP1 ISZERO PUSH2 0x37C JUMPI PUSH1 0x0 DUP1 REVERT JUMPDEST POP PUSH2 0x385 PUSH2 0xCD8 JUMP JUMPDEST PUSH1 0x40 MLOAD PUSH2 0x392 SWAP2 SWAP1 PUSH2 0x2B1E JUMP JUMPDEST PUSH1 0x40 MLOAD DUP1 SWAP2 SUB SWAP1 RETURN JUMPDEST CALLVALUE DUP1 ISZERO PUSH2 0x3A7 JUMPI PUSH1 0x0 DUP1 REVERT JUMPDEST POP PUSH2 0x3B0 PUSH2 0xE72 JUMP JUMPDEST PUSH1 0x40 MLOAD PUSH2 0x3BD SWAP2 SWAP1 PUSH2 0x27BE JUMP JUMPDEST PUSH1 0x40 MLOAD DUP1 SWAP2 SUB SWAP1 RETURN JUMPDEST CALLVALUE DUP1 ISZERO PUSH2 0x3D2 JUMPI PUSH1 0x0 DUP1 REVERT JUMPDEST POP PUSH2 0x3ED PUSH1 0x4 DUP1 CALLDATASIZE SUB DUP2 ADD SWAP1 PUSH2 0x3E8 SWAP2 SWAP1 PUSH2 0x2ADE JUMP JUMPDEST PUSH2 0xE78 JUMP JUMPDEST PUSH1 0x40 MLOAD PUSH2 0x400 SWAP8 SWAP7 SWAP6 SWAP5 SWAP4 SWAP3 SWAP2 SWAP1 PUSH2 0x2A42 JUMP JUMPDEST PUSH1 0x40 MLOAD DUP1 SWAP2 SUB SWAP1 RETURN JUMPDEST CALLVALUE DUP1 ISZERO PUSH2 0x415 JUMPI PUSH1 0x0 DUP1 REVERT JUMPDEST POP PUSH2 0x41E PUSH2 0xEF7 JUMP JUMPDEST PUSH1 0x40 MLOAD PUSH2 0x42B SWAP2 SWAP1 PUSH2 0x27BE JUMP JUMPDEST PUSH1 0x40 MLOAD DUP1 SWAP2 SUB SWAP1 RETURN JUMPDEST CALLVALUE DUP1 ISZERO PUSH2 0x440 JUMPI PUSH1 0x0 DUP1 REVERT JUMPDEST POP PUSH2 0x449 PUSH2 0xEFD JUMP JUMPDEST PUSH1 0x40 MLOAD PUSH2 0x456 SWAP2 SWAP1 PUSH2 0x27BE JUMP JUMPDEST PUSH1 0x40 MLOAD DUP1 SWAP2 SUB SWAP1 RETURN JUMPDEST CALLVALUE DUP1 ISZERO PUSH2 0x46B JUMPI PUSH1 0x0 DUP1 REVERT JUMPDEST POP PUSH2 0x474 PUSH2 0xF03 JUMP JUMPDEST PUSH1 0x40 MLOAD PUSH2 0x481 SWAP2 SWAP1 PUSH2 0x2BEF JUMP JUMPDEST PUSH1 0x40 MLOAD DUP1 SWAP2 SUB SWAP1 RETURN JUMPDEST CALLVALUE DUP1 ISZERO PUSH2 0x496 JUMPI PUSH1 0x0 DUP1 REVERT JUMPDEST POP PUSH2 0x49F PUSH2 0xF5B JUMP JUMPDEST PUSH1 0x40 MLOAD PUSH2 0x4AC SWAP2 SWAP1 PUSH2 0x27BE JUMP JUMPDEST PUSH1 0x40 MLOAD DUP1 SWAP2 SUB SWAP1 RETURN JUMPDEST CALLVALUE DUP1 ISZERO PUSH2 0x4C1 JUMPI PUSH1 0x0 DUP1 REVERT JUMPDEST POP PUSH2 0x4DC PUSH1 0x4 DUP1 CALLDATASIZE SUB DUP2 ADD SWAP1 PUSH2 0x4D7 SWAP2 SWAP1 PUSH2 0x2AB1 JUMP JUMPDEST PUSH2 0xF61 JUMP JUMPDEST PUSH1 0x40 MLOAD PUSH2 0x4E9 SWAP2 SWAP1 PUSH2 0x27BE JUMP JUMPDEST PUSH1 0x40 MLOAD DUP1 SWAP2 SUB SWAP1 RETURN JUMPDEST CALLVALUE DUP1 ISZERO PUSH2 0x4FE JUMPI PUSH1 0x0 DUP1 REVERT JUMPDEST POP PUSH2 0x507 PUSH2 0xF85 JUMP JUMPDEST PUSH1 0x40 MLOAD PUSH2 0x514 SWAP2 SWAP1 PUSH2 0x27BE JUMP JUMPDEST PUSH1 0x40 MLOAD DUP1 SWAP2 SUB SWAP1 RETURN JUMPDEST CALLVALUE DUP1 ISZERO PUSH2 0x529 JUMPI PUSH1 0x0 DUP1 REVERT JUMPDEST POP PUSH2 0x544 PUSH1 0x4 DUP1 CALLDATASIZE SUB DUP2 ADD SWAP1 PUSH2 0x53F SWAP2 SWAP1 PUSH2 0x2ADE JUMP JUMPDEST PUSH2 0xF8B JUMP JUMPDEST STOP JUMPDEST PUSH2 0x560 PUSH1 0x4 DUP1 CALLDATASIZE SUB DUP2 ADD SWAP1 PUSH2 0x55B SWAP2 SWAP1 PUSH2 0x2C11 JUMP JUMPDEST PUSH2 0x107A JUMP JUMPDEST STOP JUMPDEST CALLVALUE DUP1 ISZERO PUSH2 0x56E JUMPI PUSH1 0x0 DUP1 REVERT JUMPDEST POP PUSH2 0x577 PUSH2 0x1531 JUMP JUMPDEST PUSH1 0x40 MLOAD PUSH2 0x584 SWAP2 SWAP1 PUSH2 0x27BE JUMP JUMPDEST PUSH1 0x40 MLOAD DUP1 SWAP2 SUB SWAP1 RETURN JUMPDEST CALLVALUE DUP1 ISZERO PUSH2 0x599 JUMPI PUSH1 0x0 DUP1 REVERT JUMPDEST POP PUSH2 0x5B4 PUSH1 0x4 DUP1 CALLDATASIZE SUB DUP2 ADD SWAP1 PUSH2 0x5AF SWAP2 SWAP1 PUSH2 0x2ADE JUMP JUMPDEST PUSH2 0x1537 JUMP JUMPDEST PUSH1 0x40 MLOAD PUSH2 0x5C1 SWAP2 SWAP1 PUSH2 0x27BE JUMP JUMPDEST PUSH1 0x40 MLOAD DUP1 SWAP2 SUB SWAP1 RETURN JUMPDEST CALLVALUE DUP1 ISZERO PUSH2 0x5D6 JUMPI PUSH1 0x0 DUP1 REVERT JUMPDEST POP PUSH2 0x5DF PUSH2 0x1568 JUMP JUMPDEST PUSH1 0x40 MLOAD PUSH2 0x5EC SWAP2 SWAP1 PUSH2 0x27BE JUMP JUMPDEST PUSH1 0x40 MLOAD DUP1 SWAP2 SUB SWAP1 RETURN JUMPDEST CALLVALUE DUP1 ISZERO PUSH2 0x601 JUMPI PUSH1 0x0 DUP1 REVERT JUMPDEST POP PUSH2 0x60A PUSH2 0x156E JUMP JUMPDEST PUSH1 0x40 MLOAD PUSH2 0x617 SWAP2 SWAP1 PUSH2 0x27BE JUMP JUMPDEST PUSH1 0x40 MLOAD DUP1 SWAP2 SUB SWAP1 RETURN JUMPDEST CALLVALUE DUP1 ISZERO PUSH2 0x62C JUMPI PUSH1 0x0 DUP1 REVERT JUMPDEST POP PUSH2 0x635 PUSH2 0x1574 JUMP JUMPDEST PUSH1 0x40 MLOAD PUSH2 0x642 SWAP2 SWAP1 PUSH2 0x27BE JUMP JUMPDEST PUSH1 0x40 MLOAD DUP1 SWAP2 SUB SWAP1 RETURN JUMPDEST CALLVALUE DUP1 ISZERO PUSH2 0x657 JUMPI PUSH1 0x0 DUP1 REVERT JUMPDEST POP PUSH2 0x660 PUSH2 0x157A JUMP JUMPDEST PUSH1 0x40 MLOAD PUSH2 0x66D SWAP2 SWAP1 PUSH2 0x27BE JUMP JUMPDEST PUSH1 0x40 MLOAD DUP1 SWAP2 SUB SWAP1 RETURN JUMPDEST CALLVALUE DUP1 ISZERO PUSH2 0x682 JUMPI PUSH1 0x0 DUP1 REVERT JUMPDEST POP PUSH2 0x69D PUSH1 0x4 DUP1 CALLDATASIZE SUB DUP2 ADD SWAP1 PUSH2 0x698 SWAP2 SWAP1 PUSH2 0x2AB1 JUMP JUMPDEST PUSH2 0x1580 JUMP JUMPDEST PUSH1 0x40 MLOAD PUSH2 0x6B0 SWAP8 SWAP7 SWAP6 SWAP5 SWAP4 SWAP3 SWAP2 SWAP1 PUSH2 0x2A42 JUMP JUMPDEST PUSH1 0x40 MLOAD DUP1 SWAP2 SUB SWAP1 RETURN JUMPDEST CALLVALUE DUP1 ISZERO PUSH2 0x6C5 JUMPI PUSH1 0x0 DUP1 REVERT JUMPDEST POP PUSH2 0x6CE PUSH2 0x15F2 JUMP JUMPDEST PUSH1 0x40 MLOAD PUSH2 0x6DB SWAP2 SWAP1 PUSH2 0x27BE JUMP JUMPDEST PUSH1 0x40 MLOAD DUP1 SWAP2 SUB SWAP1 RETURN JUMPDEST CALLVALUE DUP1 ISZERO PUSH2 0x6F0 JUMPI PUSH1 0x0 DUP1 REVERT JUMPDEST POP PUSH2 0x6F9 PUSH2 0x15F8 JUMP JUMPDEST PUSH1 0x40 MLOAD PUSH2 0x706 SWAP2 SWAP1 PUSH2 0x27BE JUMP JUMPDEST PUSH1 0x40 MLOAD DUP1 SWAP2 SUB SWAP1 RETURN JUMPDEST CALLVALUE DUP1 ISZERO PUSH2 0x71B JUMPI PUSH1 0x0 DUP1 REVERT JUMPDEST POP PUSH2 0x736 PUSH1 0x4 DUP1 CALLDATASIZE SUB DUP2 ADD SWAP1 PUSH2 0x731 SWAP2 SWAP1 PUSH2 0x2AB1 JUMP JUMPDEST PUSH2 0x15FE JUMP JUMPDEST PUSH1 0x40 MLOAD PUSH2 0x749 SWAP8 SWAP7 SWAP6 SWAP5 SWAP4 SWAP3 SWAP2 SWAP1 PUSH2 0x2A42 JUMP JUMPDEST PUSH1 0x40 MLOAD DUP1 SWAP2 SUB SWAP1 RETURN JUMPDEST CALLVALUE DUP1 ISZERO PUSH2 0x75E JUMPI PUSH1 0x0 DUP1 REVERT JUMPDEST POP PUSH2 0x767 PUSH2 0x1670 JUMP JUMPDEST PUSH1 0x40 MLOAD PUSH2 0x774 SWAP2 SWAP1 PUSH2 0x27BE JUMP JUMPDEST PUSH1 0x40 MLOAD DUP1 SWAP2 SUB SWAP1 RETURN JUMPDEST CALLVALUE DUP1 ISZERO PUSH2 0x789 JUMPI PUSH1 0x0 DUP1 REVERT JUMPDEST POP PUSH2 0x7A4 PUSH1 0x4 DUP1 CALLDATASIZE SUB DUP2 ADD SWAP1 PUSH2 0x79F SWAP2 SWAP1 PUSH2 0x2ADE JUMP JUMPDEST PUSH2 0x1676 JUMP JUMPDEST PUSH1 0x40 MLOAD PUSH2 0x7B1 SWAP2 SWAP1 PUSH2 0x2C78 JUMP JUMPDEST PUSH1 0x40 MLOAD DUP1 SWAP2 SUB SWAP1 RETURN JUMPDEST CALLVALUE DUP1 ISZERO PUSH2 0x7C6 JUMPI PUSH1 0x0 DUP1 REVERT JUMPDEST POP PUSH2 0x7E1 PUSH1 0x4 DUP1 CALLDATASIZE SUB DUP2 ADD SWAP1 PUSH2 0x7DC SWAP2 SWAP1 PUSH2 0x2ADE JUMP JUMPDEST PUSH2 0x16C4 JUMP JUMPDEST PUSH1 0x40 MLOAD PUSH2 0x7EE SWAP2 SWAP1 PUSH2 0x2C78 JUMP JUMPDEST PUSH1 0x40 MLOAD DUP1 SWAP2 SUB SWAP1 RETURN JUMPDEST CALLVALUE DUP1 ISZERO PUSH2 0x803 JUMPI PUSH1 0x0 DUP1 REVERT JUMPDEST POP PUSH2 0x81E PUSH1 0x4 DUP1 CALLDATASIZE SUB DUP2 ADD SWAP1 PUSH2 0x819 SWAP2 SWAP1 PUSH2 0x2AB1 JUMP JUMPDEST PUSH2 0x1712 JUMP JUMPDEST PUSH1 0x40 MLOAD PUSH2 0x82B SWAP2 SWAP1 PUSH2 0x2C78 JUMP JUMPDEST PUSH1 0x40 MLOAD DUP1 SWAP2 SUB SWAP1 RETURN JUMPDEST CALLVALUE DUP1 ISZERO PUSH2 0x840 JUMPI PUSH1 0x0 DUP1 REVERT JUMPDEST POP PUSH2 0x849 PUSH2 0x1751 JUMP JUMPDEST PUSH1 0x40 MLOAD PUSH2 0x856 SWAP2 SWAP1 PUSH2 0x2C78 JUMP JUMPDEST PUSH1 0x40 MLOAD DUP1 SWAP2 SUB SWAP1 RETURN JUMPDEST CALLVALUE DUP1 ISZERO PUSH2 0x86B JUMPI PUSH1 0x0 DUP1 REVERT JUMPDEST POP PUSH2 0x874 PUSH2 0x1775 JUMP JUMPDEST PUSH1 0x40 MLOAD PUSH2 0x881 SWAP2 SWAP1 PUSH2 0x27BE JUMP JUMPDEST PUSH1 0x40 MLOAD DUP1 SWAP2 SUB SWAP1 RETURN JUMPDEST CALLVALUE DUP1 ISZERO PUSH2 0x896 JUMPI PUSH1 0x0 DUP1 REVERT JUMPDEST POP PUSH2 0x8B1 PUSH1 0x4 DUP1 CALLDATASIZE SUB DUP2 ADD SWAP1 PUSH2 0x8AC SWAP2 SWAP1 PUSH2 0x2C93 JUMP JUMPDEST PUSH2 0x177B JUMP JUMPDEST PUSH1 0x40 MLOAD PUSH2 0x8BE SWAP2 SWAP1 PUSH2 0x27BE JUMP JUMPDEST PUSH1 0x40 MLOAD DUP1 SWAP2 SUB SWAP1 RETURN JUMPDEST CALLVALUE DUP1 ISZERO PUSH2 0x8D3 JUMPI PUSH1 0x0 DUP1 REVERT JUMPDEST POP PUSH2 0x8DC PUSH2 0x1793 JUMP JUMPDEST PUSH1 0x40 MLOAD PUSH2 0x8E9 SWAP2 SWAP1 PUSH2 0x27BE JUMP JUMPDEST PUSH1 0x40 MLOAD DUP1 SWAP2 SUB SWAP1 RETURN JUMPDEST PUSH1 0x1 SLOAD DUP2 JUMP JUMPDEST PUSH1 0x60 PUSH1 0x0 DUP1 PUSH1 0x19 PUSH1 0x0 CALLER PUSH20 0xFFFFFFFFFFFFFFFFFFFFFFFFFFFFFFFFFFFFFFFF AND PUSH20 0xFFFFFFFFFFFFFFFFFFFFFFFFFFFFFFFFFFFFFFFF AND DUP2 MSTORE PUSH1 0x20 ADD SWAP1 DUP2 MSTORE PUSH1 0x20 ADD PUSH1 0x0 KECCAK256 SWAP1 POP PUSH1 0x0 DUP2 DUP1 SLOAD SWAP1 POP PUSH8 0xFFFFFFFFFFFFFFFF DUP2 GT ISZERO PUSH2 0x95E JUMPI PUSH2 0x95D PUSH2 0x2CC0 JUMP JUMPDEST JUMPDEST PUSH1 0x40 MLOAD SWAP1 DUP1 DUP3 MSTORE DUP1 PUSH1 0x20 MUL PUSH1 0x20 ADD DUP3 ADD PUSH1 0x40 MSTORE DUP1 ISZERO PUSH2 0x997 JUMPI DUP2 PUSH1 0x20 ADD JUMPDEST PUSH2 0x984 PUSH2 0x2752 JUMP JUMPDEST DUP2 MSTORE PUSH1 0x20 ADD SWAP1 PUSH1 0x1 SWAP1 SUB SWAP1 DUP2 PUSH2 0x97C JUMPI SWAP1 POP JUMPDEST POP SWAP1 POP PUSH1 0x0 JUMPDEST DUP3 DUP1 SLOAD SWAP1 POP DUP2 LT ISZERO PUSH2 0xA98 JUMPI DUP3 DUP2 DUP2 SLOAD DUP2 LT PUSH2 0x9BC JUMPI PUSH2 0x9BB PUSH2 0x2CEF JUMP JUMPDEST JUMPDEST SWAP1 PUSH1 0x0 MSTORE PUSH1 0x20 PUSH1 0x0 KECCAK256 SWAP1 PUSH1 0x7 MUL ADD PUSH1 0x40 MLOAD DUP1 PUSH1 0xE0 ADD PUSH1 0x40 MSTORE SWAP1 DUP2 PUSH1 0x0 DUP3 ADD PUSH1 0x0 SWAP1 SLOAD SWAP1 PUSH2 0x100 EXP SWAP1 DIV PUSH20 0xFFFFFFFFFFFFFFFFFFFFFFFFFFFFFFFFFFFFFFFF AND PUSH20 0xFFFFFFFFFFFFFFFFFFFFFFFFFFFFFFFFFFFFFFFF AND PUSH20 0xFFFFFFFFFFFFFFFFFFFFFFFFFFFFFFFFFFFFFFFF AND DUP2 MSTORE PUSH1 0x20 ADD PUSH1 0x1 DUP3 ADD SLOAD DUP2 MSTORE PUSH1 0x20 ADD PUSH1 0x2 DUP3 ADD SLOAD DUP2 MSTORE PUSH1 0x20 ADD PUSH1 0x3 DUP3 ADD SLOAD DUP2 MSTORE PUSH1 0x20 ADD PUSH1 0x4 DUP3 ADD SLOAD DUP2 MSTORE PUSH1 0x20 ADD PUSH1 0x5 DUP3 ADD SLOAD DUP2 MSTORE PUSH1 0x20 ADD PUSH1 0x6 DUP3 ADD SLOAD DUP2 MSTORE POP POP DUP3 DUP3 DUP2 MLOAD DUP2 LT PUSH2 0xA7A JUMPI PUSH2 0xA79 PUSH2 0x2CEF JUMP JUMPDEST JUMPDEST PUSH1 0x20 MUL PUSH1 0x20 ADD ADD DUP2 SWAP1 MSTORE POP DUP1 DUP1 PUSH2 0xA90 SWAP1 PUSH2 0x2D4D JUMP JUMPDEST SWAP2 POP POP PUSH2 0x99D JUMP JUMPDEST POP DUP1 PUSH1 0x18 PUSH1 0x0 CALLER PUSH20 0xFFFFFFFFFFFFFFFFFFFFFFFFFFFFFFFFFFFFFFFF AND PUSH20 0xFFFFFFFFFFFFFFFFFFFFFFFFFFFFFFFFFFFFFFFF AND DUP2 MSTORE PUSH1 0x20 ADD SWAP1 DUP2 MSTORE PUSH1 0x20 ADD PUSH1 0x0 KECCAK256 SLOAD SWAP4 POP SWAP4 POP POP POP SWAP1 SWAP2 JUMP JUMPDEST PUSH1 0x19 PUSH1 0x20 MSTORE DUP2 PUSH1 0x0 MSTORE PUSH1 0x40 PUSH1 0x0 KECCAK256 DUP2 DUP2 SLOAD DUP2 LT PUSH2 0xB00 JUMPI PUSH1 0x0 DUP1 REVERT JUMPDEST SWAP1 PUSH1 0x0 MSTORE PUSH1 0x20 PUSH1 0x0 KECCAK256 SWAP1 PUSH1 0x7 MUL ADD PUSH1 0x0 SWAP2 POP SWAP2 POP POP DUP1 PUSH1 0x0 ADD PUSH1 0x0 SWAP1 SLOAD SWAP1 PUSH2 0x100 EXP SWAP1 DIV PUSH20 0xFFFFFFFFFFFFFFFFFFFFFFFFFFFFFFFFFFFFFFFF AND SWAP1 DUP1 PUSH1 0x1 ADD SLOAD SWAP1 DUP1 PUSH1 0x2 ADD SLOAD SWAP1 DUP1 PUSH1 0x3 ADD SLOAD SWAP1 DUP1 PUSH1 0x4 ADD SLOAD SWAP1 DUP1 PUSH1 0x5 ADD SLOAD SWAP1 DUP1 PUSH1 0x6 ADD SLOAD SWAP1 POP DUP8 JUMP JUMPDEST PUSH1 0x15 DUP2 DUP2 SLOAD DUP2 LT PUSH2 0xB73 JUMPI PUSH1 0x0 DUP1 REVERT JUMPDEST SWAP1 PUSH1 0x0 MSTORE PUSH1 0x20 PUSH1 0x0 KECCAK256 SWAP1 PUSH1 0x7 MUL ADD PUSH1 0x0 SWAP2 POP SWAP1 POP DUP1 PUSH1 0x0 ADD PUSH1 0x0 SWAP1 SLOAD SWAP1 PUSH2 0x100 EXP SWAP1 DIV PUSH20 0xFFFFFFFFFFFFFFFFFFFFFFFFFFFFFFFFFFFFFFFF AND SWAP1 DUP1 PUSH1 0x1 ADD SLOAD SWAP1 DUP1 PUSH1 0x2 ADD SLOAD SWAP1 DUP1 PUSH1 0x3 ADD SLOAD SWAP1 DUP1 PUSH1 0x4 ADD SLOAD SWAP1 DUP1 PUSH1 0x5 ADD SLOAD SWAP1 DUP1 PUSH1 0x6 ADD SLOAD SWAP1 POP DUP8 JUMP JUMPDEST PUSH1 0x0 DUP1 SLOAD SWAP1 PUSH2 0x100 EXP SWAP1 DIV PUSH20 0xFFFFFFFFFFFFFFFFFFFFFFFFFFFFFFFFFFFFFFFF AND PUSH20 0xFFFFFFFFFFFFFFFFFFFFFFFFFFFFFFFFFFFFFFFF AND CALLER PUSH20 0xFFFFFFFFFFFFFFFFFFFFFFFFFFFFFFFFFFFFFFFF AND EQ PUSH2 0xC63 JUMPI PUSH1 0x40 MLOAD PUSH32 0x8C379A000000000000000000000000000000000000000000000000000000000 DUP2 MSTORE PUSH1 0x4 ADD PUSH2 0xC5A SWAP1 PUSH2 0x2DF2 JUMP JUMPDEST PUSH1 0x40 MLOAD DUP1 SWAP2 SUB SWAP1 REVERT JUMPDEST PUSH1 0x11 SLOAD TIMESTAMP LT ISZERO PUSH2 0xCA8 JUMPI PUSH1 0x40 MLOAD PUSH32 0x8C379A000000000000000000000000000000000000000000000000000000000 DUP2 MSTORE PUSH1 0x4 ADD PUSH2 0xC9F SWAP1 PUSH2 0x2E84 JUMP JUMPDEST PUSH1 0x40 MLOAD DUP1 SWAP2 SUB SWAP1 REVERT JUMPDEST DUP2 PUSH1 0x9 DUP2 SWAP1 SSTORE POP DUP1 PUSH1 0xA DUP2 SWAP1 SSTORE POP PUSH2 0xCC0 PUSH1 0x0 PUSH2 0x1799 JUMP JUMPDEST PUSH2 0xCC8 PUSH2 0x2052 JUMP JUMPDEST POP POP JUMP JUMPDEST PUSH1 0x9 SLOAD DUP2 JUMP JUMPDEST PUSH1 0x5 SLOAD DUP2 JUMP JUMPDEST PUSH1 0x60 PUSH1 0x0 DUP1 PUSH1 0x15 DUP1 SLOAD SWAP1 POP GT ISZERO PUSH2 0xCF2 JUMPI PUSH1 0x15 SWAP1 POP PUSH2 0xD0F JUMP JUMPDEST PUSH1 0x0 PUSH1 0x14 DUP1 SLOAD SWAP1 POP GT ISZERO PUSH2 0xD09 JUMPI PUSH1 0x14 SWAP1 POP PUSH2 0xD0E JUMP JUMPDEST PUSH1 0x13 SWAP1 POP JUMPDEST JUMPDEST PUSH1 0x0 DUP2 DUP1 SLOAD SWAP1 POP PUSH8 0xFFFFFFFFFFFFFFFF DUP2 GT ISZERO PUSH2 0xD2F JUMPI PUSH2 0xD2E PUSH2 0x2CC0 JUMP JUMPDEST JUMPDEST PUSH1 0x40 MLOAD SWAP1 DUP1 DUP3 MSTORE DUP1 PUSH1 0x20 MUL PUSH1 0x20 ADD DUP3 ADD PUSH1 0x40 MSTORE DUP1 ISZERO PUSH2 0xD68 JUMPI DUP2 PUSH1 0x20 ADD JUMPDEST PUSH2 0xD55 PUSH2 0x2752 JUMP JUMPDEST DUP2 MSTORE PUSH1 0x20 ADD SWAP1 PUSH1 0x1 SWAP1 SUB SWAP1 DUP2 PUSH2 0xD4D JUMPI SWAP1 POP JUMPDEST POP SWAP1 POP PUSH1 0x0 JUMPDEST DUP3 DUP1 SLOAD SWAP1 POP DUP2 LT ISZERO PUSH2 0xE69 JUMPI DUP3 DUP2 DUP2 SLOAD DUP2 LT PUSH2 0xD8D JUMPI PUSH2 0xD8C PUSH2 0x2CEF JUMP JUMPDEST JUMPDEST SWAP1 PUSH1 0x0 MSTORE PUSH1 0x20 PUSH1 0x0 KECCAK256 SWAP1 PUSH1 0x7 MUL ADD PUSH1 0x40 MLOAD DUP1 PUSH1 0xE0 ADD PUSH1 0x40 MSTORE SWAP1 DUP2 PUSH1 0x0 DUP3 ADD PUSH1 0x0 SWAP1 SLOAD SWAP1 PUSH2 0x100 EXP SWAP1 DIV PUSH20 0xFFFFFFFFFFFFFFFFFFFFFFFFFFFFFFFFFFFFFFFF AND PUSH20 0xFFFFFFFFFFFFFFFFFFFFFFFFFFFFFFFFFFFFFFFF AND PUSH20 0xFFFFFFFFFFFFFFFFFFFFFFFFFFFFFFFFFFFFFFFF AND DUP2 MSTORE PUSH1 0x20 ADD PUSH1 0x1 DUP3 ADD SLOAD DUP2 MSTORE PUSH1 0x20 ADD PUSH1 0x2 DUP3 ADD SLOAD DUP2 MSTORE PUSH1 0x20 ADD PUSH1 0x3 DUP3 ADD SLOAD DUP2 MSTORE PUSH1 0x20 ADD PUSH1 0x4 DUP3 ADD SLOAD DUP2 MSTORE PUSH1 0x20 ADD PUSH1 0x5 DUP3 ADD SLOAD DUP2 MSTORE PUSH1 0x20 ADD PUSH1 0x6 DUP3 ADD SLOAD DUP2 MSTORE POP POP DUP3 DUP3 DUP2 MLOAD DUP2 LT PUSH2 0xE4B JUMPI PUSH2 0xE4A PUSH2 0x2CEF JUMP JUMPDEST JUMPDEST PUSH1 0x20 MUL PUSH1 0x20 ADD ADD DUP2 SWAP1 MSTORE POP DUP1 DUP1 PUSH2 0xE61 SWAP1 PUSH2 0x2D4D JUMP JUMPDEST SWAP2 POP POP PUSH2 0xD6E JUMP JUMPDEST POP DUP1 SWAP3 POP POP POP SWAP1 JUMP JUMPDEST PUSH1 0xD SLOAD DUP2 JUMP JUMPDEST PUSH1 0x1B PUSH1 0x20 MSTORE DUP2 PUSH1 0x0 MSTORE PUSH1 0x40 PUSH1 0x0 KECCAK256 DUP2 DUP2 SLOAD DUP2 LT PUSH2 0xE94 JUMPI PUSH1 0x0 DUP1 REVERT JUMPDEST SWAP1 PUSH1 0x0 MSTORE PUSH1 0x20 PUSH1 0x0 KECCAK256 SWAP1 PUSH1 0x7 MUL ADD PUSH1 0x0 SWAP2 POP SWAP2 POP POP DUP1 PUSH1 0x0 ADD PUSH1 0x0 SWAP1 SLOAD SWAP1 PUSH2 0x100 EXP SWAP1 DIV PUSH20 0xFFFFFFFFFFFFFFFFFFFFFFFFFFFFFFFFFFFFFFFF AND SWAP1 DUP1 PUSH1 0x1 ADD SLOAD SWAP1 DUP1 PUSH1 0x2 ADD SLOAD SWAP1 DUP1 PUSH1 0x3 ADD SLOAD SWAP1 DUP1 PUSH1 0x4 ADD SLOAD SWAP1 DUP1 PUSH1 0x5 ADD SLOAD SWAP1 DUP1 PUSH1 0x6 ADD SLOAD SWAP1 POP DUP8 JUMP JUMPDEST PUSH1 0x4 SLOAD DUP2 JUMP JUMPDEST PUSH1 0x12 SLOAD DUP2 JUMP JUMPDEST PUSH1 0x60 PUSH1 0x17 DUP1 SLOAD DUP1 PUSH1 0x20 MUL PUSH1 0x20 ADD PUSH1 0x40 MLOAD SWAP1 DUP2 ADD PUSH1 0x40 MSTORE DUP1 SWAP3 SWAP2 SWAP1 DUP2 DUP2 MSTORE PUSH1 0x20 ADD DUP3 DUP1 SLOAD DUP1 ISZERO PUSH2 0xF51 JUMPI PUSH1 0x20 MUL DUP3 ADD SWAP2 SWAP1 PUSH1 0x0 MSTORE PUSH1 0x20 PUSH1 0x0 KECCAK256 SWAP1 JUMPDEST DUP2 SLOAD DUP2 MSTORE PUSH1 0x20 ADD SWAP1 PUSH1 0x1 ADD SWAP1 DUP1 DUP4 GT PUSH2 0xF3D JUMPI JUMPDEST POP POP POP POP POP SWAP1 POP SWAP1 JUMP JUMPDEST PUSH1 0xC SLOAD DUP2 JUMP JUMPDEST PUSH1 0x17 DUP2 DUP2 SLOAD DUP2 LT PUSH2 0xF71 JUMPI PUSH1 0x0 DUP1 REVERT JUMPDEST SWAP1 PUSH1 0x0 MSTORE PUSH1 0x20 PUSH1 0x0 KECCAK256 ADD PUSH1 0x0 SWAP2 POP SWAP1 POP SLOAD DUP2 JUMP JUMPDEST PUSH1 0x3 SLOAD DUP2 JUMP JUMPDEST PUSH1 0x0 DUP1 SLOAD SWAP1 PUSH2 0x100 EXP SWAP1 DIV PUSH20 0xFFFFFFFFFFFFFFFFFFFFFFFFFFFFFFFFFFFFFFFF AND PUSH20 0xFFFFFFFFFFFFFFFFFFFFFFFFFFFFFFFFFFFFFFFF AND CALLER PUSH20 0xFFFFFFFFFFFFFFFFFFFFFFFFFFFFFFFFFFFFFFFF AND EQ PUSH2 0x1019 JUMPI PUSH1 0x40 MLOAD PUSH32 0x8C379A000000000000000000000000000000000000000000000000000000000 DUP2 MSTORE PUSH1 0x4 ADD PUSH2 0x1010 SWAP1 PUSH2 0x2DF2 JUMP JUMPDEST PUSH1 0x40 MLOAD DUP1 SWAP2 SUB SWAP1 REVERT JUMPDEST PUSH1 0x10 SLOAD TIMESTAMP LT ISZERO PUSH2 0x105E JUMPI PUSH1 0x40 MLOAD PUSH32 0x8C379A000000000000000000000000000000000000000000000000000000000 DUP2 MSTORE PUSH1 0x4 ADD PUSH2 0x1055 SWAP1 PUSH2 0x2F16 JUMP JUMPDEST PUSH1 0x40 MLOAD DUP1 SWAP2 SUB SWAP1 REVERT JUMPDEST DUP2 PUSH1 0x7 DUP2 SWAP1 SSTORE POP DUP1 PUSH1 0x8 DUP2 SWAP1 SSTORE POP PUSH2 0x1076 PUSH1 0x1 PUSH2 0x1799 JUMP JUMPDEST POP POP JUMP JUMPDEST PUSH1 0x1 SLOAD CALLVALUE EQ PUSH2 0x10BE JUMPI PUSH1 0x40 MLOAD PUSH32 0x8C379A000000000000000000000000000000000000000000000000000000000 DUP2 MSTORE PUSH1 0x4 ADD PUSH2 0x10B5 SWAP1 PUSH2 0x2F82 JUMP JUMPDEST PUSH1 0x40 MLOAD DUP1 SWAP2 SUB SWAP1 REVERT JUMPDEST PUSH1 0xE SLOAD TIMESTAMP LT ISZERO PUSH2 0x1103 JUMPI PUSH1 0x40 MLOAD PUSH32 0x8C379A000000000000000000000000000000000000000000000000000000000 DUP2 MSTORE PUSH1 0x4 ADD PUSH2 0x10FA SWAP1 PUSH2 0x3014 JUMP JUMPDEST PUSH1 0x40 MLOAD DUP1 SWAP2 SUB SWAP1 REVERT JUMPDEST PUSH1 0xF SLOAD TIMESTAMP GT ISZERO PUSH2 0x1148 JUMPI PUSH1 0x40 MLOAD PUSH32 0x8C379A000000000000000000000000000000000000000000000000000000000 DUP2 MSTORE PUSH1 0x4 ADD PUSH2 0x113F SWAP1 PUSH2 0x3080 JUMP JUMPDEST PUSH1 0x40 MLOAD DUP1 SWAP2 SUB SWAP1 REVERT JUMPDEST PUSH1 0x2 SLOAD PUSH1 0x18 PUSH1 0x0 CALLER PUSH20 0xFFFFFFFFFFFFFFFFFFFFFFFFFFFFFFFFFFFFFFFF AND PUSH20 0xFFFFFFFFFFFFFFFFFFFFFFFFFFFFFFFFFFFFFFFF AND DUP2 MSTORE PUSH1 0x20 ADD SWAP1 DUP2 MSTORE PUSH1 0x20 ADD PUSH1 0x0 KECCAK256 SLOAD LT PUSH2 0x11CB JUMPI PUSH1 0x40 MLOAD PUSH32 0x8C379A000000000000000000000000000000000000000000000000000000000 DUP2 MSTORE PUSH1 0x4 ADD PUSH2 0x11C2 SWAP1 PUSH2 0x3112 JUMP JUMPDEST PUSH1 0x40 MLOAD DUP1 SWAP2 SUB SWAP1 REVERT JUMPDEST PUSH1 0x0 PUSH2 0x11D8 CALLER DUP5 DUP5 PUSH2 0x25E9 JUMP JUMPDEST SWAP1 POP PUSH1 0x0 PUSH1 0x18 PUSH1 0x0 CALLER PUSH20 0xFFFFFFFFFFFFFFFFFFFFFFFFFFFFFFFFFFFFFFFF AND PUSH20 0xFFFFFFFFFFFFFFFFFFFFFFFFFFFFFFFFFFFFFFFF AND DUP2 MSTORE PUSH1 0x20 ADD SWAP1 DUP2 MSTORE PUSH1 0x20 ADD PUSH1 0x0 KECCAK256 SLOAD GT PUSH2 0x1285 JUMPI PUSH1 0x16 CALLER SWAP1 DUP1 PUSH1 0x1 DUP2 SLOAD ADD DUP1 DUP3 SSTORE DUP1 SWAP2 POP POP PUSH1 0x1 SWAP1 SUB SWAP1 PUSH1 0x0 MSTORE PUSH1 0x20 PUSH1 0x0 KECCAK256 ADD PUSH1 0x0 SWAP1 SWAP2 SWAP1 SWAP2 SWAP1 SWAP2 PUSH2 0x100 EXP DUP2 SLOAD DUP2 PUSH20 0xFFFFFFFFFFFFFFFFFFFFFFFFFFFFFFFFFFFFFFFF MUL NOT AND SWAP1 DUP4 PUSH20 0xFFFFFFFFFFFFFFFFFFFFFFFFFFFFFFFFFFFFFFFF AND MUL OR SWAP1 SSTORE POP JUMPDEST PUSH1 0x18 PUSH1 0x0 CALLER PUSH20 0xFFFFFFFFFFFFFFFFFFFFFFFFFFFFFFFFFFFFFFFF AND PUSH20 0xFFFFFFFFFFFFFFFFFFFFFFFFFFFFFFFFFFFFFFFF AND DUP2 MSTORE PUSH1 0x20 ADD SWAP1 DUP2 MSTORE PUSH1 0x20 ADD PUSH1 0x0 KECCAK256 PUSH1 0x0 DUP2 SLOAD DUP1 SWAP3 SWAP2 SWAP1 PUSH2 0x12D5 SWAP1 PUSH2 0x2D4D JUMP JUMPDEST SWAP2 SWAP1 POP SSTORE POP PUSH1 0x19 PUSH1 0x0 CALLER PUSH20 0xFFFFFFFFFFFFFFFFFFFFFFFFFFFFFFFFFFFFFFFF AND PUSH20 0xFFFFFFFFFFFFFFFFFFFFFFFFFFFFFFFFFFFFFFFF AND DUP2 MSTORE PUSH1 0x20 ADD SWAP1 DUP2 MSTORE PUSH1 0x20 ADD PUSH1 0x0 KECCAK256 PUSH1 0x40 MLOAD DUP1 PUSH1 0xE0 ADD PUSH1 0x40 MSTORE DUP1 CALLER PUSH20 0xFFFFFFFFFFFFFFFFFFFFFFFFFFFFFFFFFFFFFFFF AND DUP2 MSTORE PUSH1 0x20 ADD DUP8 DUP2 MSTORE PUSH1 0x20 ADD DUP7 DUP2 MSTORE PUSH1 0x20 ADD DUP6 DUP2 MSTORE PUSH1 0x20 ADD DUP5 DUP2 MSTORE PUSH1 0x20 ADD PUSH1 0x0 DUP2 MSTORE PUSH1 0x20 ADD DUP4 DUP2 MSTORE POP SWAP1 DUP1 PUSH1 0x1 DUP2 SLOAD ADD DUP1 DUP3 SSTORE DUP1 SWAP2 POP POP PUSH1 0x1 SWAP1 SUB SWAP1 PUSH1 0x0 MSTORE PUSH1 0x20 PUSH1 0x0 KECCAK256 SWAP1 PUSH1 0x7 MUL ADD PUSH1 0x0 SWAP1 SWAP2 SWAP1 SWAP2 SWAP1 SWAP2 POP PUSH1 0x0 DUP3 ADD MLOAD DUP2 PUSH1 0x0 ADD PUSH1 0x0 PUSH2 0x100 EXP DUP2 SLOAD DUP2 PUSH20 0xFFFFFFFFFFFFFFFFFFFFFFFFFFFFFFFFFFFFFFFF MUL NOT AND SWAP1 DUP4 PUSH20 0xFFFFFFFFFFFFFFFFFFFFFFFFFFFFFFFFFFFFFFFF AND MUL OR SWAP1 SSTORE POP PUSH1 0x20 DUP3 ADD MLOAD DUP2 PUSH1 0x1 ADD SSTORE PUSH1 0x40 DUP3 ADD MLOAD DUP2 PUSH1 0x2 ADD SSTORE PUSH1 0x60 DUP3 ADD MLOAD DUP2 PUSH1 0x3 ADD SSTORE PUSH1 0x80 DUP3 ADD MLOAD DUP2 PUSH1 0x4 ADD SSTORE PUSH1 0xA0 DUP3 ADD MLOAD DUP2 PUSH1 0x5 ADD SSTORE PUSH1 0xC0 DUP3 ADD MLOAD DUP2 PUSH1 0x6 ADD SSTORE POP POP PUSH1 0x13 PUSH1 0x40 MLOAD DUP1 PUSH1 0xE0 ADD PUSH1 0x40 MSTORE DUP1 CALLER PUSH20 0xFFFFFFFFFFFFFFFFFFFFFFFFFFFFFFFFFFFFFFFF AND DUP2 MSTORE PUSH1 0x20 ADD DUP8 DUP2 MSTORE PUSH1 0x20 ADD DUP7 DUP2 MSTORE PUSH1 0x20 ADD DUP6 DUP2 MSTORE PUSH1 0x20 ADD DUP5 DUP2 MSTORE PUSH1 0x20 ADD PUSH1 0x0 DUP2 MSTORE PUSH1 0x20 ADD DUP4 DUP2 MSTORE POP SWAP1 DUP1 PUSH1 0x1 DUP2 SLOAD ADD DUP1 DUP3 SSTORE DUP1 SWAP2 POP POP PUSH1 0x1 SWAP1 SUB SWAP1 PUSH1 0x0 MSTORE PUSH1 0x20 PUSH1 0x0 KECCAK256 SWAP1 PUSH1 0x7 MUL ADD PUSH1 0x0 SWAP1 SWAP2 SWAP1 SWAP2 SWAP1 SWAP2 POP PUSH1 0x0 DUP3 ADD MLOAD DUP2 PUSH1 0x0 ADD PUSH1 0x0 PUSH2 0x100 EXP DUP2 SLOAD DUP2 PUSH20 0xFFFFFFFFFFFFFFFFFFFFFFFFFFFFFFFFFFFFFFFF MUL NOT AND SWAP1 DUP4 PUSH20 0xFFFFFFFFFFFFFFFFFFFFFFFFFFFFFFFFFFFFFFFF AND MUL OR SWAP1 SSTORE POP PUSH1 0x20 DUP3 ADD MLOAD DUP2 PUSH1 0x1 ADD SSTORE PUSH1 0x40 DUP3 ADD MLOAD DUP2 PUSH1 0x2 ADD SSTORE PUSH1 0x60 DUP3 ADD MLOAD DUP2 PUSH1 0x3 ADD SSTORE PUSH1 0x80 DUP3 ADD MLOAD DUP2 PUSH1 0x4 ADD SSTORE PUSH1 0xA0 DUP3 ADD MLOAD DUP2 PUSH1 0x5 ADD SSTORE PUSH1 0xC0 DUP3 ADD MLOAD DUP2 PUSH1 0x6 ADD SSTORE POP POP PUSH1 0xC PUSH1 0x0 DUP2 SLOAD DUP1 SWAP3 SWAP2 SWAP1 PUSH2 0x151E SWAP1 PUSH2 0x2D4D JUMP JUMPDEST SWAP2 SWAP1 POP SSTORE POP SELFBALANCE PUSH1 0xD DUP2 SWAP1 SSTORE POP POP POP POP POP POP JUMP JUMPDEST PUSH1 0x6 SLOAD DUP2 JUMP JUMPDEST PUSH1 0x1D PUSH1 0x20 MSTORE DUP2 PUSH1 0x0 MSTORE PUSH1 0x40 PUSH1 0x0 KECCAK256 DUP2 DUP2 SLOAD DUP2 LT PUSH2 0x1553 JUMPI PUSH1 0x0 DUP1 REVERT JUMPDEST SWAP1 PUSH1 0x0 MSTORE PUSH1 0x20 PUSH1 0x0 KECCAK256 ADD PUSH1 0x0 SWAP2 POP SWAP2 POP POP SLOAD DUP2 JUMP JUMPDEST PUSH1 0xE SLOAD DUP2 JUMP JUMPDEST PUSH1 0xF SLOAD DUP2 JUMP JUMPDEST PUSH1 0x8 SLOAD DUP2 JUMP JUMPDEST PUSH1 0xA SLOAD DUP2 JUMP JUMPDEST PUSH1 0x13 DUP2 DUP2 SLOAD DUP2 LT PUSH2 0x1590 JUMPI PUSH1 0x0 DUP1 REVERT JUMPDEST SWAP1 PUSH1 0x0 MSTORE PUSH1 0x20 PUSH1 0x0 KECCAK256 SWAP1 PUSH1 0x7 MUL ADD PUSH1 0x0 SWAP2 POP SWAP1 POP DUP1 PUSH1 0x0 ADD PUSH1 0x0 SWAP1 SLOAD SWAP1 PUSH2 0x100 EXP SWAP1 DIV PUSH20 0xFFFFFFFFFFFFFFFFFFFFFFFFFFFFFFFFFFFFFFFF AND SWAP1 DUP1 PUSH1 0x1 ADD SLOAD SWAP1 DUP1 PUSH1 0x2 ADD SLOAD SWAP1 DUP1 PUSH1 0x3 ADD SLOAD SWAP1 DUP1 PUSH1 0x4 ADD SLOAD SWAP1 DUP1 PUSH1 0x5 ADD SLOAD SWAP1 DUP1 PUSH1 0x6 ADD SLOAD SWAP1 POP DUP8 JUMP JUMPDEST PUSH1 0x10 SLOAD DUP2 JUMP JUMPDEST PUSH1 0xB SLOAD DUP2 JUMP JUMPDEST PUSH1 0x14 DUP2 DUP2 SLOAD DUP2 LT PUSH2 0x160E JUMPI PUSH1 0x0 DUP1 REVERT JUMPDEST SWAP1 PUSH1 0x0 MSTORE PUSH1 0x20 PUSH1 0x0 KECCAK256 SWAP1 PUSH1 0x7 MUL ADD PUSH1 0x0 SWAP2 POP SWAP1 POP DUP1 PUSH1 0x0 ADD PUSH1 0x0 SWAP1 SLOAD SWAP1 PUSH2 0x100 EXP SWAP1 DIV PUSH20 0xFFFFFFFFFFFFFFFFFFFFFFFFFFFFFFFFFFFFFFFF AND SWAP1 DUP1 PUSH1 0x1 ADD SLOAD SWAP1 DUP1 PUSH1 0x2 ADD SLOAD SWAP1 DUP1 PUSH1 0x3 ADD SLOAD SWAP1 DUP1 PUSH1 0x4 ADD SLOAD SWAP1 DUP1 PUSH1 0x5 ADD SLOAD SWAP1 DUP1 PUSH1 0x6 ADD SLOAD SWAP1 POP DUP8 JUMP JUMPDEST PUSH1 0x11 SLOAD DUP2 JUMP JUMPDEST PUSH1 0x1C PUSH1 0x20 MSTORE DUP2 PUSH1 0x0 MSTORE PUSH1 0x40 PUSH1 0x0 KECCAK256 DUP2 DUP2 SLOAD DUP2 LT PUSH2 0x1692 JUMPI PUSH1 0x0 DUP1 REVERT JUMPDEST SWAP1 PUSH1 0x0 MSTORE PUSH1 0x20 PUSH1 0x0 KECCAK256 ADD PUSH1 0x0 SWAP2 POP SWAP2 POP SWAP1 SLOAD SWAP1 PUSH2 0x100 EXP SWAP1 DIV PUSH20 0xFFFFFFFFFFFFFFFFFFFFFFFFFFFFFFFFFFFFFFFF AND DUP2 JUMP JUMPDEST PUSH1 0x1A PUSH1 0x20 MSTORE DUP2 PUSH1 0x0 MSTORE PUSH1 0x40 PUSH1 0x0 KECCAK256 DUP2 DUP2 SLOAD DUP2 LT PUSH2 0x16E0 JUMPI PUSH1 0x0 DUP1 REVERT JUMPDEST SWAP1 PUSH1 0x0 MSTORE PUSH1 0x20 PUSH1 0x0 KECCAK256 ADD PUSH1 0x0 SWAP2 POP SWAP2 POP SWAP1 SLOAD SWAP1 PUSH2 0x100 EXP SWAP1 DIV PUSH20 0xFFFFFFFFFFFFFFFFFFFFFFFFFFFFFFFFFFFFFFFF AND DUP2 JUMP JUMPDEST PUSH1 0x16 DUP2 DUP2 SLOAD DUP2 LT PUSH2 0x1722 JUMPI PUSH1 0x0 DUP1 REVERT JUMPDEST SWAP1 PUSH1 0x0 MSTORE PUSH1 0x20 PUSH1 0x0 KECCAK256 ADD PUSH1 0x0 SWAP2 POP SLOAD SWAP1 PUSH2 0x100 EXP SWAP1 DIV PUSH20 0xFFFFFFFFFFFFFFFFFFFFFFFFFFFFFFFFFFFFFFFF AND DUP2 JUMP JUMPDEST PUSH1 0x0 DUP1 SLOAD SWAP1 PUSH2 0x100 EXP SWAP1 DIV PUSH20 0xFFFFFFFFFFFFFFFFFFFFFFFFFFFFFFFFFFFFFFFF AND DUP2 JUMP JUMPDEST PUSH1 0x2 SLOAD DUP2 JUMP JUMPDEST PUSH1 0x18 PUSH1 0x20 MSTORE DUP1 PUSH1 0x0 MSTORE PUSH1 0x40 PUSH1 0x0 KECCAK256 PUSH1 0x0 SWAP2 POP SWAP1 POP SLOAD DUP2 JUMP JUMPDEST PUSH1 0x7 SLOAD DUP2 JUMP JUMPDEST PUSH1 0x0 DUP1 PUSH1 0x0 JUMPDEST PUSH1 0x16 DUP1 SLOAD SWAP1 POP DUP2 LT ISZERO PUSH2 0x204C JUMPI PUSH1 0x16 DUP2 DUP2 SLOAD DUP2 LT PUSH2 0x17C0 JUMPI PUSH2 0x17BF PUSH2 0x2CEF JUMP JUMPDEST JUMPDEST SWAP1 PUSH1 0x0 MSTORE PUSH1 0x20 PUSH1 0x0 KECCAK256 ADD PUSH1 0x0 SWAP1 SLOAD SWAP1 PUSH2 0x100 EXP SWAP1 DIV PUSH20 0xFFFFFFFFFFFFFFFFFFFFFFFFFFFFFFFFFFFFFFFF AND SWAP3 POP PUSH1 0x0 JUMPDEST PUSH1 0x18 PUSH1 0x0 DUP6 PUSH20 0xFFFFFFFFFFFFFFFFFFFFFFFFFFFFFFFFFFFFFFFF AND PUSH20 0xFFFFFFFFFFFFFFFFFFFFFFFFFFFFFFFFFFFFFFFF AND DUP2 MSTORE PUSH1 0x20 ADD SWAP1 DUP2 MSTORE PUSH1 0x20 ADD PUSH1 0x0 KECCAK256 SLOAD DUP2 LT ISZERO PUSH2 0x2038 JUMPI PUSH1 0x19 PUSH1 0x0 DUP6 PUSH20 0xFFFFFFFFFFFFFFFFFFFFFFFFFFFFFFFFFFFFFFFF AND PUSH20 0xFFFFFFFFFFFFFFFFFFFFFFFFFFFFFFFFFFFFFFFF AND DUP2 MSTORE PUSH1 0x20 ADD SWAP1 DUP2 MSTORE PUSH1 0x20 ADD PUSH1 0x0 KECCAK256 DUP2 DUP2 SLOAD DUP2 LT PUSH2 0x1888 JUMPI PUSH2 0x1887 PUSH2 0x2CEF JUMP JUMPDEST JUMPDEST SWAP1 PUSH1 0x0 MSTORE PUSH1 0x20 PUSH1 0x0 KECCAK256 SWAP1 PUSH1 0x7 MUL ADD SWAP3 POP DUP5 ISZERO PUSH2 0x1B1F JUMPI PUSH1 0x7 SLOAD DUP4 PUSH1 0x1 ADD SLOAD SUB PUSH2 0x1926 JUMPI PUSH1 0x3 PUSH1 0x19 PUSH1 0x0 DUP7 PUSH20 0xFFFFFFFFFFFFFFFFFFFFFFFFFFFFFFFFFFFFFFFF AND PUSH20 0xFFFFFFFFFFFFFFFFFFFFFFFFFFFFFFFFFFFFFFFF AND DUP2 MSTORE PUSH1 0x20 ADD SWAP1 DUP2 MSTORE PUSH1 0x20 ADD PUSH1 0x0 KECCAK256 DUP3 DUP2 SLOAD DUP2 LT PUSH2 0x18FE JUMPI PUSH2 0x18FD PUSH2 0x2CEF JUMP JUMPDEST JUMPDEST SWAP1 PUSH1 0x0 MSTORE PUSH1 0x20 PUSH1 0x0 KECCAK256 SWAP1 PUSH1 0x7 MUL ADD PUSH1 0x5 ADD PUSH1 0x0 DUP3 DUP3 SLOAD PUSH2 0x191E SWAP2 SWAP1 PUSH2 0x3132 JUMP JUMPDEST SWAP3 POP POP DUP2 SWAP1 SSTORE POP JUMPDEST PUSH1 0x8 SLOAD DUP4 PUSH1 0x2 ADD SLOAD SUB PUSH2 0x19AE JUMPI PUSH1 0x3 PUSH1 0x19 PUSH1 0x0 DUP7 PUSH20 0xFFFFFFFFFFFFFFFFFFFFFFFFFFFFFFFFFFFFFFFF AND PUSH20 0xFFFFFFFFFFFFFFFFFFFFFFFFFFFFFFFFFFFFFFFF AND DUP2 MSTORE PUSH1 0x20 ADD SWAP1 DUP2 MSTORE PUSH1 0x20 ADD PUSH1 0x0 KECCAK256 DUP3 DUP2 SLOAD DUP2 LT PUSH2 0x1986 JUMPI PUSH2 0x1985 PUSH2 0x2CEF JUMP JUMPDEST JUMPDEST SWAP1 PUSH1 0x0 MSTORE PUSH1 0x20 PUSH1 0x0 KECCAK256 SWAP1 PUSH1 0x7 MUL ADD PUSH1 0x5 ADD PUSH1 0x0 DUP3 DUP3 SLOAD PUSH2 0x19A6 SWAP2 SWAP1 PUSH2 0x3132 JUMP JUMPDEST SWAP3 POP POP DUP2 SWAP1 SSTORE POP JUMPDEST PUSH1 0x14 PUSH1 0x19 PUSH1 0x0 DUP7 PUSH20 0xFFFFFFFFFFFFFFFFFFFFFFFFFFFFFFFFFFFFFFFF AND PUSH20 0xFFFFFFFFFFFFFFFFFFFFFFFFFFFFFFFFFFFFFFFF AND DUP2 MSTORE PUSH1 0x20 ADD SWAP1 DUP2 MSTORE PUSH1 0x20 ADD PUSH1 0x0 KECCAK256 DUP3 DUP2 SLOAD DUP2 LT PUSH2 0x1A01 JUMPI PUSH2 0x1A00 PUSH2 0x2CEF JUMP JUMPDEST JUMPDEST SWAP1 PUSH1 0x0 MSTORE PUSH1 0x20 PUSH1 0x0 KECCAK256 SWAP1 PUSH1 0x7 MUL ADD SWAP1 DUP1 PUSH1 0x1 DUP2 SLOAD ADD DUP1 DUP3 SSTORE DUP1 SWAP2 POP POP PUSH1 0x1 SWAP1 SUB SWAP1 PUSH1 0x0 MSTORE PUSH1 0x20 PUSH1 0x0 KECCAK256 SWAP1 PUSH1 0x7 MUL ADD PUSH1 0x0 SWAP1 SWAP2 SWAP1 SWAP2 SWAP1 SWAP2 POP PUSH1 0x0 DUP3 ADD PUSH1 0x0 SWAP1 SLOAD SWAP1 PUSH2 0x100 EXP SWAP1 DIV PUSH20 0xFFFFFFFFFFFFFFFFFFFFFFFFFFFFFFFFFFFFFFFF AND DUP2 PUSH1 0x0 ADD PUSH1 0x0 PUSH2 0x100 EXP DUP2 SLOAD DUP2 PUSH20 0xFFFFFFFFFFFFFFFFFFFFFFFFFFFFFFFFFFFFFFFF MUL NOT AND SWAP1 DUP4 PUSH20 0xFFFFFFFFFFFFFFFFFFFFFFFFFFFFFFFFFFFFFFFF AND MUL OR SWAP1 SSTORE POP PUSH1 0x1 DUP3 ADD SLOAD DUP2 PUSH1 0x1 ADD SSTORE PUSH1 0x2 DUP3 ADD SLOAD DUP2 PUSH1 0x2 ADD SSTORE PUSH1 0x3 DUP3 ADD SLOAD DUP2 PUSH1 0x3 ADD SSTORE PUSH1 0x4 DUP3 ADD SLOAD DUP2 PUSH1 0x4 ADD SSTORE PUSH1 0x5 DUP3 ADD SLOAD DUP2 PUSH1 0x5 ADD SSTORE PUSH1 0x6 DUP3 ADD SLOAD DUP2 PUSH1 0x6 ADD SSTORE POP POP PUSH32 0x72B70D4F70717C443C3F728467B5C6595439E31928DB630E2892CAB279692B2E PUSH1 0x7 SLOAD PUSH1 0x8 SLOAD PUSH1 0x40 MLOAD PUSH2 0x1B12 SWAP3 SWAP2 SWAP1 PUSH2 0x3166 JUMP JUMPDEST PUSH1 0x40 MLOAD DUP1 SWAP2 SUB SWAP1 LOG1 PUSH2 0x2025 JUMP JUMPDEST PUSH1 0x9 SLOAD DUP4 PUSH1 0x3 ADD SLOAD SUB PUSH2 0x1BA7 JUMPI PUSH1 0x7 PUSH1 0x19 PUSH1 0x0 DUP7 PUSH20 0xFFFFFFFFFFFFFFFFFFFFFFFFFFFFFFFFFFFFFFFF AND PUSH20 0xFFFFFFFFFFFFFFFFFFFFFFFFFFFFFFFFFFFFFFFF AND DUP2 MSTORE PUSH1 0x20 ADD SWAP1 DUP2 MSTORE PUSH1 0x20 ADD PUSH1 0x0 KECCAK256 DUP3 DUP2 SLOAD DUP2 LT PUSH2 0x1B7F JUMPI PUSH2 0x1B7E PUSH2 0x2CEF JUMP JUMPDEST JUMPDEST SWAP1 PUSH1 0x0 MSTORE PUSH1 0x20 PUSH1 0x0 KECCAK256 SWAP1 PUSH1 0x7 MUL ADD PUSH1 0x5 ADD PUSH1 0x0 DUP3 DUP3 SLOAD PUSH2 0x1B9F SWAP2 SWAP1 PUSH2 0x3132 JUMP JUMPDEST SWAP3 POP POP DUP2 SWAP1 SSTORE POP JUMPDEST PUSH1 0xB SLOAD PUSH1 0x19 PUSH1 0x0 DUP7 PUSH20 0xFFFFFFFFFFFFFFFFFFFFFFFFFFFFFFFFFFFFFFFF AND PUSH20 0xFFFFFFFFFFFFFFFFFFFFFFFFFFFFFFFFFFFFFFFF AND DUP2 MSTORE PUSH1 0x20 ADD SWAP1 DUP2 MSTORE PUSH1 0x20 ADD PUSH1 0x0 KECCAK256 DUP3 DUP2 SLOAD DUP2 LT PUSH2 0x1BFB JUMPI PUSH2 0x1BFA PUSH2 0x2CEF JUMP JUMPDEST JUMPDEST SWAP1 PUSH1 0x0 MSTORE PUSH1 0x20 PUSH1 0x0 KECCAK256 SWAP1 PUSH1 0x7 MUL ADD PUSH1 0x5 ADD SLOAD GT ISZERO PUSH2 0x1C7D JUMPI PUSH1 0x19 PUSH1 0x0 DUP6 PUSH20 0xFFFFFFFFFFFFFFFFFFFFFFFFFFFFFFFFFFFFFFFF AND PUSH20 0xFFFFFFFFFFFFFFFFFFFFFFFFFFFFFFFFFFFFFFFF AND DUP2 MSTORE PUSH1 0x20 ADD SWAP1 DUP2 MSTORE PUSH1 0x20 ADD PUSH1 0x0 KECCAK256 DUP2 DUP2 SLOAD DUP2 LT PUSH2 0x1C64 JUMPI PUSH2 0x1C63 PUSH2 0x2CEF JUMP JUMPDEST JUMPDEST SWAP1 PUSH1 0x0 MSTORE PUSH1 0x20 PUSH1 0x0 KECCAK256 SWAP1 PUSH1 0x7 MUL ADD PUSH1 0x5 ADD SLOAD PUSH1 0xB DUP2 SWAP1 SSTORE POP JUMPDEST PUSH1 0x1A PUSH1 0x0 PUSH1 0x19 PUSH1 0x0 DUP8 PUSH20 0xFFFFFFFFFFFFFFFFFFFFFFFFFFFFFFFFFFFFFFFF AND PUSH20 0xFFFFFFFFFFFFFFFFFFFFFFFFFFFFFFFFFFFFFFFF AND DUP2 MSTORE PUSH1 0x20 ADD SWAP1 DUP2 MSTORE PUSH1 0x20 ADD PUSH1 0x0 KECCAK256 DUP4 DUP2 SLOAD DUP2 LT PUSH2 0x1CD2 JUMPI PUSH2 0x1CD1 PUSH2 0x2CEF JUMP JUMPDEST JUMPDEST SWAP1 PUSH1 0x0 MSTORE PUSH1 0x20 PUSH1 0x0 KECCAK256 SWAP1 PUSH1 0x7 MUL ADD PUSH1 0x5 ADD SLOAD DUP2 MSTORE PUSH1 0x20 ADD SWAP1 DUP2 MSTORE PUSH1 0x20 ADD PUSH1 0x0 KECCAK256 DUP5 SWAP1 DUP1 PUSH1 0x1 DUP2 SLOAD ADD DUP1 DUP3 SSTORE DUP1 SWAP2 POP POP PUSH1 0x1 SWAP1 SUB SWAP1 PUSH1 0x0 MSTORE PUSH1 0x20 PUSH1 0x0 KECCAK256 ADD PUSH1 0x0 SWAP1 SWAP2 SWAP1 SWAP2 SWAP1 SWAP2 PUSH2 0x100 EXP DUP2 SLOAD DUP2 PUSH20 0xFFFFFFFFFFFFFFFFFFFFFFFFFFFFFFFFFFFFFFFF MUL NOT AND SWAP1 DUP4 PUSH20 0xFFFFFFFFFFFFFFFFFFFFFFFFFFFFFFFFFFFFFFFF AND MUL OR SWAP1 SSTORE POP PUSH1 0x1B PUSH1 0x0 PUSH1 0x19 PUSH1 0x0 DUP8 PUSH20 0xFFFFFFFFFFFFFFFFFFFFFFFFFFFFFFFFFFFFFFFF AND PUSH20 0xFFFFFFFFFFFFFFFFFFFFFFFFFFFFFFFFFFFFFFFF AND DUP2 MSTORE PUSH1 0x20 ADD SWAP1 DUP2 MSTORE PUSH1 0x20 ADD PUSH1 0x0 KECCAK256 DUP4 DUP2 SLOAD DUP2 LT PUSH2 0x1DA8 JUMPI PUSH2 0x1DA7 PUSH2 0x2CEF JUMP JUMPDEST JUMPDEST SWAP1 PUSH1 0x0 MSTORE PUSH1 0x20 PUSH1 0x0 KECCAK256 SWAP1 PUSH1 0x7 MUL ADD PUSH1 0x5 ADD SLOAD DUP2 MSTORE PUSH1 0x20 ADD SWAP1 DUP2 MSTORE PUSH1 0x20 ADD PUSH1 0x0 KECCAK256 PUSH1 0x19 PUSH1 0x0 DUP7 PUSH20 0xFFFFFFFFFFFFFFFFFFFFFFFFFFFFFFFFFFFFFFFF AND PUSH20 0xFFFFFFFFFFFFFFFFFFFFFFFFFFFFFFFFFFFFFFFF AND DUP2 MSTORE PUSH1 0x20 ADD SWAP1 DUP2 MSTORE PUSH1 0x20 ADD PUSH1 0x0 KECCAK256 DUP3 DUP2 SLOAD DUP2 LT PUSH2 0x1E19 JUMPI PUSH2 0x1E18 PUSH2 0x2CEF JUMP JUMPDEST JUMPDEST SWAP1 PUSH1 0x0 MSTORE PUSH1 0x20 PUSH1 0x0 KECCAK256 SWAP1 PUSH1 0x7 MUL ADD SWAP1 DUP1 PUSH1 0x1 DUP2 SLOAD ADD DUP1 DUP3 SSTORE DUP1 SWAP2 POP POP PUSH1 0x1 SWAP1 SUB SWAP1 PUSH1 0x0 MSTORE PUSH1 0x20 PUSH1 0x0 KECCAK256 SWAP1 PUSH1 0x7 MUL ADD PUSH1 0x0 SWAP1 SWAP2 SWAP1 SWAP2 SWAP1 SWAP2 POP PUSH1 0x0 DUP3 ADD PUSH1 0x0 SWAP1 SLOAD SWAP1 PUSH2 0x100 EXP SWAP1 DIV PUSH20 0xFFFFFFFFFFFFFFFFFFFFFFFFFFFFFFFFFFFFFFFF AND DUP2 PUSH1 0x0 ADD PUSH1 0x0 PUSH2 0x100 EXP DUP2 SLOAD DUP2 PUSH20 0xFFFFFFFFFFFFFFFFFFFFFFFFFFFFFFFFFFFFFFFF MUL NOT AND SWAP1 DUP4 PUSH20 0xFFFFFFFFFFFFFFFFFFFFFFFFFFFFFFFFFFFFFFFF AND MUL OR SWAP1 SSTORE POP PUSH1 0x1 DUP3 ADD SLOAD DUP2 PUSH1 0x1 ADD SSTORE PUSH1 0x2 DUP3 ADD SLOAD DUP2 PUSH1 0x2 ADD SSTORE PUSH1 0x3 DUP3 ADD SLOAD DUP2 PUSH1 0x3 ADD SSTORE PUSH1 0x4 DUP3 ADD SLOAD DUP2 PUSH1 0x4 ADD SSTORE PUSH1 0x5 DUP3 ADD SLOAD DUP2 PUSH1 0x5 ADD SSTORE PUSH1 0x6 DUP3 ADD SLOAD DUP2 PUSH1 0x6 ADD SSTORE POP POP PUSH1 0x15 PUSH1 0x19 PUSH1 0x0 DUP7 PUSH20 0xFFFFFFFFFFFFFFFFFFFFFFFFFFFFFFFFFFFFFFFF AND PUSH20 0xFFFFFFFFFFFFFFFFFFFFFFFFFFFFFFFFFFFFFFFF AND DUP2 MSTORE PUSH1 0x20 ADD SWAP1 DUP2 MSTORE PUSH1 0x20 ADD PUSH1 0x0 KECCAK256 DUP3 DUP2 SLOAD DUP2 LT PUSH2 0x1F48 JUMPI PUSH2 0x1F47 PUSH2 0x2CEF JUMP JUMPDEST JUMPDEST SWAP1 PUSH1 0x0 MSTORE PUSH1 0x20 PUSH1 0x0 KECCAK256 SWAP1 PUSH1 0x7 MUL ADD SWAP1 DUP1 PUSH1 0x1 DUP2 SLOAD ADD DUP1 DUP3 SSTORE DUP1 SWAP2 POP POP PUSH1 0x1 SWAP1 SUB SWAP1 PUSH1 0x0 MSTORE PUSH1 0x20 PUSH1 0x0 KECCAK256 SWAP1 PUSH1 0x7 MUL ADD PUSH1 0x0 SWAP1 SWAP2 SWAP1 SWAP2 SWAP1 SWAP2 POP PUSH1 0x0 DUP3 ADD PUSH1 0x0 SWAP1 SLOAD SWAP1 PUSH2 0x100 EXP SWAP1 DIV PUSH20 0xFFFFFFFFFFFFFFFFFFFFFFFFFFFFFFFFFFFFFFFF AND DUP2 PUSH1 0x0 ADD PUSH1 0x0 PUSH2 0x100 EXP DUP2 SLOAD DUP2 PUSH20 0xFFFFFFFFFFFFFFFFFFFFFFFFFFFFFFFFFFFFFFFF MUL NOT AND SWAP1 DUP4 PUSH20 0xFFFFFFFFFFFFFFFFFFFFFFFFFFFFFFFFFFFFFFFF AND MUL OR SWAP1 SSTORE POP PUSH1 0x1 DUP3 ADD SLOAD DUP2 PUSH1 0x1 ADD SSTORE PUSH1 0x2 DUP3 ADD SLOAD DUP2 PUSH1 0x2 ADD SSTORE PUSH1 0x3 DUP3 ADD SLOAD DUP2 PUSH1 0x3 ADD SSTORE PUSH1 0x4 DUP3 ADD SLOAD DUP2 PUSH1 0x4 ADD SSTORE PUSH1 0x5 DUP3 ADD SLOAD DUP2 PUSH1 0x5 ADD SSTORE PUSH1 0x6 DUP3 ADD SLOAD DUP2 PUSH1 0x6 ADD SSTORE POP POP JUMPDEST DUP1 DUP1 PUSH2 0x2030 SWAP1 PUSH2 0x2D4D JUMP JUMPDEST SWAP2 POP POP PUSH2 0x17F0 JUMP JUMPDEST POP DUP1 DUP1 PUSH2 0x2044 SWAP1 PUSH2 0x2D4D JUMP JUMPDEST SWAP2 POP POP PUSH2 0x179F JUMP JUMPDEST POP POP POP POP JUMP JUMPDEST SELFBALANCE PUSH1 0xD DUP2 SWAP1 SSTORE POP PUSH1 0x0 DUP1 PUSH1 0x0 PUSH1 0x1 PUSH1 0x1A PUSH1 0x0 PUSH1 0xB SLOAD DUP2 MSTORE PUSH1 0x20 ADD SWAP1 DUP2 MSTORE PUSH1 0x20 ADD PUSH1 0x0 KECCAK256 DUP1 SLOAD SWAP1 POP SUB PUSH2 0x216D JUMPI PUSH2 0x20DB PUSH1 0x1A PUSH1 0x0 PUSH1 0xB SLOAD DUP2 MSTORE PUSH1 0x20 ADD SWAP1 DUP2 MSTORE PUSH1 0x20 ADD PUSH1 0x0 KECCAK256 PUSH1 0x0 DUP2 SLOAD DUP2 LT PUSH2 0x20A9 JUMPI PUSH2 0x20A8 PUSH2 0x2CEF JUMP JUMPDEST JUMPDEST SWAP1 PUSH1 0x0 MSTORE PUSH1 0x20 PUSH1 0x0 KECCAK256 ADD PUSH1 0x0 SWAP1 SLOAD SWAP1 PUSH2 0x100 EXP SWAP1 DIV PUSH20 0xFFFFFFFFFFFFFFFFFFFFFFFFFFFFFFFFFFFFFFFF AND PUSH1 0x1 PUSH2 0x264E JUMP JUMPDEST PUSH32 0x9C2270628A9B29D30AE96B6C4C14ED646EE134FEBDCE38A5B77F2BDE9CEA2E20 PUSH1 0x1A PUSH1 0x0 PUSH1 0xB SLOAD DUP2 MSTORE PUSH1 0x20 ADD SWAP1 DUP2 MSTORE PUSH1 0x20 ADD PUSH1 0x0 KECCAK256 PUSH1 0x0 DUP2 SLOAD DUP2 LT PUSH2 0x2124 JUMPI PUSH2 0x2123 PUSH2 0x2CEF JUMP JUMPDEST JUMPDEST SWAP1 PUSH1 0x0 MSTORE PUSH1 0x20 PUSH1 0x0 KECCAK256 ADD PUSH1 0x0 SWAP1 SLOAD SWAP1 PUSH2 0x100 EXP SWAP1 DIV PUSH20 0xFFFFFFFFFFFFFFFFFFFFFFFFFFFFFFFFFFFFFFFF AND PUSH1 0xB SLOAD PUSH1 0x40 MLOAD PUSH2 0x2160 SWAP3 SWAP2 SWAP1 PUSH2 0x318F JUMP JUMPDEST PUSH1 0x40 MLOAD DUP1 SWAP2 SUB SWAP1 LOG1 PUSH2 0x25E4 JUMP JUMPDEST PUSH1 0x0 JUMPDEST PUSH1 0x1A PUSH1 0x0 PUSH1 0xB SLOAD DUP2 MSTORE PUSH1 0x20 ADD SWAP1 DUP2 MSTORE PUSH1 0x20 ADD PUSH1 0x0 KECCAK256 DUP1 SLOAD SWAP1 POP DUP2 LT ISZERO PUSH2 0x2309 JUMPI PUSH1 0x1B PUSH1 0x0 PUSH1 0xB SLOAD DUP2 MSTORE PUSH1 0x20 ADD SWAP1 DUP2 MSTORE PUSH1 0x20 ADD PUSH1 0x0 KECCAK256 DUP2 DUP2 SLOAD DUP2 LT PUSH2 0x21B7 JUMPI PUSH2 0x21B6 PUSH2 0x2CEF JUMP JUMPDEST JUMPDEST SWAP1 PUSH1 0x0 MSTORE PUSH1 0x20 PUSH1 0x0 KECCAK256 SWAP1 PUSH1 0x7 MUL ADD SWAP2 POP PUSH1 0xA SLOAD DUP3 PUSH1 0x4 ADD SLOAD GT ISZERO PUSH2 0x21EE JUMPI PUSH1 0xA SLOAD DUP3 PUSH1 0x4 ADD SLOAD PUSH2 0x21E7 SWAP2 SWAP1 PUSH2 0x31B8 JUMP JUMPDEST SWAP3 POP PUSH2 0x2203 JUMP JUMPDEST DUP2 PUSH1 0x4 ADD SLOAD PUSH1 0xA SLOAD PUSH2 0x2200 SWAP2 SWAP1 PUSH2 0x31B8 JUMP JUMPDEST SWAP3 POP JUMPDEST PUSH1 0x0 DUP2 SUB PUSH2 0x2213 JUMPI DUP3 SWAP4 POP PUSH2 0x2220 JUMP JUMPDEST DUP4 DUP4 LT ISZERO PUSH2 0x221F JUMPI DUP3 SWAP4 POP JUMPDEST JUMPDEST PUSH1 0x1D PUSH1 0x0 DUP5 DUP2 MSTORE PUSH1 0x20 ADD SWAP1 DUP2 MSTORE PUSH1 0x20 ADD PUSH1 0x0 KECCAK256 DUP3 PUSH1 0x6 ADD SLOAD SWAP1 DUP1 PUSH1 0x1 DUP2 SLOAD ADD DUP1 DUP3 SSTORE DUP1 SWAP2 POP POP PUSH1 0x1 SWAP1 SUB SWAP1 PUSH1 0x0 MSTORE PUSH1 0x20 PUSH1 0x0 KECCAK256 ADD PUSH1 0x0 SWAP1 SWAP2 SWAP1 SWAP2 SWAP1 SWAP2 POP SSTORE PUSH1 0x1C PUSH1 0x0 DUP5 DUP2 MSTORE PUSH1 0x20 ADD SWAP1 DUP2 MSTORE PUSH1 0x20 ADD PUSH1 0x0 KECCAK256 DUP3 PUSH1 0x0 ADD PUSH1 0x0 SWAP1 SLOAD SWAP1 PUSH2 0x100 EXP SWAP1 DIV PUSH20 0xFFFFFFFFFFFFFFFFFFFFFFFFFFFFFFFFFFFFFFFF AND SWAP1 DUP1 PUSH1 0x1 DUP2 SLOAD ADD DUP1 DUP3 SSTORE DUP1 SWAP2 POP POP PUSH1 0x1 SWAP1 SUB SWAP1 PUSH1 0x0 MSTORE PUSH1 0x20 PUSH1 0x0 KECCAK256 ADD PUSH1 0x0 SWAP1 SWAP2 SWAP1 SWAP2 SWAP1 SWAP2 PUSH2 0x100 EXP DUP2 SLOAD DUP2 PUSH20 0xFFFFFFFFFFFFFFFFFFFFFFFFFFFFFFFFFFFFFFFF MUL NOT AND SWAP1 DUP4 PUSH20 0xFFFFFFFFFFFFFFFFFFFFFFFFFFFFFFFFFFFFFFFF AND MUL OR SWAP1 SSTORE POP DUP1 DUP1 PUSH2 0x2301 SWAP1 PUSH2 0x2D4D JUMP JUMPDEST SWAP2 POP POP PUSH2 0x2170 JUMP JUMPDEST POP PUSH1 0x1 PUSH1 0x1C PUSH1 0x0 DUP6 DUP2 MSTORE PUSH1 0x20 ADD SWAP1 DUP2 MSTORE PUSH1 0x20 ADD PUSH1 0x0 KECCAK256 DUP1 SLOAD SWAP1 POP SUB PUSH2 0x246C JUMPI PUSH1 0x17 PUSH1 0x1D PUSH1 0x0 DUP6 DUP2 MSTORE PUSH1 0x20 ADD SWAP1 DUP2 MSTORE PUSH1 0x20 ADD PUSH1 0x0 KECCAK256 PUSH1 0x0 DUP2 SLOAD DUP2 LT PUSH2 0x2350 JUMPI PUSH2 0x234F PUSH2 0x2CEF JUMP JUMPDEST JUMPDEST SWAP1 PUSH1 0x0 MSTORE PUSH1 0x20 PUSH1 0x0 KECCAK256 ADD SLOAD SWAP1 DUP1 PUSH1 0x1 DUP2 SLOAD ADD DUP1 DUP3 SSTORE DUP1 SWAP2 POP POP PUSH1 0x1 SWAP1 SUB SWAP1 PUSH1 0x0 MSTORE PUSH1 0x20 PUSH1 0x0 KECCAK256 ADD PUSH1 0x0 SWAP1 SWAP2 SWAP1 SWAP2 SWAP1 SWAP2 POP SSTORE PUSH2 0x23DC PUSH1 0x1C PUSH1 0x0 DUP6 DUP2 MSTORE PUSH1 0x20 ADD SWAP1 DUP2 MSTORE PUSH1 0x20 ADD PUSH1 0x0 KECCAK256 PUSH1 0x0 DUP2 SLOAD DUP2 LT PUSH2 0x23AA JUMPI PUSH2 0x23A9 PUSH2 0x2CEF JUMP JUMPDEST JUMPDEST SWAP1 PUSH1 0x0 MSTORE PUSH1 0x20 PUSH1 0x0 KECCAK256 ADD PUSH1 0x0 SWAP1 SLOAD SWAP1 PUSH2 0x100 EXP SWAP1 DIV PUSH20 0xFFFFFFFFFFFFFFFFFFFFFFFFFFFFFFFFFFFFFFFF AND PUSH1 0x1 PUSH2 0x264E JUMP JUMPDEST PUSH32 0x9C2270628A9B29D30AE96B6C4C14ED646EE134FEBDCE38A5B77F2BDE9CEA2E20 PUSH1 0x1C PUSH1 0x0 DUP6 DUP2 MSTORE PUSH1 0x20 ADD SWAP1 DUP2 MSTORE PUSH1 0x20 ADD PUSH1 0x0 KECCAK256 PUSH1 0x0 DUP2 SLOAD DUP2 LT PUSH2 0x2423 JUMPI PUSH2 0x2422 PUSH2 0x2CEF JUMP JUMPDEST JUMPDEST SWAP1 PUSH1 0x0 MSTORE PUSH1 0x20 PUSH1 0x0 KECCAK256 ADD PUSH1 0x0 SWAP1 SLOAD SWAP1 PUSH2 0x100 EXP SWAP1 DIV PUSH20 0xFFFFFFFFFFFFFFFFFFFFFFFFFFFFFFFFFFFFFFFF AND PUSH1 0xB SLOAD PUSH1 0x40 MLOAD PUSH2 0x245F SWAP3 SWAP2 SWAP1 PUSH2 0x318F JUMP JUMPDEST PUSH1 0x40 MLOAD DUP1 SWAP2 SUB SWAP1 LOG1 PUSH2 0x25E3 JUMP JUMPDEST PUSH1 0x0 PUSH1 0x1C PUSH1 0x0 DUP6 DUP2 MSTORE PUSH1 0x20 ADD SWAP1 DUP2 MSTORE PUSH1 0x20 ADD PUSH1 0x0 KECCAK256 DUP1 SLOAD SWAP1 POP SWAP1 POP PUSH1 0x0 JUMPDEST DUP2 DUP2 LT ISZERO PUSH2 0x25E0 JUMPI PUSH1 0x17 PUSH1 0x1D PUSH1 0x0 DUP8 DUP2 MSTORE PUSH1 0x20 ADD SWAP1 DUP2 MSTORE PUSH1 0x20 ADD PUSH1 0x0 KECCAK256 DUP3 DUP2 SLOAD DUP2 LT PUSH2 0x24B9 JUMPI PUSH2 0x24B8 PUSH2 0x2CEF JUMP JUMPDEST JUMPDEST SWAP1 PUSH1 0x0 MSTORE PUSH1 0x20 PUSH1 0x0 KECCAK256 ADD SLOAD SWAP1 DUP1 PUSH1 0x1 DUP2 SLOAD ADD DUP1 DUP3 SSTORE DUP1 SWAP2 POP POP PUSH1 0x1 SWAP1 SUB SWAP1 PUSH1 0x0 MSTORE PUSH1 0x20 PUSH1 0x0 KECCAK256 ADD PUSH1 0x0 SWAP1 SWAP2 SWAP1 SWAP2 SWAP1 SWAP2 POP SSTORE PUSH2 0x2543 PUSH1 0x1C PUSH1 0x0 DUP8 DUP2 MSTORE PUSH1 0x20 ADD SWAP1 DUP2 MSTORE PUSH1 0x20 ADD PUSH1 0x0 KECCAK256 DUP3 DUP2 SLOAD DUP2 LT PUSH2 0x2512 JUMPI PUSH2 0x2511 PUSH2 0x2CEF JUMP JUMPDEST JUMPDEST SWAP1 PUSH1 0x0 MSTORE PUSH1 0x20 PUSH1 0x0 KECCAK256 ADD PUSH1 0x0 SWAP1 SLOAD SWAP1 PUSH2 0x100 EXP SWAP1 DIV PUSH20 0xFFFFFFFFFFFFFFFFFFFFFFFFFFFFFFFFFFFFFFFF AND DUP4 PUSH2 0x264E JUMP JUMPDEST PUSH32 0x9C2270628A9B29D30AE96B6C4C14ED646EE134FEBDCE38A5B77F2BDE9CEA2E20 PUSH1 0x1C PUSH1 0x0 DUP8 DUP2 MSTORE PUSH1 0x20 ADD SWAP1 DUP2 MSTORE PUSH1 0x20 ADD PUSH1 0x0 KECCAK256 DUP3 DUP2 SLOAD DUP2 LT PUSH2 0x2589 JUMPI PUSH2 0x2588 PUSH2 0x2CEF JUMP JUMPDEST JUMPDEST SWAP1 PUSH1 0x0 MSTORE PUSH1 0x20 PUSH1 0x0 KECCAK256 ADD PUSH1 0x0 SWAP1 SLOAD SWAP1 PUSH2 0x100 EXP SWAP1 DIV PUSH20 0xFFFFFFFFFFFFFFFFFFFFFFFFFFFFFFFFFFFFFFFF AND PUSH1 0xB SLOAD PUSH1 0x40 MLOAD PUSH2 0x25C5 SWAP3 SWAP2 SWAP1 PUSH2 0x318F JUMP JUMPDEST PUSH1 0x40 MLOAD DUP1 SWAP2 SUB SWAP1 LOG1 DUP1 DUP1 PUSH2 0x25D8 SWAP1 PUSH2 0x2D4D JUMP JUMPDEST SWAP2 POP POP PUSH2 0x248A JUMP JUMPDEST POP POP JUMPDEST JUMPDEST POP POP POP JUMP JUMPDEST PUSH1 0x0 PUSH1 0x12 PUSH1 0x0 DUP2 SLOAD DUP1 SWAP3 SWAP2 SWAP1 PUSH2 0x25FE SWAP1 PUSH2 0x2D4D JUMP JUMPDEST SWAP2 SWAP1 POP SSTORE POP PUSH3 0xF4240 TIMESTAMP DUP6 DUP6 DUP6 PUSH1 0x12 SLOAD PUSH1 0x40 MLOAD PUSH1 0x20 ADD PUSH2 0x2622 SWAP6 SWAP5 SWAP4 SWAP3 SWAP2 SWAP1 PUSH2 0x3255 JUMP JUMPDEST PUSH1 0x40 MLOAD PUSH1 0x20 DUP2 DUP4 SUB SUB DUP2 MSTORE SWAP1 PUSH1 0x40 MSTORE DUP1 MLOAD SWAP1 PUSH1 0x20 ADD KECCAK256 PUSH1 0x0 SHR PUSH2 0x2645 SWAP2 SWAP1 PUSH2 0x32E3 JUMP JUMPDEST SWAP1 POP SWAP4 SWAP3 POP POP POP JUMP JUMPDEST PUSH1 0x0 DUP2 PUSH1 0xD SLOAD PUSH2 0x265E SWAP2 SWAP1 PUSH2 0x3314 JUMP JUMPDEST SWAP1 POP PUSH1 0x0 DUP4 PUSH20 0xFFFFFFFFFFFFFFFFFFFFFFFFFFFFFFFFFFFFFFFF AND DUP3 PUSH1 0x40 MLOAD PUSH2 0x2686 SWAP1 PUSH2 0x3376 JUMP JUMPDEST PUSH1 0x0 PUSH1 0x40 MLOAD DUP1 DUP4 SUB DUP2 DUP6 DUP8 GAS CALL SWAP3 POP POP POP RETURNDATASIZE DUP1 PUSH1 0x0 DUP2 EQ PUSH2 0x26C3 JUMPI PUSH1 0x40 MLOAD SWAP2 POP PUSH1 0x1F NOT PUSH1 0x3F RETURNDATASIZE ADD AND DUP3 ADD PUSH1 0x40 MSTORE RETURNDATASIZE DUP3 MSTORE RETURNDATASIZE PUSH1 0x0 PUSH1 0x20 DUP5 ADD RETURNDATACOPY PUSH2 0x26C8 JUMP JUMPDEST PUSH1 0x60 SWAP2 POP JUMPDEST POP POP SWAP1 POP DUP1 PUSH2 0x270C JUMPI PUSH1 0x40 MLOAD PUSH32 0x8C379A000000000000000000000000000000000000000000000000000000000 DUP2 MSTORE PUSH1 0x4 ADD PUSH2 0x2703 SWAP1 PUSH2 0x33D7 JUMP JUMPDEST PUSH1 0x40 MLOAD DUP1 SWAP2 SUB SWAP1 REVERT JUMPDEST PUSH32 0x31F01F46758B6B42C15B03A08187AD5B638BA4231CA58DF20B00C5D53C2E1AC4 DUP5 DUP4 PUSH1 0x1 DUP7 GT DUP7 PUSH1 0x40 MLOAD PUSH2 0x2744 SWAP5 SWAP4 SWAP3 SWAP2 SWAP1 PUSH2 0x3412 JUMP JUMPDEST PUSH1 0x40 MLOAD DUP1 SWAP2 SUB SWAP1 LOG1 POP POP POP POP JUMP JUMPDEST PUSH1 0x40 MLOAD DUP1 PUSH1 0xE0 ADD PUSH1 0x40 MSTORE DUP1 PUSH1 0x0 PUSH20 0xFFFFFFFFFFFFFFFFFFFFFFFFFFFFFFFFFFFFFFFF AND DUP2 MSTORE PUSH1 0x20 ADD PUSH1 0x0 DUP2 MSTORE PUSH1 0x20 ADD PUSH1 0x0 DUP2 MSTORE PUSH1 0x20 ADD PUSH1 0x0 DUP2 MSTORE PUSH1 0x20 ADD PUSH1 0x0 DUP2 MSTORE PUSH1 0x20 ADD PUSH1 0x0 DUP2 MSTORE PUSH1 0x20 ADD PUSH1 0x0 DUP2 MSTORE POP SWAP1 JUMP JUMPDEST PUSH1 0x0 DUP2 SWAP1 POP SWAP2 SWAP1 POP JUMP JUMPDEST PUSH2 0x27B8 DUP2 PUSH2 0x27A5 JUMP JUMPDEST DUP3 MSTORE POP POP JUMP JUMPDEST PUSH1 0x0 PUSH1 0x20 DUP3 ADD SWAP1 POP PUSH2 0x27D3 PUSH1 0x0 DUP4 ADD DUP5 PUSH2 0x27AF JUMP JUMPDEST SWAP3 SWAP2 POP POP JUMP JUMPDEST PUSH1 0x0 DUP2 MLOAD SWAP1 POP SWAP2 SWAP1 POP JUMP JUMPDEST PUSH1 0x0 DUP3 DUP3 MSTORE PUSH1 0x20 DUP3 ADD SWAP1 POP SWAP3 SWAP2 POP POP JUMP JUMPDEST PUSH1 0x0 DUP2 SWAP1 POP PUSH1 0x20 DUP3 ADD SWAP1 POP SWAP2 SWAP1 POP JUMP JUMPDEST PUSH1 0x0 PUSH20 0xFFFFFFFFFFFFFFFFFFFFFFFFFFFFFFFFFFFFFFFF DUP3 AND SWAP1 POP SWAP2 SWAP1 POP JUMP JUMPDEST PUSH1 0x0 PUSH2 0x2830 DUP3 PUSH2 0x2805 JUMP JUMPDEST SWAP1 POP SWAP2 SWAP1 POP JUMP JUMPDEST PUSH2 0x2840 DUP2 PUSH2 0x2825 JUMP JUMPDEST DUP3 MSTORE POP POP JUMP JUMPDEST PUSH2 0x284F DUP2 PUSH2 0x27A5 JUMP JUMPDEST DUP3 MSTORE POP POP JUMP JUMPDEST PUSH1 0xE0 DUP3 ADD PUSH1 0x0 DUP3 ADD MLOAD PUSH2 0x286B PUSH1 0x0 DUP6 ADD DUP3 PUSH2 0x2837 JUMP JUMPDEST POP PUSH1 0x20 DUP3 ADD MLOAD PUSH2 0x287E PUSH1 0x20 DUP6 ADD DUP3 PUSH2 0x2846 JUMP JUMPDEST POP PUSH1 0x40 DUP3 ADD MLOAD PUSH2 0x2891 PUSH1 0x40 DUP6 ADD DUP3 PUSH2 0x2846 JUMP JUMPDEST POP PUSH1 0x60 DUP3 ADD MLOAD PUSH2 0x28A4 PUSH1 0x60 DUP6 ADD DUP3 PUSH2 0x2846 JUMP JUMPDEST POP PUSH1 0x80 DUP3 ADD MLOAD PUSH2 0x28B7 PUSH1 0x80 DUP6 ADD DUP3 PUSH2 0x2846 JUMP JUMPDEST POP PUSH1 0xA0 DUP3 ADD MLOAD PUSH2 0x28CA PUSH1 0xA0 DUP6 ADD DUP3 PUSH2 0x2846 JUMP JUMPDEST POP PUSH1 0xC0 DUP3 ADD MLOAD PUSH2 0x28DD PUSH1 0xC0 DUP6 ADD DUP3 PUSH2 0x2846 JUMP JUMPDEST POP POP POP POP JUMP JUMPDEST PUSH1 0x0 PUSH2 0x28EF DUP4 DUP4 PUSH2 0x2855 JUMP JUMPDEST PUSH1 0xE0 DUP4 ADD SWAP1 POP SWAP3 SWAP2 POP POP JUMP JUMPDEST PUSH1 0x0 PUSH1 0x20 DUP3 ADD SWAP1 POP SWAP2 SWAP1 POP JUMP JUMPDEST PUSH1 0x0 PUSH2 0x2913 DUP3 PUSH2 0x27D9 JUMP JUMPDEST PUSH2 0x291D DUP2 DUP6 PUSH2 0x27E4 JUMP JUMPDEST SWAP4 POP PUSH2 0x2928 DUP4 PUSH2 0x27F5 JUMP JUMPDEST DUP1 PUSH1 0x0 JUMPDEST DUP4 DUP2 LT ISZERO PUSH2 0x2959 JUMPI DUP2 MLOAD PUSH2 0x2940 DUP9 DUP3 PUSH2 0x28E3 JUMP JUMPDEST SWAP8 POP PUSH2 0x294B DUP4 PUSH2 0x28FB JUMP JUMPDEST SWAP3 POP POP PUSH1 0x1 DUP2 ADD SWAP1 POP PUSH2 0x292C JUMP JUMPDEST POP DUP6 SWAP4 POP POP POP POP SWAP3 SWAP2 POP POP JUMP JUMPDEST PUSH1 0x0 PUSH1 0x40 DUP3 ADD SWAP1 POP DUP2 DUP2 SUB PUSH1 0x0 DUP4 ADD MSTORE PUSH2 0x2980 DUP2 DUP6 PUSH2 0x2908 JUMP JUMPDEST SWAP1 POP PUSH2 0x298F PUSH1 0x20 DUP4 ADD DUP5 PUSH2 0x27AF JUMP JUMPDEST SWAP4 SWAP3 POP POP POP JUMP JUMPDEST PUSH1 0x0 DUP1 REVERT JUMPDEST PUSH2 0x29A4 DUP2 PUSH2 0x2825 JUMP JUMPDEST DUP2 EQ PUSH2 0x29AF JUMPI PUSH1 0x0 DUP1 REVERT JUMPDEST POP JUMP JUMPDEST PUSH1 0x0 DUP2 CALLDATALOAD SWAP1 POP PUSH2 0x29C1 DUP2 PUSH2 0x299B JUMP JUMPDEST SWAP3 SWAP2 POP POP JUMP JUMPDEST PUSH2 0x29D0 DUP2 PUSH2 0x27A5 JUMP JUMPDEST DUP2 EQ PUSH2 0x29DB JUMPI PUSH1 0x0 DUP1 REVERT JUMPDEST POP JUMP JUMPDEST PUSH1 0x0 DUP2 CALLDATALOAD SWAP1 POP PUSH2 0x29ED DUP2 PUSH2 0x29C7 JUMP JUMPDEST SWAP3 SWAP2 POP POP JUMP JUMPDEST PUSH1 0x0 DUP1 PUSH1 0x40 DUP4 DUP6 SUB SLT ISZERO PUSH2 0x2A0A JUMPI PUSH2 0x2A09 PUSH2 0x2996 JUMP JUMPDEST JUMPDEST PUSH1 0x0 PUSH2 0x2A18 DUP6 DUP3 DUP7 ADD PUSH2 0x29B2 JUMP JUMPDEST SWAP3 POP POP PUSH1 0x20 PUSH2 0x2A29 DUP6 DUP3 DUP7 ADD PUSH2 0x29DE JUMP JUMPDEST SWAP2 POP POP SWAP3 POP SWAP3 SWAP1 POP JUMP JUMPDEST PUSH2 0x2A3C DUP2 PUSH2 0x2825 JUMP JUMPDEST DUP3 MSTORE POP POP JUMP JUMPDEST PUSH1 0x0 PUSH1 0xE0 DUP3 ADD SWAP1 POP PUSH2 0x2A57 PUSH1 0x0 DUP4 ADD DUP11 PUSH2 0x2A33 JUMP JUMPDEST PUSH2 0x2A64 PUSH1 0x20 DUP4 ADD DUP10 PUSH2 0x27AF JUMP JUMPDEST PUSH2 0x2A71 PUSH1 0x40 DUP4 ADD DUP9 PUSH2 0x27AF JUMP JUMPDEST PUSH2 0x2A7E PUSH1 0x60 DUP4 ADD DUP8 PUSH2 0x27AF JUMP JUMPDEST PUSH2 0x2A8B PUSH1 0x80 DUP4 ADD DUP7 PUSH2 0x27AF JUMP JUMPDEST PUSH2 0x2A98 PUSH1 0xA0 DUP4 ADD DUP6 PUSH2 0x27AF JUMP JUMPDEST PUSH2 0x2AA5 PUSH1 0xC0 DUP4 ADD DUP5 PUSH2 0x27AF JUMP JUMPDEST SWAP9 SWAP8 POP POP POP POP POP POP POP POP JUMP JUMPDEST PUSH1 0x0 PUSH1 0x20 DUP3 DUP5 SUB SLT ISZERO PUSH2 0x2AC7 JUMPI PUSH2 0x2AC6 PUSH2 0x2996 JUMP JUMPDEST JUMPDEST PUSH1 0x0 PUSH2 0x2AD5 DUP5 DUP3 DUP6 ADD PUSH2 0x29DE JUMP JUMPDEST SWAP2 POP POP SWAP3 SWAP2 POP POP JUMP JUMPDEST PUSH1 0x0 DUP1 PUSH1 0x40 DUP4 DUP6 SUB SLT ISZERO PUSH2 0x2AF5 JUMPI PUSH2 0x2AF4 PUSH2 0x2996 JUMP JUMPDEST JUMPDEST PUSH1 0x0 PUSH2 0x2B03 DUP6 DUP3 DUP7 ADD PUSH2 0x29DE JUMP JUMPDEST SWAP3 POP POP PUSH1 0x20 PUSH2 0x2B14 DUP6 DUP3 DUP7 ADD PUSH2 0x29DE JUMP JUMPDEST SWAP2 POP POP SWAP3 POP SWAP3 SWAP1 POP JUMP JUMPDEST PUSH1 0x0 PUSH1 0x20 DUP3 ADD SWAP1 POP DUP2 DUP2 SUB PUSH1 0x0 DUP4 ADD MSTORE PUSH2 0x2B38 DUP2 DUP5 PUSH2 0x2908 JUMP JUMPDEST SWAP1 POP SWAP3 SWAP2 POP POP JUMP JUMPDEST PUSH1 0x0 DUP2 MLOAD SWAP1 POP SWAP2 SWAP1 POP JUMP JUMPDEST PUSH1 0x0 DUP3 DUP3 MSTORE PUSH1 0x20 DUP3 ADD SWAP1 POP SWAP3 SWAP2 POP POP JUMP JUMPDEST PUSH1 0x0 DUP2 SWAP1 POP PUSH1 0x20 DUP3 ADD SWAP1 POP SWAP2 SWAP1 POP JUMP JUMPDEST PUSH1 0x0 PUSH2 0x2B78 DUP4 DUP4 PUSH2 0x2846 JUMP JUMPDEST PUSH1 0x20 DUP4 ADD SWAP1 POP SWAP3 SWAP2 POP POP JUMP JUMPDEST PUSH1 0x0 PUSH1 0x20 DUP3 ADD SWAP1 POP SWAP2 SWAP1 POP JUMP JUMPDEST PUSH1 0x0 PUSH2 0x2B9C DUP3 PUSH2 0x2B40 JUMP JUMPDEST PUSH2 0x2BA6 DUP2 DUP6 PUSH2 0x2B4B JUMP JUMPDEST SWAP4 POP PUSH2 0x2BB1 DUP4 PUSH2 0x2B5C JUMP JUMPDEST DUP1 PUSH1 0x0 JUMPDEST DUP4 DUP2 LT ISZERO PUSH2 0x2BE2 JUMPI DUP2 MLOAD PUSH2 0x2BC9 DUP9 DUP3 PUSH2 0x2B6C JUMP JUMPDEST SWAP8 POP PUSH2 0x2BD4 DUP4 PUSH2 0x2B84 JUMP JUMPDEST SWAP3 POP POP PUSH1 0x1 DUP2 ADD SWAP1 POP PUSH2 0x2BB5 JUMP JUMPDEST POP DUP6 SWAP4 POP POP POP POP SWAP3 SWAP2 POP POP JUMP JUMPDEST PUSH1 0x0 PUSH1 0x20 DUP3 ADD SWAP1 POP DUP2 DUP2 SUB PUSH1 0x0 DUP4 ADD MSTORE PUSH2 0x2C09 DUP2 DUP5 PUSH2 0x2B91 JUMP JUMPDEST SWAP1 POP SWAP3 SWAP2 POP POP JUMP JUMPDEST PUSH1 0x0 DUP1 PUSH1 0x0 DUP1 PUSH1 0x80 DUP6 DUP8 SUB SLT ISZERO PUSH2 0x2C2B JUMPI PUSH2 0x2C2A PUSH2 0x2996 JUMP JUMPDEST JUMPDEST PUSH1 0x0 PUSH2 0x2C39 DUP8 DUP3 DUP9 ADD PUSH2 0x29DE JUMP JUMPDEST SWAP5 POP POP PUSH1 0x20 PUSH2 0x2C4A DUP8 DUP3 DUP9 ADD PUSH2 0x29DE JUMP JUMPDEST SWAP4 POP POP PUSH1 0x40 PUSH2 0x2C5B DUP8 DUP3 DUP9 ADD PUSH2 0x29DE JUMP JUMPDEST SWAP3 POP POP PUSH1 0x60 PUSH2 0x2C6C DUP8 DUP3 DUP9 ADD PUSH2 0x29DE JUMP JUMPDEST SWAP2 POP POP SWAP3 SWAP6 SWAP2 SWAP5 POP SWAP3 POP JUMP JUMPDEST PUSH1 0x0 PUSH1 0x20 DUP3 ADD SWAP1 POP PUSH2 0x2C8D PUSH1 0x0 DUP4 ADD DUP5 PUSH2 0x2A33 JUMP JUMPDEST SWAP3 SWAP2 POP POP JUMP JUMPDEST PUSH1 0x0 PUSH1 0x20 DUP3 DUP5 SUB SLT ISZERO PUSH2 0x2CA9 JUMPI PUSH2 0x2CA8 PUSH2 0x2996 JUMP JUMPDEST JUMPDEST PUSH1 0x0 PUSH2 0x2CB7 DUP5 DUP3 DUP6 ADD PUSH2 0x29B2 JUMP JUMPDEST SWAP2 POP POP SWAP3 SWAP2 POP POP JUMP JUMPDEST PUSH32 0x4E487B7100000000000000000000000000000000000000000000000000000000 PUSH1 0x0 MSTORE PUSH1 0x41 PUSH1 0x4 MSTORE PUSH1 0x24 PUSH1 0x0 REVERT JUMPDEST PUSH32 0x4E487B7100000000000000000000000000000000000000000000000000000000 PUSH1 0x0 MSTORE PUSH1 0x32 PUSH1 0x4 MSTORE PUSH1 0x24 PUSH1 0x0 REVERT JUMPDEST PUSH32 0x4E487B7100000000000000000000000000000000000000000000000000000000 PUSH1 0x0 MSTORE PUSH1 0x11 PUSH1 0x4 MSTORE PUSH1 0x24 PUSH1 0x0 REVERT JUMPDEST PUSH1 0x0 PUSH2 0x2D58 DUP3 PUSH2 0x27A5 JUMP JUMPDEST SWAP2 POP PUSH32 0xFFFFFFFFFFFFFFFFFFFFFFFFFFFFFFFFFFFFFFFFFFFFFFFFFFFFFFFFFFFFFFFF DUP3 SUB PUSH2 0x2D8A JUMPI PUSH2 0x2D89 PUSH2 0x2D1E JUMP JUMPDEST JUMPDEST PUSH1 0x1 DUP3 ADD SWAP1 POP SWAP2 SWAP1 POP JUMP JUMPDEST PUSH1 0x0 DUP3 DUP3 MSTORE PUSH1 0x20 DUP3 ADD SWAP1 POP SWAP3 SWAP2 POP POP JUMP JUMPDEST PUSH32 0x4E6F7420617574686F72697A65642E0000000000000000000000000000000000 PUSH1 0x0 DUP3 ADD MSTORE POP JUMP JUMPDEST PUSH1 0x0 PUSH2 0x2DDC PUSH1 0xF DUP4 PUSH2 0x2D95 JUMP JUMPDEST SWAP2 POP PUSH2 0x2DE7 DUP3 PUSH2 0x2DA6 JUMP JUMPDEST PUSH1 0x20 DUP3 ADD SWAP1 POP SWAP2 SWAP1 POP JUMP JUMPDEST PUSH1 0x0 PUSH1 0x20 DUP3 ADD SWAP1 POP DUP2 DUP2 SUB PUSH1 0x0 DUP4 ADD MSTORE PUSH2 0x2E0B DUP2 PUSH2 0x2DCF JUMP JUMPDEST SWAP1 POP SWAP2 SWAP1 POP JUMP JUMPDEST PUSH32 0x43616E6E6F742073636F726520756E74696C204E6174696F6E616C204368616D PUSH1 0x0 DUP3 ADD MSTORE PUSH32 0x70696F6E7368697020686173206265656E20706C617965642E00000000000000 PUSH1 0x20 DUP3 ADD MSTORE POP JUMP JUMPDEST PUSH1 0x0 PUSH2 0x2E6E PUSH1 0x39 DUP4 PUSH2 0x2D95 JUMP JUMPDEST SWAP2 POP PUSH2 0x2E79 DUP3 PUSH2 0x2E12 JUMP JUMPDEST PUSH1 0x40 DUP3 ADD SWAP1 POP SWAP2 SWAP1 POP JUMP JUMPDEST PUSH1 0x0 PUSH1 0x20 DUP3 ADD SWAP1 POP DUP2 DUP2 SUB PUSH1 0x0 DUP4 ADD MSTORE PUSH2 0x2E9D DUP2 PUSH2 0x2E61 JUMP JUMPDEST SWAP1 POP SWAP2 SWAP1 POP JUMP JUMPDEST PUSH32 0x43616E6E6F742073636F726520756E74696C2053656D6966696E616C73206861 PUSH1 0x0 DUP3 ADD MSTORE PUSH32 0x7665206265656E20706C617965642E0000000000000000000000000000000000 PUSH1 0x20 DUP3 ADD MSTORE POP JUMP JUMPDEST PUSH1 0x0 PUSH2 0x2F00 PUSH1 0x2F DUP4 PUSH2 0x2D95 JUMP JUMPDEST SWAP2 POP PUSH2 0x2F0B DUP3 PUSH2 0x2EA4 JUMP JUMPDEST PUSH1 0x40 DUP3 ADD SWAP1 POP SWAP2 SWAP1 POP JUMP JUMPDEST PUSH1 0x0 PUSH1 0x20 DUP3 ADD SWAP1 POP DUP2 DUP2 SUB PUSH1 0x0 DUP4 ADD MSTORE PUSH2 0x2F2F DUP2 PUSH2 0x2EF3 JUMP JUMPDEST SWAP1 POP SWAP2 SWAP1 POP JUMP JUMPDEST PUSH32 0x496E636F727265637420656E747279206665652E000000000000000000000000 PUSH1 0x0 DUP3 ADD MSTORE POP JUMP JUMPDEST PUSH1 0x0 PUSH2 0x2F6C PUSH1 0x14 DUP4 PUSH2 0x2D95 JUMP JUMPDEST SWAP2 POP PUSH2 0x2F77 DUP3 PUSH2 0x2F36 JUMP JUMPDEST PUSH1 0x20 DUP3 ADD SWAP1 POP SWAP2 SWAP1 POP JUMP JUMPDEST PUSH1 0x0 PUSH1 0x20 DUP3 ADD SWAP1 POP DUP2 DUP2 SUB PUSH1 0x0 DUP4 ADD MSTORE PUSH2 0x2F9B DUP2 PUSH2 0x2F5F JUMP JUMPDEST SWAP1 POP SWAP2 SWAP1 POP JUMP JUMPDEST PUSH32 0x4346502073656C656374696F6E732068617665206E6F74206265656E2066696E PUSH1 0x0 DUP3 ADD MSTORE PUSH32 0x616C697A65642E00000000000000000000000000000000000000000000000000 PUSH1 0x20 DUP3 ADD MSTORE POP JUMP JUMPDEST PUSH1 0x0 PUSH2 0x2FFE PUSH1 0x27 DUP4 PUSH2 0x2D95 JUMP JUMPDEST SWAP2 POP PUSH2 0x3009 DUP3 PUSH2 0x2FA2 JUMP JUMPDEST PUSH1 0x40 DUP3 ADD SWAP1 POP SWAP2 SWAP1 POP JUMP JUMPDEST PUSH1 0x0 PUSH1 0x20 DUP3 ADD SWAP1 POP DUP2 DUP2 SUB PUSH1 0x0 DUP4 ADD MSTORE PUSH2 0x302D DUP2 PUSH2 0x2FF1 JUMP JUMPDEST SWAP1 POP SWAP2 SWAP1 POP JUMP JUMPDEST PUSH32 0x456E74727920706572696F642068617320636C6F7365642E0000000000000000 PUSH1 0x0 DUP3 ADD MSTORE POP JUMP JUMPDEST PUSH1 0x0 PUSH2 0x306A PUSH1 0x18 DUP4 PUSH2 0x2D95 JUMP JUMPDEST SWAP2 POP PUSH2 0x3075 DUP3 PUSH2 0x3034 JUMP JUMPDEST PUSH1 0x20 DUP3 ADD SWAP1 POP SWAP2 SWAP1 POP JUMP JUMPDEST PUSH1 0x0 PUSH1 0x20 DUP3 ADD SWAP1 POP DUP2 DUP2 SUB PUSH1 0x0 DUP4 ADD MSTORE PUSH2 0x3099 DUP2 PUSH2 0x305D JUMP JUMPDEST SWAP1 POP SWAP2 SWAP1 POP JUMP JUMPDEST PUSH32 0x4D6178696D756D20616D6F756E74206F6620656E747269657320726561636865 PUSH1 0x0 DUP3 ADD MSTORE PUSH32 0x6420666F72207468697320616464726573732E00000000000000000000000000 PUSH1 0x20 DUP3 ADD MSTORE POP JUMP JUMPDEST PUSH1 0x0 PUSH2 0x30FC PUSH1 0x33 DUP4 PUSH2 0x2D95 JUMP JUMPDEST SWAP2 POP PUSH2 0x3107 DUP3 PUSH2 0x30A0 JUMP JUMPDEST PUSH1 0x40 DUP3 ADD SWAP1 POP SWAP2 SWAP1 POP JUMP JUMPDEST PUSH1 0x0 PUSH1 0x20 DUP3 ADD SWAP1 POP DUP2 DUP2 SUB PUSH1 0x0 DUP4 ADD MSTORE PUSH2 0x312B DUP2 PUSH2 0x30EF JUMP JUMPDEST SWAP1 POP SWAP2 SWAP1 POP JUMP JUMPDEST PUSH1 0x0 PUSH2 0x313D DUP3 PUSH2 0x27A5 JUMP JUMPDEST SWAP2 POP PUSH2 0x3148 DUP4 PUSH2 0x27A5 JUMP JUMPDEST SWAP3 POP DUP3 DUP3 ADD SWAP1 POP DUP1 DUP3 GT ISZERO PUSH2 0x3160 JUMPI PUSH2 0x315F PUSH2 0x2D1E JUMP JUMPDEST JUMPDEST SWAP3 SWAP2 POP POP JUMP JUMPDEST PUSH1 0x0 PUSH1 0x40 DUP3 ADD SWAP1 POP PUSH2 0x317B PUSH1 0x0 DUP4 ADD DUP6 PUSH2 0x27AF JUMP JUMPDEST PUSH2 0x3188 PUSH1 0x20 DUP4 ADD DUP5 PUSH2 0x27AF JUMP JUMPDEST SWAP4 SWAP3 POP POP POP JUMP JUMPDEST PUSH1 0x0 PUSH1 0x40 DUP3 ADD SWAP1 POP PUSH2 0x31A4 PUSH1 0x0 DUP4 ADD DUP6 PUSH2 0x2A33 JUMP JUMPDEST PUSH2 0x31B1 PUSH1 0x20 DUP4 ADD DUP5 PUSH2 0x27AF JUMP JUMPDEST SWAP4 SWAP3 POP POP POP JUMP JUMPDEST PUSH1 0x0 PUSH2 0x31C3 DUP3 PUSH2 0x27A5 JUMP JUMPDEST SWAP2 POP PUSH2 0x31CE DUP4 PUSH2 0x27A5 JUMP JUMPDEST SWAP3 POP DUP3 DUP3 SUB SWAP1 POP DUP2 DUP2 GT ISZERO PUSH2 0x31E6 JUMPI PUSH2 0x31E5 PUSH2 0x2D1E JUMP JUMPDEST JUMPDEST SWAP3 SWAP2 POP POP JUMP JUMPDEST PUSH1 0x0 DUP2 SWAP1 POP SWAP2 SWAP1 POP JUMP JUMPDEST PUSH2 0x3207 PUSH2 0x3202 DUP3 PUSH2 0x27A5 JUMP JUMPDEST PUSH2 0x31EC JUMP JUMPDEST DUP3 MSTORE POP POP JUMP JUMPDEST PUSH1 0x0 DUP2 PUSH1 0x60 SHL SWAP1 POP SWAP2 SWAP1 POP JUMP JUMPDEST PUSH1 0x0 PUSH2 0x3225 DUP3 PUSH2 0x320D JUMP JUMPDEST SWAP1 POP SWAP2 SWAP1 POP JUMP JUMPDEST PUSH1 0x0 PUSH2 0x3237 DUP3 PUSH2 0x321A JUMP JUMPDEST SWAP1 POP SWAP2 SWAP1 POP JUMP JUMPDEST PUSH2 0x324F PUSH2 0x324A DUP3 PUSH2 0x2825 JUMP JUMPDEST PUSH2 0x322C JUMP JUMPDEST DUP3 MSTORE POP POP JUMP JUMPDEST PUSH1 0x0 PUSH2 0x3261 DUP3 DUP9 PUSH2 0x31F6 JUMP JUMPDEST PUSH1 0x20 DUP3 ADD SWAP2 POP PUSH2 0x3271 DUP3 DUP8 PUSH2 0x323E JUMP JUMPDEST PUSH1 0x14 DUP3 ADD SWAP2 POP PUSH2 0x3281 DUP3 DUP7 PUSH2 0x31F6 JUMP JUMPDEST PUSH1 0x20 DUP3 ADD SWAP2 POP PUSH2 0x3291 DUP3 DUP6 PUSH2 0x31F6 JUMP JUMPDEST PUSH1 0x20 DUP3 ADD SWAP2 POP PUSH2 0x32A1 DUP3 DUP5 PUSH2 0x31F6 JUMP JUMPDEST PUSH1 0x20 DUP3 ADD SWAP2 POP DUP2 SWAP1 POP SWAP7 SWAP6 POP POP POP POP POP POP JUMP JUMPDEST PUSH32 0x4E487B7100000000000000000000000000000000000000000000000000000000 PUSH1 0x0 MSTORE PUSH1 0x12 PUSH1 0x4 MSTORE PUSH1 0x24 PUSH1 0x0 REVERT JUMPDEST PUSH1 0x0 PUSH2 0x32EE DUP3 PUSH2 0x27A5 JUMP JUMPDEST SWAP2 POP PUSH2 0x32F9 DUP4 PUSH2 0x27A5 JUMP JUMPDEST SWAP3 POP DUP3 PUSH2 0x3309 JUMPI PUSH2 0x3308 PUSH2 0x32B4 JUMP JUMPDEST JUMPDEST DUP3 DUP3 MOD SWAP1 POP SWAP3 SWAP2 POP POP JUMP JUMPDEST PUSH1 0x0 PUSH2 0x331F DUP3 PUSH2 0x27A5 JUMP JUMPDEST SWAP2 POP PUSH2 0x332A DUP4 PUSH2 0x27A5 JUMP JUMPDEST SWAP3 POP DUP3 PUSH2 0x333A JUMPI PUSH2 0x3339 PUSH2 0x32B4 JUMP JUMPDEST JUMPDEST DUP3 DUP3 DIV SWAP1 POP SWAP3 SWAP2 POP POP JUMP JUMPDEST PUSH1 0x0 DUP2 SWAP1 POP SWAP3 SWAP2 POP POP JUMP JUMPDEST POP JUMP JUMPDEST PUSH1 0x0 PUSH2 0x3360 PUSH1 0x0 DUP4 PUSH2 0x3345 JUMP JUMPDEST SWAP2 POP PUSH2 0x336B DUP3 PUSH2 0x3350 JUMP JUMPDEST PUSH1 0x0 DUP3 ADD SWAP1 POP SWAP2 SWAP1 POP JUMP JUMPDEST PUSH1 0x0 PUSH2 0x3381 DUP3 PUSH2 0x3353 JUMP JUMPDEST SWAP2 POP DUP2 SWAP1 POP SWAP2 SWAP1 POP JUMP JUMPDEST PUSH32 0x4661696C656420746F2073656E642077696E6E696E67732E0000000000000000 PUSH1 0x0 DUP3 ADD MSTORE POP JUMP JUMPDEST PUSH1 0x0 PUSH2 0x33C1 PUSH1 0x18 DUP4 PUSH2 0x2D95 JUMP JUMPDEST SWAP2 POP PUSH2 0x33CC DUP3 PUSH2 0x338B JUMP JUMPDEST PUSH1 0x20 DUP3 ADD SWAP1 POP SWAP2 SWAP1 POP JUMP JUMPDEST PUSH1 0x0 PUSH1 0x20 DUP3 ADD SWAP1 POP DUP2 DUP2 SUB PUSH1 0x0 DUP4 ADD MSTORE PUSH2 0x33F0 DUP2 PUSH2 0x33B4 JUMP JUMPDEST SWAP1 POP SWAP2 SWAP1 POP JUMP JUMPDEST PUSH1 0x0 DUP2 ISZERO ISZERO SWAP1 POP SWAP2 SWAP1 POP JUMP JUMPDEST PUSH2 0x340C DUP2 PUSH2 0x33F7 JUMP JUMPDEST DUP3 MSTORE POP POP JUMP JUMPDEST PUSH1 0x0 PUSH1 0x80 DUP3 ADD SWAP1 POP PUSH2 0x3427 PUSH1 0x0 DUP4 ADD DUP8 PUSH2 0x2A33 JUMP JUMPDEST PUSH2 0x3434 PUSH1 0x20 DUP4 ADD DUP7 PUSH2 0x27AF JUMP JUMPDEST PUSH2 0x3441 PUSH1 0x40 DUP4 ADD DUP6 PUSH2 0x3403 JUMP JUMPDEST PUSH2 0x344E PUSH1 0x60 DUP4 ADD DUP5 PUSH2 0x27AF JUMP JUMPDEST SWAP6 SWAP5 POP POP POP POP POP JUMP INVALID LOG2 PUSH5 0x6970667358 0x22 SLT KECCAK256 0xE6 CALLDATASIZE 0xDE DUP13 DUP4 LOG0 0xBD EQ DUP8 0xA6 0x4E 0x4B 0xDD 0x2C LT 0xD6 XOR CALLDATACOPY 0x24 0xD1 0x4C DUP16 SSTORE 0xDC 0x1E PUSH24 0x509D34E2E4EB64736F6C6343000814003300000000000000 "},"methodIdentifiers":{"allBrackets(uint256)":"c37996f1","brackets(address,uint256)":"34ff5644","champComplete()":"d60dac3d","champion()":"44866955","championshipTotalPoints()":"be6b3337","commissioner()":"f1894498","differences(uint256,uint256)":"dd917b29","differencesIDs(uint256,uint256)":"a337a604","entrants(uint256)":"e7b4e5ab","entries(address)":"f29ee125","entryFee()":"072ea61c","four()":"a1fca2b6","getAllEntries()":"4a0364e8","getMyBrackets()":"18901b71","getWinnerIDs()":"75662e96","joinPool(uint256,uint256,uint256,uint256)":"98f6a197","lockTimestamp()":"b544bf83","maxEntries()":"f23f3ba5","mostPoints()":"cf065419","one()":"901717d1","points(uint256,uint256)":"e3cdda39","pot()":"4ba2363a","randNonce()":"61e01356","scoreFinal(uint256,uint256)":"443e4a39","scoreSemifinal(uint256,uint256)":"931e55aa","scoredAfterChamp(uint256)":"3bca800f","scoredAfterSemis(uint256)":"cf92a0c7","scoredBrackets(uint256,uint256)":"4d3c3a41","semifinalOneWinner()":"ffe81da8","semifinalTwoWinner()":"b7ce8a99","semisComplete()":"cc789085","three()":"45caa117","totalEntries()":"7fef036e","two()":"5fdf05d7","unlockTimestamp()":"aa082a9d","winningIDs(uint256)":"88c113d6"}},"storageLayout":{"storage":[{"astId":18,"contract":"contracts/PlayoffPool.sol:PlayoffPool","label":"commissioner","offset":0,"slot":"0","type":"t_address"},{"astId":20,"contract":"contracts/PlayoffPool.sol:PlayoffPool","label":"entryFee","offset":0,"slot":"1","type":"t_uint256"},{"astId":22,"contract":"contracts/PlayoffPool.sol:PlayoffPool","label":"maxEntries","offset":0,"slot":"2","type":"t_uint256"},{"astId":24,"contract":"contracts/PlayoffPool.sol:PlayoffPool","label":"one","offset":0,"slot":"3","type":"t_uint256"},{"astId":26,"contract":"contracts/PlayoffPool.sol:PlayoffPool","label":"two","offset":0,"slot":"4","type":"t_uint256"},{"astId":28,"contract":"contracts/PlayoffPool.sol:PlayoffPool","label":"three","offset":0,"slot":"5","type":"t_uint256"},{"astId":30,"contract":"contracts/PlayoffPool.sol:PlayoffPool","label":"four","offset":0,"slot":"6","type":"t_uint256"},{"astId":32,"contract":"contracts/PlayoffPool.sol:PlayoffPool","label":"semifinalOneWinner","offset":0,"slot":"7","type":"t_uint256"},{"astId":34,"contract":"contracts/PlayoffPool.sol:PlayoffPool","label":"semifinalTwoWinner","offset":0,"slot":"8","type":"t_uint256"},{"astId":36,"contract":"contracts/PlayoffPool.sol:PlayoffPool","label":"champion","offset":0,"slot":"9","type":"t_uint256"},{"astId":38,"contract":"contracts/PlayoffPool.sol:PlayoffPool","label":"championshipTotalPoints","offset":0,"slot":"10","type":"t_uint256"},{"astId":40,"contract":"contracts/PlayoffPool.sol:PlayoffPool","label":"mostPoints","offset":0,"slot":"11","type":"t_uint256"},{"astId":42,"contract":"contracts/PlayoffPool.sol:PlayoffPool","label":"totalEntries","offset":0,"slot":"12","type":"t_uint256"},{"astId":44,"contract":"contracts/PlayoffPool.sol:PlayoffPool","label":"pot","offset":0,"slot":"13","type":"t_uint256"},{"astId":46,"contract":"contracts/PlayoffPool.sol:PlayoffPool","label":"unlockTimestamp","offset":0,"slot":"14","type":"t_uint256"},{"astId":48,"contract":"contracts/PlayoffPool.sol:PlayoffPool","label":"lockTimestamp","offset":0,"slot":"15","type":"t_uint256"},{"astId":50,"contract":"contracts/PlayoffPool.sol:PlayoffPool","label":"semisComplete","offset":0,"slot":"16","type":"t_uint256"},{"astId":52,"contract":"contracts/PlayoffPool.sol:PlayoffPool","label":"champComplete","offset":0,"slot":"17","type":"t_uint256"},{"astId":55,"contract":"contracts/PlayoffPool.sol:PlayoffPool","label":"randNonce","offset":0,"slot":"18","type":"t_uint256"},{"astId":59,"contract":"contracts/PlayoffPool.sol:PlayoffPool","label":"allBrackets","offset":0,"slot":"19","type":"t_array(t_struct(Bracket)16_storage)dyn_storage"},{"astId":63,"contract":"contracts/PlayoffPool.sol:PlayoffPool","label":"scoredAfterSemis","offset":0,"slot":"20","type":"t_array(t_struct(Bracket)16_storage)dyn_storage"},{"astId":67,"contract":"contracts/PlayoffPool.sol:PlayoffPool","label":"scoredAfterChamp","offset":0,"slot":"21","type":"t_array(t_struct(Bracket)16_storage)dyn_storage"},{"astId":70,"contract":"contracts/PlayoffPool.sol:PlayoffPool","label":"entrants","offset":0,"slot":"22","type":"t_array(t_address)dyn_storage"},{"astId":73,"contract":"contracts/PlayoffPool.sol:PlayoffPool","label":"winningIDs","offset":0,"slot":"23","type":"t_array(t_uint256)dyn_storage"},{"astId":77,"contract":"contracts/PlayoffPool.sol:PlayoffPool","label":"entries","offset":0,"slot":"24","type":"t_mapping(t_address,t_uint256)"},{"astId":83,"contract":"contracts/PlayoffPool.sol:PlayoffPool","label":"brackets","offset":0,"slot":"25","type":"t_mapping(t_address,t_array(t_struct(Bracket)16_storage)dyn_storage)"},{"astId":88,"contract":"contracts/PlayoffPool.sol:PlayoffPool","label":"points","offset":0,"slot":"26","type":"t_mapping(t_uint256,t_array(t_address)dyn_storage)"},{"astId":94,"contract":"contracts/PlayoffPool.sol:PlayoffPool","label":"scoredBrackets","offset":0,"slot":"27","type":"t_mapping(t_uint256,t_array(t_struct(Bracket)16_storage)dyn_storage)"},{"astId":99,"contract":"contracts/PlayoffPool.sol:PlayoffPool","label":"differences","offset":0,"slot":"28","type":"t_mapping(t_uint256,t_array(t_address)dyn_storage)"},{"astId":104,"contract":"contracts/PlayoffPool.sol:PlayoffPool","label":"differencesIDs","offset":0,"slot":"29","type":"t_mapping(t_uint256,t_array(t_uint256)dyn_storage)"}],"types":{"t_address":{"encoding":"inplace","label":"address","numberOfBytes":"20"},"t_array(t_address)dyn_storage":{"base":"t_address","encoding":"dynamic_array","label":"address[]","numberOfBytes":"32"},"t_array(t_struct(Bracket)16_storage)dyn_storage":{"base":"t_struct(Bracket)16_storage","encoding":"dynamic_array","label":"struct PlayoffPool.Bracket[]","numberOfBytes":"32"},"t_array(t_uint256)dyn_storage":{"base":"t_uint256","encoding":"dynamic_array","label":"uint256[]","numberOfBytes":"32"},"t_mapping(t_address,t_array(t_struct(Bracket)16_storage)dyn_storage)":{"encoding":"mapping","key":"t_address","label":"mapping(address => struct PlayoffPool.Bracket[])","numberOfBytes":"32","value":"t_array(t_struct(Bracket)16_storage)dyn_storage"},"t_mapping(t_address,t_uint256)":{"encoding":"mapping","key":"t_address","label":"mapping(address => uint256)","numberOfBytes":"32","value":"t_uint256"},"t_mapping(t_uint256,t_array(t_address)dyn_storage)":{"encoding":"mapping","key":"t_uint256","label":"mapping(uint256 => address[])","numberOfBytes":"32","value":"t_array(t_address)dyn_storage"},"t_mapping(t_uint256,t_array(t_struct(Bracket)16_storage)dyn_storage)":{"encoding":"mapping","key":"t_uint256","label":"mapping(uint256 => struct PlayoffPool.Bracket[])","numberOfBytes":"32","value":"t_array(t_struct(Bracket)16_storage)dyn_storage"},"t_mapping(t_uint256,t_array(t_uint256)dyn_storage)":{"encoding":"mapping","key":"t_uint256","label":"mapping(uint256 => uint256[])","numberOfBytes":"32","value":"t_array(t_uint256)dyn_storage"},"t_struct(Bracket)16_storage":{"encoding":"inplace","label":"struct PlayoffPool.Bracket","members":[{"astId":3,"contract":"contracts/PlayoffPool.sol:PlayoffPool","label":"owner","offset":0,"slot":"0","type":"t_address"},{"astId":5,"contract":"contracts/PlayoffPool.sol:PlayoffPool","label":"semifinalOneWinner","offset":0,"slot":"1","type":"t_uint256"},{"astId":7,"contract":"contracts/PlayoffPool.sol:PlayoffPool","label":"semifinalTwoWinner","offset":0,"slot":"2","type":"t_uint256"},{"astId":9,"contract":"contracts/PlayoffPool.sol:PlayoffPool","label":"champion","offset":0,"slot":"3","type":"t_uint256"},{"astId":11,"contract":"contracts/PlayoffPool.sol:PlayoffPool","label":"championshipTotalPoints","offset":0,"slot":"4","type":"t_uint256"},{"astId":13,"contract":"contracts/PlayoffPool.sol:PlayoffPool","label":"bracketPoints","offset":0,"slot":"5","type":"t_uint256"},{"astId":15,"contract":"contracts/PlayoffPool.sol:PlayoffPool","label":"id","offset":0,"slot":"6","type":"t_uint256"}],"numberOfBytes":"224"},"t_uint256":{"encoding":"inplace","label":"uint256","numberOfBytes":"32"}}}}}}