{"contracts/PlayoffPool copy.sol":{"PlayoffPool":{"abi":[{"inputs":[{"internalType":"uint256","name":"_entryFee","type":"uint256"},{"internalType":"uint256","name":"_maxEntries","type":"uint256"},{"internalType":"uint256","name":"_one","type":"uint256"},{"internalType":"uint256","name":"_two","type":"uint256"},{"internalType":"uint256","name":"_three","type":"uint256"},{"internalType":"uint256","name":"_four","type":"uint256"},{"internalType":"uint256","name":"_unlockTimestamp","type":"uint256"},{"internalType":"uint256","name":"_lockTimestamp","type":"uint256"},{"internalType":"uint256","name":"_semisComplete","type":"uint256"},{"internalType":"uint256","name":"_champComplete","type":"uint256"}],"stateMutability":"nonpayable","type":"constructor"},{"anonymous":false,"inputs":[{"indexed":false,"internalType":"uint256","name":"","type":"uint256"},{"indexed":false,"internalType":"uint256","name":"","type":"uint256"}],"name":"ScoredSemis","type":"event"},{"anonymous":false,"inputs":[{"indexed":false,"internalType":"address","name":"","type":"address"},{"indexed":false,"internalType":"uint256","name":"","type":"uint256"}],"name":"Winner","type":"event"},{"anonymous":false,"inputs":[{"indexed":false,"internalType":"address","name":"","type":"address"},{"indexed":false,"internalType":"uint256","name":"","type":"uint256"},{"indexed":false,"internalType":"bool","name":"","type":"bool"},{"indexed":false,"internalType":"uint256","name":"","type":"uint256"}],"name":"WinnerPaid","type":"event"},{"inputs":[{"internalType":"uint256","name":"","type":"uint256"}],"name":"allBrackets","outputs":[{"internalType":"address","name":"owner","type":"address"},{"internalType":"uint256","name":"semifinalOneWinner","type":"uint256"},{"internalType":"uint256","name":"semifinalTwoWinner","type":"uint256"},{"internalType":"uint256","name":"champion","type":"uint256"},{"internalType":"uint256","name":"championshipTotalPoints","type":"uint256"},{"internalType":"uint256","name":"bracketPoints","type":"uint256"},{"internalType":"uint256","name":"id","type":"uint256"}],"stateMutability":"view","type":"function"},{"inputs":[{"internalType":"address","name":"","type":"address"},{"internalType":"uint256","name":"","type":"uint256"}],"name":"brackets","outputs":[{"internalType":"address","name":"owner","type":"address"},{"internalType":"uint256","name":"semifinalOneWinner","type":"uint256"},{"internalType":"uint256","name":"semifinalTwoWinner","type":"uint256"},{"internalType":"uint256","name":"champion","type":"uint256"},{"internalType":"uint256","name":"championshipTotalPoints","type":"uint256"},{"internalType":"uint256","name":"bracketPoints","type":"uint256"},{"internalType":"uint256","name":"id","type":"uint256"}],"stateMutability":"view","type":"function"},{"inputs":[],"name":"champComplete","outputs":[{"internalType":"uint256","name":"","type":"uint256"}],"stateMutability":"view","type":"function"},{"inputs":[],"name":"champion","outputs":[{"internalType":"uint256","name":"","type":"uint256"}],"stateMutability":"view","type":"function"},{"inputs":[],"name":"championshipTotalPoints","outputs":[{"internalType":"uint256","name":"","type":"uint256"}],"stateMutability":"view","type":"function"},{"inputs":[],"name":"commissioner","outputs":[{"internalType":"address","name":"","type":"address"}],"stateMutability":"view","type":"function"},{"inputs":[{"internalType":"uint256","name":"","type":"uint256"},{"internalType":"uint256","name":"","type":"uint256"}],"name":"differences","outputs":[{"internalType":"address","name":"","type":"address"}],"stateMutability":"view","type":"function"},{"inputs":[{"internalType":"uint256","name":"","type":"uint256"},{"internalType":"uint256","name":"","type":"uint256"}],"name":"differencesIDs","outputs":[{"internalType":"uint256","name":"","type":"uint256"}],"stateMutability":"view","type":"function"},{"inputs":[{"internalType":"uint256","name":"","type":"uint256"}],"name":"entrants","outputs":[{"internalType":"address","name":"","type":"address"}],"stateMutability":"view","type":"function"},{"inputs":[{"internalType":"address","name":"","type":"address"}],"name":"entries","outputs":[{"internalType":"uint256","name":"","type":"uint256"}],"stateMutability":"view","type":"function"},{"inputs":[],"name":"entryFee","outputs":[{"internalType":"uint256","name":"","type":"uint256"}],"stateMutability":"view","type":"function"},{"inputs":[],"name":"four","outputs":[{"internalType":"uint256","name":"","type":"uint256"}],"stateMutability":"view","type":"function"},{"inputs":[],"name":"getAllEntries","outputs":[{"components":[{"internalType":"address","name":"owner","type":"address"},{"internalType":"uint256","name":"semifinalOneWinner","type":"uint256"},{"internalType":"uint256","name":"semifinalTwoWinner","type":"uint256"},{"internalType":"uint256","name":"champion","type":"uint256"},{"internalType":"uint256","name":"championshipTotalPoints","type":"uint256"},{"internalType":"uint256","name":"bracketPoints","type":"uint256"},{"internalType":"uint256","name":"id","type":"uint256"}],"internalType":"struct PlayoffPool.Bracket[]","name":"","type":"tuple[]"}],"stateMutability":"view","type":"function"},{"inputs":[],"name":"getMyBrackets","outputs":[{"components":[{"internalType":"address","name":"owner","type":"address"},{"internalType":"uint256","name":"semifinalOneWinner","type":"uint256"},{"internalType":"uint256","name":"semifinalTwoWinner","type":"uint256"},{"internalType":"uint256","name":"champion","type":"uint256"},{"internalType":"uint256","name":"championshipTotalPoints","type":"uint256"},{"internalType":"uint256","name":"bracketPoints","type":"uint256"},{"internalType":"uint256","name":"id","type":"uint256"}],"internalType":"struct PlayoffPool.Bracket[]","name":"","type":"tuple[]"},{"internalType":"uint256","name":"","type":"uint256"}],"stateMutability":"view","type":"function"},{"inputs":[],"name":"getWinnerIDs","outputs":[{"internalType":"uint256[]","name":"","type":"uint256[]"}],"stateMutability":"view","type":"function"},{"inputs":[{"internalType":"uint256","name":"_semifinalOneWinner","type":"uint256"},{"internalType":"uint256","name":"_semifinalTwoWinner","type":"uint256"},{"internalType":"uint256","name":"_champion","type":"uint256"},{"internalType":"uint256","name":"_championshipTotalPoints","type":"uint256"}],"name":"joinPool","outputs":[],"stateMutability":"payable","type":"function"},{"inputs":[],"name":"lockTimestamp","outputs":[{"internalType":"uint256","name":"","type":"uint256"}],"stateMutability":"view","type":"function"},{"inputs":[],"name":"maxEntries","outputs":[{"internalType":"uint256","name":"","type":"uint256"}],"stateMutability":"view","type":"function"},{"inputs":[],"name":"mostPoints","outputs":[{"internalType":"uint256","name":"","type":"uint256"}],"stateMutability":"view","type":"function"},{"inputs":[],"name":"one","outputs":[{"internalType":"uint256","name":"","type":"uint256"}],"stateMutability":"view","type":"function"},{"inputs":[{"internalType":"uint256","name":"","type":"uint256"},{"internalType":"uint256","name":"","type":"uint256"}],"name":"points","outputs":[{"internalType":"address","name":"","type":"address"}],"stateMutability":"view","type":"function"},{"inputs":[],"name":"pot","outputs":[{"internalType":"uint256","name":"","type":"uint256"}],"stateMutability":"view","type":"function"},{"inputs":[{"internalType":"uint256","name":"_champion","type":"uint256"},{"internalType":"uint256","name":"_championshipTotalPoints","type":"uint256"}],"name":"scoreFinal","outputs":[],"stateMutability":"nonpayable","type":"function"},{"inputs":[{"internalType":"uint256","name":"_semifinalOneWinner","type":"uint256"},{"internalType":"uint256","name":"_semifinalTwoWinner","type":"uint256"}],"name":"scoreSemifinal","outputs":[],"stateMutability":"nonpayable","type":"function"},{"inputs":[{"internalType":"uint256","name":"","type":"uint256"}],"name":"scoredAfterChamp","outputs":[{"internalType":"address","name":"owner","type":"address"},{"internalType":"uint256","name":"semifinalOneWinner","type":"uint256"},{"internalType":"uint256","name":"semifinalTwoWinner","type":"uint256"},{"internalType":"uint256","name":"champion","type":"uint256"},{"internalType":"uint256","name":"championshipTotalPoints","type":"uint256"},{"internalType":"uint256","name":"bracketPoints","type":"uint256"},{"internalType":"uint256","name":"id","type":"uint256"}],"stateMutability":"view","type":"function"},{"inputs":[{"internalType":"uint256","name":"","type":"uint256"}],"name":"scoredAfterSemis","outputs":[{"internalType":"address","name":"owner","type":"address"},{"internalType":"uint256","name":"semifinalOneWinner","type":"uint256"},{"internalType":"uint256","name":"semifinalTwoWinner","type":"uint256"},{"internalType":"uint256","name":"champion","type":"uint256"},{"internalType":"uint256","name":"championshipTotalPoints","type":"uint256"},{"internalType":"uint256","name":"bracketPoints","type":"uint256"},{"internalType":"uint256","name":"id","type":"uint256"}],"stateMutability":"view","type":"function"},{"inputs":[{"internalType":"uint256","name":"","type":"uint256"},{"internalType":"uint256","name":"","type":"uint256"}],"name":"scoredBrackets","outputs":[{"internalType":"address","name":"owner","type":"address"},{"internalType":"uint256","name":"semifinalOneWinner","type":"uint256"},{"internalType":"uint256","name":"semifinalTwoWinner","type":"uint256"},{"internalType":"uint256","name":"champion","type":"uint256"},{"internalType":"uint256","name":"championshipTotalPoints","type":"uint256"},{"internalType":"uint256","name":"bracketPoints","type":"uint256"},{"internalType":"uint256","name":"id","type":"uint256"}],"stateMutability":"view","type":"function"},{"inputs":[],"name":"semifinalOneWinner","outputs":[{"internalType":"uint256","name":"","type":"uint256"}],"stateMutability":"view","type":"function"},{"inputs":[],"name":"semifinalTwoWinner","outputs":[{"internalType":"uint256","name":"","type":"uint256"}],"stateMutability":"view","type":"function"},{"inputs":[],"name":"semisComplete","outputs":[{"internalType":"uint256","name":"","type":"uint256"}],"stateMutability":"view","type":"function"},{"inputs":[],"name":"three","outputs":[{"internalType":"uint256","name":"","type":"uint256"}],"stateMutability":"view","type":"function"},{"inputs":[],"name":"totalEntries","outputs":[{"internalType":"uint256","name":"","type":"uint256"}],"stateMutability":"view","type":"function"},{"inputs":[],"name":"two","outputs":[{"internalType":"uint256","name":"","type":"uint256"}],"stateMutability":"view","type":"function"},{"inputs":[],"name":"unlockTimestamp","outputs":[{"internalType":"uint256","name":"","type":"uint256"}],"stateMutability":"view","type":"function"},{"inputs":[{"internalType":"uint256","name":"","type":"uint256"}],"name":"winningIDs","outputs":[{"internalType":"uint256","name":"","type":"uint256"}],"stateMutability":"view","type":"function"}],"evm":{"bytecode":{"linkReferences":{},"object":"608060405260006012553480156200001657600080fd5b50604051620033d7380380620033d783398181016040528101906200003c919062000112565b336000806101000a81548173ffffffffffffffffffffffffffffffffffffffff021916908373ffffffffffffffffffffffffffffffffffffffff16021790555089600181905550886002819055508760038190555086600481905550856005819055508460068190555083600e8190555082600f8190555081601081905550806011819055505050505050505050505062000208565b600080fd5b6000819050919050565b620000ec81620000d7565b8114620000f857600080fd5b50565b6000815190506200010c81620000e1565b92915050565b6000806000806000806000806000806101408b8d031215620001395762000138620000d2565b5b6000620001498d828e01620000fb565b9a505060206200015c8d828e01620000fb565b99505060406200016f8d828e01620000fb565b9850506060620001828d828e01620000fb565b9750506080620001958d828e01620000fb565b96505060a0620001a88d828e01620000fb565b95505060c0620001bb8d828e01620000fb565b94505060e0620001ce8d828e01620000fb565b935050610100620001e28d828e01620000fb565b925050610120620001f68d828e01620000fb565b9150509295989b9194979a5092959850565b6131bf80620002186000396000f3fe6080604052600436106102045760003560e01c8063a1fca2b611610118578063cf92a0c7116100a0578063e7b4e5ab1161006f578063e7b4e5ab146107c1578063f1894498146107fe578063f23f3ba514610829578063f29ee12514610854578063ffe81da81461089157610204565b8063cf92a0c7146106d9578063d60dac3d1461071c578063dd917b2914610747578063e3cdda391461078457610204565b8063b7ce8a99116100e7578063b7ce8a99146105ea578063be6b333714610615578063c37996f114610640578063cc78908514610683578063cf065419146106ae57610204565b8063a1fca2b61461052c578063a337a60414610557578063aa082a9d14610594578063b544bf83146105bf57610204565b80634ba2363a1161019b5780637fef036e1161016a5780637fef036e1461045457806388c113d61461047f578063901717d1146104bc578063931e55aa146104e757806398f6a1971461051057610204565b80634ba2363a146103905780634d3c3a41146103bb5780635fdf05d7146103fe57806375662e961461042957610204565b8063443e4a39116101d7578063443e4a39146102e6578063448669551461030f57806345caa1171461033a5780634a0364e81461036557610204565b8063072ea61c1461020957806318901b711461023457806334ff5644146102605780633bca800f146102a3575b600080fd5b34801561021557600080fd5b5061021e6108bc565b60405161022b91906126a2565b60405180910390f35b34801561024057600080fd5b506102496108c2565b60405161025792919061284a565b60405180910390f35b34801561026c57600080fd5b50610287600480360381019061028291906128d7565b610aae565b60405161029a9796959493929190612926565b60405180910390f35b3480156102af57600080fd5b506102ca60048036038101906102c59190612995565b610b2d565b6040516102dd9796959493929190612926565b60405180910390f35b3480156102f257600080fd5b5061030d600480360381019061030891906129c2565b610b9f565b005b34801561031b57600080fd5b50610324610c2a565b60405161033191906126a2565b60405180910390f35b34801561034657600080fd5b5061034f610c30565b60405161035c91906126a2565b60405180910390f35b34801561037157600080fd5b5061037a610c36565b6040516103879190612a02565b60405180910390f35b34801561039c57600080fd5b506103a5610dd0565b6040516103b291906126a2565b60405180910390f35b3480156103c757600080fd5b506103e260048036038101906103dd91906129c2565b610dd6565b6040516103f59796959493929190612926565b60405180910390f35b34801561040a57600080fd5b50610413610e55565b60405161042091906126a2565b60405180910390f35b34801561043557600080fd5b5061043e610e5b565b60405161044b9190612ad3565b60405180910390f35b34801561046057600080fd5b50610469610eb3565b60405161047691906126a2565b60405180910390f35b34801561048b57600080fd5b506104a660048036038101906104a19190612995565b610eb9565b6040516104b391906126a2565b60405180910390f35b3480156104c857600080fd5b506104d1610edd565b6040516104de91906126a2565b60405180910390f35b3480156104f357600080fd5b5061050e600480360381019061050991906129c2565b610ee3565b005b61052a60048036038101906105259190612af5565b610f66565b005b34801561053857600080fd5b5061054161141e565b60405161054e91906126a2565b60405180910390f35b34801561056357600080fd5b5061057e600480360381019061057991906129c2565b611424565b60405161058b91906126a2565b60405180910390f35b3480156105a057600080fd5b506105a9611455565b6040516105b691906126a2565b60405180910390f35b3480156105cb57600080fd5b506105d461145b565b6040516105e191906126a2565b60405180910390f35b3480156105f657600080fd5b506105ff611461565b60405161060c91906126a2565b60405180910390f35b34801561062157600080fd5b5061062a611467565b60405161063791906126a2565b60405180910390f35b34801561064c57600080fd5b5061066760048036038101906106629190612995565b61146d565b60405161067a9796959493929190612926565b60405180910390f35b34801561068f57600080fd5b506106986114df565b6040516106a591906126a2565b60405180910390f35b3480156106ba57600080fd5b506106c36114e5565b6040516106d091906126a2565b60405180910390f35b3480156106e557600080fd5b5061070060048036038101906106fb9190612995565b6114eb565b6040516107139796959493929190612926565b60405180910390f35b34801561072857600080fd5b5061073161155d565b60405161073e91906126a2565b60405180910390f35b34801561075357600080fd5b5061076e600480360381019061076991906129c2565b611563565b60405161077b9190612b5c565b60405180910390f35b34801561079057600080fd5b506107ab60048036038101906107a691906129c2565b6115b1565b6040516107b89190612b5c565b60405180910390f35b3480156107cd57600080fd5b506107e860048036038101906107e39190612995565b6115ff565b6040516107f59190612b5c565b60405180910390f35b34801561080a57600080fd5b5061081361163e565b6040516108209190612b5c565b60405180910390f35b34801561083557600080fd5b5061083e611662565b60405161084b91906126a2565b60405180910390f35b34801561086057600080fd5b5061087b60048036038101906108769190612b77565b611668565b60405161088891906126a2565b60405180910390f35b34801561089d57600080fd5b506108a6611680565b6040516108b391906126a2565b60405180910390f35b60015481565b6060600080601960003373ffffffffffffffffffffffffffffffffffffffff1673ffffffffffffffffffffffffffffffffffffffff16815260200190815260200160002090506000818054905067ffffffffffffffff81111561092857610927612ba4565b5b60405190808252806020026020018201604052801561096157816020015b61094e612636565b8152602001906001900390816109465790505b50905060005b8280549050811015610a625782818154811061098657610985612bd3565b5b90600052602060002090600702016040518060e00160405290816000820160009054906101000a900473ffffffffffffffffffffffffffffffffffffffff1673ffffffffffffffffffffffffffffffffffffffff1673ffffffffffffffffffffffffffffffffffffffff1681526020016001820154815260200160028201548152602001600382015481526020016004820154815260200160058201548152602001600682015481525050828281518110610a4457610a43612bd3565b5b60200260200101819052508080610a5a90612c31565b915050610967565b5080601860003373ffffffffffffffffffffffffffffffffffffffff1673ffffffffffffffffffffffffffffffffffffffff168152602001908152602001600020549350935050509091565b60196020528160005260406000208181548110610aca57600080fd5b9060005260206000209060070201600091509150508060000160009054906101000a900473ffffffffffffffffffffffffffffffffffffffff16908060010154908060020154908060030154908060040154908060050154908060060154905087565b60158181548110610b3d57600080fd5b90600052602060002090600702016000915090508060000160009054906101000a900473ffffffffffffffffffffffffffffffffffffffff16908060010154908060020154908060030154908060040154908060050154908060060154905087565b60008054906101000a900473ffffffffffffffffffffffffffffffffffffffff1673ffffffffffffffffffffffffffffffffffffffff163373ffffffffffffffffffffffffffffffffffffffff1614610bf757600080fd5b601154421015610c0657600080fd5b8160098190555080600a81905550610c1e6000611686565b610c26611f3f565b5050565b60095481565b60055481565b60606000806015805490501115610c505760159050610c6d565b60006014805490501115610c675760149050610c6c565b601390505b5b6000818054905067ffffffffffffffff811115610c8d57610c8c612ba4565b5b604051908082528060200260200182016040528015610cc657816020015b610cb3612636565b815260200190600190039081610cab5790505b50905060005b8280549050811015610dc757828181548110610ceb57610cea612bd3565b5b90600052602060002090600702016040518060e00160405290816000820160009054906101000a900473ffffffffffffffffffffffffffffffffffffffff1673ffffffffffffffffffffffffffffffffffffffff1673ffffffffffffffffffffffffffffffffffffffff1681526020016001820154815260200160028201548152602001600382015481526020016004820154815260200160058201548152602001600682015481525050828281518110610da957610da8612bd3565b5b60200260200101819052508080610dbf90612c31565b915050610ccc565b50809250505090565b600d5481565b601b6020528160005260406000208181548110610df257600080fd5b9060005260206000209060070201600091509150508060000160009054906101000a900473ffffffffffffffffffffffffffffffffffffffff16908060010154908060020154908060030154908060040154908060050154908060060154905087565b60045481565b60606017805480602002602001604051908101604052809291908181526020018280548015610ea957602002820191906000526020600020905b815481526020019060010190808311610e95575b5050505050905090565b600c5481565b60178181548110610ec957600080fd5b906000526020600020016000915090505481565b60035481565b60008054906101000a900473ffffffffffffffffffffffffffffffffffffffff1673ffffffffffffffffffffffffffffffffffffffff163373ffffffffffffffffffffffffffffffffffffffff1614610f3b57600080fd5b601054421015610f4a57600080fd5b8160078190555080600881905550610f626001611686565b5050565b6001543414610faa576040517f08c379a0000000000000000000000000000000000000000000000000000000008152600401610fa190612cd6565b60405180910390fd5b600e54421015610fef576040517f08c379a0000000000000000000000000000000000000000000000000000000008152600401610fe690612d68565b60405180910390fd5b600f54421115611034576040517f08c379a000000000000000000000000000000000000000000000000000000000815260040161102b90612dd4565b60405180910390fd5b600254601860003373ffffffffffffffffffffffffffffffffffffffff1673ffffffffffffffffffffffffffffffffffffffff16815260200190815260200160002054106110b7576040517f08c379a00000000000000000000000000000000000000000000000000000000081526004016110ae90612e66565b60405180910390fd5b60006110c5620186a06124d6565b90506000601860003373ffffffffffffffffffffffffffffffffffffffff1673ffffffffffffffffffffffffffffffffffffffff1681526020019081526020016000205411611172576016339080600181540180825580915050600190039060005260206000200160009091909190916101000a81548173ffffffffffffffffffffffffffffffffffffffff021916908373ffffffffffffffffffffffffffffffffffffffff1602179055505b601860003373ffffffffffffffffffffffffffffffffffffffff1673ffffffffffffffffffffffffffffffffffffffff16815260200190815260200160002060008154809291906111c290612c31565b9190505550601960003373ffffffffffffffffffffffffffffffffffffffff1673ffffffffffffffffffffffffffffffffffffffff1681526020019081526020016000206040518060e001604052803373ffffffffffffffffffffffffffffffffffffffff1681526020018781526020018681526020018581526020018481526020016000815260200183815250908060018154018082558091505060019003906000526020600020906007020160009091909190915060008201518160000160006101000a81548173ffffffffffffffffffffffffffffffffffffffff021916908373ffffffffffffffffffffffffffffffffffffffff1602179055506020820151816001015560408201518160020155606082015181600301556080820151816004015560a0820151816005015560c08201518160060155505060136040518060e001604052803373ffffffffffffffffffffffffffffffffffffffff1681526020018781526020018681526020018581526020018481526020016000815260200183815250908060018154018082558091505060019003906000526020600020906007020160009091909190915060008201518160000160006101000a81548173ffffffffffffffffffffffffffffffffffffffff021916908373ffffffffffffffffffffffffffffffffffffffff1602179055506020820151816001015560408201518160020155606082015181600301556080820151816004015560a0820151816005015560c082015181600601555050600c600081548092919061140b90612c31565b919050555047600d819055505050505050565b60065481565b601d602052816000526040600020818154811061144057600080fd5b90600052602060002001600091509150505481565b600e5481565b600f5481565b60085481565b600a5481565b6013818154811061147d57600080fd5b90600052602060002090600702016000915090508060000160009054906101000a900473ffffffffffffffffffffffffffffffffffffffff16908060010154908060020154908060030154908060040154908060050154908060060154905087565b60105481565b600b5481565b601481815481106114fb57600080fd5b90600052602060002090600702016000915090508060000160009054906101000a900473ffffffffffffffffffffffffffffffffffffffff16908060010154908060020154908060030154908060040154908060050154908060060154905087565b60115481565b601c602052816000526040600020818154811061157f57600080fd5b906000526020600020016000915091509054906101000a900473ffffffffffffffffffffffffffffffffffffffff1681565b601a60205281600052604060002081815481106115cd57600080fd5b906000526020600020016000915091509054906101000a900473ffffffffffffffffffffffffffffffffffffffff1681565b6016818154811061160f57600080fd5b906000526020600020016000915054906101000a900473ffffffffffffffffffffffffffffffffffffffff1681565b60008054906101000a900473ffffffffffffffffffffffffffffffffffffffff1681565b60025481565b60186020528060005260406000206000915090505481565b60075481565b60008060005b601680549050811015611f3957601681815481106116ad576116ac612bd3565b5b9060005260206000200160009054906101000a900473ffffffffffffffffffffffffffffffffffffffff16925060005b601860008573ffffffffffffffffffffffffffffffffffffffff1673ffffffffffffffffffffffffffffffffffffffff16815260200190815260200160002054811015611f2557601960008573ffffffffffffffffffffffffffffffffffffffff1673ffffffffffffffffffffffffffffffffffffffff168152602001908152602001600020818154811061177557611774612bd3565b5b906000526020600020906007020192508415611a0c57600754836001015403611813576003601960008673ffffffffffffffffffffffffffffffffffffffff1673ffffffffffffffffffffffffffffffffffffffff16815260200190815260200160002082815481106117eb576117ea612bd3565b5b9060005260206000209060070201600501600082825461180b9190612e86565b925050819055505b60085483600201540361189b576003601960008673ffffffffffffffffffffffffffffffffffffffff1673ffffffffffffffffffffffffffffffffffffffff168152602001908152602001600020828154811061187357611872612bd3565b5b906000526020600020906007020160050160008282546118939190612e86565b925050819055505b6014601960008673ffffffffffffffffffffffffffffffffffffffff1673ffffffffffffffffffffffffffffffffffffffff16815260200190815260200160002082815481106118ee576118ed612bd3565b5b906000526020600020906007020190806001815401808255809150506001900390600052602060002090600702016000909190919091506000820160009054906101000a900473ffffffffffffffffffffffffffffffffffffffff168160000160006101000a81548173ffffffffffffffffffffffffffffffffffffffff021916908373ffffffffffffffffffffffffffffffffffffffff16021790555060018201548160010155600282015481600201556003820154816003015560048201548160040155600582015481600501556006820154816006015550507f72b70d4f70717c443c3f728467b5c6595439e31928db630e2892cab279692b2e6007546008546040516119ff929190612eba565b60405180910390a1611f12565b600954836003015403611a94576007601960008673ffffffffffffffffffffffffffffffffffffffff1673ffffffffffffffffffffffffffffffffffffffff1681526020019081526020016000208281548110611a6c57611a6b612bd3565b5b90600052602060002090600702016005016000828254611a8c9190612e86565b925050819055505b600b54601960008673ffffffffffffffffffffffffffffffffffffffff1673ffffffffffffffffffffffffffffffffffffffff1681526020019081526020016000208281548110611ae857611ae7612bd3565b5b9060005260206000209060070201600501541115611b6a57601960008573ffffffffffffffffffffffffffffffffffffffff1673ffffffffffffffffffffffffffffffffffffffff1681526020019081526020016000208181548110611b5157611b50612bd3565b5b906000526020600020906007020160050154600b819055505b601a6000601960008773ffffffffffffffffffffffffffffffffffffffff1673ffffffffffffffffffffffffffffffffffffffff1681526020019081526020016000208381548110611bbf57611bbe612bd3565b5b9060005260206000209060070201600501548152602001908152602001600020849080600181540180825580915050600190039060005260206000200160009091909190916101000a81548173ffffffffffffffffffffffffffffffffffffffff021916908373ffffffffffffffffffffffffffffffffffffffff160217905550601b6000601960008773ffffffffffffffffffffffffffffffffffffffff1673ffffffffffffffffffffffffffffffffffffffff1681526020019081526020016000208381548110611c9557611c94612bd3565b5b9060005260206000209060070201600501548152602001908152602001600020601960008673ffffffffffffffffffffffffffffffffffffffff1673ffffffffffffffffffffffffffffffffffffffff1681526020019081526020016000208281548110611d0657611d05612bd3565b5b906000526020600020906007020190806001815401808255809150506001900390600052602060002090600702016000909190919091506000820160009054906101000a900473ffffffffffffffffffffffffffffffffffffffff168160000160006101000a81548173ffffffffffffffffffffffffffffffffffffffff021916908373ffffffffffffffffffffffffffffffffffffffff16021790555060018201548160010155600282015481600201556003820154816003015560048201548160040155600582015481600501556006820154816006015550506015601960008673ffffffffffffffffffffffffffffffffffffffff1673ffffffffffffffffffffffffffffffffffffffff1681526020019081526020016000208281548110611e3557611e34612bd3565b5b906000526020600020906007020190806001815401808255809150506001900390600052602060002090600702016000909190919091506000820160009054906101000a900473ffffffffffffffffffffffffffffffffffffffff168160000160006101000a81548173ffffffffffffffffffffffffffffffffffffffff021916908373ffffffffffffffffffffffffffffffffffffffff16021790555060018201548160010155600282015481600201556003820154816003015560048201548160040155600582015481600501556006820154816006015550505b8080611f1d90612c31565b9150506116dd565b508080611f3190612c31565b91505061168c565b50505050565b47600d8190555060008060006001601a6000600b548152602001908152602001600020805490500361205a57611fc8601a6000600b548152602001908152602001600020600081548110611f9657611f95612bd3565b5b9060005260206000200160009054906101000a900473ffffffffffffffffffffffffffffffffffffffff166001612532565b7f9c2270628a9b29d30ae96b6c4c14ed646ee134febdce38a5b77f2bde9cea2e20601a6000600b54815260200190815260200160002060008154811061201157612010612bd3565b5b9060005260206000200160009054906101000a900473ffffffffffffffffffffffffffffffffffffffff16600b5460405161204d929190612ee3565b60405180910390a16124d1565b60005b601a6000600b548152602001908152602001600020805490508110156121f657601b6000600b54815260200190815260200160002081815481106120a4576120a3612bd3565b5b90600052602060002090600702019150600a54826004015411156120db57600a5482600401546120d49190612f0c565b92506120f0565b8160040154600a546120ed9190612f0c565b92505b600081036121005782935061210d565b8383101561210c578293505b5b601d600084815260200190815260200160002082600601549080600181540180825580915050600190039060005260206000200160009091909190915055601c60008481526020019081526020016000208260000160009054906101000a900473ffffffffffffffffffffffffffffffffffffffff169080600181540180825580915050600190039060005260206000200160009091909190916101000a81548173ffffffffffffffffffffffffffffffffffffffff021916908373ffffffffffffffffffffffffffffffffffffffff16021790555080806121ee90612c31565b91505061205d565b506001601c60008581526020019081526020016000208054905003612359576017601d600085815260200190815260200160002060008154811061223d5761223c612bd3565b5b906000526020600020015490806001815401808255809150506001900390600052602060002001600090919091909150556122c9601c600085815260200190815260200160002060008154811061229757612296612bd3565b5b9060005260206000200160009054906101000a900473ffffffffffffffffffffffffffffffffffffffff166001612532565b7f9c2270628a9b29d30ae96b6c4c14ed646ee134febdce38a5b77f2bde9cea2e20601c60008581526020019081526020016000206000815481106123105761230f612bd3565b5b9060005260206000200160009054906101000a900473ffffffffffffffffffffffffffffffffffffffff16600b5460405161234c929190612ee3565b60405180910390a16124d0565b6000601c600085815260200190815260200160002080549050905060005b818110156124cd576017601d600087815260200190815260200160002082815481106123a6576123a5612bd3565b5b90600052602060002001549080600181540180825580915050600190039060005260206000200160009091909190915055612430601c600087815260200190815260200160002082815481106123ff576123fe612bd3565b5b9060005260206000200160009054906101000a900473ffffffffffffffffffffffffffffffffffffffff1683612532565b7f9c2270628a9b29d30ae96b6c4c14ed646ee134febdce38a5b77f2bde9cea2e20601c6000878152602001908152602001600020828154811061247657612475612bd3565b5b9060005260206000200160009054906101000a900473ffffffffffffffffffffffffffffffffffffffff16600b546040516124b2929190612ee3565b60405180910390a180806124c590612c31565b915050612377565b50505b5b505050565b6000601260008154809291906124eb90612c31565b919050555081423360125460405160200161250893929190612fa9565b6040516020818303038152906040528051906020012060001c61252b9190613015565b9050919050565b600081600d546125429190613046565b905060008373ffffffffffffffffffffffffffffffffffffffff168260405161256a906130a8565b60006040518083038185875af1925050503d80600081146125a7576040519150601f19603f3d011682016040523d82523d6000602084013e6125ac565b606091505b50509050806125f0576040517f08c379a00000000000000000000000000000000000000000000000000000000081526004016125e790613109565b60405180910390fd5b7f31f01f46758b6b42c15b03a08187ad5b638ba4231ca58df20b00c5d53c2e1ac4848360018611866040516126289493929190613144565b60405180910390a150505050565b6040518060e00160405280600073ffffffffffffffffffffffffffffffffffffffff1681526020016000815260200160008152602001600081526020016000815260200160008152602001600081525090565b6000819050919050565b61269c81612689565b82525050565b60006020820190506126b76000830184612693565b92915050565b600081519050919050565b600082825260208201905092915050565b6000819050602082019050919050565b600073ffffffffffffffffffffffffffffffffffffffff82169050919050565b6000612714826126e9565b9050919050565b61272481612709565b82525050565b61273381612689565b82525050565b60e08201600082015161274f600085018261271b565b506020820151612762602085018261272a565b506040820151612775604085018261272a565b506060820151612788606085018261272a565b50608082015161279b608085018261272a565b5060a08201516127ae60a085018261272a565b5060c08201516127c160c085018261272a565b50505050565b60006127d38383612739565b60e08301905092915050565b6000602082019050919050565b60006127f7826126bd565b61280181856126c8565b935061280c836126d9565b8060005b8381101561283d57815161282488826127c7565b975061282f836127df565b925050600181019050612810565b5085935050505092915050565b6000604082019050818103600083015261286481856127ec565b90506128736020830184612693565b9392505050565b600080fd5b61288881612709565b811461289357600080fd5b50565b6000813590506128a58161287f565b92915050565b6128b481612689565b81146128bf57600080fd5b50565b6000813590506128d1816128ab565b92915050565b600080604083850312156128ee576128ed61287a565b5b60006128fc85828601612896565b925050602061290d858286016128c2565b9150509250929050565b61292081612709565b82525050565b600060e08201905061293b600083018a612917565b6129486020830189612693565b6129556040830188612693565b6129626060830187612693565b61296f6080830186612693565b61297c60a0830185612693565b61298960c0830184612693565b98975050505050505050565b6000602082840312156129ab576129aa61287a565b5b60006129b9848285016128c2565b91505092915050565b600080604083850312156129d9576129d861287a565b5b60006129e7858286016128c2565b92505060206129f8858286016128c2565b9150509250929050565b60006020820190508181036000830152612a1c81846127ec565b905092915050565b600081519050919050565b600082825260208201905092915050565b6000819050602082019050919050565b6000612a5c838361272a565b60208301905092915050565b6000602082019050919050565b6000612a8082612a24565b612a8a8185612a2f565b9350612a9583612a40565b8060005b83811015612ac6578151612aad8882612a50565b9750612ab883612a68565b925050600181019050612a99565b5085935050505092915050565b60006020820190508181036000830152612aed8184612a75565b905092915050565b60008060008060808587031215612b0f57612b0e61287a565b5b6000612b1d878288016128c2565b9450506020612b2e878288016128c2565b9350506040612b3f878288016128c2565b9250506060612b50878288016128c2565b91505092959194509250565b6000602082019050612b716000830184612917565b92915050565b600060208284031215612b8d57612b8c61287a565b5b6000612b9b84828501612896565b91505092915050565b7f4e487b7100000000000000000000000000000000000000000000000000000000600052604160045260246000fd5b7f4e487b7100000000000000000000000000000000000000000000000000000000600052603260045260246000fd5b7f4e487b7100000000000000000000000000000000000000000000000000000000600052601160045260246000fd5b6000612c3c82612689565b91507fffffffffffffffffffffffffffffffffffffffffffffffffffffffffffffffff8203612c6e57612c6d612c02565b5b600182019050919050565b600082825260208201905092915050565b7f496e636f727265637420656e747279206665652e000000000000000000000000600082015250565b6000612cc0601483612c79565b9150612ccb82612c8a565b602082019050919050565b60006020820190508181036000830152612cef81612cb3565b9050919050565b7f4346502073656c656374696f6e732068617665206e6f74206265656e2066696e60008201527f616c697a65642e00000000000000000000000000000000000000000000000000602082015250565b6000612d52602783612c79565b9150612d5d82612cf6565b604082019050919050565b60006020820190508181036000830152612d8181612d45565b9050919050565b7f456e74727920706572696f642068617320636c6f7365642e0000000000000000600082015250565b6000612dbe601883612c79565b9150612dc982612d88565b602082019050919050565b60006020820190508181036000830152612ded81612db1565b9050919050565b7f416c72656164792068617665206d617820616d6f756e74206f6620656e74726960008201527f65732e0000000000000000000000000000000000000000000000000000000000602082015250565b6000612e50602383612c79565b9150612e5b82612df4565b604082019050919050565b60006020820190508181036000830152612e7f81612e43565b9050919050565b6000612e9182612689565b9150612e9c83612689565b9250828201905080821115612eb457612eb3612c02565b5b92915050565b6000604082019050612ecf6000830185612693565b612edc6020830184612693565b9392505050565b6000604082019050612ef86000830185612917565b612f056020830184612693565b9392505050565b6000612f1782612689565b9150612f2283612689565b9250828203905081811115612f3a57612f39612c02565b5b92915050565b6000819050919050565b612f5b612f5682612689565b612f40565b82525050565b60008160601b9050919050565b6000612f7982612f61565b9050919050565b6000612f8b82612f6e565b9050919050565b612fa3612f9e82612709565b612f80565b82525050565b6000612fb58286612f4a565b602082019150612fc58285612f92565b601482019150612fd58284612f4a565b602082019150819050949350505050565b7f4e487b7100000000000000000000000000000000000000000000000000000000600052601260045260246000fd5b600061302082612689565b915061302b83612689565b92508261303b5761303a612fe6565b5b828206905092915050565b600061305182612689565b915061305c83612689565b92508261306c5761306b612fe6565b5b828204905092915050565b600081905092915050565b50565b6000613092600083613077565b915061309d82613082565b600082019050919050565b60006130b382613085565b9150819050919050565b7f4661696c656420746f2073656e642077696e6e696e67732e0000000000000000600082015250565b60006130f3601883612c79565b91506130fe826130bd565b602082019050919050565b60006020820190508181036000830152613122816130e6565b9050919050565b60008115159050919050565b61313e81613129565b82525050565b60006080820190506131596000830187612917565b6131666020830186612693565b6131736040830185613135565b6131806060830184612693565b9594505050505056fea26469706673582212209b89596ed9f2611854aa1103334948a2e22e52ea318ef75714ebe2769aebc2ef64736f6c63430008140033","opcodes":"PUSH1 0x80 PUSH1 0x40 MSTORE PUSH1 0x0 PUSH1 0x12 SSTORE CALLVALUE DUP1 ISZERO PUSH3 0x16 JUMPI PUSH1 0x0 DUP1 REVERT JUMPDEST POP PUSH1 0x40 MLOAD PUSH3 0x33D7 CODESIZE SUB DUP1 PUSH3 0x33D7 DUP4 CODECOPY DUP2 DUP2 ADD PUSH1 0x40 MSTORE DUP2 ADD SWAP1 PUSH3 0x3C SWAP2 SWAP1 PUSH3 0x112 JUMP JUMPDEST CALLER PUSH1 0x0 DUP1 PUSH2 0x100 EXP DUP2 SLOAD DUP2 PUSH20 0xFFFFFFFFFFFFFFFFFFFFFFFFFFFFFFFFFFFFFFFF MUL NOT AND SWAP1 DUP4 PUSH20 0xFFFFFFFFFFFFFFFFFFFFFFFFFFFFFFFFFFFFFFFF AND MUL OR SWAP1 SSTORE POP DUP10 PUSH1 0x1 DUP2 SWAP1 SSTORE POP DUP9 PUSH1 0x2 DUP2 SWAP1 SSTORE POP DUP8 PUSH1 0x3 DUP2 SWAP1 SSTORE POP DUP7 PUSH1 0x4 DUP2 SWAP1 SSTORE POP DUP6 PUSH1 0x5 DUP2 SWAP1 SSTORE POP DUP5 PUSH1 0x6 DUP2 SWAP1 SSTORE POP DUP4 PUSH1 0xE DUP2 SWAP1 SSTORE POP DUP3 PUSH1 0xF DUP2 SWAP1 SSTORE POP DUP2 PUSH1 0x10 DUP2 SWAP1 SSTORE POP DUP1 PUSH1 0x11 DUP2 SWAP1 SSTORE POP POP POP POP POP POP POP POP POP POP POP PUSH3 0x208 JUMP JUMPDEST PUSH1 0x0 DUP1 REVERT JUMPDEST PUSH1 0x0 DUP2 SWAP1 POP SWAP2 SWAP1 POP JUMP JUMPDEST PUSH3 0xEC DUP2 PUSH3 0xD7 JUMP JUMPDEST DUP2 EQ PUSH3 0xF8 JUMPI PUSH1 0x0 DUP1 REVERT JUMPDEST POP JUMP JUMPDEST PUSH1 0x0 DUP2 MLOAD SWAP1 POP PUSH3 0x10C DUP2 PUSH3 0xE1 JUMP JUMPDEST SWAP3 SWAP2 POP POP JUMP JUMPDEST PUSH1 0x0 DUP1 PUSH1 0x0 DUP1 PUSH1 0x0 DUP1 PUSH1 0x0 DUP1 PUSH1 0x0 DUP1 PUSH2 0x140 DUP12 DUP14 SUB SLT ISZERO PUSH3 0x139 JUMPI PUSH3 0x138 PUSH3 0xD2 JUMP JUMPDEST JUMPDEST PUSH1 0x0 PUSH3 0x149 DUP14 DUP3 DUP15 ADD PUSH3 0xFB JUMP JUMPDEST SWAP11 POP POP PUSH1 0x20 PUSH3 0x15C DUP14 DUP3 DUP15 ADD PUSH3 0xFB JUMP JUMPDEST SWAP10 POP POP PUSH1 0x40 PUSH3 0x16F DUP14 DUP3 DUP15 ADD PUSH3 0xFB JUMP JUMPDEST SWAP9 POP POP PUSH1 0x60 PUSH3 0x182 DUP14 DUP3 DUP15 ADD PUSH3 0xFB JUMP JUMPDEST SWAP8 POP POP PUSH1 0x80 PUSH3 0x195 DUP14 DUP3 DUP15 ADD PUSH3 0xFB JUMP JUMPDEST SWAP7 POP POP PUSH1 0xA0 PUSH3 0x1A8 DUP14 DUP3 DUP15 ADD PUSH3 0xFB JUMP JUMPDEST SWAP6 POP POP PUSH1 0xC0 PUSH3 0x1BB DUP14 DUP3 DUP15 ADD PUSH3 0xFB JUMP JUMPDEST SWAP5 POP POP PUSH1 0xE0 PUSH3 0x1CE DUP14 DUP3 DUP15 ADD PUSH3 0xFB JUMP JUMPDEST SWAP4 POP POP PUSH2 0x100 PUSH3 0x1E2 DUP14 DUP3 DUP15 ADD PUSH3 0xFB JUMP JUMPDEST SWAP3 POP POP PUSH2 0x120 PUSH3 0x1F6 DUP14 DUP3 DUP15 ADD PUSH3 0xFB JUMP JUMPDEST SWAP2 POP POP SWAP3 SWAP6 SWAP9 SWAP12 SWAP2 SWAP5 SWAP8 SWAP11 POP SWAP3 SWAP6 SWAP9 POP JUMP JUMPDEST PUSH2 0x31BF DUP1 PUSH3 0x218 PUSH1 0x0 CODECOPY PUSH1 0x0 RETURN INVALID PUSH1 0x80 PUSH1 0x40 MSTORE PUSH1 0x4 CALLDATASIZE LT PUSH2 0x204 JUMPI PUSH1 0x0 CALLDATALOAD PUSH1 0xE0 SHR DUP1 PUSH4 0xA1FCA2B6 GT PUSH2 0x118 JUMPI DUP1 PUSH4 0xCF92A0C7 GT PUSH2 0xA0 JUMPI DUP1 PUSH4 0xE7B4E5AB GT PUSH2 0x6F JUMPI DUP1 PUSH4 0xE7B4E5AB EQ PUSH2 0x7C1 JUMPI DUP1 PUSH4 0xF1894498 EQ PUSH2 0x7FE JUMPI DUP1 PUSH4 0xF23F3BA5 EQ PUSH2 0x829 JUMPI DUP1 PUSH4 0xF29EE125 EQ PUSH2 0x854 JUMPI DUP1 PUSH4 0xFFE81DA8 EQ PUSH2 0x891 JUMPI PUSH2 0x204 JUMP JUMPDEST DUP1 PUSH4 0xCF92A0C7 EQ PUSH2 0x6D9 JUMPI DUP1 PUSH4 0xD60DAC3D EQ PUSH2 0x71C JUMPI DUP1 PUSH4 0xDD917B29 EQ PUSH2 0x747 JUMPI DUP1 PUSH4 0xE3CDDA39 EQ PUSH2 0x784 JUMPI PUSH2 0x204 JUMP JUMPDEST DUP1 PUSH4 0xB7CE8A99 GT PUSH2 0xE7 JUMPI DUP1 PUSH4 0xB7CE8A99 EQ PUSH2 0x5EA JUMPI DUP1 PUSH4 0xBE6B3337 EQ PUSH2 0x615 JUMPI DUP1 PUSH4 0xC37996F1 EQ PUSH2 0x640 JUMPI DUP1 PUSH4 0xCC789085 EQ PUSH2 0x683 JUMPI DUP1 PUSH4 0xCF065419 EQ PUSH2 0x6AE JUMPI PUSH2 0x204 JUMP JUMPDEST DUP1 PUSH4 0xA1FCA2B6 EQ PUSH2 0x52C JUMPI DUP1 PUSH4 0xA337A604 EQ PUSH2 0x557 JUMPI DUP1 PUSH4 0xAA082A9D EQ PUSH2 0x594 JUMPI DUP1 PUSH4 0xB544BF83 EQ PUSH2 0x5BF JUMPI PUSH2 0x204 JUMP JUMPDEST DUP1 PUSH4 0x4BA2363A GT PUSH2 0x19B JUMPI DUP1 PUSH4 0x7FEF036E GT PUSH2 0x16A JUMPI DUP1 PUSH4 0x7FEF036E EQ PUSH2 0x454 JUMPI DUP1 PUSH4 0x88C113D6 EQ PUSH2 0x47F JUMPI DUP1 PUSH4 0x901717D1 EQ PUSH2 0x4BC JUMPI DUP1 PUSH4 0x931E55AA EQ PUSH2 0x4E7 JUMPI DUP1 PUSH4 0x98F6A197 EQ PUSH2 0x510 JUMPI PUSH2 0x204 JUMP JUMPDEST DUP1 PUSH4 0x4BA2363A EQ PUSH2 0x390 JUMPI DUP1 PUSH4 0x4D3C3A41 EQ PUSH2 0x3BB JUMPI DUP1 PUSH4 0x5FDF05D7 EQ PUSH2 0x3FE JUMPI DUP1 PUSH4 0x75662E96 EQ PUSH2 0x429 JUMPI PUSH2 0x204 JUMP JUMPDEST DUP1 PUSH4 0x443E4A39 GT PUSH2 0x1D7 JUMPI DUP1 PUSH4 0x443E4A39 EQ PUSH2 0x2E6 JUMPI DUP1 PUSH4 0x44866955 EQ PUSH2 0x30F JUMPI DUP1 PUSH4 0x45CAA117 EQ PUSH2 0x33A JUMPI DUP1 PUSH4 0x4A0364E8 EQ PUSH2 0x365 JUMPI PUSH2 0x204 JUMP JUMPDEST DUP1 PUSH4 0x72EA61C EQ PUSH2 0x209 JUMPI DUP1 PUSH4 0x18901B71 EQ PUSH2 0x234 JUMPI DUP1 PUSH4 0x34FF5644 EQ PUSH2 0x260 JUMPI DUP1 PUSH4 0x3BCA800F EQ PUSH2 0x2A3 JUMPI JUMPDEST PUSH1 0x0 DUP1 REVERT JUMPDEST CALLVALUE DUP1 ISZERO PUSH2 0x215 JUMPI PUSH1 0x0 DUP1 REVERT JUMPDEST POP PUSH2 0x21E PUSH2 0x8BC JUMP JUMPDEST PUSH1 0x40 MLOAD PUSH2 0x22B SWAP2 SWAP1 PUSH2 0x26A2 JUMP JUMPDEST PUSH1 0x40 MLOAD DUP1 SWAP2 SUB SWAP1 RETURN JUMPDEST CALLVALUE DUP1 ISZERO PUSH2 0x240 JUMPI PUSH1 0x0 DUP1 REVERT JUMPDEST POP PUSH2 0x249 PUSH2 0x8C2 JUMP JUMPDEST PUSH1 0x40 MLOAD PUSH2 0x257 SWAP3 SWAP2 SWAP1 PUSH2 0x284A JUMP JUMPDEST PUSH1 0x40 MLOAD DUP1 SWAP2 SUB SWAP1 RETURN JUMPDEST CALLVALUE DUP1 ISZERO PUSH2 0x26C JUMPI PUSH1 0x0 DUP1 REVERT JUMPDEST POP PUSH2 0x287 PUSH1 0x4 DUP1 CALLDATASIZE SUB DUP2 ADD SWAP1 PUSH2 0x282 SWAP2 SWAP1 PUSH2 0x28D7 JUMP JUMPDEST PUSH2 0xAAE JUMP JUMPDEST PUSH1 0x40 MLOAD PUSH2 0x29A SWAP8 SWAP7 SWAP6 SWAP5 SWAP4 SWAP3 SWAP2 SWAP1 PUSH2 0x2926 JUMP JUMPDEST PUSH1 0x40 MLOAD DUP1 SWAP2 SUB SWAP1 RETURN JUMPDEST CALLVALUE DUP1 ISZERO PUSH2 0x2AF JUMPI PUSH1 0x0 DUP1 REVERT JUMPDEST POP PUSH2 0x2CA PUSH1 0x4 DUP1 CALLDATASIZE SUB DUP2 ADD SWAP1 PUSH2 0x2C5 SWAP2 SWAP1 PUSH2 0x2995 JUMP JUMPDEST PUSH2 0xB2D JUMP JUMPDEST PUSH1 0x40 MLOAD PUSH2 0x2DD SWAP8 SWAP7 SWAP6 SWAP5 SWAP4 SWAP3 SWAP2 SWAP1 PUSH2 0x2926 JUMP JUMPDEST PUSH1 0x40 MLOAD DUP1 SWAP2 SUB SWAP1 RETURN JUMPDEST CALLVALUE DUP1 ISZERO PUSH2 0x2F2 JUMPI PUSH1 0x0 DUP1 REVERT JUMPDEST POP PUSH2 0x30D PUSH1 0x4 DUP1 CALLDATASIZE SUB DUP2 ADD SWAP1 PUSH2 0x308 SWAP2 SWAP1 PUSH2 0x29C2 JUMP JUMPDEST PUSH2 0xB9F JUMP JUMPDEST STOP JUMPDEST CALLVALUE DUP1 ISZERO PUSH2 0x31B JUMPI PUSH1 0x0 DUP1 REVERT JUMPDEST POP PUSH2 0x324 PUSH2 0xC2A JUMP JUMPDEST PUSH1 0x40 MLOAD PUSH2 0x331 SWAP2 SWAP1 PUSH2 0x26A2 JUMP JUMPDEST PUSH1 0x40 MLOAD DUP1 SWAP2 SUB SWAP1 RETURN JUMPDEST CALLVALUE DUP1 ISZERO PUSH2 0x346 JUMPI PUSH1 0x0 DUP1 REVERT JUMPDEST POP PUSH2 0x34F PUSH2 0xC30 JUMP JUMPDEST PUSH1 0x40 MLOAD PUSH2 0x35C SWAP2 SWAP1 PUSH2 0x26A2 JUMP JUMPDEST PUSH1 0x40 MLOAD DUP1 SWAP2 SUB SWAP1 RETURN JUMPDEST CALLVALUE DUP1 ISZERO PUSH2 0x371 JUMPI PUSH1 0x0 DUP1 REVERT JUMPDEST POP PUSH2 0x37A PUSH2 0xC36 JUMP JUMPDEST PUSH1 0x40 MLOAD PUSH2 0x387 SWAP2 SWAP1 PUSH2 0x2A02 JUMP JUMPDEST PUSH1 0x40 MLOAD DUP1 SWAP2 SUB SWAP1 RETURN JUMPDEST CALLVALUE DUP1 ISZERO PUSH2 0x39C JUMPI PUSH1 0x0 DUP1 REVERT JUMPDEST POP PUSH2 0x3A5 PUSH2 0xDD0 JUMP JUMPDEST PUSH1 0x40 MLOAD PUSH2 0x3B2 SWAP2 SWAP1 PUSH2 0x26A2 JUMP JUMPDEST PUSH1 0x40 MLOAD DUP1 SWAP2 SUB SWAP1 RETURN JUMPDEST CALLVALUE DUP1 ISZERO PUSH2 0x3C7 JUMPI PUSH1 0x0 DUP1 REVERT JUMPDEST POP PUSH2 0x3E2 PUSH1 0x4 DUP1 CALLDATASIZE SUB DUP2 ADD SWAP1 PUSH2 0x3DD SWAP2 SWAP1 PUSH2 0x29C2 JUMP JUMPDEST PUSH2 0xDD6 JUMP JUMPDEST PUSH1 0x40 MLOAD PUSH2 0x3F5 SWAP8 SWAP7 SWAP6 SWAP5 SWAP4 SWAP3 SWAP2 SWAP1 PUSH2 0x2926 JUMP JUMPDEST PUSH1 0x40 MLOAD DUP1 SWAP2 SUB SWAP1 RETURN JUMPDEST CALLVALUE DUP1 ISZERO PUSH2 0x40A JUMPI PUSH1 0x0 DUP1 REVERT JUMPDEST POP PUSH2 0x413 PUSH2 0xE55 JUMP JUMPDEST PUSH1 0x40 MLOAD PUSH2 0x420 SWAP2 SWAP1 PUSH2 0x26A2 JUMP JUMPDEST PUSH1 0x40 MLOAD DUP1 SWAP2 SUB SWAP1 RETURN JUMPDEST CALLVALUE DUP1 ISZERO PUSH2 0x435 JUMPI PUSH1 0x0 DUP1 REVERT JUMPDEST POP PUSH2 0x43E PUSH2 0xE5B JUMP JUMPDEST PUSH1 0x40 MLOAD PUSH2 0x44B SWAP2 SWAP1 PUSH2 0x2AD3 JUMP JUMPDEST PUSH1 0x40 MLOAD DUP1 SWAP2 SUB SWAP1 RETURN JUMPDEST CALLVALUE DUP1 ISZERO PUSH2 0x460 JUMPI PUSH1 0x0 DUP1 REVERT JUMPDEST POP PUSH2 0x469 PUSH2 0xEB3 JUMP JUMPDEST PUSH1 0x40 MLOAD PUSH2 0x476 SWAP2 SWAP1 PUSH2 0x26A2 JUMP JUMPDEST PUSH1 0x40 MLOAD DUP1 SWAP2 SUB SWAP1 RETURN JUMPDEST CALLVALUE DUP1 ISZERO PUSH2 0x48B JUMPI PUSH1 0x0 DUP1 REVERT JUMPDEST POP PUSH2 0x4A6 PUSH1 0x4 DUP1 CALLDATASIZE SUB DUP2 ADD SWAP1 PUSH2 0x4A1 SWAP2 SWAP1 PUSH2 0x2995 JUMP JUMPDEST PUSH2 0xEB9 JUMP JUMPDEST PUSH1 0x40 MLOAD PUSH2 0x4B3 SWAP2 SWAP1 PUSH2 0x26A2 JUMP JUMPDEST PUSH1 0x40 MLOAD DUP1 SWAP2 SUB SWAP1 RETURN JUMPDEST CALLVALUE DUP1 ISZERO PUSH2 0x4C8 JUMPI PUSH1 0x0 DUP1 REVERT JUMPDEST POP PUSH2 0x4D1 PUSH2 0xEDD JUMP JUMPDEST PUSH1 0x40 MLOAD PUSH2 0x4DE SWAP2 SWAP1 PUSH2 0x26A2 JUMP JUMPDEST PUSH1 0x40 MLOAD DUP1 SWAP2 SUB SWAP1 RETURN JUMPDEST CALLVALUE DUP1 ISZERO PUSH2 0x4F3 JUMPI PUSH1 0x0 DUP1 REVERT JUMPDEST POP PUSH2 0x50E PUSH1 0x4 DUP1 CALLDATASIZE SUB DUP2 ADD SWAP1 PUSH2 0x509 SWAP2 SWAP1 PUSH2 0x29C2 JUMP JUMPDEST PUSH2 0xEE3 JUMP JUMPDEST STOP JUMPDEST PUSH2 0x52A PUSH1 0x4 DUP1 CALLDATASIZE SUB DUP2 ADD SWAP1 PUSH2 0x525 SWAP2 SWAP1 PUSH2 0x2AF5 JUMP JUMPDEST PUSH2 0xF66 JUMP JUMPDEST STOP JUMPDEST CALLVALUE DUP1 ISZERO PUSH2 0x538 JUMPI PUSH1 0x0 DUP1 REVERT JUMPDEST POP PUSH2 0x541 PUSH2 0x141E JUMP JUMPDEST PUSH1 0x40 MLOAD PUSH2 0x54E SWAP2 SWAP1 PUSH2 0x26A2 JUMP JUMPDEST PUSH1 0x40 MLOAD DUP1 SWAP2 SUB SWAP1 RETURN JUMPDEST CALLVALUE DUP1 ISZERO PUSH2 0x563 JUMPI PUSH1 0x0 DUP1 REVERT JUMPDEST POP PUSH2 0x57E PUSH1 0x4 DUP1 CALLDATASIZE SUB DUP2 ADD SWAP1 PUSH2 0x579 SWAP2 SWAP1 PUSH2 0x29C2 JUMP JUMPDEST PUSH2 0x1424 JUMP JUMPDEST PUSH1 0x40 MLOAD PUSH2 0x58B SWAP2 SWAP1 PUSH2 0x26A2 JUMP JUMPDEST PUSH1 0x40 MLOAD DUP1 SWAP2 SUB SWAP1 RETURN JUMPDEST CALLVALUE DUP1 ISZERO PUSH2 0x5A0 JUMPI PUSH1 0x0 DUP1 REVERT JUMPDEST POP PUSH2 0x5A9 PUSH2 0x1455 JUMP JUMPDEST PUSH1 0x40 MLOAD PUSH2 0x5B6 SWAP2 SWAP1 PUSH2 0x26A2 JUMP JUMPDEST PUSH1 0x40 MLOAD DUP1 SWAP2 SUB SWAP1 RETURN JUMPDEST CALLVALUE DUP1 ISZERO PUSH2 0x5CB JUMPI PUSH1 0x0 DUP1 REVERT JUMPDEST POP PUSH2 0x5D4 PUSH2 0x145B JUMP JUMPDEST PUSH1 0x40 MLOAD PUSH2 0x5E1 SWAP2 SWAP1 PUSH2 0x26A2 JUMP JUMPDEST PUSH1 0x40 MLOAD DUP1 SWAP2 SUB SWAP1 RETURN JUMPDEST CALLVALUE DUP1 ISZERO PUSH2 0x5F6 JUMPI PUSH1 0x0 DUP1 REVERT JUMPDEST POP PUSH2 0x5FF PUSH2 0x1461 JUMP JUMPDEST PUSH1 0x40 MLOAD PUSH2 0x60C SWAP2 SWAP1 PUSH2 0x26A2 JUMP JUMPDEST PUSH1 0x40 MLOAD DUP1 SWAP2 SUB SWAP1 RETURN JUMPDEST CALLVALUE DUP1 ISZERO PUSH2 0x621 JUMPI PUSH1 0x0 DUP1 REVERT JUMPDEST POP PUSH2 0x62A PUSH2 0x1467 JUMP JUMPDEST PUSH1 0x40 MLOAD PUSH2 0x637 SWAP2 SWAP1 PUSH2 0x26A2 JUMP JUMPDEST PUSH1 0x40 MLOAD DUP1 SWAP2 SUB SWAP1 RETURN JUMPDEST CALLVALUE DUP1 ISZERO PUSH2 0x64C JUMPI PUSH1 0x0 DUP1 REVERT JUMPDEST POP PUSH2 0x667 PUSH1 0x4 DUP1 CALLDATASIZE SUB DUP2 ADD SWAP1 PUSH2 0x662 SWAP2 SWAP1 PUSH2 0x2995 JUMP JUMPDEST PUSH2 0x146D JUMP JUMPDEST PUSH1 0x40 MLOAD PUSH2 0x67A SWAP8 SWAP7 SWAP6 SWAP5 SWAP4 SWAP3 SWAP2 SWAP1 PUSH2 0x2926 JUMP JUMPDEST PUSH1 0x40 MLOAD DUP1 SWAP2 SUB SWAP1 RETURN JUMPDEST CALLVALUE DUP1 ISZERO PUSH2 0x68F JUMPI PUSH1 0x0 DUP1 REVERT JUMPDEST POP PUSH2 0x698 PUSH2 0x14DF JUMP JUMPDEST PUSH1 0x40 MLOAD PUSH2 0x6A5 SWAP2 SWAP1 PUSH2 0x26A2 JUMP JUMPDEST PUSH1 0x40 MLOAD DUP1 SWAP2 SUB SWAP1 RETURN JUMPDEST CALLVALUE DUP1 ISZERO PUSH2 0x6BA JUMPI PUSH1 0x0 DUP1 REVERT JUMPDEST POP PUSH2 0x6C3 PUSH2 0x14E5 JUMP JUMPDEST PUSH1 0x40 MLOAD PUSH2 0x6D0 SWAP2 SWAP1 PUSH2 0x26A2 JUMP JUMPDEST PUSH1 0x40 MLOAD DUP1 SWAP2 SUB SWAP1 RETURN JUMPDEST CALLVALUE DUP1 ISZERO PUSH2 0x6E5 JUMPI PUSH1 0x0 DUP1 REVERT JUMPDEST POP PUSH2 0x700 PUSH1 0x4 DUP1 CALLDATASIZE SUB DUP2 ADD SWAP1 PUSH2 0x6FB SWAP2 SWAP1 PUSH2 0x2995 JUMP JUMPDEST PUSH2 0x14EB JUMP JUMPDEST PUSH1 0x40 MLOAD PUSH2 0x713 SWAP8 SWAP7 SWAP6 SWAP5 SWAP4 SWAP3 SWAP2 SWAP1 PUSH2 0x2926 JUMP JUMPDEST PUSH1 0x40 MLOAD DUP1 SWAP2 SUB SWAP1 RETURN JUMPDEST CALLVALUE DUP1 ISZERO PUSH2 0x728 JUMPI PUSH1 0x0 DUP1 REVERT JUMPDEST POP PUSH2 0x731 PUSH2 0x155D JUMP JUMPDEST PUSH1 0x40 MLOAD PUSH2 0x73E SWAP2 SWAP1 PUSH2 0x26A2 JUMP JUMPDEST PUSH1 0x40 MLOAD DUP1 SWAP2 SUB SWAP1 RETURN JUMPDEST CALLVALUE DUP1 ISZERO PUSH2 0x753 JUMPI PUSH1 0x0 DUP1 REVERT JUMPDEST POP PUSH2 0x76E PUSH1 0x4 DUP1 CALLDATASIZE SUB DUP2 ADD SWAP1 PUSH2 0x769 SWAP2 SWAP1 PUSH2 0x29C2 JUMP JUMPDEST PUSH2 0x1563 JUMP JUMPDEST PUSH1 0x40 MLOAD PUSH2 0x77B SWAP2 SWAP1 PUSH2 0x2B5C JUMP JUMPDEST PUSH1 0x40 MLOAD DUP1 SWAP2 SUB SWAP1 RETURN JUMPDEST CALLVALUE DUP1 ISZERO PUSH2 0x790 JUMPI PUSH1 0x0 DUP1 REVERT JUMPDEST POP PUSH2 0x7AB PUSH1 0x4 DUP1 CALLDATASIZE SUB DUP2 ADD SWAP1 PUSH2 0x7A6 SWAP2 SWAP1 PUSH2 0x29C2 JUMP JUMPDEST PUSH2 0x15B1 JUMP JUMPDEST PUSH1 0x40 MLOAD PUSH2 0x7B8 SWAP2 SWAP1 PUSH2 0x2B5C JUMP JUMPDEST PUSH1 0x40 MLOAD DUP1 SWAP2 SUB SWAP1 RETURN JUMPDEST CALLVALUE DUP1 ISZERO PUSH2 0x7CD JUMPI PUSH1 0x0 DUP1 REVERT JUMPDEST POP PUSH2 0x7E8 PUSH1 0x4 DUP1 CALLDATASIZE SUB DUP2 ADD SWAP1 PUSH2 0x7E3 SWAP2 SWAP1 PUSH2 0x2995 JUMP JUMPDEST PUSH2 0x15FF JUMP JUMPDEST PUSH1 0x40 MLOAD PUSH2 0x7F5 SWAP2 SWAP1 PUSH2 0x2B5C JUMP JUMPDEST PUSH1 0x40 MLOAD DUP1 SWAP2 SUB SWAP1 RETURN JUMPDEST CALLVALUE DUP1 ISZERO PUSH2 0x80A JUMPI PUSH1 0x0 DUP1 REVERT JUMPDEST POP PUSH2 0x813 PUSH2 0x163E JUMP JUMPDEST PUSH1 0x40 MLOAD PUSH2 0x820 SWAP2 SWAP1 PUSH2 0x2B5C JUMP JUMPDEST PUSH1 0x40 MLOAD DUP1 SWAP2 SUB SWAP1 RETURN JUMPDEST CALLVALUE DUP1 ISZERO PUSH2 0x835 JUMPI PUSH1 0x0 DUP1 REVERT JUMPDEST POP PUSH2 0x83E PUSH2 0x1662 JUMP JUMPDEST PUSH1 0x40 MLOAD PUSH2 0x84B SWAP2 SWAP1 PUSH2 0x26A2 JUMP JUMPDEST PUSH1 0x40 MLOAD DUP1 SWAP2 SUB SWAP1 RETURN JUMPDEST CALLVALUE DUP1 ISZERO PUSH2 0x860 JUMPI PUSH1 0x0 DUP1 REVERT JUMPDEST POP PUSH2 0x87B PUSH1 0x4 DUP1 CALLDATASIZE SUB DUP2 ADD SWAP1 PUSH2 0x876 SWAP2 SWAP1 PUSH2 0x2B77 JUMP JUMPDEST PUSH2 0x1668 JUMP JUMPDEST PUSH1 0x40 MLOAD PUSH2 0x888 SWAP2 SWAP1 PUSH2 0x26A2 JUMP JUMPDEST PUSH1 0x40 MLOAD DUP1 SWAP2 SUB SWAP1 RETURN JUMPDEST CALLVALUE DUP1 ISZERO PUSH2 0x89D JUMPI PUSH1 0x0 DUP1 REVERT JUMPDEST POP PUSH2 0x8A6 PUSH2 0x1680 JUMP JUMPDEST PUSH1 0x40 MLOAD PUSH2 0x8B3 SWAP2 SWAP1 PUSH2 0x26A2 JUMP JUMPDEST PUSH1 0x40 MLOAD DUP1 SWAP2 SUB SWAP1 RETURN JUMPDEST PUSH1 0x1 SLOAD DUP2 JUMP JUMPDEST PUSH1 0x60 PUSH1 0x0 DUP1 PUSH1 0x19 PUSH1 0x0 CALLER PUSH20 0xFFFFFFFFFFFFFFFFFFFFFFFFFFFFFFFFFFFFFFFF AND PUSH20 0xFFFFFFFFFFFFFFFFFFFFFFFFFFFFFFFFFFFFFFFF AND DUP2 MSTORE PUSH1 0x20 ADD SWAP1 DUP2 MSTORE PUSH1 0x20 ADD PUSH1 0x0 KECCAK256 SWAP1 POP PUSH1 0x0 DUP2 DUP1 SLOAD SWAP1 POP PUSH8 0xFFFFFFFFFFFFFFFF DUP2 GT ISZERO PUSH2 0x928 JUMPI PUSH2 0x927 PUSH2 0x2BA4 JUMP JUMPDEST JUMPDEST PUSH1 0x40 MLOAD SWAP1 DUP1 DUP3 MSTORE DUP1 PUSH1 0x20 MUL PUSH1 0x20 ADD DUP3 ADD PUSH1 0x40 MSTORE DUP1 ISZERO PUSH2 0x961 JUMPI DUP2 PUSH1 0x20 ADD JUMPDEST PUSH2 0x94E PUSH2 0x2636 JUMP JUMPDEST DUP2 MSTORE PUSH1 0x20 ADD SWAP1 PUSH1 0x1 SWAP1 SUB SWAP1 DUP2 PUSH2 0x946 JUMPI SWAP1 POP JUMPDEST POP SWAP1 POP PUSH1 0x0 JUMPDEST DUP3 DUP1 SLOAD SWAP1 POP DUP2 LT ISZERO PUSH2 0xA62 JUMPI DUP3 DUP2 DUP2 SLOAD DUP2 LT PUSH2 0x986 JUMPI PUSH2 0x985 PUSH2 0x2BD3 JUMP JUMPDEST JUMPDEST SWAP1 PUSH1 0x0 MSTORE PUSH1 0x20 PUSH1 0x0 KECCAK256 SWAP1 PUSH1 0x7 MUL ADD PUSH1 0x40 MLOAD DUP1 PUSH1 0xE0 ADD PUSH1 0x40 MSTORE SWAP1 DUP2 PUSH1 0x0 DUP3 ADD PUSH1 0x0 SWAP1 SLOAD SWAP1 PUSH2 0x100 EXP SWAP1 DIV PUSH20 0xFFFFFFFFFFFFFFFFFFFFFFFFFFFFFFFFFFFFFFFF AND PUSH20 0xFFFFFFFFFFFFFFFFFFFFFFFFFFFFFFFFFFFFFFFF AND PUSH20 0xFFFFFFFFFFFFFFFFFFFFFFFFFFFFFFFFFFFFFFFF AND DUP2 MSTORE PUSH1 0x20 ADD PUSH1 0x1 DUP3 ADD SLOAD DUP2 MSTORE PUSH1 0x20 ADD PUSH1 0x2 DUP3 ADD SLOAD DUP2 MSTORE PUSH1 0x20 ADD PUSH1 0x3 DUP3 ADD SLOAD DUP2 MSTORE PUSH1 0x20 ADD PUSH1 0x4 DUP3 ADD SLOAD DUP2 MSTORE PUSH1 0x20 ADD PUSH1 0x5 DUP3 ADD SLOAD DUP2 MSTORE PUSH1 0x20 ADD PUSH1 0x6 DUP3 ADD SLOAD DUP2 MSTORE POP POP DUP3 DUP3 DUP2 MLOAD DUP2 LT PUSH2 0xA44 JUMPI PUSH2 0xA43 PUSH2 0x2BD3 JUMP JUMPDEST JUMPDEST PUSH1 0x20 MUL PUSH1 0x20 ADD ADD DUP2 SWAP1 MSTORE POP DUP1 DUP1 PUSH2 0xA5A SWAP1 PUSH2 0x2C31 JUMP JUMPDEST SWAP2 POP POP PUSH2 0x967 JUMP JUMPDEST POP DUP1 PUSH1 0x18 PUSH1 0x0 CALLER PUSH20 0xFFFFFFFFFFFFFFFFFFFFFFFFFFFFFFFFFFFFFFFF AND PUSH20 0xFFFFFFFFFFFFFFFFFFFFFFFFFFFFFFFFFFFFFFFF AND DUP2 MSTORE PUSH1 0x20 ADD SWAP1 DUP2 MSTORE PUSH1 0x20 ADD PUSH1 0x0 KECCAK256 SLOAD SWAP4 POP SWAP4 POP POP POP SWAP1 SWAP2 JUMP JUMPDEST PUSH1 0x19 PUSH1 0x20 MSTORE DUP2 PUSH1 0x0 MSTORE PUSH1 0x40 PUSH1 0x0 KECCAK256 DUP2 DUP2 SLOAD DUP2 LT PUSH2 0xACA JUMPI PUSH1 0x0 DUP1 REVERT JUMPDEST SWAP1 PUSH1 0x0 MSTORE PUSH1 0x20 PUSH1 0x0 KECCAK256 SWAP1 PUSH1 0x7 MUL ADD PUSH1 0x0 SWAP2 POP SWAP2 POP POP DUP1 PUSH1 0x0 ADD PUSH1 0x0 SWAP1 SLOAD SWAP1 PUSH2 0x100 EXP SWAP1 DIV PUSH20 0xFFFFFFFFFFFFFFFFFFFFFFFFFFFFFFFFFFFFFFFF AND SWAP1 DUP1 PUSH1 0x1 ADD SLOAD SWAP1 DUP1 PUSH1 0x2 ADD SLOAD SWAP1 DUP1 PUSH1 0x3 ADD SLOAD SWAP1 DUP1 PUSH1 0x4 ADD SLOAD SWAP1 DUP1 PUSH1 0x5 ADD SLOAD SWAP1 DUP1 PUSH1 0x6 ADD SLOAD SWAP1 POP DUP8 JUMP JUMPDEST PUSH1 0x15 DUP2 DUP2 SLOAD DUP2 LT PUSH2 0xB3D JUMPI PUSH1 0x0 DUP1 REVERT JUMPDEST SWAP1 PUSH1 0x0 MSTORE PUSH1 0x20 PUSH1 0x0 KECCAK256 SWAP1 PUSH1 0x7 MUL ADD PUSH1 0x0 SWAP2 POP SWAP1 POP DUP1 PUSH1 0x0 ADD PUSH1 0x0 SWAP1 SLOAD SWAP1 PUSH2 0x100 EXP SWAP1 DIV PUSH20 0xFFFFFFFFFFFFFFFFFFFFFFFFFFFFFFFFFFFFFFFF AND SWAP1 DUP1 PUSH1 0x1 ADD SLOAD SWAP1 DUP1 PUSH1 0x2 ADD SLOAD SWAP1 DUP1 PUSH1 0x3 ADD SLOAD SWAP1 DUP1 PUSH1 0x4 ADD SLOAD SWAP1 DUP1 PUSH1 0x5 ADD SLOAD SWAP1 DUP1 PUSH1 0x6 ADD SLOAD SWAP1 POP DUP8 JUMP JUMPDEST PUSH1 0x0 DUP1 SLOAD SWAP1 PUSH2 0x100 EXP SWAP1 DIV PUSH20 0xFFFFFFFFFFFFFFFFFFFFFFFFFFFFFFFFFFFFFFFF AND PUSH20 0xFFFFFFFFFFFFFFFFFFFFFFFFFFFFFFFFFFFFFFFF AND CALLER PUSH20 0xFFFFFFFFFFFFFFFFFFFFFFFFFFFFFFFFFFFFFFFF AND EQ PUSH2 0xBF7 JUMPI PUSH1 0x0 DUP1 REVERT JUMPDEST PUSH1 0x11 SLOAD TIMESTAMP LT ISZERO PUSH2 0xC06 JUMPI PUSH1 0x0 DUP1 REVERT JUMPDEST DUP2 PUSH1 0x9 DUP2 SWAP1 SSTORE POP DUP1 PUSH1 0xA DUP2 SWAP1 SSTORE POP PUSH2 0xC1E PUSH1 0x0 PUSH2 0x1686 JUMP JUMPDEST PUSH2 0xC26 PUSH2 0x1F3F JUMP JUMPDEST POP POP JUMP JUMPDEST PUSH1 0x9 SLOAD DUP2 JUMP JUMPDEST PUSH1 0x5 SLOAD DUP2 JUMP JUMPDEST PUSH1 0x60 PUSH1 0x0 DUP1 PUSH1 0x15 DUP1 SLOAD SWAP1 POP GT ISZERO PUSH2 0xC50 JUMPI PUSH1 0x15 SWAP1 POP PUSH2 0xC6D JUMP JUMPDEST PUSH1 0x0 PUSH1 0x14 DUP1 SLOAD SWAP1 POP GT ISZERO PUSH2 0xC67 JUMPI PUSH1 0x14 SWAP1 POP PUSH2 0xC6C JUMP JUMPDEST PUSH1 0x13 SWAP1 POP JUMPDEST JUMPDEST PUSH1 0x0 DUP2 DUP1 SLOAD SWAP1 POP PUSH8 0xFFFFFFFFFFFFFFFF DUP2 GT ISZERO PUSH2 0xC8D JUMPI PUSH2 0xC8C PUSH2 0x2BA4 JUMP JUMPDEST JUMPDEST PUSH1 0x40 MLOAD SWAP1 DUP1 DUP3 MSTORE DUP1 PUSH1 0x20 MUL PUSH1 0x20 ADD DUP3 ADD PUSH1 0x40 MSTORE DUP1 ISZERO PUSH2 0xCC6 JUMPI DUP2 PUSH1 0x20 ADD JUMPDEST PUSH2 0xCB3 PUSH2 0x2636 JUMP JUMPDEST DUP2 MSTORE PUSH1 0x20 ADD SWAP1 PUSH1 0x1 SWAP1 SUB SWAP1 DUP2 PUSH2 0xCAB JUMPI SWAP1 POP JUMPDEST POP SWAP1 POP PUSH1 0x0 JUMPDEST DUP3 DUP1 SLOAD SWAP1 POP DUP2 LT ISZERO PUSH2 0xDC7 JUMPI DUP3 DUP2 DUP2 SLOAD DUP2 LT PUSH2 0xCEB JUMPI PUSH2 0xCEA PUSH2 0x2BD3 JUMP JUMPDEST JUMPDEST SWAP1 PUSH1 0x0 MSTORE PUSH1 0x20 PUSH1 0x0 KECCAK256 SWAP1 PUSH1 0x7 MUL ADD PUSH1 0x40 MLOAD DUP1 PUSH1 0xE0 ADD PUSH1 0x40 MSTORE SWAP1 DUP2 PUSH1 0x0 DUP3 ADD PUSH1 0x0 SWAP1 SLOAD SWAP1 PUSH2 0x100 EXP SWAP1 DIV PUSH20 0xFFFFFFFFFFFFFFFFFFFFFFFFFFFFFFFFFFFFFFFF AND PUSH20 0xFFFFFFFFFFFFFFFFFFFFFFFFFFFFFFFFFFFFFFFF AND PUSH20 0xFFFFFFFFFFFFFFFFFFFFFFFFFFFFFFFFFFFFFFFF AND DUP2 MSTORE PUSH1 0x20 ADD PUSH1 0x1 DUP3 ADD SLOAD DUP2 MSTORE PUSH1 0x20 ADD PUSH1 0x2 DUP3 ADD SLOAD DUP2 MSTORE PUSH1 0x20 ADD PUSH1 0x3 DUP3 ADD SLOAD DUP2 MSTORE PUSH1 0x20 ADD PUSH1 0x4 DUP3 ADD SLOAD DUP2 MSTORE PUSH1 0x20 ADD PUSH1 0x5 DUP3 ADD SLOAD DUP2 MSTORE PUSH1 0x20 ADD PUSH1 0x6 DUP3 ADD SLOAD DUP2 MSTORE POP POP DUP3 DUP3 DUP2 MLOAD DUP2 LT PUSH2 0xDA9 JUMPI PUSH2 0xDA8 PUSH2 0x2BD3 JUMP JUMPDEST JUMPDEST PUSH1 0x20 MUL PUSH1 0x20 ADD ADD DUP2 SWAP1 MSTORE POP DUP1 DUP1 PUSH2 0xDBF SWAP1 PUSH2 0x2C31 JUMP JUMPDEST SWAP2 POP POP PUSH2 0xCCC JUMP JUMPDEST POP DUP1 SWAP3 POP POP POP SWAP1 JUMP JUMPDEST PUSH1 0xD SLOAD DUP2 JUMP JUMPDEST PUSH1 0x1B PUSH1 0x20 MSTORE DUP2 PUSH1 0x0 MSTORE PUSH1 0x40 PUSH1 0x0 KECCAK256 DUP2 DUP2 SLOAD DUP2 LT PUSH2 0xDF2 JUMPI PUSH1 0x0 DUP1 REVERT JUMPDEST SWAP1 PUSH1 0x0 MSTORE PUSH1 0x20 PUSH1 0x0 KECCAK256 SWAP1 PUSH1 0x7 MUL ADD PUSH1 0x0 SWAP2 POP SWAP2 POP POP DUP1 PUSH1 0x0 ADD PUSH1 0x0 SWAP1 SLOAD SWAP1 PUSH2 0x100 EXP SWAP1 DIV PUSH20 0xFFFFFFFFFFFFFFFFFFFFFFFFFFFFFFFFFFFFFFFF AND SWAP1 DUP1 PUSH1 0x1 ADD SLOAD SWAP1 DUP1 PUSH1 0x2 ADD SLOAD SWAP1 DUP1 PUSH1 0x3 ADD SLOAD SWAP1 DUP1 PUSH1 0x4 ADD SLOAD SWAP1 DUP1 PUSH1 0x5 ADD SLOAD SWAP1 DUP1 PUSH1 0x6 ADD SLOAD SWAP1 POP DUP8 JUMP JUMPDEST PUSH1 0x4 SLOAD DUP2 JUMP JUMPDEST PUSH1 0x60 PUSH1 0x17 DUP1 SLOAD DUP1 PUSH1 0x20 MUL PUSH1 0x20 ADD PUSH1 0x40 MLOAD SWAP1 DUP2 ADD PUSH1 0x40 MSTORE DUP1 SWAP3 SWAP2 SWAP1 DUP2 DUP2 MSTORE PUSH1 0x20 ADD DUP3 DUP1 SLOAD DUP1 ISZERO PUSH2 0xEA9 JUMPI PUSH1 0x20 MUL DUP3 ADD SWAP2 SWAP1 PUSH1 0x0 MSTORE PUSH1 0x20 PUSH1 0x0 KECCAK256 SWAP1 JUMPDEST DUP2 SLOAD DUP2 MSTORE PUSH1 0x20 ADD SWAP1 PUSH1 0x1 ADD SWAP1 DUP1 DUP4 GT PUSH2 0xE95 JUMPI JUMPDEST POP POP POP POP POP SWAP1 POP SWAP1 JUMP JUMPDEST PUSH1 0xC SLOAD DUP2 JUMP JUMPDEST PUSH1 0x17 DUP2 DUP2 SLOAD DUP2 LT PUSH2 0xEC9 JUMPI PUSH1 0x0 DUP1 REVERT JUMPDEST SWAP1 PUSH1 0x0 MSTORE PUSH1 0x20 PUSH1 0x0 KECCAK256 ADD PUSH1 0x0 SWAP2 POP SWAP1 POP SLOAD DUP2 JUMP JUMPDEST PUSH1 0x3 SLOAD DUP2 JUMP JUMPDEST PUSH1 0x0 DUP1 SLOAD SWAP1 PUSH2 0x100 EXP SWAP1 DIV PUSH20 0xFFFFFFFFFFFFFFFFFFFFFFFFFFFFFFFFFFFFFFFF AND PUSH20 0xFFFFFFFFFFFFFFFFFFFFFFFFFFFFFFFFFFFFFFFF AND CALLER PUSH20 0xFFFFFFFFFFFFFFFFFFFFFFFFFFFFFFFFFFFFFFFF AND EQ PUSH2 0xF3B JUMPI PUSH1 0x0 DUP1 REVERT JUMPDEST PUSH1 0x10 SLOAD TIMESTAMP LT ISZERO PUSH2 0xF4A JUMPI PUSH1 0x0 DUP1 REVERT JUMPDEST DUP2 PUSH1 0x7 DUP2 SWAP1 SSTORE POP DUP1 PUSH1 0x8 DUP2 SWAP1 SSTORE POP PUSH2 0xF62 PUSH1 0x1 PUSH2 0x1686 JUMP JUMPDEST POP POP JUMP JUMPDEST PUSH1 0x1 SLOAD CALLVALUE EQ PUSH2 0xFAA JUMPI PUSH1 0x40 MLOAD PUSH32 0x8C379A000000000000000000000000000000000000000000000000000000000 DUP2 MSTORE PUSH1 0x4 ADD PUSH2 0xFA1 SWAP1 PUSH2 0x2CD6 JUMP JUMPDEST PUSH1 0x40 MLOAD DUP1 SWAP2 SUB SWAP1 REVERT JUMPDEST PUSH1 0xE SLOAD TIMESTAMP LT ISZERO PUSH2 0xFEF JUMPI PUSH1 0x40 MLOAD PUSH32 0x8C379A000000000000000000000000000000000000000000000000000000000 DUP2 MSTORE PUSH1 0x4 ADD PUSH2 0xFE6 SWAP1 PUSH2 0x2D68 JUMP JUMPDEST PUSH1 0x40 MLOAD DUP1 SWAP2 SUB SWAP1 REVERT JUMPDEST PUSH1 0xF SLOAD TIMESTAMP GT ISZERO PUSH2 0x1034 JUMPI PUSH1 0x40 MLOAD PUSH32 0x8C379A000000000000000000000000000000000000000000000000000000000 DUP2 MSTORE PUSH1 0x4 ADD PUSH2 0x102B SWAP1 PUSH2 0x2DD4 JUMP JUMPDEST PUSH1 0x40 MLOAD DUP1 SWAP2 SUB SWAP1 REVERT JUMPDEST PUSH1 0x2 SLOAD PUSH1 0x18 PUSH1 0x0 CALLER PUSH20 0xFFFFFFFFFFFFFFFFFFFFFFFFFFFFFFFFFFFFFFFF AND PUSH20 0xFFFFFFFFFFFFFFFFFFFFFFFFFFFFFFFFFFFFFFFF AND DUP2 MSTORE PUSH1 0x20 ADD SWAP1 DUP2 MSTORE PUSH1 0x20 ADD PUSH1 0x0 KECCAK256 SLOAD LT PUSH2 0x10B7 JUMPI PUSH1 0x40 MLOAD PUSH32 0x8C379A000000000000000000000000000000000000000000000000000000000 DUP2 MSTORE PUSH1 0x4 ADD PUSH2 0x10AE SWAP1 PUSH2 0x2E66 JUMP JUMPDEST PUSH1 0x40 MLOAD DUP1 SWAP2 SUB SWAP1 REVERT JUMPDEST PUSH1 0x0 PUSH2 0x10C5 PUSH3 0x186A0 PUSH2 0x24D6 JUMP JUMPDEST SWAP1 POP PUSH1 0x0 PUSH1 0x18 PUSH1 0x0 CALLER PUSH20 0xFFFFFFFFFFFFFFFFFFFFFFFFFFFFFFFFFFFFFFFF AND PUSH20 0xFFFFFFFFFFFFFFFFFFFFFFFFFFFFFFFFFFFFFFFF AND DUP2 MSTORE PUSH1 0x20 ADD SWAP1 DUP2 MSTORE PUSH1 0x20 ADD PUSH1 0x0 KECCAK256 SLOAD GT PUSH2 0x1172 JUMPI PUSH1 0x16 CALLER SWAP1 DUP1 PUSH1 0x1 DUP2 SLOAD ADD DUP1 DUP3 SSTORE DUP1 SWAP2 POP POP PUSH1 0x1 SWAP1 SUB SWAP1 PUSH1 0x0 MSTORE PUSH1 0x20 PUSH1 0x0 KECCAK256 ADD PUSH1 0x0 SWAP1 SWAP2 SWAP1 SWAP2 SWAP1 SWAP2 PUSH2 0x100 EXP DUP2 SLOAD DUP2 PUSH20 0xFFFFFFFFFFFFFFFFFFFFFFFFFFFFFFFFFFFFFFFF MUL NOT AND SWAP1 DUP4 PUSH20 0xFFFFFFFFFFFFFFFFFFFFFFFFFFFFFFFFFFFFFFFF AND MUL OR SWAP1 SSTORE POP JUMPDEST PUSH1 0x18 PUSH1 0x0 CALLER PUSH20 0xFFFFFFFFFFFFFFFFFFFFFFFFFFFFFFFFFFFFFFFF AND PUSH20 0xFFFFFFFFFFFFFFFFFFFFFFFFFFFFFFFFFFFFFFFF AND DUP2 MSTORE PUSH1 0x20 ADD SWAP1 DUP2 MSTORE PUSH1 0x20 ADD PUSH1 0x0 KECCAK256 PUSH1 0x0 DUP2 SLOAD DUP1 SWAP3 SWAP2 SWAP1 PUSH2 0x11C2 SWAP1 PUSH2 0x2C31 JUMP JUMPDEST SWAP2 SWAP1 POP SSTORE POP PUSH1 0x19 PUSH1 0x0 CALLER PUSH20 0xFFFFFFFFFFFFFFFFFFFFFFFFFFFFFFFFFFFFFFFF AND PUSH20 0xFFFFFFFFFFFFFFFFFFFFFFFFFFFFFFFFFFFFFFFF AND DUP2 MSTORE PUSH1 0x20 ADD SWAP1 DUP2 MSTORE PUSH1 0x20 ADD PUSH1 0x0 KECCAK256 PUSH1 0x40 MLOAD DUP1 PUSH1 0xE0 ADD PUSH1 0x40 MSTORE DUP1 CALLER PUSH20 0xFFFFFFFFFFFFFFFFFFFFFFFFFFFFFFFFFFFFFFFF AND DUP2 MSTORE PUSH1 0x20 ADD DUP8 DUP2 MSTORE PUSH1 0x20 ADD DUP7 DUP2 MSTORE PUSH1 0x20 ADD DUP6 DUP2 MSTORE PUSH1 0x20 ADD DUP5 DUP2 MSTORE PUSH1 0x20 ADD PUSH1 0x0 DUP2 MSTORE PUSH1 0x20 ADD DUP4 DUP2 MSTORE POP SWAP1 DUP1 PUSH1 0x1 DUP2 SLOAD ADD DUP1 DUP3 SSTORE DUP1 SWAP2 POP POP PUSH1 0x1 SWAP1 SUB SWAP1 PUSH1 0x0 MSTORE PUSH1 0x20 PUSH1 0x0 KECCAK256 SWAP1 PUSH1 0x7 MUL ADD PUSH1 0x0 SWAP1 SWAP2 SWAP1 SWAP2 SWAP1 SWAP2 POP PUSH1 0x0 DUP3 ADD MLOAD DUP2 PUSH1 0x0 ADD PUSH1 0x0 PUSH2 0x100 EXP DUP2 SLOAD DUP2 PUSH20 0xFFFFFFFFFFFFFFFFFFFFFFFFFFFFFFFFFFFFFFFF MUL NOT AND SWAP1 DUP4 PUSH20 0xFFFFFFFFFFFFFFFFFFFFFFFFFFFFFFFFFFFFFFFF AND MUL OR SWAP1 SSTORE POP PUSH1 0x20 DUP3 ADD MLOAD DUP2 PUSH1 0x1 ADD SSTORE PUSH1 0x40 DUP3 ADD MLOAD DUP2 PUSH1 0x2 ADD SSTORE PUSH1 0x60 DUP3 ADD MLOAD DUP2 PUSH1 0x3 ADD SSTORE PUSH1 0x80 DUP3 ADD MLOAD DUP2 PUSH1 0x4 ADD SSTORE PUSH1 0xA0 DUP3 ADD MLOAD DUP2 PUSH1 0x5 ADD SSTORE PUSH1 0xC0 DUP3 ADD MLOAD DUP2 PUSH1 0x6 ADD SSTORE POP POP PUSH1 0x13 PUSH1 0x40 MLOAD DUP1 PUSH1 0xE0 ADD PUSH1 0x40 MSTORE DUP1 CALLER PUSH20 0xFFFFFFFFFFFFFFFFFFFFFFFFFFFFFFFFFFFFFFFF AND DUP2 MSTORE PUSH1 0x20 ADD DUP8 DUP2 MSTORE PUSH1 0x20 ADD DUP7 DUP2 MSTORE PUSH1 0x20 ADD DUP6 DUP2 MSTORE PUSH1 0x20 ADD DUP5 DUP2 MSTORE PUSH1 0x20 ADD PUSH1 0x0 DUP2 MSTORE PUSH1 0x20 ADD DUP4 DUP2 MSTORE POP SWAP1 DUP1 PUSH1 0x1 DUP2 SLOAD ADD DUP1 DUP3 SSTORE DUP1 SWAP2 POP POP PUSH1 0x1 SWAP1 SUB SWAP1 PUSH1 0x0 MSTORE PUSH1 0x20 PUSH1 0x0 KECCAK256 SWAP1 PUSH1 0x7 MUL ADD PUSH1 0x0 SWAP1 SWAP2 SWAP1 SWAP2 SWAP1 SWAP2 POP PUSH1 0x0 DUP3 ADD MLOAD DUP2 PUSH1 0x0 ADD PUSH1 0x0 PUSH2 0x100 EXP DUP2 SLOAD DUP2 PUSH20 0xFFFFFFFFFFFFFFFFFFFFFFFFFFFFFFFFFFFFFFFF MUL NOT AND SWAP1 DUP4 PUSH20 0xFFFFFFFFFFFFFFFFFFFFFFFFFFFFFFFFFFFFFFFF AND MUL OR SWAP1 SSTORE POP PUSH1 0x20 DUP3 ADD MLOAD DUP2 PUSH1 0x1 ADD SSTORE PUSH1 0x40 DUP3 ADD MLOAD DUP2 PUSH1 0x2 ADD SSTORE PUSH1 0x60 DUP3 ADD MLOAD DUP2 PUSH1 0x3 ADD SSTORE PUSH1 0x80 DUP3 ADD MLOAD DUP2 PUSH1 0x4 ADD SSTORE PUSH1 0xA0 DUP3 ADD MLOAD DUP2 PUSH1 0x5 ADD SSTORE PUSH1 0xC0 DUP3 ADD MLOAD DUP2 PUSH1 0x6 ADD SSTORE POP POP PUSH1 0xC PUSH1 0x0 DUP2 SLOAD DUP1 SWAP3 SWAP2 SWAP1 PUSH2 0x140B SWAP1 PUSH2 0x2C31 JUMP JUMPDEST SWAP2 SWAP1 POP SSTORE POP SELFBALANCE PUSH1 0xD DUP2 SWAP1 SSTORE POP POP POP POP POP POP JUMP JUMPDEST PUSH1 0x6 SLOAD DUP2 JUMP JUMPDEST PUSH1 0x1D PUSH1 0x20 MSTORE DUP2 PUSH1 0x0 MSTORE PUSH1 0x40 PUSH1 0x0 KECCAK256 DUP2 DUP2 SLOAD DUP2 LT PUSH2 0x1440 JUMPI PUSH1 0x0 DUP1 REVERT JUMPDEST SWAP1 PUSH1 0x0 MSTORE PUSH1 0x20 PUSH1 0x0 KECCAK256 ADD PUSH1 0x0 SWAP2 POP SWAP2 POP POP SLOAD DUP2 JUMP JUMPDEST PUSH1 0xE SLOAD DUP2 JUMP JUMPDEST PUSH1 0xF SLOAD DUP2 JUMP JUMPDEST PUSH1 0x8 SLOAD DUP2 JUMP JUMPDEST PUSH1 0xA SLOAD DUP2 JUMP JUMPDEST PUSH1 0x13 DUP2 DUP2 SLOAD DUP2 LT PUSH2 0x147D JUMPI PUSH1 0x0 DUP1 REVERT JUMPDEST SWAP1 PUSH1 0x0 MSTORE PUSH1 0x20 PUSH1 0x0 KECCAK256 SWAP1 PUSH1 0x7 MUL ADD PUSH1 0x0 SWAP2 POP SWAP1 POP DUP1 PUSH1 0x0 ADD PUSH1 0x0 SWAP1 SLOAD SWAP1 PUSH2 0x100 EXP SWAP1 DIV PUSH20 0xFFFFFFFFFFFFFFFFFFFFFFFFFFFFFFFFFFFFFFFF AND SWAP1 DUP1 PUSH1 0x1 ADD SLOAD SWAP1 DUP1 PUSH1 0x2 ADD SLOAD SWAP1 DUP1 PUSH1 0x3 ADD SLOAD SWAP1 DUP1 PUSH1 0x4 ADD SLOAD SWAP1 DUP1 PUSH1 0x5 ADD SLOAD SWAP1 DUP1 PUSH1 0x6 ADD SLOAD SWAP1 POP DUP8 JUMP JUMPDEST PUSH1 0x10 SLOAD DUP2 JUMP JUMPDEST PUSH1 0xB SLOAD DUP2 JUMP JUMPDEST PUSH1 0x14 DUP2 DUP2 SLOAD DUP2 LT PUSH2 0x14FB JUMPI PUSH1 0x0 DUP1 REVERT JUMPDEST SWAP1 PUSH1 0x0 MSTORE PUSH1 0x20 PUSH1 0x0 KECCAK256 SWAP1 PUSH1 0x7 MUL ADD PUSH1 0x0 SWAP2 POP SWAP1 POP DUP1 PUSH1 0x0 ADD PUSH1 0x0 SWAP1 SLOAD SWAP1 PUSH2 0x100 EXP SWAP1 DIV PUSH20 0xFFFFFFFFFFFFFFFFFFFFFFFFFFFFFFFFFFFFFFFF AND SWAP1 DUP1 PUSH1 0x1 ADD SLOAD SWAP1 DUP1 PUSH1 0x2 ADD SLOAD SWAP1 DUP1 PUSH1 0x3 ADD SLOAD SWAP1 DUP1 PUSH1 0x4 ADD SLOAD SWAP1 DUP1 PUSH1 0x5 ADD SLOAD SWAP1 DUP1 PUSH1 0x6 ADD SLOAD SWAP1 POP DUP8 JUMP JUMPDEST PUSH1 0x11 SLOAD DUP2 JUMP JUMPDEST PUSH1 0x1C PUSH1 0x20 MSTORE DUP2 PUSH1 0x0 MSTORE PUSH1 0x40 PUSH1 0x0 KECCAK256 DUP2 DUP2 SLOAD DUP2 LT PUSH2 0x157F JUMPI PUSH1 0x0 DUP1 REVERT JUMPDEST SWAP1 PUSH1 0x0 MSTORE PUSH1 0x20 PUSH1 0x0 KECCAK256 ADD PUSH1 0x0 SWAP2 POP SWAP2 POP SWAP1 SLOAD SWAP1 PUSH2 0x100 EXP SWAP1 DIV PUSH20 0xFFFFFFFFFFFFFFFFFFFFFFFFFFFFFFFFFFFFFFFF AND DUP2 JUMP JUMPDEST PUSH1 0x1A PUSH1 0x20 MSTORE DUP2 PUSH1 0x0 MSTORE PUSH1 0x40 PUSH1 0x0 KECCAK256 DUP2 DUP2 SLOAD DUP2 LT PUSH2 0x15CD JUMPI PUSH1 0x0 DUP1 REVERT JUMPDEST SWAP1 PUSH1 0x0 MSTORE PUSH1 0x20 PUSH1 0x0 KECCAK256 ADD PUSH1 0x0 SWAP2 POP SWAP2 POP SWAP1 SLOAD SWAP1 PUSH2 0x100 EXP SWAP1 DIV PUSH20 0xFFFFFFFFFFFFFFFFFFFFFFFFFFFFFFFFFFFFFFFF AND DUP2 JUMP JUMPDEST PUSH1 0x16 DUP2 DUP2 SLOAD DUP2 LT PUSH2 0x160F JUMPI PUSH1 0x0 DUP1 REVERT JUMPDEST SWAP1 PUSH1 0x0 MSTORE PUSH1 0x20 PUSH1 0x0 KECCAK256 ADD PUSH1 0x0 SWAP2 POP SLOAD SWAP1 PUSH2 0x100 EXP SWAP1 DIV PUSH20 0xFFFFFFFFFFFFFFFFFFFFFFFFFFFFFFFFFFFFFFFF AND DUP2 JUMP JUMPDEST PUSH1 0x0 DUP1 SLOAD SWAP1 PUSH2 0x100 EXP SWAP1 DIV PUSH20 0xFFFFFFFFFFFFFFFFFFFFFFFFFFFFFFFFFFFFFFFF AND DUP2 JUMP JUMPDEST PUSH1 0x2 SLOAD DUP2 JUMP JUMPDEST PUSH1 0x18 PUSH1 0x20 MSTORE DUP1 PUSH1 0x0 MSTORE PUSH1 0x40 PUSH1 0x0 KECCAK256 PUSH1 0x0 SWAP2 POP SWAP1 POP SLOAD DUP2 JUMP JUMPDEST PUSH1 0x7 SLOAD DUP2 JUMP JUMPDEST PUSH1 0x0 DUP1 PUSH1 0x0 JUMPDEST PUSH1 0x16 DUP1 SLOAD SWAP1 POP DUP2 LT ISZERO PUSH2 0x1F39 JUMPI PUSH1 0x16 DUP2 DUP2 SLOAD DUP2 LT PUSH2 0x16AD JUMPI PUSH2 0x16AC PUSH2 0x2BD3 JUMP JUMPDEST JUMPDEST SWAP1 PUSH1 0x0 MSTORE PUSH1 0x20 PUSH1 0x0 KECCAK256 ADD PUSH1 0x0 SWAP1 SLOAD SWAP1 PUSH2 0x100 EXP SWAP1 DIV PUSH20 0xFFFFFFFFFFFFFFFFFFFFFFFFFFFFFFFFFFFFFFFF AND SWAP3 POP PUSH1 0x0 JUMPDEST PUSH1 0x18 PUSH1 0x0 DUP6 PUSH20 0xFFFFFFFFFFFFFFFFFFFFFFFFFFFFFFFFFFFFFFFF AND PUSH20 0xFFFFFFFFFFFFFFFFFFFFFFFFFFFFFFFFFFFFFFFF AND DUP2 MSTORE PUSH1 0x20 ADD SWAP1 DUP2 MSTORE PUSH1 0x20 ADD PUSH1 0x0 KECCAK256 SLOAD DUP2 LT ISZERO PUSH2 0x1F25 JUMPI PUSH1 0x19 PUSH1 0x0 DUP6 PUSH20 0xFFFFFFFFFFFFFFFFFFFFFFFFFFFFFFFFFFFFFFFF AND PUSH20 0xFFFFFFFFFFFFFFFFFFFFFFFFFFFFFFFFFFFFFFFF AND DUP2 MSTORE PUSH1 0x20 ADD SWAP1 DUP2 MSTORE PUSH1 0x20 ADD PUSH1 0x0 KECCAK256 DUP2 DUP2 SLOAD DUP2 LT PUSH2 0x1775 JUMPI PUSH2 0x1774 PUSH2 0x2BD3 JUMP JUMPDEST JUMPDEST SWAP1 PUSH1 0x0 MSTORE PUSH1 0x20 PUSH1 0x0 KECCAK256 SWAP1 PUSH1 0x7 MUL ADD SWAP3 POP DUP5 ISZERO PUSH2 0x1A0C JUMPI PUSH1 0x7 SLOAD DUP4 PUSH1 0x1 ADD SLOAD SUB PUSH2 0x1813 JUMPI PUSH1 0x3 PUSH1 0x19 PUSH1 0x0 DUP7 PUSH20 0xFFFFFFFFFFFFFFFFFFFFFFFFFFFFFFFFFFFFFFFF AND PUSH20 0xFFFFFFFFFFFFFFFFFFFFFFFFFFFFFFFFFFFFFFFF AND DUP2 MSTORE PUSH1 0x20 ADD SWAP1 DUP2 MSTORE PUSH1 0x20 ADD PUSH1 0x0 KECCAK256 DUP3 DUP2 SLOAD DUP2 LT PUSH2 0x17EB JUMPI PUSH2 0x17EA PUSH2 0x2BD3 JUMP JUMPDEST JUMPDEST SWAP1 PUSH1 0x0 MSTORE PUSH1 0x20 PUSH1 0x0 KECCAK256 SWAP1 PUSH1 0x7 MUL ADD PUSH1 0x5 ADD PUSH1 0x0 DUP3 DUP3 SLOAD PUSH2 0x180B SWAP2 SWAP1 PUSH2 0x2E86 JUMP JUMPDEST SWAP3 POP POP DUP2 SWAP1 SSTORE POP JUMPDEST PUSH1 0x8 SLOAD DUP4 PUSH1 0x2 ADD SLOAD SUB PUSH2 0x189B JUMPI PUSH1 0x3 PUSH1 0x19 PUSH1 0x0 DUP7 PUSH20 0xFFFFFFFFFFFFFFFFFFFFFFFFFFFFFFFFFFFFFFFF AND PUSH20 0xFFFFFFFFFFFFFFFFFFFFFFFFFFFFFFFFFFFFFFFF AND DUP2 MSTORE PUSH1 0x20 ADD SWAP1 DUP2 MSTORE PUSH1 0x20 ADD PUSH1 0x0 KECCAK256 DUP3 DUP2 SLOAD DUP2 LT PUSH2 0x1873 JUMPI PUSH2 0x1872 PUSH2 0x2BD3 JUMP JUMPDEST JUMPDEST SWAP1 PUSH1 0x0 MSTORE PUSH1 0x20 PUSH1 0x0 KECCAK256 SWAP1 PUSH1 0x7 MUL ADD PUSH1 0x5 ADD PUSH1 0x0 DUP3 DUP3 SLOAD PUSH2 0x1893 SWAP2 SWAP1 PUSH2 0x2E86 JUMP JUMPDEST SWAP3 POP POP DUP2 SWAP1 SSTORE POP JUMPDEST PUSH1 0x14 PUSH1 0x19 PUSH1 0x0 DUP7 PUSH20 0xFFFFFFFFFFFFFFFFFFFFFFFFFFFFFFFFFFFFFFFF AND PUSH20 0xFFFFFFFFFFFFFFFFFFFFFFFFFFFFFFFFFFFFFFFF AND DUP2 MSTORE PUSH1 0x20 ADD SWAP1 DUP2 MSTORE PUSH1 0x20 ADD PUSH1 0x0 KECCAK256 DUP3 DUP2 SLOAD DUP2 LT PUSH2 0x18EE JUMPI PUSH2 0x18ED PUSH2 0x2BD3 JUMP JUMPDEST JUMPDEST SWAP1 PUSH1 0x0 MSTORE PUSH1 0x20 PUSH1 0x0 KECCAK256 SWAP1 PUSH1 0x7 MUL ADD SWAP1 DUP1 PUSH1 0x1 DUP2 SLOAD ADD DUP1 DUP3 SSTORE DUP1 SWAP2 POP POP PUSH1 0x1 SWAP1 SUB SWAP1 PUSH1 0x0 MSTORE PUSH1 0x20 PUSH1 0x0 KECCAK256 SWAP1 PUSH1 0x7 MUL ADD PUSH1 0x0 SWAP1 SWAP2 SWAP1 SWAP2 SWAP1 SWAP2 POP PUSH1 0x0 DUP3 ADD PUSH1 0x0 SWAP1 SLOAD SWAP1 PUSH2 0x100 EXP SWAP1 DIV PUSH20 0xFFFFFFFFFFFFFFFFFFFFFFFFFFFFFFFFFFFFFFFF AND DUP2 PUSH1 0x0 ADD PUSH1 0x0 PUSH2 0x100 EXP DUP2 SLOAD DUP2 PUSH20 0xFFFFFFFFFFFFFFFFFFFFFFFFFFFFFFFFFFFFFFFF MUL NOT AND SWAP1 DUP4 PUSH20 0xFFFFFFFFFFFFFFFFFFFFFFFFFFFFFFFFFFFFFFFF AND MUL OR SWAP1 SSTORE POP PUSH1 0x1 DUP3 ADD SLOAD DUP2 PUSH1 0x1 ADD SSTORE PUSH1 0x2 DUP3 ADD SLOAD DUP2 PUSH1 0x2 ADD SSTORE PUSH1 0x3 DUP3 ADD SLOAD DUP2 PUSH1 0x3 ADD SSTORE PUSH1 0x4 DUP3 ADD SLOAD DUP2 PUSH1 0x4 ADD SSTORE PUSH1 0x5 DUP3 ADD SLOAD DUP2 PUSH1 0x5 ADD SSTORE PUSH1 0x6 DUP3 ADD SLOAD DUP2 PUSH1 0x6 ADD SSTORE POP POP PUSH32 0x72B70D4F70717C443C3F728467B5C6595439E31928DB630E2892CAB279692B2E PUSH1 0x7 SLOAD PUSH1 0x8 SLOAD PUSH1 0x40 MLOAD PUSH2 0x19FF SWAP3 SWAP2 SWAP1 PUSH2 0x2EBA JUMP JUMPDEST PUSH1 0x40 MLOAD DUP1 SWAP2 SUB SWAP1 LOG1 PUSH2 0x1F12 JUMP JUMPDEST PUSH1 0x9 SLOAD DUP4 PUSH1 0x3 ADD SLOAD SUB PUSH2 0x1A94 JUMPI PUSH1 0x7 PUSH1 0x19 PUSH1 0x0 DUP7 PUSH20 0xFFFFFFFFFFFFFFFFFFFFFFFFFFFFFFFFFFFFFFFF AND PUSH20 0xFFFFFFFFFFFFFFFFFFFFFFFFFFFFFFFFFFFFFFFF AND DUP2 MSTORE PUSH1 0x20 ADD SWAP1 DUP2 MSTORE PUSH1 0x20 ADD PUSH1 0x0 KECCAK256 DUP3 DUP2 SLOAD DUP2 LT PUSH2 0x1A6C JUMPI PUSH2 0x1A6B PUSH2 0x2BD3 JUMP JUMPDEST JUMPDEST SWAP1 PUSH1 0x0 MSTORE PUSH1 0x20 PUSH1 0x0 KECCAK256 SWAP1 PUSH1 0x7 MUL ADD PUSH1 0x5 ADD PUSH1 0x0 DUP3 DUP3 SLOAD PUSH2 0x1A8C SWAP2 SWAP1 PUSH2 0x2E86 JUMP JUMPDEST SWAP3 POP POP DUP2 SWAP1 SSTORE POP JUMPDEST PUSH1 0xB SLOAD PUSH1 0x19 PUSH1 0x0 DUP7 PUSH20 0xFFFFFFFFFFFFFFFFFFFFFFFFFFFFFFFFFFFFFFFF AND PUSH20 0xFFFFFFFFFFFFFFFFFFFFFFFFFFFFFFFFFFFFFFFF AND DUP2 MSTORE PUSH1 0x20 ADD SWAP1 DUP2 MSTORE PUSH1 0x20 ADD PUSH1 0x0 KECCAK256 DUP3 DUP2 SLOAD DUP2 LT PUSH2 0x1AE8 JUMPI PUSH2 0x1AE7 PUSH2 0x2BD3 JUMP JUMPDEST JUMPDEST SWAP1 PUSH1 0x0 MSTORE PUSH1 0x20 PUSH1 0x0 KECCAK256 SWAP1 PUSH1 0x7 MUL ADD PUSH1 0x5 ADD SLOAD GT ISZERO PUSH2 0x1B6A JUMPI PUSH1 0x19 PUSH1 0x0 DUP6 PUSH20 0xFFFFFFFFFFFFFFFFFFFFFFFFFFFFFFFFFFFFFFFF AND PUSH20 0xFFFFFFFFFFFFFFFFFFFFFFFFFFFFFFFFFFFFFFFF AND DUP2 MSTORE PUSH1 0x20 ADD SWAP1 DUP2 MSTORE PUSH1 0x20 ADD PUSH1 0x0 KECCAK256 DUP2 DUP2 SLOAD DUP2 LT PUSH2 0x1B51 JUMPI PUSH2 0x1B50 PUSH2 0x2BD3 JUMP JUMPDEST JUMPDEST SWAP1 PUSH1 0x0 MSTORE PUSH1 0x20 PUSH1 0x0 KECCAK256 SWAP1 PUSH1 0x7 MUL ADD PUSH1 0x5 ADD SLOAD PUSH1 0xB DUP2 SWAP1 SSTORE POP JUMPDEST PUSH1 0x1A PUSH1 0x0 PUSH1 0x19 PUSH1 0x0 DUP8 PUSH20 0xFFFFFFFFFFFFFFFFFFFFFFFFFFFFFFFFFFFFFFFF AND PUSH20 0xFFFFFFFFFFFFFFFFFFFFFFFFFFFFFFFFFFFFFFFF AND DUP2 MSTORE PUSH1 0x20 ADD SWAP1 DUP2 MSTORE PUSH1 0x20 ADD PUSH1 0x0 KECCAK256 DUP4 DUP2 SLOAD DUP2 LT PUSH2 0x1BBF JUMPI PUSH2 0x1BBE PUSH2 0x2BD3 JUMP JUMPDEST JUMPDEST SWAP1 PUSH1 0x0 MSTORE PUSH1 0x20 PUSH1 0x0 KECCAK256 SWAP1 PUSH1 0x7 MUL ADD PUSH1 0x5 ADD SLOAD DUP2 MSTORE PUSH1 0x20 ADD SWAP1 DUP2 MSTORE PUSH1 0x20 ADD PUSH1 0x0 KECCAK256 DUP5 SWAP1 DUP1 PUSH1 0x1 DUP2 SLOAD ADD DUP1 DUP3 SSTORE DUP1 SWAP2 POP POP PUSH1 0x1 SWAP1 SUB SWAP1 PUSH1 0x0 MSTORE PUSH1 0x20 PUSH1 0x0 KECCAK256 ADD PUSH1 0x0 SWAP1 SWAP2 SWAP1 SWAP2 SWAP1 SWAP2 PUSH2 0x100 EXP DUP2 SLOAD DUP2 PUSH20 0xFFFFFFFFFFFFFFFFFFFFFFFFFFFFFFFFFFFFFFFF MUL NOT AND SWAP1 DUP4 PUSH20 0xFFFFFFFFFFFFFFFFFFFFFFFFFFFFFFFFFFFFFFFF AND MUL OR SWAP1 SSTORE POP PUSH1 0x1B PUSH1 0x0 PUSH1 0x19 PUSH1 0x0 DUP8 PUSH20 0xFFFFFFFFFFFFFFFFFFFFFFFFFFFFFFFFFFFFFFFF AND PUSH20 0xFFFFFFFFFFFFFFFFFFFFFFFFFFFFFFFFFFFFFFFF AND DUP2 MSTORE PUSH1 0x20 ADD SWAP1 DUP2 MSTORE PUSH1 0x20 ADD PUSH1 0x0 KECCAK256 DUP4 DUP2 SLOAD DUP2 LT PUSH2 0x1C95 JUMPI PUSH2 0x1C94 PUSH2 0x2BD3 JUMP JUMPDEST JUMPDEST SWAP1 PUSH1 0x0 MSTORE PUSH1 0x20 PUSH1 0x0 KECCAK256 SWAP1 PUSH1 0x7 MUL ADD PUSH1 0x5 ADD SLOAD DUP2 MSTORE PUSH1 0x20 ADD SWAP1 DUP2 MSTORE PUSH1 0x20 ADD PUSH1 0x0 KECCAK256 PUSH1 0x19 PUSH1 0x0 DUP7 PUSH20 0xFFFFFFFFFFFFFFFFFFFFFFFFFFFFFFFFFFFFFFFF AND PUSH20 0xFFFFFFFFFFFFFFFFFFFFFFFFFFFFFFFFFFFFFFFF AND DUP2 MSTORE PUSH1 0x20 ADD SWAP1 DUP2 MSTORE PUSH1 0x20 ADD PUSH1 0x0 KECCAK256 DUP3 DUP2 SLOAD DUP2 LT PUSH2 0x1D06 JUMPI PUSH2 0x1D05 PUSH2 0x2BD3 JUMP JUMPDEST JUMPDEST SWAP1 PUSH1 0x0 MSTORE PUSH1 0x20 PUSH1 0x0 KECCAK256 SWAP1 PUSH1 0x7 MUL ADD SWAP1 DUP1 PUSH1 0x1 DUP2 SLOAD ADD DUP1 DUP3 SSTORE DUP1 SWAP2 POP POP PUSH1 0x1 SWAP1 SUB SWAP1 PUSH1 0x0 MSTORE PUSH1 0x20 PUSH1 0x0 KECCAK256 SWAP1 PUSH1 0x7 MUL ADD PUSH1 0x0 SWAP1 SWAP2 SWAP1 SWAP2 SWAP1 SWAP2 POP PUSH1 0x0 DUP3 ADD PUSH1 0x0 SWAP1 SLOAD SWAP1 PUSH2 0x100 EXP SWAP1 DIV PUSH20 0xFFFFFFFFFFFFFFFFFFFFFFFFFFFFFFFFFFFFFFFF AND DUP2 PUSH1 0x0 ADD PUSH1 0x0 PUSH2 0x100 EXP DUP2 SLOAD DUP2 PUSH20 0xFFFFFFFFFFFFFFFFFFFFFFFFFFFFFFFFFFFFFFFF MUL NOT AND SWAP1 DUP4 PUSH20 0xFFFFFFFFFFFFFFFFFFFFFFFFFFFFFFFFFFFFFFFF AND MUL OR SWAP1 SSTORE POP PUSH1 0x1 DUP3 ADD SLOAD DUP2 PUSH1 0x1 ADD SSTORE PUSH1 0x2 DUP3 ADD SLOAD DUP2 PUSH1 0x2 ADD SSTORE PUSH1 0x3 DUP3 ADD SLOAD DUP2 PUSH1 0x3 ADD SSTORE PUSH1 0x4 DUP3 ADD SLOAD DUP2 PUSH1 0x4 ADD SSTORE PUSH1 0x5 DUP3 ADD SLOAD DUP2 PUSH1 0x5 ADD SSTORE PUSH1 0x6 DUP3 ADD SLOAD DUP2 PUSH1 0x6 ADD SSTORE POP POP PUSH1 0x15 PUSH1 0x19 PUSH1 0x0 DUP7 PUSH20 0xFFFFFFFFFFFFFFFFFFFFFFFFFFFFFFFFFFFFFFFF AND PUSH20 0xFFFFFFFFFFFFFFFFFFFFFFFFFFFFFFFFFFFFFFFF AND DUP2 MSTORE PUSH1 0x20 ADD SWAP1 DUP2 MSTORE PUSH1 0x20 ADD PUSH1 0x0 KECCAK256 DUP3 DUP2 SLOAD DUP2 LT PUSH2 0x1E35 JUMPI PUSH2 0x1E34 PUSH2 0x2BD3 JUMP JUMPDEST JUMPDEST SWAP1 PUSH1 0x0 MSTORE PUSH1 0x20 PUSH1 0x0 KECCAK256 SWAP1 PUSH1 0x7 MUL ADD SWAP1 DUP1 PUSH1 0x1 DUP2 SLOAD ADD DUP1 DUP3 SSTORE DUP1 SWAP2 POP POP PUSH1 0x1 SWAP1 SUB SWAP1 PUSH1 0x0 MSTORE PUSH1 0x20 PUSH1 0x0 KECCAK256 SWAP1 PUSH1 0x7 MUL ADD PUSH1 0x0 SWAP1 SWAP2 SWAP1 SWAP2 SWAP1 SWAP2 POP PUSH1 0x0 DUP3 ADD PUSH1 0x0 SWAP1 SLOAD SWAP1 PUSH2 0x100 EXP SWAP1 DIV PUSH20 0xFFFFFFFFFFFFFFFFFFFFFFFFFFFFFFFFFFFFFFFF AND DUP2 PUSH1 0x0 ADD PUSH1 0x0 PUSH2 0x100 EXP DUP2 SLOAD DUP2 PUSH20 0xFFFFFFFFFFFFFFFFFFFFFFFFFFFFFFFFFFFFFFFF MUL NOT AND SWAP1 DUP4 PUSH20 0xFFFFFFFFFFFFFFFFFFFFFFFFFFFFFFFFFFFFFFFF AND MUL OR SWAP1 SSTORE POP PUSH1 0x1 DUP3 ADD SLOAD DUP2 PUSH1 0x1 ADD SSTORE PUSH1 0x2 DUP3 ADD SLOAD DUP2 PUSH1 0x2 ADD SSTORE PUSH1 0x3 DUP3 ADD SLOAD DUP2 PUSH1 0x3 ADD SSTORE PUSH1 0x4 DUP3 ADD SLOAD DUP2 PUSH1 0x4 ADD SSTORE PUSH1 0x5 DUP3 ADD SLOAD DUP2 PUSH1 0x5 ADD SSTORE PUSH1 0x6 DUP3 ADD SLOAD DUP2 PUSH1 0x6 ADD SSTORE POP POP JUMPDEST DUP1 DUP1 PUSH2 0x1F1D SWAP1 PUSH2 0x2C31 JUMP JUMPDEST SWAP2 POP POP PUSH2 0x16DD JUMP JUMPDEST POP DUP1 DUP1 PUSH2 0x1F31 SWAP1 PUSH2 0x2C31 JUMP JUMPDEST SWAP2 POP POP PUSH2 0x168C JUMP JUMPDEST POP POP POP POP JUMP JUMPDEST SELFBALANCE PUSH1 0xD DUP2 SWAP1 SSTORE POP PUSH1 0x0 DUP1 PUSH1 0x0 PUSH1 0x1 PUSH1 0x1A PUSH1 0x0 PUSH1 0xB SLOAD DUP2 MSTORE PUSH1 0x20 ADD SWAP1 DUP2 MSTORE PUSH1 0x20 ADD PUSH1 0x0 KECCAK256 DUP1 SLOAD SWAP1 POP SUB PUSH2 0x205A JUMPI PUSH2 0x1FC8 PUSH1 0x1A PUSH1 0x0 PUSH1 0xB SLOAD DUP2 MSTORE PUSH1 0x20 ADD SWAP1 DUP2 MSTORE PUSH1 0x20 ADD PUSH1 0x0 KECCAK256 PUSH1 0x0 DUP2 SLOAD DUP2 LT PUSH2 0x1F96 JUMPI PUSH2 0x1F95 PUSH2 0x2BD3 JUMP JUMPDEST JUMPDEST SWAP1 PUSH1 0x0 MSTORE PUSH1 0x20 PUSH1 0x0 KECCAK256 ADD PUSH1 0x0 SWAP1 SLOAD SWAP1 PUSH2 0x100 EXP SWAP1 DIV PUSH20 0xFFFFFFFFFFFFFFFFFFFFFFFFFFFFFFFFFFFFFFFF AND PUSH1 0x1 PUSH2 0x2532 JUMP JUMPDEST PUSH32 0x9C2270628A9B29D30AE96B6C4C14ED646EE134FEBDCE38A5B77F2BDE9CEA2E20 PUSH1 0x1A PUSH1 0x0 PUSH1 0xB SLOAD DUP2 MSTORE PUSH1 0x20 ADD SWAP1 DUP2 MSTORE PUSH1 0x20 ADD PUSH1 0x0 KECCAK256 PUSH1 0x0 DUP2 SLOAD DUP2 LT PUSH2 0x2011 JUMPI PUSH2 0x2010 PUSH2 0x2BD3 JUMP JUMPDEST JUMPDEST SWAP1 PUSH1 0x0 MSTORE PUSH1 0x20 PUSH1 0x0 KECCAK256 ADD PUSH1 0x0 SWAP1 SLOAD SWAP1 PUSH2 0x100 EXP SWAP1 DIV PUSH20 0xFFFFFFFFFFFFFFFFFFFFFFFFFFFFFFFFFFFFFFFF AND PUSH1 0xB SLOAD PUSH1 0x40 MLOAD PUSH2 0x204D SWAP3 SWAP2 SWAP1 PUSH2 0x2EE3 JUMP JUMPDEST PUSH1 0x40 MLOAD DUP1 SWAP2 SUB SWAP1 LOG1 PUSH2 0x24D1 JUMP JUMPDEST PUSH1 0x0 JUMPDEST PUSH1 0x1A PUSH1 0x0 PUSH1 0xB SLOAD DUP2 MSTORE PUSH1 0x20 ADD SWAP1 DUP2 MSTORE PUSH1 0x20 ADD PUSH1 0x0 KECCAK256 DUP1 SLOAD SWAP1 POP DUP2 LT ISZERO PUSH2 0x21F6 JUMPI PUSH1 0x1B PUSH1 0x0 PUSH1 0xB SLOAD DUP2 MSTORE PUSH1 0x20 ADD SWAP1 DUP2 MSTORE PUSH1 0x20 ADD PUSH1 0x0 KECCAK256 DUP2 DUP2 SLOAD DUP2 LT PUSH2 0x20A4 JUMPI PUSH2 0x20A3 PUSH2 0x2BD3 JUMP JUMPDEST JUMPDEST SWAP1 PUSH1 0x0 MSTORE PUSH1 0x20 PUSH1 0x0 KECCAK256 SWAP1 PUSH1 0x7 MUL ADD SWAP2 POP PUSH1 0xA SLOAD DUP3 PUSH1 0x4 ADD SLOAD GT ISZERO PUSH2 0x20DB JUMPI PUSH1 0xA SLOAD DUP3 PUSH1 0x4 ADD SLOAD PUSH2 0x20D4 SWAP2 SWAP1 PUSH2 0x2F0C JUMP JUMPDEST SWAP3 POP PUSH2 0x20F0 JUMP JUMPDEST DUP2 PUSH1 0x4 ADD SLOAD PUSH1 0xA SLOAD PUSH2 0x20ED SWAP2 SWAP1 PUSH2 0x2F0C JUMP JUMPDEST SWAP3 POP JUMPDEST PUSH1 0x0 DUP2 SUB PUSH2 0x2100 JUMPI DUP3 SWAP4 POP PUSH2 0x210D JUMP JUMPDEST DUP4 DUP4 LT ISZERO PUSH2 0x210C JUMPI DUP3 SWAP4 POP JUMPDEST JUMPDEST PUSH1 0x1D PUSH1 0x0 DUP5 DUP2 MSTORE PUSH1 0x20 ADD SWAP1 DUP2 MSTORE PUSH1 0x20 ADD PUSH1 0x0 KECCAK256 DUP3 PUSH1 0x6 ADD SLOAD SWAP1 DUP1 PUSH1 0x1 DUP2 SLOAD ADD DUP1 DUP3 SSTORE DUP1 SWAP2 POP POP PUSH1 0x1 SWAP1 SUB SWAP1 PUSH1 0x0 MSTORE PUSH1 0x20 PUSH1 0x0 KECCAK256 ADD PUSH1 0x0 SWAP1 SWAP2 SWAP1 SWAP2 SWAP1 SWAP2 POP SSTORE PUSH1 0x1C PUSH1 0x0 DUP5 DUP2 MSTORE PUSH1 0x20 ADD SWAP1 DUP2 MSTORE PUSH1 0x20 ADD PUSH1 0x0 KECCAK256 DUP3 PUSH1 0x0 ADD PUSH1 0x0 SWAP1 SLOAD SWAP1 PUSH2 0x100 EXP SWAP1 DIV PUSH20 0xFFFFFFFFFFFFFFFFFFFFFFFFFFFFFFFFFFFFFFFF AND SWAP1 DUP1 PUSH1 0x1 DUP2 SLOAD ADD DUP1 DUP3 SSTORE DUP1 SWAP2 POP POP PUSH1 0x1 SWAP1 SUB SWAP1 PUSH1 0x0 MSTORE PUSH1 0x20 PUSH1 0x0 KECCAK256 ADD PUSH1 0x0 SWAP1 SWAP2 SWAP1 SWAP2 SWAP1 SWAP2 PUSH2 0x100 EXP DUP2 SLOAD DUP2 PUSH20 0xFFFFFFFFFFFFFFFFFFFFFFFFFFFFFFFFFFFFFFFF MUL NOT AND SWAP1 DUP4 PUSH20 0xFFFFFFFFFFFFFFFFFFFFFFFFFFFFFFFFFFFFFFFF AND MUL OR SWAP1 SSTORE POP DUP1 DUP1 PUSH2 0x21EE SWAP1 PUSH2 0x2C31 JUMP JUMPDEST SWAP2 POP POP PUSH2 0x205D JUMP JUMPDEST POP PUSH1 0x1 PUSH1 0x1C PUSH1 0x0 DUP6 DUP2 MSTORE PUSH1 0x20 ADD SWAP1 DUP2 MSTORE PUSH1 0x20 ADD PUSH1 0x0 KECCAK256 DUP1 SLOAD SWAP1 POP SUB PUSH2 0x2359 JUMPI PUSH1 0x17 PUSH1 0x1D PUSH1 0x0 DUP6 DUP2 MSTORE PUSH1 0x20 ADD SWAP1 DUP2 MSTORE PUSH1 0x20 ADD PUSH1 0x0 KECCAK256 PUSH1 0x0 DUP2 SLOAD DUP2 LT PUSH2 0x223D JUMPI PUSH2 0x223C PUSH2 0x2BD3 JUMP JUMPDEST JUMPDEST SWAP1 PUSH1 0x0 MSTORE PUSH1 0x20 PUSH1 0x0 KECCAK256 ADD SLOAD SWAP1 DUP1 PUSH1 0x1 DUP2 SLOAD ADD DUP1 DUP3 SSTORE DUP1 SWAP2 POP POP PUSH1 0x1 SWAP1 SUB SWAP1 PUSH1 0x0 MSTORE PUSH1 0x20 PUSH1 0x0 KECCAK256 ADD PUSH1 0x0 SWAP1 SWAP2 SWAP1 SWAP2 SWAP1 SWAP2 POP SSTORE PUSH2 0x22C9 PUSH1 0x1C PUSH1 0x0 DUP6 DUP2 MSTORE PUSH1 0x20 ADD SWAP1 DUP2 MSTORE PUSH1 0x20 ADD PUSH1 0x0 KECCAK256 PUSH1 0x0 DUP2 SLOAD DUP2 LT PUSH2 0x2297 JUMPI PUSH2 0x2296 PUSH2 0x2BD3 JUMP JUMPDEST JUMPDEST SWAP1 PUSH1 0x0 MSTORE PUSH1 0x20 PUSH1 0x0 KECCAK256 ADD PUSH1 0x0 SWAP1 SLOAD SWAP1 PUSH2 0x100 EXP SWAP1 DIV PUSH20 0xFFFFFFFFFFFFFFFFFFFFFFFFFFFFFFFFFFFFFFFF AND PUSH1 0x1 PUSH2 0x2532 JUMP JUMPDEST PUSH32 0x9C2270628A9B29D30AE96B6C4C14ED646EE134FEBDCE38A5B77F2BDE9CEA2E20 PUSH1 0x1C PUSH1 0x0 DUP6 DUP2 MSTORE PUSH1 0x20 ADD SWAP1 DUP2 MSTORE PUSH1 0x20 ADD PUSH1 0x0 KECCAK256 PUSH1 0x0 DUP2 SLOAD DUP2 LT PUSH2 0x2310 JUMPI PUSH2 0x230F PUSH2 0x2BD3 JUMP JUMPDEST JUMPDEST SWAP1 PUSH1 0x0 MSTORE PUSH1 0x20 PUSH1 0x0 KECCAK256 ADD PUSH1 0x0 SWAP1 SLOAD SWAP1 PUSH2 0x100 EXP SWAP1 DIV PUSH20 0xFFFFFFFFFFFFFFFFFFFFFFFFFFFFFFFFFFFFFFFF AND PUSH1 0xB SLOAD PUSH1 0x40 MLOAD PUSH2 0x234C SWAP3 SWAP2 SWAP1 PUSH2 0x2EE3 JUMP JUMPDEST PUSH1 0x40 MLOAD DUP1 SWAP2 SUB SWAP1 LOG1 PUSH2 0x24D0 JUMP JUMPDEST PUSH1 0x0 PUSH1 0x1C PUSH1 0x0 DUP6 DUP2 MSTORE PUSH1 0x20 ADD SWAP1 DUP2 MSTORE PUSH1 0x20 ADD PUSH1 0x0 KECCAK256 DUP1 SLOAD SWAP1 POP SWAP1 POP PUSH1 0x0 JUMPDEST DUP2 DUP2 LT ISZERO PUSH2 0x24CD JUMPI PUSH1 0x17 PUSH1 0x1D PUSH1 0x0 DUP8 DUP2 MSTORE PUSH1 0x20 ADD SWAP1 DUP2 MSTORE PUSH1 0x20 ADD PUSH1 0x0 KECCAK256 DUP3 DUP2 SLOAD DUP2 LT PUSH2 0x23A6 JUMPI PUSH2 0x23A5 PUSH2 0x2BD3 JUMP JUMPDEST JUMPDEST SWAP1 PUSH1 0x0 MSTORE PUSH1 0x20 PUSH1 0x0 KECCAK256 ADD SLOAD SWAP1 DUP1 PUSH1 0x1 DUP2 SLOAD ADD DUP1 DUP3 SSTORE DUP1 SWAP2 POP POP PUSH1 0x1 SWAP1 SUB SWAP1 PUSH1 0x0 MSTORE PUSH1 0x20 PUSH1 0x0 KECCAK256 ADD PUSH1 0x0 SWAP1 SWAP2 SWAP1 SWAP2 SWAP1 SWAP2 POP SSTORE PUSH2 0x2430 PUSH1 0x1C PUSH1 0x0 DUP8 DUP2 MSTORE PUSH1 0x20 ADD SWAP1 DUP2 MSTORE PUSH1 0x20 ADD PUSH1 0x0 KECCAK256 DUP3 DUP2 SLOAD DUP2 LT PUSH2 0x23FF JUMPI PUSH2 0x23FE PUSH2 0x2BD3 JUMP JUMPDEST JUMPDEST SWAP1 PUSH1 0x0 MSTORE PUSH1 0x20 PUSH1 0x0 KECCAK256 ADD PUSH1 0x0 SWAP1 SLOAD SWAP1 PUSH2 0x100 EXP SWAP1 DIV PUSH20 0xFFFFFFFFFFFFFFFFFFFFFFFFFFFFFFFFFFFFFFFF AND DUP4 PUSH2 0x2532 JUMP JUMPDEST PUSH32 0x9C2270628A9B29D30AE96B6C4C14ED646EE134FEBDCE38A5B77F2BDE9CEA2E20 PUSH1 0x1C PUSH1 0x0 DUP8 DUP2 MSTORE PUSH1 0x20 ADD SWAP1 DUP2 MSTORE PUSH1 0x20 ADD PUSH1 0x0 KECCAK256 DUP3 DUP2 SLOAD DUP2 LT PUSH2 0x2476 JUMPI PUSH2 0x2475 PUSH2 0x2BD3 JUMP JUMPDEST JUMPDEST SWAP1 PUSH1 0x0 MSTORE PUSH1 0x20 PUSH1 0x0 KECCAK256 ADD PUSH1 0x0 SWAP1 SLOAD SWAP1 PUSH2 0x100 EXP SWAP1 DIV PUSH20 0xFFFFFFFFFFFFFFFFFFFFFFFFFFFFFFFFFFFFFFFF AND PUSH1 0xB SLOAD PUSH1 0x40 MLOAD PUSH2 0x24B2 SWAP3 SWAP2 SWAP1 PUSH2 0x2EE3 JUMP JUMPDEST PUSH1 0x40 MLOAD DUP1 SWAP2 SUB SWAP1 LOG1 DUP1 DUP1 PUSH2 0x24C5 SWAP1 PUSH2 0x2C31 JUMP JUMPDEST SWAP2 POP POP PUSH2 0x2377 JUMP JUMPDEST POP POP JUMPDEST JUMPDEST POP POP POP JUMP JUMPDEST PUSH1 0x0 PUSH1 0x12 PUSH1 0x0 DUP2 SLOAD DUP1 SWAP3 SWAP2 SWAP1 PUSH2 0x24EB SWAP1 PUSH2 0x2C31 JUMP JUMPDEST SWAP2 SWAP1 POP SSTORE POP DUP2 TIMESTAMP CALLER PUSH1 0x12 SLOAD PUSH1 0x40 MLOAD PUSH1 0x20 ADD PUSH2 0x2508 SWAP4 SWAP3 SWAP2 SWAP1 PUSH2 0x2FA9 JUMP JUMPDEST PUSH1 0x40 MLOAD PUSH1 0x20 DUP2 DUP4 SUB SUB DUP2 MSTORE SWAP1 PUSH1 0x40 MSTORE DUP1 MLOAD SWAP1 PUSH1 0x20 ADD KECCAK256 PUSH1 0x0 SHR PUSH2 0x252B SWAP2 SWAP1 PUSH2 0x3015 JUMP JUMPDEST SWAP1 POP SWAP2 SWAP1 POP JUMP JUMPDEST PUSH1 0x0 DUP2 PUSH1 0xD SLOAD PUSH2 0x2542 SWAP2 SWAP1 PUSH2 0x3046 JUMP JUMPDEST SWAP1 POP PUSH1 0x0 DUP4 PUSH20 0xFFFFFFFFFFFFFFFFFFFFFFFFFFFFFFFFFFFFFFFF AND DUP3 PUSH1 0x40 MLOAD PUSH2 0x256A SWAP1 PUSH2 0x30A8 JUMP JUMPDEST PUSH1 0x0 PUSH1 0x40 MLOAD DUP1 DUP4 SUB DUP2 DUP6 DUP8 GAS CALL SWAP3 POP POP POP RETURNDATASIZE DUP1 PUSH1 0x0 DUP2 EQ PUSH2 0x25A7 JUMPI PUSH1 0x40 MLOAD SWAP2 POP PUSH1 0x1F NOT PUSH1 0x3F RETURNDATASIZE ADD AND DUP3 ADD PUSH1 0x40 MSTORE RETURNDATASIZE DUP3 MSTORE RETURNDATASIZE PUSH1 0x0 PUSH1 0x20 DUP5 ADD RETURNDATACOPY PUSH2 0x25AC JUMP JUMPDEST PUSH1 0x60 SWAP2 POP JUMPDEST POP POP SWAP1 POP DUP1 PUSH2 0x25F0 JUMPI PUSH1 0x40 MLOAD PUSH32 0x8C379A000000000000000000000000000000000000000000000000000000000 DUP2 MSTORE PUSH1 0x4 ADD PUSH2 0x25E7 SWAP1 PUSH2 0x3109 JUMP JUMPDEST PUSH1 0x40 MLOAD DUP1 SWAP2 SUB SWAP1 REVERT JUMPDEST PUSH32 0x31F01F46758B6B42C15B03A08187AD5B638BA4231CA58DF20B00C5D53C2E1AC4 DUP5 DUP4 PUSH1 0x1 DUP7 GT DUP7 PUSH1 0x40 MLOAD PUSH2 0x2628 SWAP5 SWAP4 SWAP3 SWAP2 SWAP1 PUSH2 0x3144 JUMP JUMPDEST PUSH1 0x40 MLOAD DUP1 SWAP2 SUB SWAP1 LOG1 POP POP POP POP JUMP JUMPDEST PUSH1 0x40 MLOAD DUP1 PUSH1 0xE0 ADD PUSH1 0x40 MSTORE DUP1 PUSH1 0x0 PUSH20 0xFFFFFFFFFFFFFFFFFFFFFFFFFFFFFFFFFFFFFFFF AND DUP2 MSTORE PUSH1 0x20 ADD PUSH1 0x0 DUP2 MSTORE PUSH1 0x20 ADD PUSH1 0x0 DUP2 MSTORE PUSH1 0x20 ADD PUSH1 0x0 DUP2 MSTORE PUSH1 0x20 ADD PUSH1 0x0 DUP2 MSTORE PUSH1 0x20 ADD PUSH1 0x0 DUP2 MSTORE PUSH1 0x20 ADD PUSH1 0x0 DUP2 MSTORE POP SWAP1 JUMP JUMPDEST PUSH1 0x0 DUP2 SWAP1 POP SWAP2 SWAP1 POP JUMP JUMPDEST PUSH2 0x269C DUP2 PUSH2 0x2689 JUMP JUMPDEST DUP3 MSTORE POP POP JUMP JUMPDEST PUSH1 0x0 PUSH1 0x20 DUP3 ADD SWAP1 POP PUSH2 0x26B7 PUSH1 0x0 DUP4 ADD DUP5 PUSH2 0x2693 JUMP JUMPDEST SWAP3 SWAP2 POP POP JUMP JUMPDEST PUSH1 0x0 DUP2 MLOAD SWAP1 POP SWAP2 SWAP1 POP JUMP JUMPDEST PUSH1 0x0 DUP3 DUP3 MSTORE PUSH1 0x20 DUP3 ADD SWAP1 POP SWAP3 SWAP2 POP POP JUMP JUMPDEST PUSH1 0x0 DUP2 SWAP1 POP PUSH1 0x20 DUP3 ADD SWAP1 POP SWAP2 SWAP1 POP JUMP JUMPDEST PUSH1 0x0 PUSH20 0xFFFFFFFFFFFFFFFFFFFFFFFFFFFFFFFFFFFFFFFF DUP3 AND SWAP1 POP SWAP2 SWAP1 POP JUMP JUMPDEST PUSH1 0x0 PUSH2 0x2714 DUP3 PUSH2 0x26E9 JUMP JUMPDEST SWAP1 POP SWAP2 SWAP1 POP JUMP JUMPDEST PUSH2 0x2724 DUP2 PUSH2 0x2709 JUMP JUMPDEST DUP3 MSTORE POP POP JUMP JUMPDEST PUSH2 0x2733 DUP2 PUSH2 0x2689 JUMP JUMPDEST DUP3 MSTORE POP POP JUMP JUMPDEST PUSH1 0xE0 DUP3 ADD PUSH1 0x0 DUP3 ADD MLOAD PUSH2 0x274F PUSH1 0x0 DUP6 ADD DUP3 PUSH2 0x271B JUMP JUMPDEST POP PUSH1 0x20 DUP3 ADD MLOAD PUSH2 0x2762 PUSH1 0x20 DUP6 ADD DUP3 PUSH2 0x272A JUMP JUMPDEST POP PUSH1 0x40 DUP3 ADD MLOAD PUSH2 0x2775 PUSH1 0x40 DUP6 ADD DUP3 PUSH2 0x272A JUMP JUMPDEST POP PUSH1 0x60 DUP3 ADD MLOAD PUSH2 0x2788 PUSH1 0x60 DUP6 ADD DUP3 PUSH2 0x272A JUMP JUMPDEST POP PUSH1 0x80 DUP3 ADD MLOAD PUSH2 0x279B PUSH1 0x80 DUP6 ADD DUP3 PUSH2 0x272A JUMP JUMPDEST POP PUSH1 0xA0 DUP3 ADD MLOAD PUSH2 0x27AE PUSH1 0xA0 DUP6 ADD DUP3 PUSH2 0x272A JUMP JUMPDEST POP PUSH1 0xC0 DUP3 ADD MLOAD PUSH2 0x27C1 PUSH1 0xC0 DUP6 ADD DUP3 PUSH2 0x272A JUMP JUMPDEST POP POP POP POP JUMP JUMPDEST PUSH1 0x0 PUSH2 0x27D3 DUP4 DUP4 PUSH2 0x2739 JUMP JUMPDEST PUSH1 0xE0 DUP4 ADD SWAP1 POP SWAP3 SWAP2 POP POP JUMP JUMPDEST PUSH1 0x0 PUSH1 0x20 DUP3 ADD SWAP1 POP SWAP2 SWAP1 POP JUMP JUMPDEST PUSH1 0x0 PUSH2 0x27F7 DUP3 PUSH2 0x26BD JUMP JUMPDEST PUSH2 0x2801 DUP2 DUP6 PUSH2 0x26C8 JUMP JUMPDEST SWAP4 POP PUSH2 0x280C DUP4 PUSH2 0x26D9 JUMP JUMPDEST DUP1 PUSH1 0x0 JUMPDEST DUP4 DUP2 LT ISZERO PUSH2 0x283D JUMPI DUP2 MLOAD PUSH2 0x2824 DUP9 DUP3 PUSH2 0x27C7 JUMP JUMPDEST SWAP8 POP PUSH2 0x282F DUP4 PUSH2 0x27DF JUMP JUMPDEST SWAP3 POP POP PUSH1 0x1 DUP2 ADD SWAP1 POP PUSH2 0x2810 JUMP JUMPDEST POP DUP6 SWAP4 POP POP POP POP SWAP3 SWAP2 POP POP JUMP JUMPDEST PUSH1 0x0 PUSH1 0x40 DUP3 ADD SWAP1 POP DUP2 DUP2 SUB PUSH1 0x0 DUP4 ADD MSTORE PUSH2 0x2864 DUP2 DUP6 PUSH2 0x27EC JUMP JUMPDEST SWAP1 POP PUSH2 0x2873 PUSH1 0x20 DUP4 ADD DUP5 PUSH2 0x2693 JUMP JUMPDEST SWAP4 SWAP3 POP POP POP JUMP JUMPDEST PUSH1 0x0 DUP1 REVERT JUMPDEST PUSH2 0x2888 DUP2 PUSH2 0x2709 JUMP JUMPDEST DUP2 EQ PUSH2 0x2893 JUMPI PUSH1 0x0 DUP1 REVERT JUMPDEST POP JUMP JUMPDEST PUSH1 0x0 DUP2 CALLDATALOAD SWAP1 POP PUSH2 0x28A5 DUP2 PUSH2 0x287F JUMP JUMPDEST SWAP3 SWAP2 POP POP JUMP JUMPDEST PUSH2 0x28B4 DUP2 PUSH2 0x2689 JUMP JUMPDEST DUP2 EQ PUSH2 0x28BF JUMPI PUSH1 0x0 DUP1 REVERT JUMPDEST POP JUMP JUMPDEST PUSH1 0x0 DUP2 CALLDATALOAD SWAP1 POP PUSH2 0x28D1 DUP2 PUSH2 0x28AB JUMP JUMPDEST SWAP3 SWAP2 POP POP JUMP JUMPDEST PUSH1 0x0 DUP1 PUSH1 0x40 DUP4 DUP6 SUB SLT ISZERO PUSH2 0x28EE JUMPI PUSH2 0x28ED PUSH2 0x287A JUMP JUMPDEST JUMPDEST PUSH1 0x0 PUSH2 0x28FC DUP6 DUP3 DUP7 ADD PUSH2 0x2896 JUMP JUMPDEST SWAP3 POP POP PUSH1 0x20 PUSH2 0x290D DUP6 DUP3 DUP7 ADD PUSH2 0x28C2 JUMP JUMPDEST SWAP2 POP POP SWAP3 POP SWAP3 SWAP1 POP JUMP JUMPDEST PUSH2 0x2920 DUP2 PUSH2 0x2709 JUMP JUMPDEST DUP3 MSTORE POP POP JUMP JUMPDEST PUSH1 0x0 PUSH1 0xE0 DUP3 ADD SWAP1 POP PUSH2 0x293B PUSH1 0x0 DUP4 ADD DUP11 PUSH2 0x2917 JUMP JUMPDEST PUSH2 0x2948 PUSH1 0x20 DUP4 ADD DUP10 PUSH2 0x2693 JUMP JUMPDEST PUSH2 0x2955 PUSH1 0x40 DUP4 ADD DUP9 PUSH2 0x2693 JUMP JUMPDEST PUSH2 0x2962 PUSH1 0x60 DUP4 ADD DUP8 PUSH2 0x2693 JUMP JUMPDEST PUSH2 0x296F PUSH1 0x80 DUP4 ADD DUP7 PUSH2 0x2693 JUMP JUMPDEST PUSH2 0x297C PUSH1 0xA0 DUP4 ADD DUP6 PUSH2 0x2693 JUMP JUMPDEST PUSH2 0x2989 PUSH1 0xC0 DUP4 ADD DUP5 PUSH2 0x2693 JUMP JUMPDEST SWAP9 SWAP8 POP POP POP POP POP POP POP POP JUMP JUMPDEST PUSH1 0x0 PUSH1 0x20 DUP3 DUP5 SUB SLT ISZERO PUSH2 0x29AB JUMPI PUSH2 0x29AA PUSH2 0x287A JUMP JUMPDEST JUMPDEST PUSH1 0x0 PUSH2 0x29B9 DUP5 DUP3 DUP6 ADD PUSH2 0x28C2 JUMP JUMPDEST SWAP2 POP POP SWAP3 SWAP2 POP POP JUMP JUMPDEST PUSH1 0x0 DUP1 PUSH1 0x40 DUP4 DUP6 SUB SLT ISZERO PUSH2 0x29D9 JUMPI PUSH2 0x29D8 PUSH2 0x287A JUMP JUMPDEST JUMPDEST PUSH1 0x0 PUSH2 0x29E7 DUP6 DUP3 DUP7 ADD PUSH2 0x28C2 JUMP JUMPDEST SWAP3 POP POP PUSH1 0x20 PUSH2 0x29F8 DUP6 DUP3 DUP7 ADD PUSH2 0x28C2 JUMP JUMPDEST SWAP2 POP POP SWAP3 POP SWAP3 SWAP1 POP JUMP JUMPDEST PUSH1 0x0 PUSH1 0x20 DUP3 ADD SWAP1 POP DUP2 DUP2 SUB PUSH1 0x0 DUP4 ADD MSTORE PUSH2 0x2A1C DUP2 DUP5 PUSH2 0x27EC JUMP JUMPDEST SWAP1 POP SWAP3 SWAP2 POP POP JUMP JUMPDEST PUSH1 0x0 DUP2 MLOAD SWAP1 POP SWAP2 SWAP1 POP JUMP JUMPDEST PUSH1 0x0 DUP3 DUP3 MSTORE PUSH1 0x20 DUP3 ADD SWAP1 POP SWAP3 SWAP2 POP POP JUMP JUMPDEST PUSH1 0x0 DUP2 SWAP1 POP PUSH1 0x20 DUP3 ADD SWAP1 POP SWAP2 SWAP1 POP JUMP JUMPDEST PUSH1 0x0 PUSH2 0x2A5C DUP4 DUP4 PUSH2 0x272A JUMP JUMPDEST PUSH1 0x20 DUP4 ADD SWAP1 POP SWAP3 SWAP2 POP POP JUMP JUMPDEST PUSH1 0x0 PUSH1 0x20 DUP3 ADD SWAP1 POP SWAP2 SWAP1 POP JUMP JUMPDEST PUSH1 0x0 PUSH2 0x2A80 DUP3 PUSH2 0x2A24 JUMP JUMPDEST PUSH2 0x2A8A DUP2 DUP6 PUSH2 0x2A2F JUMP JUMPDEST SWAP4 POP PUSH2 0x2A95 DUP4 PUSH2 0x2A40 JUMP JUMPDEST DUP1 PUSH1 0x0 JUMPDEST DUP4 DUP2 LT ISZERO PUSH2 0x2AC6 JUMPI DUP2 MLOAD PUSH2 0x2AAD DUP9 DUP3 PUSH2 0x2A50 JUMP JUMPDEST SWAP8 POP PUSH2 0x2AB8 DUP4 PUSH2 0x2A68 JUMP JUMPDEST SWAP3 POP POP PUSH1 0x1 DUP2 ADD SWAP1 POP PUSH2 0x2A99 JUMP JUMPDEST POP DUP6 SWAP4 POP POP POP POP SWAP3 SWAP2 POP POP JUMP JUMPDEST PUSH1 0x0 PUSH1 0x20 DUP3 ADD SWAP1 POP DUP2 DUP2 SUB PUSH1 0x0 DUP4 ADD MSTORE PUSH2 0x2AED DUP2 DUP5 PUSH2 0x2A75 JUMP JUMPDEST SWAP1 POP SWAP3 SWAP2 POP POP JUMP JUMPDEST PUSH1 0x0 DUP1 PUSH1 0x0 DUP1 PUSH1 0x80 DUP6 DUP8 SUB SLT ISZERO PUSH2 0x2B0F JUMPI PUSH2 0x2B0E PUSH2 0x287A JUMP JUMPDEST JUMPDEST PUSH1 0x0 PUSH2 0x2B1D DUP8 DUP3 DUP9 ADD PUSH2 0x28C2 JUMP JUMPDEST SWAP5 POP POP PUSH1 0x20 PUSH2 0x2B2E DUP8 DUP3 DUP9 ADD PUSH2 0x28C2 JUMP JUMPDEST SWAP4 POP POP PUSH1 0x40 PUSH2 0x2B3F DUP8 DUP3 DUP9 ADD PUSH2 0x28C2 JUMP JUMPDEST SWAP3 POP POP PUSH1 0x60 PUSH2 0x2B50 DUP8 DUP3 DUP9 ADD PUSH2 0x28C2 JUMP JUMPDEST SWAP2 POP POP SWAP3 SWAP6 SWAP2 SWAP5 POP SWAP3 POP JUMP JUMPDEST PUSH1 0x0 PUSH1 0x20 DUP3 ADD SWAP1 POP PUSH2 0x2B71 PUSH1 0x0 DUP4 ADD DUP5 PUSH2 0x2917 JUMP JUMPDEST SWAP3 SWAP2 POP POP JUMP JUMPDEST PUSH1 0x0 PUSH1 0x20 DUP3 DUP5 SUB SLT ISZERO PUSH2 0x2B8D JUMPI PUSH2 0x2B8C PUSH2 0x287A JUMP JUMPDEST JUMPDEST PUSH1 0x0 PUSH2 0x2B9B DUP5 DUP3 DUP6 ADD PUSH2 0x2896 JUMP JUMPDEST SWAP2 POP POP SWAP3 SWAP2 POP POP JUMP JUMPDEST PUSH32 0x4E487B7100000000000000000000000000000000000000000000000000000000 PUSH1 0x0 MSTORE PUSH1 0x41 PUSH1 0x4 MSTORE PUSH1 0x24 PUSH1 0x0 REVERT JUMPDEST PUSH32 0x4E487B7100000000000000000000000000000000000000000000000000000000 PUSH1 0x0 MSTORE PUSH1 0x32 PUSH1 0x4 MSTORE PUSH1 0x24 PUSH1 0x0 REVERT JUMPDEST PUSH32 0x4E487B7100000000000000000000000000000000000000000000000000000000 PUSH1 0x0 MSTORE PUSH1 0x11 PUSH1 0x4 MSTORE PUSH1 0x24 PUSH1 0x0 REVERT JUMPDEST PUSH1 0x0 PUSH2 0x2C3C DUP3 PUSH2 0x2689 JUMP JUMPDEST SWAP2 POP PUSH32 0xFFFFFFFFFFFFFFFFFFFFFFFFFFFFFFFFFFFFFFFFFFFFFFFFFFFFFFFFFFFFFFFF DUP3 SUB PUSH2 0x2C6E JUMPI PUSH2 0x2C6D PUSH2 0x2C02 JUMP JUMPDEST JUMPDEST PUSH1 0x1 DUP3 ADD SWAP1 POP SWAP2 SWAP1 POP JUMP JUMPDEST PUSH1 0x0 DUP3 DUP3 MSTORE PUSH1 0x20 DUP3 ADD SWAP1 POP SWAP3 SWAP2 POP POP JUMP JUMPDEST PUSH32 0x496E636F727265637420656E747279206665652E000000000000000000000000 PUSH1 0x0 DUP3 ADD MSTORE POP JUMP JUMPDEST PUSH1 0x0 PUSH2 0x2CC0 PUSH1 0x14 DUP4 PUSH2 0x2C79 JUMP JUMPDEST SWAP2 POP PUSH2 0x2CCB DUP3 PUSH2 0x2C8A JUMP JUMPDEST PUSH1 0x20 DUP3 ADD SWAP1 POP SWAP2 SWAP1 POP JUMP JUMPDEST PUSH1 0x0 PUSH1 0x20 DUP3 ADD SWAP1 POP DUP2 DUP2 SUB PUSH1 0x0 DUP4 ADD MSTORE PUSH2 0x2CEF DUP2 PUSH2 0x2CB3 JUMP JUMPDEST SWAP1 POP SWAP2 SWAP1 POP JUMP JUMPDEST PUSH32 0x4346502073656C656374696F6E732068617665206E6F74206265656E2066696E PUSH1 0x0 DUP3 ADD MSTORE PUSH32 0x616C697A65642E00000000000000000000000000000000000000000000000000 PUSH1 0x20 DUP3 ADD MSTORE POP JUMP JUMPDEST PUSH1 0x0 PUSH2 0x2D52 PUSH1 0x27 DUP4 PUSH2 0x2C79 JUMP JUMPDEST SWAP2 POP PUSH2 0x2D5D DUP3 PUSH2 0x2CF6 JUMP JUMPDEST PUSH1 0x40 DUP3 ADD SWAP1 POP SWAP2 SWAP1 POP JUMP JUMPDEST PUSH1 0x0 PUSH1 0x20 DUP3 ADD SWAP1 POP DUP2 DUP2 SUB PUSH1 0x0 DUP4 ADD MSTORE PUSH2 0x2D81 DUP2 PUSH2 0x2D45 JUMP JUMPDEST SWAP1 POP SWAP2 SWAP1 POP JUMP JUMPDEST PUSH32 0x456E74727920706572696F642068617320636C6F7365642E0000000000000000 PUSH1 0x0 DUP3 ADD MSTORE POP JUMP JUMPDEST PUSH1 0x0 PUSH2 0x2DBE PUSH1 0x18 DUP4 PUSH2 0x2C79 JUMP JUMPDEST SWAP2 POP PUSH2 0x2DC9 DUP3 PUSH2 0x2D88 JUMP JUMPDEST PUSH1 0x20 DUP3 ADD SWAP1 POP SWAP2 SWAP1 POP JUMP JUMPDEST PUSH1 0x0 PUSH1 0x20 DUP3 ADD SWAP1 POP DUP2 DUP2 SUB PUSH1 0x0 DUP4 ADD MSTORE PUSH2 0x2DED DUP2 PUSH2 0x2DB1 JUMP JUMPDEST SWAP1 POP SWAP2 SWAP1 POP JUMP JUMPDEST PUSH32 0x416C72656164792068617665206D617820616D6F756E74206F6620656E747269 PUSH1 0x0 DUP3 ADD MSTORE PUSH32 0x65732E0000000000000000000000000000000000000000000000000000000000 PUSH1 0x20 DUP3 ADD MSTORE POP JUMP JUMPDEST PUSH1 0x0 PUSH2 0x2E50 PUSH1 0x23 DUP4 PUSH2 0x2C79 JUMP JUMPDEST SWAP2 POP PUSH2 0x2E5B DUP3 PUSH2 0x2DF4 JUMP JUMPDEST PUSH1 0x40 DUP3 ADD SWAP1 POP SWAP2 SWAP1 POP JUMP JUMPDEST PUSH1 0x0 PUSH1 0x20 DUP3 ADD SWAP1 POP DUP2 DUP2 SUB PUSH1 0x0 DUP4 ADD MSTORE PUSH2 0x2E7F DUP2 PUSH2 0x2E43 JUMP JUMPDEST SWAP1 POP SWAP2 SWAP1 POP JUMP JUMPDEST PUSH1 0x0 PUSH2 0x2E91 DUP3 PUSH2 0x2689 JUMP JUMPDEST SWAP2 POP PUSH2 0x2E9C DUP4 PUSH2 0x2689 JUMP JUMPDEST SWAP3 POP DUP3 DUP3 ADD SWAP1 POP DUP1 DUP3 GT ISZERO PUSH2 0x2EB4 JUMPI PUSH2 0x2EB3 PUSH2 0x2C02 JUMP JUMPDEST JUMPDEST SWAP3 SWAP2 POP POP JUMP JUMPDEST PUSH1 0x0 PUSH1 0x40 DUP3 ADD SWAP1 POP PUSH2 0x2ECF PUSH1 0x0 DUP4 ADD DUP6 PUSH2 0x2693 JUMP JUMPDEST PUSH2 0x2EDC PUSH1 0x20 DUP4 ADD DUP5 PUSH2 0x2693 JUMP JUMPDEST SWAP4 SWAP3 POP POP POP JUMP JUMPDEST PUSH1 0x0 PUSH1 0x40 DUP3 ADD SWAP1 POP PUSH2 0x2EF8 PUSH1 0x0 DUP4 ADD DUP6 PUSH2 0x2917 JUMP JUMPDEST PUSH2 0x2F05 PUSH1 0x20 DUP4 ADD DUP5 PUSH2 0x2693 JUMP JUMPDEST SWAP4 SWAP3 POP POP POP JUMP JUMPDEST PUSH1 0x0 PUSH2 0x2F17 DUP3 PUSH2 0x2689 JUMP JUMPDEST SWAP2 POP PUSH2 0x2F22 DUP4 PUSH2 0x2689 JUMP JUMPDEST SWAP3 POP DUP3 DUP3 SUB SWAP1 POP DUP2 DUP2 GT ISZERO PUSH2 0x2F3A JUMPI PUSH2 0x2F39 PUSH2 0x2C02 JUMP JUMPDEST JUMPDEST SWAP3 SWAP2 POP POP JUMP JUMPDEST PUSH1 0x0 DUP2 SWAP1 POP SWAP2 SWAP1 POP JUMP JUMPDEST PUSH2 0x2F5B PUSH2 0x2F56 DUP3 PUSH2 0x2689 JUMP JUMPDEST PUSH2 0x2F40 JUMP JUMPDEST DUP3 MSTORE POP POP JUMP JUMPDEST PUSH1 0x0 DUP2 PUSH1 0x60 SHL SWAP1 POP SWAP2 SWAP1 POP JUMP JUMPDEST PUSH1 0x0 PUSH2 0x2F79 DUP3 PUSH2 0x2F61 JUMP JUMPDEST SWAP1 POP SWAP2 SWAP1 POP JUMP JUMPDEST PUSH1 0x0 PUSH2 0x2F8B DUP3 PUSH2 0x2F6E JUMP JUMPDEST SWAP1 POP SWAP2 SWAP1 POP JUMP JUMPDEST PUSH2 0x2FA3 PUSH2 0x2F9E DUP3 PUSH2 0x2709 JUMP JUMPDEST PUSH2 0x2F80 JUMP JUMPDEST DUP3 MSTORE POP POP JUMP JUMPDEST PUSH1 0x0 PUSH2 0x2FB5 DUP3 DUP7 PUSH2 0x2F4A JUMP JUMPDEST PUSH1 0x20 DUP3 ADD SWAP2 POP PUSH2 0x2FC5 DUP3 DUP6 PUSH2 0x2F92 JUMP JUMPDEST PUSH1 0x14 DUP3 ADD SWAP2 POP PUSH2 0x2FD5 DUP3 DUP5 PUSH2 0x2F4A JUMP JUMPDEST PUSH1 0x20 DUP3 ADD SWAP2 POP DUP2 SWAP1 POP SWAP5 SWAP4 POP POP POP POP JUMP JUMPDEST PUSH32 0x4E487B7100000000000000000000000000000000000000000000000000000000 PUSH1 0x0 MSTORE PUSH1 0x12 PUSH1 0x4 MSTORE PUSH1 0x24 PUSH1 0x0 REVERT JUMPDEST PUSH1 0x0 PUSH2 0x3020 DUP3 PUSH2 0x2689 JUMP JUMPDEST SWAP2 POP PUSH2 0x302B DUP4 PUSH2 0x2689 JUMP JUMPDEST SWAP3 POP DUP3 PUSH2 0x303B JUMPI PUSH2 0x303A PUSH2 0x2FE6 JUMP JUMPDEST JUMPDEST DUP3 DUP3 MOD SWAP1 POP SWAP3 SWAP2 POP POP JUMP JUMPDEST PUSH1 0x0 PUSH2 0x3051 DUP3 PUSH2 0x2689 JUMP JUMPDEST SWAP2 POP PUSH2 0x305C DUP4 PUSH2 0x2689 JUMP JUMPDEST SWAP3 POP DUP3 PUSH2 0x306C JUMPI PUSH2 0x306B PUSH2 0x2FE6 JUMP JUMPDEST JUMPDEST DUP3 DUP3 DIV SWAP1 POP SWAP3 SWAP2 POP POP JUMP JUMPDEST PUSH1 0x0 DUP2 SWAP1 POP SWAP3 SWAP2 POP POP JUMP JUMPDEST POP JUMP JUMPDEST PUSH1 0x0 PUSH2 0x3092 PUSH1 0x0 DUP4 PUSH2 0x3077 JUMP JUMPDEST SWAP2 POP PUSH2 0x309D DUP3 PUSH2 0x3082 JUMP JUMPDEST PUSH1 0x0 DUP3 ADD SWAP1 POP SWAP2 SWAP1 POP JUMP JUMPDEST PUSH1 0x0 PUSH2 0x30B3 DUP3 PUSH2 0x3085 JUMP JUMPDEST SWAP2 POP DUP2 SWAP1 POP SWAP2 SWAP1 POP JUMP JUMPDEST PUSH32 0x4661696C656420746F2073656E642077696E6E696E67732E0000000000000000 PUSH1 0x0 DUP3 ADD MSTORE POP JUMP JUMPDEST PUSH1 0x0 PUSH2 0x30F3 PUSH1 0x18 DUP4 PUSH2 0x2C79 JUMP JUMPDEST SWAP2 POP PUSH2 0x30FE DUP3 PUSH2 0x30BD JUMP JUMPDEST PUSH1 0x20 DUP3 ADD SWAP1 POP SWAP2 SWAP1 POP JUMP JUMPDEST PUSH1 0x0 PUSH1 0x20 DUP3 ADD SWAP1 POP DUP2 DUP2 SUB PUSH1 0x0 DUP4 ADD MSTORE PUSH2 0x3122 DUP2 PUSH2 0x30E6 JUMP JUMPDEST SWAP1 POP SWAP2 SWAP1 POP JUMP JUMPDEST PUSH1 0x0 DUP2 ISZERO ISZERO SWAP1 POP SWAP2 SWAP1 POP JUMP JUMPDEST PUSH2 0x313E DUP2 PUSH2 0x3129 JUMP JUMPDEST DUP3 MSTORE POP POP JUMP JUMPDEST PUSH1 0x0 PUSH1 0x80 DUP3 ADD SWAP1 POP PUSH2 0x3159 PUSH1 0x0 DUP4 ADD DUP8 PUSH2 0x2917 JUMP JUMPDEST PUSH2 0x3166 PUSH1 0x20 DUP4 ADD DUP7 PUSH2 0x2693 JUMP JUMPDEST PUSH2 0x3173 PUSH1 0x40 DUP4 ADD DUP6 PUSH2 0x3135 JUMP JUMPDEST PUSH2 0x3180 PUSH1 0x60 DUP4 ADD DUP5 PUSH2 0x2693 JUMP JUMPDEST SWAP6 SWAP5 POP POP POP POP POP JUMP INVALID LOG2 PUSH5 0x6970667358 0x22 SLT KECCAK256 SWAP12 DUP10 MSIZE PUSH15 0xD9F2611854AA1103334948A2E22E52 0xEA BALANCE DUP15 0xF7 JUMPI EQ 0xEB 0xE2 PUSH23 0x9AEBC2EF64736F6C634300081400330000000000000000 "},"methodIdentifiers":{"allBrackets(uint256)":"c37996f1","brackets(address,uint256)":"34ff5644","champComplete()":"d60dac3d","champion()":"44866955","championshipTotalPoints()":"be6b3337","commissioner()":"f1894498","differences(uint256,uint256)":"dd917b29","differencesIDs(uint256,uint256)":"a337a604","entrants(uint256)":"e7b4e5ab","entries(address)":"f29ee125","entryFee()":"072ea61c","four()":"a1fca2b6","getAllEntries()":"4a0364e8","getMyBrackets()":"18901b71","getWinnerIDs()":"75662e96","joinPool(uint256,uint256,uint256,uint256)":"98f6a197","lockTimestamp()":"b544bf83","maxEntries()":"f23f3ba5","mostPoints()":"cf065419","one()":"901717d1","points(uint256,uint256)":"e3cdda39","pot()":"4ba2363a","scoreFinal(uint256,uint256)":"443e4a39","scoreSemifinal(uint256,uint256)":"931e55aa","scoredAfterChamp(uint256)":"3bca800f","scoredAfterSemis(uint256)":"cf92a0c7","scoredBrackets(uint256,uint256)":"4d3c3a41","semifinalOneWinner()":"ffe81da8","semifinalTwoWinner()":"b7ce8a99","semisComplete()":"cc789085","three()":"45caa117","totalEntries()":"7fef036e","two()":"5fdf05d7","unlockTimestamp()":"aa082a9d","winningIDs(uint256)":"88c113d6"}},"storageLayout":{"storage":[{"astId":273,"contract":"contracts/PlayoffPool copy.sol:PlayoffPool","label":"commissioner","offset":0,"slot":"0","type":"t_address"},{"astId":275,"contract":"contracts/PlayoffPool copy.sol:PlayoffPool","label":"entryFee","offset":0,"slot":"1","type":"t_uint256"},{"astId":277,"contract":"contracts/PlayoffPool copy.sol:PlayoffPool","label":"maxEntries","offset":0,"slot":"2","type":"t_uint256"},{"astId":279,"contract":"contracts/PlayoffPool copy.sol:PlayoffPool","label":"one","offset":0,"slot":"3","type":"t_uint256"},{"astId":281,"contract":"contracts/PlayoffPool copy.sol:PlayoffPool","label":"two","offset":0,"slot":"4","type":"t_uint256"},{"astId":283,"contract":"contracts/PlayoffPool copy.sol:PlayoffPool","label":"three","offset":0,"slot":"5","type":"t_uint256"},{"astId":285,"contract":"contracts/PlayoffPool copy.sol:PlayoffPool","label":"four","offset":0,"slot":"6","type":"t_uint256"},{"astId":287,"contract":"contracts/PlayoffPool copy.sol:PlayoffPool","label":"semifinalOneWinner","offset":0,"slot":"7","type":"t_uint256"},{"astId":289,"contract":"contracts/PlayoffPool copy.sol:PlayoffPool","label":"semifinalTwoWinner","offset":0,"slot":"8","type":"t_uint256"},{"astId":291,"contract":"contracts/PlayoffPool copy.sol:PlayoffPool","label":"champion","offset":0,"slot":"9","type":"t_uint256"},{"astId":293,"contract":"contracts/PlayoffPool copy.sol:PlayoffPool","label":"championshipTotalPoints","offset":0,"slot":"10","type":"t_uint256"},{"astId":295,"contract":"contracts/PlayoffPool copy.sol:PlayoffPool","label":"mostPoints","offset":0,"slot":"11","type":"t_uint256"},{"astId":297,"contract":"contracts/PlayoffPool copy.sol:PlayoffPool","label":"totalEntries","offset":0,"slot":"12","type":"t_uint256"},{"astId":299,"contract":"contracts/PlayoffPool copy.sol:PlayoffPool","label":"pot","offset":0,"slot":"13","type":"t_uint256"},{"astId":301,"contract":"contracts/PlayoffPool copy.sol:PlayoffPool","label":"unlockTimestamp","offset":0,"slot":"14","type":"t_uint256"},{"astId":303,"contract":"contracts/PlayoffPool copy.sol:PlayoffPool","label":"lockTimestamp","offset":0,"slot":"15","type":"t_uint256"},{"astId":305,"contract":"contracts/PlayoffPool copy.sol:PlayoffPool","label":"semisComplete","offset":0,"slot":"16","type":"t_uint256"},{"astId":307,"contract":"contracts/PlayoffPool copy.sol:PlayoffPool","label":"champComplete","offset":0,"slot":"17","type":"t_uint256"},{"astId":310,"contract":"contracts/PlayoffPool copy.sol:PlayoffPool","label":"randNonce","offset":0,"slot":"18","type":"t_uint256"},{"astId":314,"contract":"contracts/PlayoffPool copy.sol:PlayoffPool","label":"allBrackets","offset":0,"slot":"19","type":"t_array(t_struct(Bracket)271_storage)dyn_storage"},{"astId":318,"contract":"contracts/PlayoffPool copy.sol:PlayoffPool","label":"scoredAfterSemis","offset":0,"slot":"20","type":"t_array(t_struct(Bracket)271_storage)dyn_storage"},{"astId":322,"contract":"contracts/PlayoffPool copy.sol:PlayoffPool","label":"scoredAfterChamp","offset":0,"slot":"21","type":"t_array(t_struct(Bracket)271_storage)dyn_storage"},{"astId":325,"contract":"contracts/PlayoffPool copy.sol:PlayoffPool","label":"entrants","offset":0,"slot":"22","type":"t_array(t_address)dyn_storage"},{"astId":328,"contract":"contracts/PlayoffPool copy.sol:PlayoffPool","label":"winningIDs","offset":0,"slot":"23","type":"t_array(t_uint256)dyn_storage"},{"astId":332,"contract":"contracts/PlayoffPool copy.sol:PlayoffPool","label":"entries","offset":0,"slot":"24","type":"t_mapping(t_address,t_uint256)"},{"astId":338,"contract":"contracts/PlayoffPool copy.sol:PlayoffPool","label":"brackets","offset":0,"slot":"25","type":"t_mapping(t_address,t_array(t_struct(Bracket)271_storage)dyn_storage)"},{"astId":343,"contract":"contracts/PlayoffPool copy.sol:PlayoffPool","label":"points","offset":0,"slot":"26","type":"t_mapping(t_uint256,t_array(t_address)dyn_storage)"},{"astId":349,"contract":"contracts/PlayoffPool copy.sol:PlayoffPool","label":"scoredBrackets","offset":0,"slot":"27","type":"t_mapping(t_uint256,t_array(t_struct(Bracket)271_storage)dyn_storage)"},{"astId":354,"contract":"contracts/PlayoffPool copy.sol:PlayoffPool","label":"differences","offset":0,"slot":"28","type":"t_mapping(t_uint256,t_array(t_address)dyn_storage)"},{"astId":359,"contract":"contracts/PlayoffPool copy.sol:PlayoffPool","label":"differencesIDs","offset":0,"slot":"29","type":"t_mapping(t_uint256,t_array(t_uint256)dyn_storage)"}],"types":{"t_address":{"encoding":"inplace","label":"address","numberOfBytes":"20"},"t_array(t_address)dyn_storage":{"base":"t_address","encoding":"dynamic_array","label":"address[]","numberOfBytes":"32"},"t_array(t_struct(Bracket)271_storage)dyn_storage":{"base":"t_struct(Bracket)271_storage","encoding":"dynamic_array","label":"struct PlayoffPool.Bracket[]","numberOfBytes":"32"},"t_array(t_uint256)dyn_storage":{"base":"t_uint256","encoding":"dynamic_array","label":"uint256[]","numberOfBytes":"32"},"t_mapping(t_address,t_array(t_struct(Bracket)271_storage)dyn_storage)":{"encoding":"mapping","key":"t_address","label":"mapping(address => struct PlayoffPool.Bracket[])","numberOfBytes":"32","value":"t_array(t_struct(Bracket)271_storage)dyn_storage"},"t_mapping(t_address,t_uint256)":{"encoding":"mapping","key":"t_address","label":"mapping(address => uint256)","numberOfBytes":"32","value":"t_uint256"},"t_mapping(t_uint256,t_array(t_address)dyn_storage)":{"encoding":"mapping","key":"t_uint256","label":"mapping(uint256 => address[])","numberOfBytes":"32","value":"t_array(t_address)dyn_storage"},"t_mapping(t_uint256,t_array(t_struct(Bracket)271_storage)dyn_storage)":{"encoding":"mapping","key":"t_uint256","label":"mapping(uint256 => struct PlayoffPool.Bracket[])","numberOfBytes":"32","value":"t_array(t_struct(Bracket)271_storage)dyn_storage"},"t_mapping(t_uint256,t_array(t_uint256)dyn_storage)":{"encoding":"mapping","key":"t_uint256","label":"mapping(uint256 => uint256[])","numberOfBytes":"32","value":"t_array(t_uint256)dyn_storage"},"t_struct(Bracket)271_storage":{"encoding":"inplace","label":"struct PlayoffPool.Bracket","members":[{"astId":258,"contract":"contracts/PlayoffPool copy.sol:PlayoffPool","label":"owner","offset":0,"slot":"0","type":"t_address"},{"astId":260,"contract":"contracts/PlayoffPool copy.sol:PlayoffPool","label":"semifinalOneWinner","offset":0,"slot":"1","type":"t_uint256"},{"astId":262,"contract":"contracts/PlayoffPool copy.sol:PlayoffPool","label":"semifinalTwoWinner","offset":0,"slot":"2","type":"t_uint256"},{"astId":264,"contract":"contracts/PlayoffPool copy.sol:PlayoffPool","label":"champion","offset":0,"slot":"3","type":"t_uint256"},{"astId":266,"contract":"contracts/PlayoffPool copy.sol:PlayoffPool","label":"championshipTotalPoints","offset":0,"slot":"4","type":"t_uint256"},{"astId":268,"contract":"contracts/PlayoffPool copy.sol:PlayoffPool","label":"bracketPoints","offset":0,"slot":"5","type":"t_uint256"},{"astId":270,"contract":"contracts/PlayoffPool copy.sol:PlayoffPool","label":"id","offset":0,"slot":"6","type":"t_uint256"}],"numberOfBytes":"224"},"t_uint256":{"encoding":"inplace","label":"uint256","numberOfBytes":"32"}}}}}}