{
  "_format": "hh-sol-artifact-1",
  "contractName": "PlayoffPoolV2",
  "sourceName": "contracts/PlayoffPoolV2.sol",
  "abi": [
    {
      "inputs": [],
      "name": "InvalidInitialization",
      "type": "error"
    },
    {
      "inputs": [],
      "name": "NotInitializing",
      "type": "error"
    },
    {
      "anonymous": false,
      "inputs": [
        {
          "indexed": false,
          "internalType": "uint64",
          "name": "version",
          "type": "uint64"
        }
      ],
      "name": "Initialized",
      "type": "event"
    },
    {
      "anonymous": false,
      "inputs": [
        {
          "indexed": false,
          "internalType": "uint256",
          "name": "",
          "type": "uint256"
        },
        {
          "indexed": false,
          "internalType": "uint256",
          "name": "",
          "type": "uint256"
        }
      ],
      "name": "ScoredSemis",
      "type": "event"
    },
    {
      "anonymous": false,
      "inputs": [
        {
          "indexed": false,
          "internalType": "address",
          "name": "",
          "type": "address"
        },
        {
          "indexed": false,
          "internalType": "uint256",
          "name": "",
          "type": "uint256"
        }
      ],
      "name": "Winner",
      "type": "event"
    },
    {
      "anonymous": false,
      "inputs": [
        {
          "indexed": false,
          "internalType": "address",
          "name": "",
          "type": "address"
        },
        {
          "indexed": false,
          "internalType": "uint256",
          "name": "",
          "type": "uint256"
        },
        {
          "indexed": false,
          "internalType": "bool",
          "name": "",
          "type": "bool"
        },
        {
          "indexed": false,
          "internalType": "uint256",
          "name": "",
          "type": "uint256"
        }
      ],
      "name": "WinnerPaid",
      "type": "event"
    },
    {
      "inputs": [
        {
          "internalType": "uint256",
          "name": "",
          "type": "uint256"
        }
      ],
      "name": "allBrackets",
      "outputs": [
        {
          "internalType": "address",
          "name": "owner",
          "type": "address"
        },
        {
          "internalType": "uint256",
          "name": "semifinalOneWinner",
          "type": "uint256"
        },
        {
          "internalType": "uint256",
          "name": "semifinalTwoWinner",
          "type": "uint256"
        },
        {
          "internalType": "uint256",
          "name": "champion",
          "type": "uint256"
        },
        {
          "internalType": "uint256",
          "name": "championshipTotalPoints",
          "type": "uint256"
        },
        {
          "internalType": "uint256",
          "name": "bracketPoints",
          "type": "uint256"
        }
      ],
      "stateMutability": "view",
      "type": "function"
    },
    {
      "inputs": [
        {
          "internalType": "address",
          "name": "",
          "type": "address"
        },
        {
          "internalType": "uint256",
          "name": "",
          "type": "uint256"
        }
      ],
      "name": "brackets",
      "outputs": [
        {
          "internalType": "address",
          "name": "owner",
          "type": "address"
        },
        {
          "internalType": "uint256",
          "name": "semifinalOneWinner",
          "type": "uint256"
        },
        {
          "internalType": "uint256",
          "name": "semifinalTwoWinner",
          "type": "uint256"
        },
        {
          "internalType": "uint256",
          "name": "champion",
          "type": "uint256"
        },
        {
          "internalType": "uint256",
          "name": "championshipTotalPoints",
          "type": "uint256"
        },
        {
          "internalType": "uint256",
          "name": "bracketPoints",
          "type": "uint256"
        }
      ],
      "stateMutability": "view",
      "type": "function"
    },
    {
      "inputs": [],
      "name": "champComplete",
      "outputs": [
        {
          "internalType": "uint256",
          "name": "",
          "type": "uint256"
        }
      ],
      "stateMutability": "view",
      "type": "function"
    },
    {
      "inputs": [],
      "name": "champion",
      "outputs": [
        {
          "internalType": "uint256",
          "name": "",
          "type": "uint256"
        }
      ],
      "stateMutability": "view",
      "type": "function"
    },
    {
      "inputs": [],
      "name": "championshipTotalPoints",
      "outputs": [
        {
          "internalType": "uint256",
          "name": "",
          "type": "uint256"
        }
      ],
      "stateMutability": "view",
      "type": "function"
    },
    {
      "inputs": [],
      "name": "commissioner",
      "outputs": [
        {
          "internalType": "address",
          "name": "",
          "type": "address"
        }
      ],
      "stateMutability": "view",
      "type": "function"
    },
    {
      "inputs": [
        {
          "internalType": "uint256",
          "name": "",
          "type": "uint256"
        },
        {
          "internalType": "uint256",
          "name": "",
          "type": "uint256"
        }
      ],
      "name": "differences",
      "outputs": [
        {
          "internalType": "address",
          "name": "",
          "type": "address"
        }
      ],
      "stateMutability": "view",
      "type": "function"
    },
    {
      "inputs": [
        {
          "internalType": "uint256",
          "name": "",
          "type": "uint256"
        }
      ],
      "name": "entrants",
      "outputs": [
        {
          "internalType": "address",
          "name": "",
          "type": "address"
        }
      ],
      "stateMutability": "view",
      "type": "function"
    },
    {
      "inputs": [
        {
          "internalType": "address",
          "name": "",
          "type": "address"
        }
      ],
      "name": "entries",
      "outputs": [
        {
          "internalType": "uint256",
          "name": "",
          "type": "uint256"
        }
      ],
      "stateMutability": "view",
      "type": "function"
    },
    {
      "inputs": [],
      "name": "entryFee",
      "outputs": [
        {
          "internalType": "uint256",
          "name": "",
          "type": "uint256"
        }
      ],
      "stateMutability": "view",
      "type": "function"
    },
    {
      "inputs": [],
      "name": "four",
      "outputs": [
        {
          "internalType": "uint256",
          "name": "",
          "type": "uint256"
        }
      ],
      "stateMutability": "view",
      "type": "function"
    },
    {
      "inputs": [],
      "name": "getAllEntries",
      "outputs": [
        {
          "components": [
            {
              "internalType": "address",
              "name": "owner",
              "type": "address"
            },
            {
              "internalType": "uint256",
              "name": "semifinalOneWinner",
              "type": "uint256"
            },
            {
              "internalType": "uint256",
              "name": "semifinalTwoWinner",
              "type": "uint256"
            },
            {
              "internalType": "uint256",
              "name": "champion",
              "type": "uint256"
            },
            {
              "internalType": "uint256",
              "name": "championshipTotalPoints",
              "type": "uint256"
            },
            {
              "internalType": "uint256",
              "name": "bracketPoints",
              "type": "uint256"
            }
          ],
          "internalType": "struct PlayoffPoolV2.Bracket[]",
          "name": "",
          "type": "tuple[]"
        }
      ],
      "stateMutability": "view",
      "type": "function"
    },
    {
      "inputs": [],
      "name": "getMyBrackets",
      "outputs": [
        {
          "components": [
            {
              "internalType": "address",
              "name": "owner",
              "type": "address"
            },
            {
              "internalType": "uint256",
              "name": "semifinalOneWinner",
              "type": "uint256"
            },
            {
              "internalType": "uint256",
              "name": "semifinalTwoWinner",
              "type": "uint256"
            },
            {
              "internalType": "uint256",
              "name": "champion",
              "type": "uint256"
            },
            {
              "internalType": "uint256",
              "name": "championshipTotalPoints",
              "type": "uint256"
            },
            {
              "internalType": "uint256",
              "name": "bracketPoints",
              "type": "uint256"
            }
          ],
          "internalType": "struct PlayoffPoolV2.Bracket[]",
          "name": "",
          "type": "tuple[]"
        },
        {
          "internalType": "uint256",
          "name": "",
          "type": "uint256"
        }
      ],
      "stateMutability": "view",
      "type": "function"
    },
    {
      "inputs": [
        {
          "internalType": "uint256",
          "name": "_entryFee",
          "type": "uint256"
        },
        {
          "internalType": "uint256",
          "name": "_maxEntries",
          "type": "uint256"
        },
        {
          "internalType": "uint256",
          "name": "_one",
          "type": "uint256"
        },
        {
          "internalType": "uint256",
          "name": "_two",
          "type": "uint256"
        },
        {
          "internalType": "uint256",
          "name": "_three",
          "type": "uint256"
        },
        {
          "internalType": "uint256",
          "name": "_four",
          "type": "uint256"
        },
        {
          "internalType": "uint256",
          "name": "_unlockTimestamp",
          "type": "uint256"
        },
        {
          "internalType": "uint256",
          "name": "_lockTimestamp",
          "type": "uint256"
        },
        {
          "internalType": "uint256",
          "name": "_semisComplete",
          "type": "uint256"
        },
        {
          "internalType": "uint256",
          "name": "_champComplete",
          "type": "uint256"
        }
      ],
      "name": "initialize",
      "outputs": [],
      "stateMutability": "nonpayable",
      "type": "function"
    },
    {
      "inputs": [
        {
          "internalType": "uint256",
          "name": "_semifinalOneWinner",
          "type": "uint256"
        },
        {
          "internalType": "uint256",
          "name": "_semifinalTwoWinner",
          "type": "uint256"
        },
        {
          "internalType": "uint256",
          "name": "_champion",
          "type": "uint256"
        },
        {
          "internalType": "uint256",
          "name": "_championshipTotalPoints",
          "type": "uint256"
        }
      ],
      "name": "joinPool",
      "outputs": [],
      "stateMutability": "payable",
      "type": "function"
    },
    {
      "inputs": [],
      "name": "lockTimestamp",
      "outputs": [
        {
          "internalType": "uint256",
          "name": "",
          "type": "uint256"
        }
      ],
      "stateMutability": "view",
      "type": "function"
    },
    {
      "inputs": [],
      "name": "maxEntries",
      "outputs": [
        {
          "internalType": "uint256",
          "name": "",
          "type": "uint256"
        }
      ],
      "stateMutability": "view",
      "type": "function"
    },
    {
      "inputs": [],
      "name": "mostPoints",
      "outputs": [
        {
          "internalType": "uint256",
          "name": "",
          "type": "uint256"
        }
      ],
      "stateMutability": "view",
      "type": "function"
    },
    {
      "inputs": [],
      "name": "one",
      "outputs": [
        {
          "internalType": "uint256",
          "name": "",
          "type": "uint256"
        }
      ],
      "stateMutability": "view",
      "type": "function"
    },
    {
      "inputs": [
        {
          "internalType": "uint256",
          "name": "",
          "type": "uint256"
        },
        {
          "internalType": "uint256",
          "name": "",
          "type": "uint256"
        }
      ],
      "name": "points",
      "outputs": [
        {
          "internalType": "address",
          "name": "",
          "type": "address"
        }
      ],
      "stateMutability": "view",
      "type": "function"
    },
    {
      "inputs": [],
      "name": "pot",
      "outputs": [
        {
          "internalType": "uint256",
          "name": "",
          "type": "uint256"
        }
      ],
      "stateMutability": "view",
      "type": "function"
    },
    {
      "inputs": [
        {
          "internalType": "uint256",
          "name": "_champion",
          "type": "uint256"
        },
        {
          "internalType": "uint256",
          "name": "_championshipTotalPoints",
          "type": "uint256"
        }
      ],
      "name": "scoreFinal",
      "outputs": [],
      "stateMutability": "nonpayable",
      "type": "function"
    },
    {
      "inputs": [
        {
          "internalType": "uint256",
          "name": "_semifinalOneWinner",
          "type": "uint256"
        },
        {
          "internalType": "uint256",
          "name": "_semifinalTwoWinner",
          "type": "uint256"
        }
      ],
      "name": "scoreSemifinal",
      "outputs": [],
      "stateMutability": "nonpayable",
      "type": "function"
    },
    {
      "inputs": [
        {
          "internalType": "uint256",
          "name": "",
          "type": "uint256"
        }
      ],
      "name": "scoredAfterChamp",
      "outputs": [
        {
          "internalType": "address",
          "name": "owner",
          "type": "address"
        },
        {
          "internalType": "uint256",
          "name": "semifinalOneWinner",
          "type": "uint256"
        },
        {
          "internalType": "uint256",
          "name": "semifinalTwoWinner",
          "type": "uint256"
        },
        {
          "internalType": "uint256",
          "name": "champion",
          "type": "uint256"
        },
        {
          "internalType": "uint256",
          "name": "championshipTotalPoints",
          "type": "uint256"
        },
        {
          "internalType": "uint256",
          "name": "bracketPoints",
          "type": "uint256"
        }
      ],
      "stateMutability": "view",
      "type": "function"
    },
    {
      "inputs": [
        {
          "internalType": "uint256",
          "name": "",
          "type": "uint256"
        }
      ],
      "name": "scoredAfterSemis",
      "outputs": [
        {
          "internalType": "address",
          "name": "owner",
          "type": "address"
        },
        {
          "internalType": "uint256",
          "name": "semifinalOneWinner",
          "type": "uint256"
        },
        {
          "internalType": "uint256",
          "name": "semifinalTwoWinner",
          "type": "uint256"
        },
        {
          "internalType": "uint256",
          "name": "champion",
          "type": "uint256"
        },
        {
          "internalType": "uint256",
          "name": "championshipTotalPoints",
          "type": "uint256"
        },
        {
          "internalType": "uint256",
          "name": "bracketPoints",
          "type": "uint256"
        }
      ],
      "stateMutability": "view",
      "type": "function"
    },
    {
      "inputs": [
        {
          "internalType": "uint256",
          "name": "",
          "type": "uint256"
        },
        {
          "internalType": "uint256",
          "name": "",
          "type": "uint256"
        }
      ],
      "name": "scoredBrackets",
      "outputs": [
        {
          "internalType": "address",
          "name": "owner",
          "type": "address"
        },
        {
          "internalType": "uint256",
          "name": "semifinalOneWinner",
          "type": "uint256"
        },
        {
          "internalType": "uint256",
          "name": "semifinalTwoWinner",
          "type": "uint256"
        },
        {
          "internalType": "uint256",
          "name": "champion",
          "type": "uint256"
        },
        {
          "internalType": "uint256",
          "name": "championshipTotalPoints",
          "type": "uint256"
        },
        {
          "internalType": "uint256",
          "name": "bracketPoints",
          "type": "uint256"
        }
      ],
      "stateMutability": "view",
      "type": "function"
    },
    {
      "inputs": [],
      "name": "semifinalOneWinner",
      "outputs": [
        {
          "internalType": "uint256",
          "name": "",
          "type": "uint256"
        }
      ],
      "stateMutability": "view",
      "type": "function"
    },
    {
      "inputs": [],
      "name": "semifinalTwoWinner",
      "outputs": [
        {
          "internalType": "uint256",
          "name": "",
          "type": "uint256"
        }
      ],
      "stateMutability": "view",
      "type": "function"
    },
    {
      "inputs": [],
      "name": "semisComplete",
      "outputs": [
        {
          "internalType": "uint256",
          "name": "",
          "type": "uint256"
        }
      ],
      "stateMutability": "view",
      "type": "function"
    },
    {
      "inputs": [],
      "name": "three",
      "outputs": [
        {
          "internalType": "uint256",
          "name": "",
          "type": "uint256"
        }
      ],
      "stateMutability": "view",
      "type": "function"
    },
    {
      "inputs": [],
      "name": "totalEntries",
      "outputs": [
        {
          "internalType": "uint256",
          "name": "",
          "type": "uint256"
        }
      ],
      "stateMutability": "view",
      "type": "function"
    },
    {
      "inputs": [],
      "name": "two",
      "outputs": [
        {
          "internalType": "uint256",
          "name": "",
          "type": "uint256"
        }
      ],
      "stateMutability": "view",
      "type": "function"
    },
    {
      "inputs": [],
      "name": "unlockTimestamp",
      "outputs": [
        {
          "internalType": "uint256",
          "name": "",
          "type": "uint256"
        }
      ],
      "stateMutability": "view",
      "type": "function"
    }
  ],
  "bytecode": "0x608060405234801561001057600080fd5b50613068806100206000396000f3fe6080604052600436106101ee5760003560e01c8063a1fca2b61161010d578063cf92a0c7116100a0578063e7b4e5ab1161006f578063e7b4e5ab1461072a578063f189449814610767578063f23f3ba514610792578063f29ee125146107bd578063ffe81da8146107fa576101ee565b8063cf92a0c714610643578063d60dac3d14610685578063dd917b29146106b0578063e3cdda39146106ed576101ee565b8063be6b3337116100dc578063be6b333714610580578063c37996f1146105ab578063cc789085146105ed578063cf06541914610618576101ee565b8063a1fca2b6146104d4578063aa082a9d146104ff578063b544bf831461052a578063b7ce8a9914610555576101ee565b80634ba2363a116101855780637fef036e116101545780637fef036e14610439578063901717d114610464578063931e55aa1461048f57806398f6a197146104b8576101ee565b80634ba2363a146103785780634d3c3a41146103a35780635f402f90146103e55780635fdf05d71461040e576101ee565b8063443e4a39116101c1578063443e4a39146102ce57806344866955146102f757806345caa117146103225780634a0364e81461034d576101ee565b8063072ea61c146101f357806318901b711461021e57806334ff56441461024a5780633bca800f1461028c575b600080fd5b3480156101ff57600080fd5b50610208610825565b60405161021591906125c1565b60405180910390f35b34801561022a57600080fd5b5061023361082b565b604051610241929190612756565b60405180910390f35b34801561025657600080fd5b50610271600480360381019061026c91906127e3565b610a0d565b60405161028396959493929190612832565b60405180910390f35b34801561029857600080fd5b506102b360048036038101906102ae9190612893565b610a86565b6040516102c596959493929190612832565b60405180910390f35b3480156102da57600080fd5b506102f560048036038101906102f091906128c0565b610af2565b005b34801561030357600080fd5b5061030c610b7d565b60405161031991906125c1565b60405180910390f35b34801561032e57600080fd5b50610337610b83565b60405161034491906125c1565b60405180910390f35b34801561035957600080fd5b50610362610b89565b60405161036f9190612900565b60405180910390f35b34801561038457600080fd5b5061038d610d19565b60405161039a91906125c1565b60405180910390f35b3480156103af57600080fd5b506103ca60048036038101906103c591906128c0565b610d1f565b6040516103dc96959493929190612832565b60405180910390f35b3480156103f157600080fd5b5061040c60048036038101906104079190612922565b610d98565b005b34801561041a57600080fd5b50610423610fad565b60405161043091906125c1565b60405180910390f35b34801561044557600080fd5b5061044e610fb3565b60405161045b91906125c1565b60405180910390f35b34801561047057600080fd5b50610479610fb9565b60405161048691906125c1565b60405180910390f35b34801561049b57600080fd5b506104b660048036038101906104b191906128c0565b610fbf565b005b6104d260048036038101906104cd9190612a01565b611042565b005b3480156104e057600080fd5b506104e96114c2565b6040516104f691906125c1565b60405180910390f35b34801561050b57600080fd5b506105146114c8565b60405161052191906125c1565b60405180910390f35b34801561053657600080fd5b5061053f6114ce565b60405161054c91906125c1565b60405180910390f35b34801561056157600080fd5b5061056a6114d4565b60405161057791906125c1565b60405180910390f35b34801561058c57600080fd5b506105956114da565b6040516105a291906125c1565b60405180910390f35b3480156105b757600080fd5b506105d260048036038101906105cd9190612893565b6114e0565b6040516105e496959493929190612832565b60405180910390f35b3480156105f957600080fd5b5061060261154c565b60405161060f91906125c1565b60405180910390f35b34801561062457600080fd5b5061062d611552565b60405161063a91906125c1565b60405180910390f35b34801561064f57600080fd5b5061066a60048036038101906106659190612893565b611558565b60405161067c96959493929190612832565b60405180910390f35b34801561069157600080fd5b5061069a6115c4565b6040516106a791906125c1565b60405180910390f35b3480156106bc57600080fd5b506106d760048036038101906106d291906128c0565b6115ca565b6040516106e49190612a68565b60405180910390f35b3480156106f957600080fd5b50610714600480360381019061070f91906128c0565b611618565b6040516107219190612a68565b60405180910390f35b34801561073657600080fd5b50610751600480360381019061074c9190612893565b611666565b60405161075e9190612a68565b60405180910390f35b34801561077357600080fd5b5061077c6116a5565b6040516107899190612a68565b60405180910390f35b34801561079e57600080fd5b506107a76116c9565b6040516107b491906125c1565b60405180910390f35b3480156107c957600080fd5b506107e460048036038101906107df9190612a83565b6116cf565b6040516107f191906125c1565b60405180910390f35b34801561080657600080fd5b5061080f6116e7565b60405161081c91906125c1565b60405180910390f35b60015481565b6060600080601760003373ffffffffffffffffffffffffffffffffffffffff1673ffffffffffffffffffffffffffffffffffffffff16815260200190815260200160002090506000818054905067ffffffffffffffff81111561089157610890612ab0565b5b6040519080825280602002602001820160405280156108ca57816020015b6108b761255c565b8152602001906001900390816108af5790505b50905060005b82805490508110156109c1578281815481106108ef576108ee612adf565b5b90600052602060002090600602016040518060c00160405290816000820160009054906101000a900473ffffffffffffffffffffffffffffffffffffffff1673ffffffffffffffffffffffffffffffffffffffff1673ffffffffffffffffffffffffffffffffffffffff168152602001600182015481526020016002820154815260200160038201548152602001600482015481526020016005820154815250508282815181106109a3576109a2612adf565b5b602002602001018190525080806109b990612b3d565b9150506108d0565b5080601660003373ffffffffffffffffffffffffffffffffffffffff1673ffffffffffffffffffffffffffffffffffffffff168152602001908152602001600020549350935050509091565b60176020528160005260406000208181548110610a2957600080fd5b9060005260206000209060060201600091509150508060000160009054906101000a900473ffffffffffffffffffffffffffffffffffffffff16908060010154908060020154908060030154908060040154908060050154905086565b60148181548110610a9657600080fd5b90600052602060002090600602016000915090508060000160009054906101000a900473ffffffffffffffffffffffffffffffffffffffff16908060010154908060020154908060030154908060040154908060050154905086565b60008054906101000a900473ffffffffffffffffffffffffffffffffffffffff1673ffffffffffffffffffffffffffffffffffffffff163373ffffffffffffffffffffffffffffffffffffffff1614610b4a57600080fd5b601154421015610b5957600080fd5b8160098190555080600a81905550610b7160006116ed565b610b79611f88565b5050565b60095481565b60055481565b60606000806014805490501115610ba35760149050610bc0565b60006013805490501115610bba5760139050610bbf565b601290505b5b6000818054905067ffffffffffffffff811115610be057610bdf612ab0565b5b604051908082528060200260200182016040528015610c1957816020015b610c0661255c565b815260200190600190039081610bfe5790505b50905060005b8280549050811015610d1057828181548110610c3e57610c3d612adf565b5b90600052602060002090600602016040518060c00160405290816000820160009054906101000a900473ffffffffffffffffffffffffffffffffffffffff1673ffffffffffffffffffffffffffffffffffffffff1673ffffffffffffffffffffffffffffffffffffffff16815260200160018201548152602001600282015481526020016003820154815260200160048201548152602001600582015481525050828281518110610cf257610cf1612adf565b5b60200260200101819052508080610d0890612b3d565b915050610c1f565b50809250505090565b600d5481565b60196020528160005260406000208181548110610d3b57600080fd5b9060005260206000209060060201600091509150508060000160009054906101000a900473ffffffffffffffffffffffffffffffffffffffff16908060010154908060020154908060030154908060040154908060050154905086565b6000610da2612430565b905060008160000160089054906101000a900460ff1615905060008260000160009054906101000a900467ffffffffffffffff1690506000808267ffffffffffffffff16148015610df05750825b9050600060018367ffffffffffffffff16148015610e25575060003073ffffffffffffffffffffffffffffffffffffffff163b145b905081158015610e33575080155b15610e6a576040517ff92ee8a900000000000000000000000000000000000000000000000000000000815260040160405180910390fd5b60018560000160006101000a81548167ffffffffffffffff021916908367ffffffffffffffff1602179055508315610eba5760018560000160086101000a81548160ff0219169083151502179055505b336000806101000a81548173ffffffffffffffffffffffffffffffffffffffff021916908373ffffffffffffffffffffffffffffffffffffffff1602179055508e6001819055508d6002819055508c6003819055508b6004819055508a6005819055508960068190555088600e8190555087600f8190555086601081905550856011819055508315610f9c5760008560000160086101000a81548160ff0219169083151502179055507fc7f505b2f371ae2175ee4913f4499e1f2633a7b5936321eed1cdaeb6115181d26001604051610f939190612bde565b60405180910390a15b505050505050505050505050505050565b60045481565b600c5481565b60035481565b60008054906101000a900473ffffffffffffffffffffffffffffffffffffffff1673ffffffffffffffffffffffffffffffffffffffff163373ffffffffffffffffffffffffffffffffffffffff161461101757600080fd5b60105442101561102657600080fd5b816007819055508060088190555061103e60016116ed565b5050565b6001543414611086576040517f08c379a000000000000000000000000000000000000000000000000000000000815260040161107d90612c56565b60405180910390fd5b600e544210156110cb576040517f08c379a00000000000000000000000000000000000000000000000000000000081526004016110c290612ce8565b60405180910390fd5b600f54421115611110576040517f08c379a000000000000000000000000000000000000000000000000000000000815260040161110790612d54565b60405180910390fd5b600254601660003373ffffffffffffffffffffffffffffffffffffffff1673ffffffffffffffffffffffffffffffffffffffff1681526020019081526020016000205410611193576040517f08c379a000000000000000000000000000000000000000000000000000000000815260040161118a90612de6565b60405180910390fd5b6000601660003373ffffffffffffffffffffffffffffffffffffffff1673ffffffffffffffffffffffffffffffffffffffff168152602001908152602001600020541161123e576015339080600181540180825580915050600190039060005260206000200160009091909190916101000a81548173ffffffffffffffffffffffffffffffffffffffff021916908373ffffffffffffffffffffffffffffffffffffffff1602179055505b601660003373ffffffffffffffffffffffffffffffffffffffff1673ffffffffffffffffffffffffffffffffffffffff168152602001908152602001600020600081548092919061128e90612b3d565b9190505550601760003373ffffffffffffffffffffffffffffffffffffffff1673ffffffffffffffffffffffffffffffffffffffff1681526020019081526020016000206040518060c001604052803373ffffffffffffffffffffffffffffffffffffffff1681526020018681526020018581526020018481526020018381526020016000815250908060018154018082558091505060019003906000526020600020906006020160009091909190915060008201518160000160006101000a81548173ffffffffffffffffffffffffffffffffffffffff021916908373ffffffffffffffffffffffffffffffffffffffff1602179055506020820151816001015560408201518160020155606082015181600301556080820151816004015560a08201518160050155505060126040518060c001604052803373ffffffffffffffffffffffffffffffffffffffff1681526020018681526020018581526020018481526020018381526020016000815250908060018154018082558091505060019003906000526020600020906006020160009091909190915060008201518160000160006101000a81548173ffffffffffffffffffffffffffffffffffffffff021916908373ffffffffffffffffffffffffffffffffffffffff1602179055506020820151816001015560408201518160020155606082015181600301556080820151816004015560a082015181600501555050600c60008154809291906114b790612b3d565b919050555050505050565b60065481565b600e5481565b600f5481565b60085481565b600a5481565b601281815481106114f057600080fd5b90600052602060002090600602016000915090508060000160009054906101000a900473ffffffffffffffffffffffffffffffffffffffff16908060010154908060020154908060030154908060040154908060050154905086565b60105481565b600b5481565b6013818154811061156857600080fd5b90600052602060002090600602016000915090508060000160009054906101000a900473ffffffffffffffffffffffffffffffffffffffff16908060010154908060020154908060030154908060040154908060050154905086565b60115481565b601a60205281600052604060002081815481106115e657600080fd5b906000526020600020016000915091509054906101000a900473ffffffffffffffffffffffffffffffffffffffff1681565b6018602052816000526040600020818154811061163457600080fd5b906000526020600020016000915091509054906101000a900473ffffffffffffffffffffffffffffffffffffffff1681565b6015818154811061167657600080fd5b906000526020600020016000915054906101000a900473ffffffffffffffffffffffffffffffffffffffff1681565b60008054906101000a900473ffffffffffffffffffffffffffffffffffffffff1681565b60025481565b60166020528060005260406000206000915090505481565b60075481565b60008060005b601580549050811015611f82576015818154811061171457611713612adf565b5b9060005260206000200160009054906101000a900473ffffffffffffffffffffffffffffffffffffffff16925060005b601660008573ffffffffffffffffffffffffffffffffffffffff1673ffffffffffffffffffffffffffffffffffffffff16815260200190815260200160002054811015611f6e57601760008573ffffffffffffffffffffffffffffffffffffffff1673ffffffffffffffffffffffffffffffffffffffff16815260200190815260200160002081815481106117dc576117db612adf565b5b906000526020600020906006020192508415611a695760075483600101540361187a576003601760008673ffffffffffffffffffffffffffffffffffffffff1673ffffffffffffffffffffffffffffffffffffffff168152602001908152602001600020828154811061185257611851612adf565b5b906000526020600020906006020160050160008282546118729190612e06565b925050819055505b600854836002015403611902576003601760008673ffffffffffffffffffffffffffffffffffffffff1673ffffffffffffffffffffffffffffffffffffffff16815260200190815260200160002082815481106118da576118d9612adf565b5b906000526020600020906006020160050160008282546118fa9190612e06565b925050819055505b6013601760008673ffffffffffffffffffffffffffffffffffffffff1673ffffffffffffffffffffffffffffffffffffffff168152602001908152602001600020828154811061195557611954612adf565b5b906000526020600020906006020190806001815401808255809150506001900390600052602060002090600602016000909190919091506000820160009054906101000a900473ffffffffffffffffffffffffffffffffffffffff168160000160006101000a81548173ffffffffffffffffffffffffffffffffffffffff021916908373ffffffffffffffffffffffffffffffffffffffff160217905550600182015481600101556002820154816002015560038201548160030155600482015481600401556005820154816005015550507f72b70d4f70717c443c3f728467b5c6595439e31928db630e2892cab279692b2e600754600854604051611a5c929190612e3a565b60405180910390a1611f5b565b600954836003015403611af1576007601760008673ffffffffffffffffffffffffffffffffffffffff1673ffffffffffffffffffffffffffffffffffffffff1681526020019081526020016000208281548110611ac957611ac8612adf565b5b90600052602060002090600602016005016000828254611ae99190612e06565b925050819055505b600b54601760008673ffffffffffffffffffffffffffffffffffffffff1673ffffffffffffffffffffffffffffffffffffffff1681526020019081526020016000208281548110611b4557611b44612adf565b5b9060005260206000209060060201600501541115611bc757601760008573ffffffffffffffffffffffffffffffffffffffff1673ffffffffffffffffffffffffffffffffffffffff1681526020019081526020016000208181548110611bae57611bad612adf565b5b906000526020600020906006020160050154600b819055505b60186000601760008773ffffffffffffffffffffffffffffffffffffffff1673ffffffffffffffffffffffffffffffffffffffff1681526020019081526020016000208381548110611c1c57611c1b612adf565b5b9060005260206000209060060201600501548152602001908152602001600020849080600181540180825580915050600190039060005260206000200160009091909190916101000a81548173ffffffffffffffffffffffffffffffffffffffff021916908373ffffffffffffffffffffffffffffffffffffffff16021790555060196000601760008773ffffffffffffffffffffffffffffffffffffffff1673ffffffffffffffffffffffffffffffffffffffff1681526020019081526020016000208381548110611cf257611cf1612adf565b5b9060005260206000209060060201600501548152602001908152602001600020601760008673ffffffffffffffffffffffffffffffffffffffff1673ffffffffffffffffffffffffffffffffffffffff1681526020019081526020016000208281548110611d6357611d62612adf565b5b906000526020600020906006020190806001815401808255809150506001900390600052602060002090600602016000909190919091506000820160009054906101000a900473ffffffffffffffffffffffffffffffffffffffff168160000160006101000a81548173ffffffffffffffffffffffffffffffffffffffff021916908373ffffffffffffffffffffffffffffffffffffffff160217905550600182015481600101556002820154816002015560038201548160030155600482015481600401556005820154816005015550506014601760008673ffffffffffffffffffffffffffffffffffffffff1673ffffffffffffffffffffffffffffffffffffffff1681526020019081526020016000208281548110611e8857611e87612adf565b5b906000526020600020906006020190806001815401808255809150506001900390600052602060002090600602016000909190919091506000820160009054906101000a900473ffffffffffffffffffffffffffffffffffffffff168160000160006101000a81548173ffffffffffffffffffffffffffffffffffffffff021916908373ffffffffffffffffffffffffffffffffffffffff160217905550600182015481600101556002820154816002015560038201548160030155600482015481600401556005820154816005015550505b8080611f6690612b3d565b915050611744565b508080611f7a90612b3d565b9150506116f3565b50505050565b47600d819055506000806000600160186000600b54815260200190815260200160002080549050036120a35761201160186000600b548152602001908152602001600020600081548110611fdf57611fde612adf565b5b9060005260206000200160009054906101000a900473ffffffffffffffffffffffffffffffffffffffff166001612458565b7f9c2270628a9b29d30ae96b6c4c14ed646ee134febdce38a5b77f2bde9cea2e2060186000600b54815260200190815260200160002060008154811061205a57612059612adf565b5b9060005260206000200160009054906101000a900473ffffffffffffffffffffffffffffffffffffffff16600b54604051612096929190612e63565b60405180910390a161242b565b60005b60186000600b548152602001908152602001600020805490508110156122015760196000600b54815260200190815260200160002081815481106120ed576120ec612adf565b5b90600052602060002090600602019150600a548260040154111561212457600a54826004015461211d9190612e8c565b9250612139565b8160040154600a546121369190612e8c565b92505b6000810361214957829350612156565b83831015612155578293505b5b601a60008481526020019081526020016000208260000160009054906101000a900473ffffffffffffffffffffffffffffffffffffffff169080600181540180825580915050600190039060005260206000200160009091909190916101000a81548173ffffffffffffffffffffffffffffffffffffffff021916908373ffffffffffffffffffffffffffffffffffffffff16021790555080806121f990612b3d565b9150506120a6565b506001601a6000858152602001908152602001600020805490500361230b5761227b601a600085815260200190815260200160002060008154811061224957612248612adf565b5b9060005260206000200160009054906101000a900473ffffffffffffffffffffffffffffffffffffffff166001612458565b7f9c2270628a9b29d30ae96b6c4c14ed646ee134febdce38a5b77f2bde9cea2e20601a60008581526020019081526020016000206000815481106122c2576122c1612adf565b5b9060005260206000200160009054906101000a900473ffffffffffffffffffffffffffffffffffffffff16600b546040516122fe929190612e63565b60405180910390a161242a565b6000601a600085815260200190815260200160002080549050905060005b818110156124275761238a601a6000878152602001908152602001600020828154811061235957612358612adf565b5b9060005260206000200160009054906101000a900473ffffffffffffffffffffffffffffffffffffffff1683612458565b7f9c2270628a9b29d30ae96b6c4c14ed646ee134febdce38a5b77f2bde9cea2e20601a600087815260200190815260200160002082815481106123d0576123cf612adf565b5b9060005260206000200160009054906101000a900473ffffffffffffffffffffffffffffffffffffffff16600b5460405161240c929190612e63565b60405180910390a1808061241f90612b3d565b915050612329565b50505b5b505050565b60007ff0c57e16840df040f15088dc2f81fe391c3923bec73e23a9662efc9c229c6a00905090565b600081600d546124689190612eef565b905060008373ffffffffffffffffffffffffffffffffffffffff168260405161249090612f51565b60006040518083038185875af1925050503d80600081146124cd576040519150601f19603f3d011682016040523d82523d6000602084013e6124d2565b606091505b5050905080612516576040517f08c379a000000000000000000000000000000000000000000000000000000000815260040161250d90612fb2565b60405180910390fd5b7f31f01f46758b6b42c15b03a08187ad5b638ba4231ca58df20b00c5d53c2e1ac48483600186118660405161254e9493929190612fed565b60405180910390a150505050565b6040518060c00160405280600073ffffffffffffffffffffffffffffffffffffffff16815260200160008152602001600081526020016000815260200160008152602001600081525090565b6000819050919050565b6125bb816125a8565b82525050565b60006020820190506125d660008301846125b2565b92915050565b600081519050919050565b600082825260208201905092915050565b6000819050602082019050919050565b600073ffffffffffffffffffffffffffffffffffffffff82169050919050565b600061263382612608565b9050919050565b61264381612628565b82525050565b612652816125a8565b82525050565b60c08201600082015161266e600085018261263a565b5060208201516126816020850182612649565b5060408201516126946040850182612649565b5060608201516126a76060850182612649565b5060808201516126ba6080850182612649565b5060a08201516126cd60a0850182612649565b50505050565b60006126df8383612658565b60c08301905092915050565b6000602082019050919050565b6000612703826125dc565b61270d81856125e7565b9350612718836125f8565b8060005b8381101561274957815161273088826126d3565b975061273b836126eb565b92505060018101905061271c565b5085935050505092915050565b6000604082019050818103600083015261277081856126f8565b905061277f60208301846125b2565b9392505050565b600080fd5b61279481612628565b811461279f57600080fd5b50565b6000813590506127b18161278b565b92915050565b6127c0816125a8565b81146127cb57600080fd5b50565b6000813590506127dd816127b7565b92915050565b600080604083850312156127fa576127f9612786565b5b6000612808858286016127a2565b9250506020612819858286016127ce565b9150509250929050565b61282c81612628565b82525050565b600060c0820190506128476000830189612823565b61285460208301886125b2565b61286160408301876125b2565b61286e60608301866125b2565b61287b60808301856125b2565b61288860a08301846125b2565b979650505050505050565b6000602082840312156128a9576128a8612786565b5b60006128b7848285016127ce565b91505092915050565b600080604083850312156128d7576128d6612786565b5b60006128e5858286016127ce565b92505060206128f6858286016127ce565b9150509250929050565b6000602082019050818103600083015261291a81846126f8565b905092915050565b6000806000806000806000806000806101408b8d03121561294657612945612786565b5b60006129548d828e016127ce565b9a505060206129658d828e016127ce565b99505060406129768d828e016127ce565b98505060606129878d828e016127ce565b97505060806129988d828e016127ce565b96505060a06129a98d828e016127ce565b95505060c06129ba8d828e016127ce565b94505060e06129cb8d828e016127ce565b9350506101006129dd8d828e016127ce565b9250506101206129ef8d828e016127ce565b9150509295989b9194979a5092959850565b60008060008060808587031215612a1b57612a1a612786565b5b6000612a29878288016127ce565b9450506020612a3a878288016127ce565b9350506040612a4b878288016127ce565b9250506060612a5c878288016127ce565b91505092959194509250565b6000602082019050612a7d6000830184612823565b92915050565b600060208284031215612a9957612a98612786565b5b6000612aa7848285016127a2565b91505092915050565b7f4e487b7100000000000000000000000000000000000000000000000000000000600052604160045260246000fd5b7f4e487b7100000000000000000000000000000000000000000000000000000000600052603260045260246000fd5b7f4e487b7100000000000000000000000000000000000000000000000000000000600052601160045260246000fd5b6000612b48826125a8565b91507fffffffffffffffffffffffffffffffffffffffffffffffffffffffffffffffff8203612b7a57612b79612b0e565b5b600182019050919050565b6000819050919050565b600067ffffffffffffffff82169050919050565b6000819050919050565b6000612bc8612bc3612bbe84612b85565b612ba3565b612b8f565b9050919050565b612bd881612bad565b82525050565b6000602082019050612bf36000830184612bcf565b92915050565b600082825260208201905092915050565b7f496e636f727265637420656e747279206665652e000000000000000000000000600082015250565b6000612c40601483612bf9565b9150612c4b82612c0a565b602082019050919050565b60006020820190508181036000830152612c6f81612c33565b9050919050565b7f4346502073656c656374696f6e732068617665206e6f74206265656e2066696e60008201527f616c697a65642e00000000000000000000000000000000000000000000000000602082015250565b6000612cd2602783612bf9565b9150612cdd82612c76565b604082019050919050565b60006020820190508181036000830152612d0181612cc5565b9050919050565b7f456e74727920706572696f642068617320636c6f7365642e0000000000000000600082015250565b6000612d3e601883612bf9565b9150612d4982612d08565b602082019050919050565b60006020820190508181036000830152612d6d81612d31565b9050919050565b7f416c72656164792068617665206d617820616d6f756e74206f6620656e74726960008201527f65732e0000000000000000000000000000000000000000000000000000000000602082015250565b6000612dd0602383612bf9565b9150612ddb82612d74565b604082019050919050565b60006020820190508181036000830152612dff81612dc3565b9050919050565b6000612e11826125a8565b9150612e1c836125a8565b9250828201905080821115612e3457612e33612b0e565b5b92915050565b6000604082019050612e4f60008301856125b2565b612e5c60208301846125b2565b9392505050565b6000604082019050612e786000830185612823565b612e8560208301846125b2565b9392505050565b6000612e97826125a8565b9150612ea2836125a8565b9250828203905081811115612eba57612eb9612b0e565b5b92915050565b7f4e487b7100000000000000000000000000000000000000000000000000000000600052601260045260246000fd5b6000612efa826125a8565b9150612f05836125a8565b925082612f1557612f14612ec0565b5b828204905092915050565b600081905092915050565b50565b6000612f3b600083612f20565b9150612f4682612f2b565b600082019050919050565b6000612f5c82612f2e565b9150819050919050565b7f4661696c656420746f2073656e642077696e6e696e67732e0000000000000000600082015250565b6000612f9c601883612bf9565b9150612fa782612f66565b602082019050919050565b60006020820190508181036000830152612fcb81612f8f565b9050919050565b60008115159050919050565b612fe781612fd2565b82525050565b60006080820190506130026000830187612823565b61300f60208301866125b2565b61301c6040830185612fde565b61302960608301846125b2565b9594505050505056fea2646970667358221220ca60a67f7df61d75d1eca70b7edb4aae269eb63609196b45619004df44f1411264736f6c63430008140033",
  "linkReferences": {},
  "deployedLinkReferences": {}
}