{
  "_format": "hh-sol-artifact-1",
  "contractName": "PlayoffPoolV0",
  "sourceName": "contracts/PlayoffPoolV0.sol",
  "abi": [
    {
      "inputs": [],
      "name": "InvalidInitialization",
      "type": "error"
    },
    {
      "inputs": [],
      "name": "NotInitializing",
      "type": "error"
    },
    {
      "anonymous": false,
      "inputs": [
        {
          "indexed": false,
          "internalType": "uint64",
          "name": "version",
          "type": "uint64"
        }
      ],
      "name": "Initialized",
      "type": "event"
    },
    {
      "anonymous": false,
      "inputs": [
        {
          "indexed": false,
          "internalType": "address",
          "name": "",
          "type": "address"
        },
        {
          "indexed": false,
          "internalType": "uint256",
          "name": "",
          "type": "uint256"
        }
      ],
      "name": "Winner",
      "type": "event"
    },
    {
      "anonymous": false,
      "inputs": [
        {
          "indexed": false,
          "internalType": "address",
          "name": "",
          "type": "address"
        },
        {
          "indexed": false,
          "internalType": "uint256",
          "name": "",
          "type": "uint256"
        },
        {
          "indexed": false,
          "internalType": "bool",
          "name": "",
          "type": "bool"
        },
        {
          "indexed": false,
          "internalType": "uint256",
          "name": "",
          "type": "uint256"
        }
      ],
      "name": "WinnerPaid",
      "type": "event"
    },
    {
      "inputs": [
        {
          "internalType": "address",
          "name": "",
          "type": "address"
        },
        {
          "internalType": "uint256",
          "name": "",
          "type": "uint256"
        }
      ],
      "name": "brackets",
      "outputs": [
        {
          "internalType": "address",
          "name": "owner",
          "type": "address"
        },
        {
          "internalType": "uint256",
          "name": "semifinalOneWinner",
          "type": "uint256"
        },
        {
          "internalType": "uint256",
          "name": "semifinalTwoWinner",
          "type": "uint256"
        },
        {
          "internalType": "uint256",
          "name": "champion",
          "type": "uint256"
        },
        {
          "internalType": "uint256",
          "name": "championshipTotalPoints",
          "type": "uint256"
        },
        {
          "internalType": "uint256",
          "name": "bracketPoints",
          "type": "uint256"
        }
      ],
      "stateMutability": "view",
      "type": "function"
    },
    {
      "inputs": [],
      "name": "champComplete",
      "outputs": [
        {
          "internalType": "uint256",
          "name": "",
          "type": "uint256"
        }
      ],
      "stateMutability": "view",
      "type": "function"
    },
    {
      "inputs": [],
      "name": "champion",
      "outputs": [
        {
          "internalType": "uint256",
          "name": "",
          "type": "uint256"
        }
      ],
      "stateMutability": "view",
      "type": "function"
    },
    {
      "inputs": [],
      "name": "championshipTotalPoints",
      "outputs": [
        {
          "internalType": "uint256",
          "name": "",
          "type": "uint256"
        }
      ],
      "stateMutability": "view",
      "type": "function"
    },
    {
      "inputs": [],
      "name": "commissioner",
      "outputs": [
        {
          "internalType": "address",
          "name": "",
          "type": "address"
        }
      ],
      "stateMutability": "view",
      "type": "function"
    },
    {
      "inputs": [
        {
          "internalType": "uint256",
          "name": "",
          "type": "uint256"
        },
        {
          "internalType": "uint256",
          "name": "",
          "type": "uint256"
        }
      ],
      "name": "differences",
      "outputs": [
        {
          "internalType": "address",
          "name": "",
          "type": "address"
        }
      ],
      "stateMutability": "view",
      "type": "function"
    },
    {
      "inputs": [
        {
          "internalType": "uint256",
          "name": "",
          "type": "uint256"
        }
      ],
      "name": "entrants",
      "outputs": [
        {
          "internalType": "address",
          "name": "",
          "type": "address"
        }
      ],
      "stateMutability": "view",
      "type": "function"
    },
    {
      "inputs": [
        {
          "internalType": "address",
          "name": "",
          "type": "address"
        }
      ],
      "name": "entries",
      "outputs": [
        {
          "internalType": "uint256",
          "name": "",
          "type": "uint256"
        }
      ],
      "stateMutability": "view",
      "type": "function"
    },
    {
      "inputs": [],
      "name": "entryFee",
      "outputs": [
        {
          "internalType": "uint256",
          "name": "",
          "type": "uint256"
        }
      ],
      "stateMutability": "view",
      "type": "function"
    },
    {
      "inputs": [],
      "name": "four",
      "outputs": [
        {
          "internalType": "uint256",
          "name": "",
          "type": "uint256"
        }
      ],
      "stateMutability": "view",
      "type": "function"
    },
    {
      "inputs": [
        {
          "internalType": "uint256",
          "name": "_entryFee",
          "type": "uint256"
        },
        {
          "internalType": "uint256",
          "name": "_maxEntries",
          "type": "uint256"
        },
        {
          "internalType": "uint256",
          "name": "_one",
          "type": "uint256"
        },
        {
          "internalType": "uint256",
          "name": "_two",
          "type": "uint256"
        },
        {
          "internalType": "uint256",
          "name": "_three",
          "type": "uint256"
        },
        {
          "internalType": "uint256",
          "name": "_four",
          "type": "uint256"
        },
        {
          "internalType": "uint256",
          "name": "_unlockTimestamp",
          "type": "uint256"
        },
        {
          "internalType": "uint256",
          "name": "_lockTimestamp",
          "type": "uint256"
        },
        {
          "internalType": "uint256",
          "name": "_semisComplete",
          "type": "uint256"
        },
        {
          "internalType": "uint256",
          "name": "_champComplete",
          "type": "uint256"
        }
      ],
      "name": "initialize",
      "outputs": [],
      "stateMutability": "nonpayable",
      "type": "function"
    },
    {
      "inputs": [
        {
          "internalType": "uint256",
          "name": "_semifinalOneWinner",
          "type": "uint256"
        },
        {
          "internalType": "uint256",
          "name": "_semifinalTwoWinner",
          "type": "uint256"
        },
        {
          "internalType": "uint256",
          "name": "_champion",
          "type": "uint256"
        },
        {
          "internalType": "uint256",
          "name": "_championshipTotalPoints",
          "type": "uint256"
        }
      ],
      "name": "joinPool",
      "outputs": [],
      "stateMutability": "payable",
      "type": "function"
    },
    {
      "inputs": [],
      "name": "lockTimestamp",
      "outputs": [
        {
          "internalType": "uint256",
          "name": "",
          "type": "uint256"
        }
      ],
      "stateMutability": "view",
      "type": "function"
    },
    {
      "inputs": [],
      "name": "maxEntries",
      "outputs": [
        {
          "internalType": "uint256",
          "name": "",
          "type": "uint256"
        }
      ],
      "stateMutability": "view",
      "type": "function"
    },
    {
      "inputs": [],
      "name": "mostPoints",
      "outputs": [
        {
          "internalType": "uint256",
          "name": "",
          "type": "uint256"
        }
      ],
      "stateMutability": "view",
      "type": "function"
    },
    {
      "inputs": [],
      "name": "one",
      "outputs": [
        {
          "internalType": "uint256",
          "name": "",
          "type": "uint256"
        }
      ],
      "stateMutability": "view",
      "type": "function"
    },
    {
      "inputs": [
        {
          "internalType": "uint256",
          "name": "",
          "type": "uint256"
        },
        {
          "internalType": "uint256",
          "name": "",
          "type": "uint256"
        }
      ],
      "name": "points",
      "outputs": [
        {
          "internalType": "address",
          "name": "",
          "type": "address"
        }
      ],
      "stateMutability": "view",
      "type": "function"
    },
    {
      "inputs": [],
      "name": "pot",
      "outputs": [
        {
          "internalType": "uint256",
          "name": "",
          "type": "uint256"
        }
      ],
      "stateMutability": "view",
      "type": "function"
    },
    {
      "inputs": [
        {
          "internalType": "uint256",
          "name": "_champion",
          "type": "uint256"
        },
        {
          "internalType": "uint256",
          "name": "_championshipTotalPoints",
          "type": "uint256"
        }
      ],
      "name": "scoreFinal",
      "outputs": [],
      "stateMutability": "nonpayable",
      "type": "function"
    },
    {
      "inputs": [
        {
          "internalType": "uint256",
          "name": "_semifinalOneWinner",
          "type": "uint256"
        },
        {
          "internalType": "uint256",
          "name": "_semifinalTwoWinner",
          "type": "uint256"
        }
      ],
      "name": "scoreSemifinal",
      "outputs": [],
      "stateMutability": "nonpayable",
      "type": "function"
    },
    {
      "inputs": [
        {
          "internalType": "uint256",
          "name": "",
          "type": "uint256"
        },
        {
          "internalType": "uint256",
          "name": "",
          "type": "uint256"
        }
      ],
      "name": "scoredBrackets",
      "outputs": [
        {
          "internalType": "address",
          "name": "owner",
          "type": "address"
        },
        {
          "internalType": "uint256",
          "name": "semifinalOneWinner",
          "type": "uint256"
        },
        {
          "internalType": "uint256",
          "name": "semifinalTwoWinner",
          "type": "uint256"
        },
        {
          "internalType": "uint256",
          "name": "champion",
          "type": "uint256"
        },
        {
          "internalType": "uint256",
          "name": "championshipTotalPoints",
          "type": "uint256"
        },
        {
          "internalType": "uint256",
          "name": "bracketPoints",
          "type": "uint256"
        }
      ],
      "stateMutability": "view",
      "type": "function"
    },
    {
      "inputs": [],
      "name": "semifinalOneWinner",
      "outputs": [
        {
          "internalType": "uint256",
          "name": "",
          "type": "uint256"
        }
      ],
      "stateMutability": "view",
      "type": "function"
    },
    {
      "inputs": [],
      "name": "semifinalTwoWinner",
      "outputs": [
        {
          "internalType": "uint256",
          "name": "",
          "type": "uint256"
        }
      ],
      "stateMutability": "view",
      "type": "function"
    },
    {
      "inputs": [],
      "name": "semisComplete",
      "outputs": [
        {
          "internalType": "uint256",
          "name": "",
          "type": "uint256"
        }
      ],
      "stateMutability": "view",
      "type": "function"
    },
    {
      "inputs": [],
      "name": "three",
      "outputs": [
        {
          "internalType": "uint256",
          "name": "",
          "type": "uint256"
        }
      ],
      "stateMutability": "view",
      "type": "function"
    },
    {
      "inputs": [],
      "name": "totalEntries",
      "outputs": [
        {
          "internalType": "uint256",
          "name": "",
          "type": "uint256"
        }
      ],
      "stateMutability": "view",
      "type": "function"
    },
    {
      "inputs": [],
      "name": "two",
      "outputs": [
        {
          "internalType": "uint256",
          "name": "",
          "type": "uint256"
        }
      ],
      "stateMutability": "view",
      "type": "function"
    },
    {
      "inputs": [],
      "name": "unlockTimestamp",
      "outputs": [
        {
          "internalType": "uint256",
          "name": "",
          "type": "uint256"
        }
      ],
      "stateMutability": "view",
      "type": "function"
    }
  ],
  "bytecode": "0x608060405234801561001057600080fd5b50612467806100206000396000f3fe6080604052600436106101b75760003560e01c8063aa082a9d116100ec578063dd917b291161008a578063f189449811610064578063f189449814610613578063f23f3ba51461063e578063f29ee12514610669578063ffe81da8146106a6576101b7565b8063dd917b291461055c578063e3cdda3914610599578063e7b4e5ab146105d6576101b7565b8063be6b3337116100c6578063be6b3337146104b0578063cc789085146104db578063cf06541914610506578063d60dac3d14610531576101b7565b8063aa082a9d1461042f578063b544bf831461045a578063b7ce8a9914610485576101b7565b80635f402f9011610159578063901717d111610133578063901717d114610394578063931e55aa146103bf57806398f6a197146103e8578063a1fca2b614610404576101b7565b80635f402f90146103155780635fdf05d71461033e5780637fef036e14610369576101b7565b80634486695511610195578063448669551461025257806345caa1171461027d5780634ba2363a146102a85780634d3c3a41146102d3576101b7565b8063072ea61c146101bc57806334ff5644146101e7578063443e4a3914610229575b600080fd5b3480156101c857600080fd5b506101d16106d1565b6040516101de9190611bb2565b60405180910390f35b3480156101f357600080fd5b5061020e60048036038101906102099190611c5c565b6106d7565b60405161022096959493929190611cab565b60405180910390f35b34801561023557600080fd5b50610250600480360381019061024b9190611d0c565b610750565b005b34801561025e57600080fd5b506102676107db565b6040516102749190611bb2565b60405180910390f35b34801561028957600080fd5b506102926107e1565b60405161029f9190611bb2565b60405180910390f35b3480156102b457600080fd5b506102bd6107e7565b6040516102ca9190611bb2565b60405180910390f35b3480156102df57600080fd5b506102fa60048036038101906102f59190611d0c565b6107ed565b60405161030c96959493929190611cab565b60405180910390f35b34801561032157600080fd5b5061033c60048036038101906103379190611d4c565b610866565b005b34801561034a57600080fd5b50610353610a7b565b6040516103609190611bb2565b60405180910390f35b34801561037557600080fd5b5061037e610a81565b60405161038b9190611bb2565b60405180910390f35b3480156103a057600080fd5b506103a9610a87565b6040516103b69190611bb2565b60405180910390f35b3480156103cb57600080fd5b506103e660048036038101906103e19190611d0c565b610a8d565b005b61040260048036038101906103fd9190611e2b565b610b10565b005b34801561041057600080fd5b50610419610e5e565b6040516104269190611bb2565b60405180910390f35b34801561043b57600080fd5b50610444610e64565b6040516104519190611bb2565b60405180910390f35b34801561046657600080fd5b5061046f610e6a565b60405161047c9190611bb2565b60405180910390f35b34801561049157600080fd5b5061049a610e70565b6040516104a79190611bb2565b60405180910390f35b3480156104bc57600080fd5b506104c5610e76565b6040516104d29190611bb2565b60405180910390f35b3480156104e757600080fd5b506104f0610e7c565b6040516104fd9190611bb2565b60405180910390f35b34801561051257600080fd5b5061051b610e82565b6040516105289190611bb2565b60405180910390f35b34801561053d57600080fd5b50610546610e88565b6040516105539190611bb2565b60405180910390f35b34801561056857600080fd5b50610583600480360381019061057e9190611d0c565b610e8e565b6040516105909190611e92565b60405180910390f35b3480156105a557600080fd5b506105c060048036038101906105bb9190611d0c565b610edc565b6040516105cd9190611e92565b60405180910390f35b3480156105e257600080fd5b506105fd60048036038101906105f89190611ead565b610f2a565b60405161060a9190611e92565b60405180910390f35b34801561061f57600080fd5b50610628610f69565b6040516106359190611e92565b60405180910390f35b34801561064a57600080fd5b50610653610f8d565b6040516106609190611bb2565b60405180910390f35b34801561067557600080fd5b50610690600480360381019061068b9190611eda565b610f93565b60405161069d9190611bb2565b60405180910390f35b3480156106b257600080fd5b506106bb610fab565b6040516106c89190611bb2565b60405180910390f35b60015481565b601460205281600052604060002081815481106106f357600080fd5b9060005260206000209060060201600091509150508060000160009054906101000a900473ffffffffffffffffffffffffffffffffffffffff16908060010154908060020154908060030154908060040154908060050154905086565b60008054906101000a900473ffffffffffffffffffffffffffffffffffffffff1673ffffffffffffffffffffffffffffffffffffffff163373ffffffffffffffffffffffffffffffffffffffff16146107a857600080fd5b6011544210156107b757600080fd5b8160098190555080600a819055506107cf6000610fb1565b6107d76115c5565b5050565b60095481565b60055481565b600d5481565b6016602052816000526040600020818154811061080957600080fd5b9060005260206000209060060201600091509150508060000160009054906101000a900473ffffffffffffffffffffffffffffffffffffffff16908060010154908060020154908060030154908060040154908060050154905086565b6000610870611a6d565b905060008160000160089054906101000a900460ff1615905060008260000160009054906101000a900467ffffffffffffffff1690506000808267ffffffffffffffff161480156108be5750825b9050600060018367ffffffffffffffff161480156108f3575060003073ffffffffffffffffffffffffffffffffffffffff163b145b905081158015610901575080155b15610938576040517ff92ee8a900000000000000000000000000000000000000000000000000000000815260040160405180910390fd5b60018560000160006101000a81548167ffffffffffffffff021916908367ffffffffffffffff16021790555083156109885760018560000160086101000a81548160ff0219169083151502179055505b336000806101000a81548173ffffffffffffffffffffffffffffffffffffffff021916908373ffffffffffffffffffffffffffffffffffffffff1602179055508e6001819055508d6002819055508c6003819055508b6004819055508a6005819055508960068190555088600e8190555087600f8190555086601081905550856011819055508315610a6a5760008560000160086101000a81548160ff0219169083151502179055507fc7f505b2f371ae2175ee4913f4499e1f2633a7b5936321eed1cdaeb6115181d26001604051610a619190611f60565b60405180910390a15b505050505050505050505050505050565b60045481565b600c5481565b60035481565b60008054906101000a900473ffffffffffffffffffffffffffffffffffffffff1673ffffffffffffffffffffffffffffffffffffffff163373ffffffffffffffffffffffffffffffffffffffff1614610ae557600080fd5b601054421015610af457600080fd5b8160078190555080600881905550610b0c6001610fb1565b5050565b6001543414610b54576040517f08c379a0000000000000000000000000000000000000000000000000000000008152600401610b4b90611fd8565b60405180910390fd5b600e54421015610b99576040517f08c379a0000000000000000000000000000000000000000000000000000000008152600401610b909061206a565b60405180910390fd5b600f54421115610bde576040517f08c379a0000000000000000000000000000000000000000000000000000000008152600401610bd5906120d6565b60405180910390fd5b600254601360003373ffffffffffffffffffffffffffffffffffffffff1673ffffffffffffffffffffffffffffffffffffffff1681526020019081526020016000205410610c61576040517f08c379a0000000000000000000000000000000000000000000000000000000008152600401610c5890612168565b60405180910390fd5b6012339080600181540180825580915050600190039060005260206000200160009091909190916101000a81548173ffffffffffffffffffffffffffffffffffffffff021916908373ffffffffffffffffffffffffffffffffffffffff160217905550601360003373ffffffffffffffffffffffffffffffffffffffff1673ffffffffffffffffffffffffffffffffffffffff1681526020019081526020016000206000815480929190610d14906121b7565b9190505550601460003373ffffffffffffffffffffffffffffffffffffffff1673ffffffffffffffffffffffffffffffffffffffff1681526020019081526020016000206040518060c001604052803373ffffffffffffffffffffffffffffffffffffffff1681526020018681526020018581526020018481526020018381526020016000815250908060018154018082558091505060019003906000526020600020906006020160009091909190915060008201518160000160006101000a81548173ffffffffffffffffffffffffffffffffffffffff021916908373ffffffffffffffffffffffffffffffffffffffff1602179055506020820151816001015560408201518160020155606082015181600301556080820151816004015560a082015181600501555050600c6000815480929190610e53906121b7565b919050555050505050565b60065481565b600e5481565b600f5481565b60085481565b600a5481565b60105481565b600b5481565b60115481565b60176020528160005260406000208181548110610eaa57600080fd5b906000526020600020016000915091509054906101000a900473ffffffffffffffffffffffffffffffffffffffff1681565b60156020528160005260406000208181548110610ef857600080fd5b906000526020600020016000915091509054906101000a900473ffffffffffffffffffffffffffffffffffffffff1681565b60128181548110610f3a57600080fd5b906000526020600020016000915054906101000a900473ffffffffffffffffffffffffffffffffffffffff1681565b60008054906101000a900473ffffffffffffffffffffffffffffffffffffffff1681565b60025481565b60136020528060005260406000206000915090505481565b60075481565b60008060005b6012805490508110156115bf5760128181548110610fd857610fd76121ff565b5b9060005260206000200160009054906101000a900473ffffffffffffffffffffffffffffffffffffffff16925060005b601360008573ffffffffffffffffffffffffffffffffffffffff1673ffffffffffffffffffffffffffffffffffffffff168152602001908152602001600020548110156115ab57601460008573ffffffffffffffffffffffffffffffffffffffff1673ffffffffffffffffffffffffffffffffffffffff16815260200190815260200160002081815481106110a05761109f6121ff565b5b9060005260206000209060060201925084156111cb5760075483600101540361113e576003601460008673ffffffffffffffffffffffffffffffffffffffff1673ffffffffffffffffffffffffffffffffffffffff1681526020019081526020016000208281548110611116576111156121ff565b5b90600052602060002090600602016005016000828254611136919061222e565b925050819055505b6008548360020154036111c6576003601460008673ffffffffffffffffffffffffffffffffffffffff1673ffffffffffffffffffffffffffffffffffffffff168152602001908152602001600020828154811061119e5761119d6121ff565b5b906000526020600020906006020160050160008282546111be919061222e565b925050819055505b611598565b600954836003015403611253576006601460008673ffffffffffffffffffffffffffffffffffffffff1673ffffffffffffffffffffffffffffffffffffffff168152602001908152602001600020828154811061122b5761122a6121ff565b5b9060005260206000209060060201600501600082825461124b919061222e565b925050819055505b600b54601460008673ffffffffffffffffffffffffffffffffffffffff1673ffffffffffffffffffffffffffffffffffffffff16815260200190815260200160002082815481106112a7576112a66121ff565b5b906000526020600020906006020160050154111561132957601460008573ffffffffffffffffffffffffffffffffffffffff1673ffffffffffffffffffffffffffffffffffffffff16815260200190815260200160002081815481106113105761130f6121ff565b5b906000526020600020906006020160050154600b819055505b60156000601460008773ffffffffffffffffffffffffffffffffffffffff1673ffffffffffffffffffffffffffffffffffffffff168152602001908152602001600020838154811061137e5761137d6121ff565b5b9060005260206000209060060201600501548152602001908152602001600020849080600181540180825580915050600190039060005260206000200160009091909190916101000a81548173ffffffffffffffffffffffffffffffffffffffff021916908373ffffffffffffffffffffffffffffffffffffffff16021790555060166000601460008773ffffffffffffffffffffffffffffffffffffffff1673ffffffffffffffffffffffffffffffffffffffff1681526020019081526020016000208381548110611454576114536121ff565b5b9060005260206000209060060201600501548152602001908152602001600020601460008673ffffffffffffffffffffffffffffffffffffffff1673ffffffffffffffffffffffffffffffffffffffff16815260200190815260200160002082815481106114c5576114c46121ff565b5b906000526020600020906006020190806001815401808255809150506001900390600052602060002090600602016000909190919091506000820160009054906101000a900473ffffffffffffffffffffffffffffffffffffffff168160000160006101000a81548173ffffffffffffffffffffffffffffffffffffffff021916908373ffffffffffffffffffffffffffffffffffffffff160217905550600182015481600101556002820154816002015560038201548160030155600482015481600401556005820154816005015550505b80806115a3906121b7565b915050611008565b5080806115b7906121b7565b915050610fb7565b50505050565b47600d819055506000806000600160156000600b54815260200190815260200160002080549050036116e05761164e60156000600b54815260200190815260200160002060008154811061161c5761161b6121ff565b5b9060005260206000200160009054906101000a900473ffffffffffffffffffffffffffffffffffffffff166001611a95565b7f9c2270628a9b29d30ae96b6c4c14ed646ee134febdce38a5b77f2bde9cea2e2060156000600b548152602001908152602001600020600081548110611697576116966121ff565b5b9060005260206000200160009054906101000a900473ffffffffffffffffffffffffffffffffffffffff16600b546040516116d3929190612262565b60405180910390a1611a68565b60005b60156000600b5481526020019081526020016000208054905081101561183e5760166000600b548152602001908152602001600020818154811061172a576117296121ff565b5b90600052602060002090600602019150600a548260040154111561176157600a54826004015461175a919061228b565b9250611776565b8160040154600a54611773919061228b565b92505b6000810361178657829350611793565b83831015611792578293505b5b601760008481526020019081526020016000208260000160009054906101000a900473ffffffffffffffffffffffffffffffffffffffff169080600181540180825580915050600190039060005260206000200160009091909190916101000a81548173ffffffffffffffffffffffffffffffffffffffff021916908373ffffffffffffffffffffffffffffffffffffffff1602179055508080611836906121b7565b9150506116e3565b506001601760008581526020019081526020016000208054905003611948576118b860176000858152602001908152602001600020600081548110611886576118856121ff565b5b9060005260206000200160009054906101000a900473ffffffffffffffffffffffffffffffffffffffff166001611a95565b7f9c2270628a9b29d30ae96b6c4c14ed646ee134febdce38a5b77f2bde9cea2e20601760008581526020019081526020016000206000815481106118ff576118fe6121ff565b5b9060005260206000200160009054906101000a900473ffffffffffffffffffffffffffffffffffffffff16600b5460405161193b929190612262565b60405180910390a1611a67565b60006017600085815260200190815260200160002080549050905060005b81811015611a64576119c7601760008781526020019081526020016000208281548110611996576119956121ff565b5b9060005260206000200160009054906101000a900473ffffffffffffffffffffffffffffffffffffffff1683611a95565b7f9c2270628a9b29d30ae96b6c4c14ed646ee134febdce38a5b77f2bde9cea2e20601760008781526020019081526020016000208281548110611a0d57611a0c6121ff565b5b9060005260206000200160009054906101000a900473ffffffffffffffffffffffffffffffffffffffff16600b54604051611a49929190612262565b60405180910390a18080611a5c906121b7565b915050611966565b50505b5b505050565b60007ff0c57e16840df040f15088dc2f81fe391c3923bec73e23a9662efc9c229c6a00905090565b600081600d54611aa591906122ee565b905060008373ffffffffffffffffffffffffffffffffffffffff1682604051611acd90612350565b60006040518083038185875af1925050503d8060008114611b0a576040519150601f19603f3d011682016040523d82523d6000602084013e611b0f565b606091505b5050905080611b53576040517f08c379a0000000000000000000000000000000000000000000000000000000008152600401611b4a906123b1565b60405180910390fd5b7f31f01f46758b6b42c15b03a08187ad5b638ba4231ca58df20b00c5d53c2e1ac484836001861186604051611b8b94939291906123ec565b60405180910390a150505050565b6000819050919050565b611bac81611b99565b82525050565b6000602082019050611bc76000830184611ba3565b92915050565b600080fd5b600073ffffffffffffffffffffffffffffffffffffffff82169050919050565b6000611bfd82611bd2565b9050919050565b611c0d81611bf2565b8114611c1857600080fd5b50565b600081359050611c2a81611c04565b92915050565b611c3981611b99565b8114611c4457600080fd5b50565b600081359050611c5681611c30565b92915050565b60008060408385031215611c7357611c72611bcd565b5b6000611c8185828601611c1b565b9250506020611c9285828601611c47565b9150509250929050565b611ca581611bf2565b82525050565b600060c082019050611cc06000830189611c9c565b611ccd6020830188611ba3565b611cda6040830187611ba3565b611ce76060830186611ba3565b611cf46080830185611ba3565b611d0160a0830184611ba3565b979650505050505050565b60008060408385031215611d2357611d22611bcd565b5b6000611d3185828601611c47565b9250506020611d4285828601611c47565b9150509250929050565b6000806000806000806000806000806101408b8d031215611d7057611d6f611bcd565b5b6000611d7e8d828e01611c47565b9a50506020611d8f8d828e01611c47565b9950506040611da08d828e01611c47565b9850506060611db18d828e01611c47565b9750506080611dc28d828e01611c47565b96505060a0611dd38d828e01611c47565b95505060c0611de48d828e01611c47565b94505060e0611df58d828e01611c47565b935050610100611e078d828e01611c47565b925050610120611e198d828e01611c47565b9150509295989b9194979a5092959850565b60008060008060808587031215611e4557611e44611bcd565b5b6000611e5387828801611c47565b9450506020611e6487828801611c47565b9350506040611e7587828801611c47565b9250506060611e8687828801611c47565b91505092959194509250565b6000602082019050611ea76000830184611c9c565b92915050565b600060208284031215611ec357611ec2611bcd565b5b6000611ed184828501611c47565b91505092915050565b600060208284031215611ef057611eef611bcd565b5b6000611efe84828501611c1b565b91505092915050565b6000819050919050565b600067ffffffffffffffff82169050919050565b6000819050919050565b6000611f4a611f45611f4084611f07565b611f25565b611f11565b9050919050565b611f5a81611f2f565b82525050565b6000602082019050611f756000830184611f51565b92915050565b600082825260208201905092915050565b7f496e636f727265637420656e747279206665652e000000000000000000000000600082015250565b6000611fc2601483611f7b565b9150611fcd82611f8c565b602082019050919050565b60006020820190508181036000830152611ff181611fb5565b9050919050565b7f4346502073656c656374696f6e732068617665206e6f74206265656e2066696e60008201527f616c697a65642e00000000000000000000000000000000000000000000000000602082015250565b6000612054602783611f7b565b915061205f82611ff8565b604082019050919050565b6000602082019050818103600083015261208381612047565b9050919050565b7f456e74727920706572696f642068617320636c6f7365642e0000000000000000600082015250565b60006120c0601883611f7b565b91506120cb8261208a565b602082019050919050565b600060208201905081810360008301526120ef816120b3565b9050919050565b7f416c72656164792068617665206d617820616d6f756e74206f6620656e74726960008201527f65732e0000000000000000000000000000000000000000000000000000000000602082015250565b6000612152602383611f7b565b915061215d826120f6565b604082019050919050565b6000602082019050818103600083015261218181612145565b9050919050565b7f4e487b7100000000000000000000000000000000000000000000000000000000600052601160045260246000fd5b60006121c282611b99565b91507fffffffffffffffffffffffffffffffffffffffffffffffffffffffffffffffff82036121f4576121f3612188565b5b600182019050919050565b7f4e487b7100000000000000000000000000000000000000000000000000000000600052603260045260246000fd5b600061223982611b99565b915061224483611b99565b925082820190508082111561225c5761225b612188565b5b92915050565b60006040820190506122776000830185611c9c565b6122846020830184611ba3565b9392505050565b600061229682611b99565b91506122a183611b99565b92508282039050818111156122b9576122b8612188565b5b92915050565b7f4e487b7100000000000000000000000000000000000000000000000000000000600052601260045260246000fd5b60006122f982611b99565b915061230483611b99565b925082612314576123136122bf565b5b828204905092915050565b600081905092915050565b50565b600061233a60008361231f565b91506123458261232a565b600082019050919050565b600061235b8261232d565b9150819050919050565b7f4661696c656420746f2073656e642077696e6e696e67732e0000000000000000600082015250565b600061239b601883611f7b565b91506123a682612365565b602082019050919050565b600060208201905081810360008301526123ca8161238e565b9050919050565b60008115159050919050565b6123e6816123d1565b82525050565b60006080820190506124016000830187611c9c565b61240e6020830186611ba3565b61241b60408301856123dd565b6124286060830184611ba3565b9594505050505056fea2646970667358221220ef460e746912d370768b6d2b6e3e8c0f59ab224aad7a407045a646f66e30e2a364736f6c63430008140033",
  "linkReferences": {},
  "deployedLinkReferences": {}
}