{
  "_format": "hh-sol-artifact-1",
  "contractName": "PlayoffPoolV1",
  "sourceName": "contracts/PlayoffPoolV1.sol",
  "abi": [
    {
      "inputs": [],
      "name": "InvalidInitialization",
      "type": "error"
    },
    {
      "inputs": [],
      "name": "NotInitializing",
      "type": "error"
    },
    {
      "anonymous": false,
      "inputs": [
        {
          "indexed": false,
          "internalType": "uint64",
          "name": "version",
          "type": "uint64"
        }
      ],
      "name": "Initialized",
      "type": "event"
    },
    {
      "anonymous": false,
      "inputs": [
        {
          "indexed": false,
          "internalType": "uint256",
          "name": "",
          "type": "uint256"
        },
        {
          "indexed": false,
          "internalType": "uint256",
          "name": "",
          "type": "uint256"
        }
      ],
      "name": "ScoredSemis",
      "type": "event"
    },
    {
      "anonymous": false,
      "inputs": [
        {
          "indexed": false,
          "internalType": "address",
          "name": "",
          "type": "address"
        },
        {
          "indexed": false,
          "internalType": "uint256",
          "name": "",
          "type": "uint256"
        }
      ],
      "name": "Winner",
      "type": "event"
    },
    {
      "anonymous": false,
      "inputs": [
        {
          "indexed": false,
          "internalType": "address",
          "name": "",
          "type": "address"
        },
        {
          "indexed": false,
          "internalType": "uint256",
          "name": "",
          "type": "uint256"
        },
        {
          "indexed": false,
          "internalType": "bool",
          "name": "",
          "type": "bool"
        },
        {
          "indexed": false,
          "internalType": "uint256",
          "name": "",
          "type": "uint256"
        }
      ],
      "name": "WinnerPaid",
      "type": "event"
    },
    {
      "inputs": [
        {
          "internalType": "uint256",
          "name": "",
          "type": "uint256"
        }
      ],
      "name": "allBrackets",
      "outputs": [
        {
          "internalType": "address",
          "name": "owner",
          "type": "address"
        },
        {
          "internalType": "uint256",
          "name": "semifinalOneWinner",
          "type": "uint256"
        },
        {
          "internalType": "uint256",
          "name": "semifinalTwoWinner",
          "type": "uint256"
        },
        {
          "internalType": "uint256",
          "name": "champion",
          "type": "uint256"
        },
        {
          "internalType": "uint256",
          "name": "championshipTotalPoints",
          "type": "uint256"
        },
        {
          "internalType": "uint256",
          "name": "bracketPoints",
          "type": "uint256"
        }
      ],
      "stateMutability": "view",
      "type": "function"
    },
    {
      "inputs": [
        {
          "internalType": "address",
          "name": "",
          "type": "address"
        },
        {
          "internalType": "uint256",
          "name": "",
          "type": "uint256"
        }
      ],
      "name": "brackets",
      "outputs": [
        {
          "internalType": "address",
          "name": "owner",
          "type": "address"
        },
        {
          "internalType": "uint256",
          "name": "semifinalOneWinner",
          "type": "uint256"
        },
        {
          "internalType": "uint256",
          "name": "semifinalTwoWinner",
          "type": "uint256"
        },
        {
          "internalType": "uint256",
          "name": "champion",
          "type": "uint256"
        },
        {
          "internalType": "uint256",
          "name": "championshipTotalPoints",
          "type": "uint256"
        },
        {
          "internalType": "uint256",
          "name": "bracketPoints",
          "type": "uint256"
        }
      ],
      "stateMutability": "view",
      "type": "function"
    },
    {
      "inputs": [],
      "name": "champComplete",
      "outputs": [
        {
          "internalType": "uint256",
          "name": "",
          "type": "uint256"
        }
      ],
      "stateMutability": "view",
      "type": "function"
    },
    {
      "inputs": [],
      "name": "champion",
      "outputs": [
        {
          "internalType": "uint256",
          "name": "",
          "type": "uint256"
        }
      ],
      "stateMutability": "view",
      "type": "function"
    },
    {
      "inputs": [],
      "name": "championshipTotalPoints",
      "outputs": [
        {
          "internalType": "uint256",
          "name": "",
          "type": "uint256"
        }
      ],
      "stateMutability": "view",
      "type": "function"
    },
    {
      "inputs": [],
      "name": "commissioner",
      "outputs": [
        {
          "internalType": "address",
          "name": "",
          "type": "address"
        }
      ],
      "stateMutability": "view",
      "type": "function"
    },
    {
      "inputs": [
        {
          "internalType": "uint256",
          "name": "",
          "type": "uint256"
        },
        {
          "internalType": "uint256",
          "name": "",
          "type": "uint256"
        }
      ],
      "name": "differences",
      "outputs": [
        {
          "internalType": "address",
          "name": "",
          "type": "address"
        }
      ],
      "stateMutability": "view",
      "type": "function"
    },
    {
      "inputs": [
        {
          "internalType": "uint256",
          "name": "",
          "type": "uint256"
        }
      ],
      "name": "entrants",
      "outputs": [
        {
          "internalType": "address",
          "name": "",
          "type": "address"
        }
      ],
      "stateMutability": "view",
      "type": "function"
    },
    {
      "inputs": [
        {
          "internalType": "address",
          "name": "",
          "type": "address"
        }
      ],
      "name": "entries",
      "outputs": [
        {
          "internalType": "uint256",
          "name": "",
          "type": "uint256"
        }
      ],
      "stateMutability": "view",
      "type": "function"
    },
    {
      "inputs": [],
      "name": "entryFee",
      "outputs": [
        {
          "internalType": "uint256",
          "name": "",
          "type": "uint256"
        }
      ],
      "stateMutability": "view",
      "type": "function"
    },
    {
      "inputs": [],
      "name": "four",
      "outputs": [
        {
          "internalType": "uint256",
          "name": "",
          "type": "uint256"
        }
      ],
      "stateMutability": "view",
      "type": "function"
    },
    {
      "inputs": [],
      "name": "getAllEntries",
      "outputs": [
        {
          "components": [
            {
              "internalType": "address",
              "name": "owner",
              "type": "address"
            },
            {
              "internalType": "uint256",
              "name": "semifinalOneWinner",
              "type": "uint256"
            },
            {
              "internalType": "uint256",
              "name": "semifinalTwoWinner",
              "type": "uint256"
            },
            {
              "internalType": "uint256",
              "name": "champion",
              "type": "uint256"
            },
            {
              "internalType": "uint256",
              "name": "championshipTotalPoints",
              "type": "uint256"
            },
            {
              "internalType": "uint256",
              "name": "bracketPoints",
              "type": "uint256"
            }
          ],
          "internalType": "struct PlayoffPoolV1.Bracket[]",
          "name": "",
          "type": "tuple[]"
        }
      ],
      "stateMutability": "view",
      "type": "function"
    },
    {
      "inputs": [
        {
          "internalType": "uint256",
          "name": "_entryFee",
          "type": "uint256"
        },
        {
          "internalType": "uint256",
          "name": "_maxEntries",
          "type": "uint256"
        },
        {
          "internalType": "uint256",
          "name": "_one",
          "type": "uint256"
        },
        {
          "internalType": "uint256",
          "name": "_two",
          "type": "uint256"
        },
        {
          "internalType": "uint256",
          "name": "_three",
          "type": "uint256"
        },
        {
          "internalType": "uint256",
          "name": "_four",
          "type": "uint256"
        },
        {
          "internalType": "uint256",
          "name": "_unlockTimestamp",
          "type": "uint256"
        },
        {
          "internalType": "uint256",
          "name": "_lockTimestamp",
          "type": "uint256"
        },
        {
          "internalType": "uint256",
          "name": "_semisComplete",
          "type": "uint256"
        },
        {
          "internalType": "uint256",
          "name": "_champComplete",
          "type": "uint256"
        }
      ],
      "name": "initialize",
      "outputs": [],
      "stateMutability": "nonpayable",
      "type": "function"
    },
    {
      "inputs": [
        {
          "internalType": "uint256",
          "name": "_semifinalOneWinner",
          "type": "uint256"
        },
        {
          "internalType": "uint256",
          "name": "_semifinalTwoWinner",
          "type": "uint256"
        },
        {
          "internalType": "uint256",
          "name": "_champion",
          "type": "uint256"
        },
        {
          "internalType": "uint256",
          "name": "_championshipTotalPoints",
          "type": "uint256"
        }
      ],
      "name": "joinPool",
      "outputs": [],
      "stateMutability": "payable",
      "type": "function"
    },
    {
      "inputs": [],
      "name": "lockTimestamp",
      "outputs": [
        {
          "internalType": "uint256",
          "name": "",
          "type": "uint256"
        }
      ],
      "stateMutability": "view",
      "type": "function"
    },
    {
      "inputs": [],
      "name": "maxEntries",
      "outputs": [
        {
          "internalType": "uint256",
          "name": "",
          "type": "uint256"
        }
      ],
      "stateMutability": "view",
      "type": "function"
    },
    {
      "inputs": [],
      "name": "mostPoints",
      "outputs": [
        {
          "internalType": "uint256",
          "name": "",
          "type": "uint256"
        }
      ],
      "stateMutability": "view",
      "type": "function"
    },
    {
      "inputs": [],
      "name": "one",
      "outputs": [
        {
          "internalType": "uint256",
          "name": "",
          "type": "uint256"
        }
      ],
      "stateMutability": "view",
      "type": "function"
    },
    {
      "inputs": [
        {
          "internalType": "uint256",
          "name": "",
          "type": "uint256"
        },
        {
          "internalType": "uint256",
          "name": "",
          "type": "uint256"
        }
      ],
      "name": "points",
      "outputs": [
        {
          "internalType": "address",
          "name": "",
          "type": "address"
        }
      ],
      "stateMutability": "view",
      "type": "function"
    },
    {
      "inputs": [],
      "name": "pot",
      "outputs": [
        {
          "internalType": "uint256",
          "name": "",
          "type": "uint256"
        }
      ],
      "stateMutability": "view",
      "type": "function"
    },
    {
      "inputs": [
        {
          "internalType": "uint256",
          "name": "_champion",
          "type": "uint256"
        },
        {
          "internalType": "uint256",
          "name": "_championshipTotalPoints",
          "type": "uint256"
        }
      ],
      "name": "scoreFinal",
      "outputs": [],
      "stateMutability": "nonpayable",
      "type": "function"
    },
    {
      "inputs": [
        {
          "internalType": "uint256",
          "name": "_semifinalOneWinner",
          "type": "uint256"
        },
        {
          "internalType": "uint256",
          "name": "_semifinalTwoWinner",
          "type": "uint256"
        }
      ],
      "name": "scoreSemifinal",
      "outputs": [],
      "stateMutability": "nonpayable",
      "type": "function"
    },
    {
      "inputs": [
        {
          "internalType": "uint256",
          "name": "",
          "type": "uint256"
        }
      ],
      "name": "scoredAfterChamp",
      "outputs": [
        {
          "internalType": "address",
          "name": "owner",
          "type": "address"
        },
        {
          "internalType": "uint256",
          "name": "semifinalOneWinner",
          "type": "uint256"
        },
        {
          "internalType": "uint256",
          "name": "semifinalTwoWinner",
          "type": "uint256"
        },
        {
          "internalType": "uint256",
          "name": "champion",
          "type": "uint256"
        },
        {
          "internalType": "uint256",
          "name": "championshipTotalPoints",
          "type": "uint256"
        },
        {
          "internalType": "uint256",
          "name": "bracketPoints",
          "type": "uint256"
        }
      ],
      "stateMutability": "view",
      "type": "function"
    },
    {
      "inputs": [
        {
          "internalType": "uint256",
          "name": "",
          "type": "uint256"
        }
      ],
      "name": "scoredAfterSemis",
      "outputs": [
        {
          "internalType": "address",
          "name": "owner",
          "type": "address"
        },
        {
          "internalType": "uint256",
          "name": "semifinalOneWinner",
          "type": "uint256"
        },
        {
          "internalType": "uint256",
          "name": "semifinalTwoWinner",
          "type": "uint256"
        },
        {
          "internalType": "uint256",
          "name": "champion",
          "type": "uint256"
        },
        {
          "internalType": "uint256",
          "name": "championshipTotalPoints",
          "type": "uint256"
        },
        {
          "internalType": "uint256",
          "name": "bracketPoints",
          "type": "uint256"
        }
      ],
      "stateMutability": "view",
      "type": "function"
    },
    {
      "inputs": [
        {
          "internalType": "uint256",
          "name": "",
          "type": "uint256"
        },
        {
          "internalType": "uint256",
          "name": "",
          "type": "uint256"
        }
      ],
      "name": "scoredBrackets",
      "outputs": [
        {
          "internalType": "address",
          "name": "owner",
          "type": "address"
        },
        {
          "internalType": "uint256",
          "name": "semifinalOneWinner",
          "type": "uint256"
        },
        {
          "internalType": "uint256",
          "name": "semifinalTwoWinner",
          "type": "uint256"
        },
        {
          "internalType": "uint256",
          "name": "champion",
          "type": "uint256"
        },
        {
          "internalType": "uint256",
          "name": "championshipTotalPoints",
          "type": "uint256"
        },
        {
          "internalType": "uint256",
          "name": "bracketPoints",
          "type": "uint256"
        }
      ],
      "stateMutability": "view",
      "type": "function"
    },
    {
      "inputs": [],
      "name": "semifinalOneWinner",
      "outputs": [
        {
          "internalType": "uint256",
          "name": "",
          "type": "uint256"
        }
      ],
      "stateMutability": "view",
      "type": "function"
    },
    {
      "inputs": [],
      "name": "semifinalTwoWinner",
      "outputs": [
        {
          "internalType": "uint256",
          "name": "",
          "type": "uint256"
        }
      ],
      "stateMutability": "view",
      "type": "function"
    },
    {
      "inputs": [],
      "name": "semisComplete",
      "outputs": [
        {
          "internalType": "uint256",
          "name": "",
          "type": "uint256"
        }
      ],
      "stateMutability": "view",
      "type": "function"
    },
    {
      "inputs": [],
      "name": "three",
      "outputs": [
        {
          "internalType": "uint256",
          "name": "",
          "type": "uint256"
        }
      ],
      "stateMutability": "view",
      "type": "function"
    },
    {
      "inputs": [],
      "name": "totalEntries",
      "outputs": [
        {
          "internalType": "uint256",
          "name": "",
          "type": "uint256"
        }
      ],
      "stateMutability": "view",
      "type": "function"
    },
    {
      "inputs": [],
      "name": "two",
      "outputs": [
        {
          "internalType": "uint256",
          "name": "",
          "type": "uint256"
        }
      ],
      "stateMutability": "view",
      "type": "function"
    },
    {
      "inputs": [],
      "name": "unlockTimestamp",
      "outputs": [
        {
          "internalType": "uint256",
          "name": "",
          "type": "uint256"
        }
      ],
      "stateMutability": "view",
      "type": "function"
    }
  ],
  "bytecode": "0x608060405234801561001057600080fd5b50612e1f806100206000396000f3fe6080604052600436106101e35760003560e01c8063aa082a9d11610102578063d60dac3d11610095578063f189449811610064578063f189449814610730578063f23f3ba51461075b578063f29ee12514610786578063ffe81da8146107c3576101e3565b8063d60dac3d1461064e578063dd917b2914610679578063e3cdda39146106b6578063e7b4e5ab146106f3576101e3565b8063c37996f1116100d1578063c37996f114610574578063cc789085146105b6578063cf065419146105e1578063cf92a0c71461060c576101e3565b8063aa082a9d146104c8578063b544bf83146104f3578063b7ce8a991461051e578063be6b333714610549576101e3565b80634d3c3a411161017a578063901717d111610149578063901717d11461042d578063931e55aa1461045857806398f6a19714610481578063a1fca2b61461049d576101e3565b80634d3c3a411461036c5780635f402f90146103ae5780635fdf05d7146103d75780637fef036e14610402576101e3565b806344866955116101b657806344866955146102c057806345caa117146102eb5780634a0364e8146103165780634ba2363a14610341576101e3565b8063072ea61c146101e857806334ff5644146102135780633bca800f14610255578063443e4a3914610297575b600080fd5b3480156101f457600080fd5b506101fd6107ee565b60405161020a91906123a8565b60405180910390f35b34801561021f57600080fd5b5061023a60048036038101906102359190612452565b6107f4565b60405161024c969594939291906124a1565b60405180910390f35b34801561026157600080fd5b5061027c60048036038101906102779190612502565b61086d565b60405161028e969594939291906124a1565b60405180910390f35b3480156102a357600080fd5b506102be60048036038101906102b9919061252f565b6108d9565b005b3480156102cc57600080fd5b506102d5610964565b6040516102e291906123a8565b60405180910390f35b3480156102f757600080fd5b5061030061096a565b60405161030d91906123a8565b60405180910390f35b34801561032257600080fd5b5061032b610970565b60405161033891906126b7565b60405180910390f35b34801561034d57600080fd5b50610356610b00565b60405161036391906123a8565b60405180910390f35b34801561037857600080fd5b50610393600480360381019061038e919061252f565b610b06565b6040516103a5969594939291906124a1565b60405180910390f35b3480156103ba57600080fd5b506103d560048036038101906103d091906126d9565b610b7f565b005b3480156103e357600080fd5b506103ec610d94565b6040516103f991906123a8565b60405180910390f35b34801561040e57600080fd5b50610417610d9a565b60405161042491906123a8565b60405180910390f35b34801561043957600080fd5b50610442610da0565b60405161044f91906123a8565b60405180910390f35b34801561046457600080fd5b5061047f600480360381019061047a919061252f565b610da6565b005b61049b600480360381019061049691906127b8565b610e29565b005b3480156104a957600080fd5b506104b26112a9565b6040516104bf91906123a8565b60405180910390f35b3480156104d457600080fd5b506104dd6112af565b6040516104ea91906123a8565b60405180910390f35b3480156104ff57600080fd5b506105086112b5565b60405161051591906123a8565b60405180910390f35b34801561052a57600080fd5b506105336112bb565b60405161054091906123a8565b60405180910390f35b34801561055557600080fd5b5061055e6112c1565b60405161056b91906123a8565b60405180910390f35b34801561058057600080fd5b5061059b60048036038101906105969190612502565b6112c7565b6040516105ad969594939291906124a1565b60405180910390f35b3480156105c257600080fd5b506105cb611333565b6040516105d891906123a8565b60405180910390f35b3480156105ed57600080fd5b506105f6611339565b60405161060391906123a8565b60405180910390f35b34801561061857600080fd5b50610633600480360381019061062e9190612502565b61133f565b604051610645969594939291906124a1565b60405180910390f35b34801561065a57600080fd5b506106636113ab565b60405161067091906123a8565b60405180910390f35b34801561068557600080fd5b506106a0600480360381019061069b919061252f565b6113b1565b6040516106ad919061281f565b60405180910390f35b3480156106c257600080fd5b506106dd60048036038101906106d8919061252f565b6113ff565b6040516106ea919061281f565b60405180910390f35b3480156106ff57600080fd5b5061071a60048036038101906107159190612502565b61144d565b604051610727919061281f565b60405180910390f35b34801561073c57600080fd5b5061074561148c565b604051610752919061281f565b60405180910390f35b34801561076757600080fd5b506107706114b0565b60405161077d91906123a8565b60405180910390f35b34801561079257600080fd5b506107ad60048036038101906107a8919061283a565b6114b6565b6040516107ba91906123a8565b60405180910390f35b3480156107cf57600080fd5b506107d86114ce565b6040516107e591906123a8565b60405180910390f35b60015481565b6017602052816000526040600020818154811061081057600080fd5b9060005260206000209060060201600091509150508060000160009054906101000a900473ffffffffffffffffffffffffffffffffffffffff16908060010154908060020154908060030154908060040154908060050154905086565b6014818154811061087d57600080fd5b90600052602060002090600602016000915090508060000160009054906101000a900473ffffffffffffffffffffffffffffffffffffffff16908060010154908060020154908060030154908060040154908060050154905086565b60008054906101000a900473ffffffffffffffffffffffffffffffffffffffff1673ffffffffffffffffffffffffffffffffffffffff163373ffffffffffffffffffffffffffffffffffffffff161461093157600080fd5b60115442101561094057600080fd5b8160098190555080600a8190555061095860006114d4565b610960611d6f565b5050565b60095481565b60055481565b6060600080601480549050111561098a57601490506109a7565b600060138054905011156109a157601390506109a6565b601290505b5b6000818054905067ffffffffffffffff8111156109c7576109c6612867565b5b604051908082528060200260200182016040528015610a0057816020015b6109ed612343565b8152602001906001900390816109e55790505b50905060005b8280549050811015610af757828181548110610a2557610a24612896565b5b90600052602060002090600602016040518060c00160405290816000820160009054906101000a900473ffffffffffffffffffffffffffffffffffffffff1673ffffffffffffffffffffffffffffffffffffffff1673ffffffffffffffffffffffffffffffffffffffff16815260200160018201548152602001600282015481526020016003820154815260200160048201548152602001600582015481525050828281518110610ad957610ad8612896565b5b60200260200101819052508080610aef906128f4565b915050610a06565b50809250505090565b600d5481565b60196020528160005260406000208181548110610b2257600080fd5b9060005260206000209060060201600091509150508060000160009054906101000a900473ffffffffffffffffffffffffffffffffffffffff16908060010154908060020154908060030154908060040154908060050154905086565b6000610b89612217565b905060008160000160089054906101000a900460ff1615905060008260000160009054906101000a900467ffffffffffffffff1690506000808267ffffffffffffffff16148015610bd75750825b9050600060018367ffffffffffffffff16148015610c0c575060003073ffffffffffffffffffffffffffffffffffffffff163b145b905081158015610c1a575080155b15610c51576040517ff92ee8a900000000000000000000000000000000000000000000000000000000815260040160405180910390fd5b60018560000160006101000a81548167ffffffffffffffff021916908367ffffffffffffffff1602179055508315610ca15760018560000160086101000a81548160ff0219169083151502179055505b336000806101000a81548173ffffffffffffffffffffffffffffffffffffffff021916908373ffffffffffffffffffffffffffffffffffffffff1602179055508e6001819055508d6002819055508c6003819055508b6004819055508a6005819055508960068190555088600e8190555087600f8190555086601081905550856011819055508315610d835760008560000160086101000a81548160ff0219169083151502179055507fc7f505b2f371ae2175ee4913f4499e1f2633a7b5936321eed1cdaeb6115181d26001604051610d7a9190612995565b60405180910390a15b505050505050505050505050505050565b60045481565b600c5481565b60035481565b60008054906101000a900473ffffffffffffffffffffffffffffffffffffffff1673ffffffffffffffffffffffffffffffffffffffff163373ffffffffffffffffffffffffffffffffffffffff1614610dfe57600080fd5b601054421015610e0d57600080fd5b8160078190555080600881905550610e2560016114d4565b5050565b6001543414610e6d576040517f08c379a0000000000000000000000000000000000000000000000000000000008152600401610e6490612a0d565b60405180910390fd5b600e54421015610eb2576040517f08c379a0000000000000000000000000000000000000000000000000000000008152600401610ea990612a9f565b60405180910390fd5b600f54421115610ef7576040517f08c379a0000000000000000000000000000000000000000000000000000000008152600401610eee90612b0b565b60405180910390fd5b600254601660003373ffffffffffffffffffffffffffffffffffffffff1673ffffffffffffffffffffffffffffffffffffffff1681526020019081526020016000205410610f7a576040517f08c379a0000000000000000000000000000000000000000000000000000000008152600401610f7190612b9d565b60405180910390fd5b6000601660003373ffffffffffffffffffffffffffffffffffffffff1673ffffffffffffffffffffffffffffffffffffffff1681526020019081526020016000205411611025576015339080600181540180825580915050600190039060005260206000200160009091909190916101000a81548173ffffffffffffffffffffffffffffffffffffffff021916908373ffffffffffffffffffffffffffffffffffffffff1602179055505b601660003373ffffffffffffffffffffffffffffffffffffffff1673ffffffffffffffffffffffffffffffffffffffff1681526020019081526020016000206000815480929190611075906128f4565b9190505550601760003373ffffffffffffffffffffffffffffffffffffffff1673ffffffffffffffffffffffffffffffffffffffff1681526020019081526020016000206040518060c001604052803373ffffffffffffffffffffffffffffffffffffffff1681526020018681526020018581526020018481526020018381526020016000815250908060018154018082558091505060019003906000526020600020906006020160009091909190915060008201518160000160006101000a81548173ffffffffffffffffffffffffffffffffffffffff021916908373ffffffffffffffffffffffffffffffffffffffff1602179055506020820151816001015560408201518160020155606082015181600301556080820151816004015560a08201518160050155505060126040518060c001604052803373ffffffffffffffffffffffffffffffffffffffff1681526020018681526020018581526020018481526020018381526020016000815250908060018154018082558091505060019003906000526020600020906006020160009091909190915060008201518160000160006101000a81548173ffffffffffffffffffffffffffffffffffffffff021916908373ffffffffffffffffffffffffffffffffffffffff1602179055506020820151816001015560408201518160020155606082015181600301556080820151816004015560a082015181600501555050600c600081548092919061129e906128f4565b919050555050505050565b60065481565b600e5481565b600f5481565b60085481565b600a5481565b601281815481106112d757600080fd5b90600052602060002090600602016000915090508060000160009054906101000a900473ffffffffffffffffffffffffffffffffffffffff16908060010154908060020154908060030154908060040154908060050154905086565b60105481565b600b5481565b6013818154811061134f57600080fd5b90600052602060002090600602016000915090508060000160009054906101000a900473ffffffffffffffffffffffffffffffffffffffff16908060010154908060020154908060030154908060040154908060050154905086565b60115481565b601a60205281600052604060002081815481106113cd57600080fd5b906000526020600020016000915091509054906101000a900473ffffffffffffffffffffffffffffffffffffffff1681565b6018602052816000526040600020818154811061141b57600080fd5b906000526020600020016000915091509054906101000a900473ffffffffffffffffffffffffffffffffffffffff1681565b6015818154811061145d57600080fd5b906000526020600020016000915054906101000a900473ffffffffffffffffffffffffffffffffffffffff1681565b60008054906101000a900473ffffffffffffffffffffffffffffffffffffffff1681565b60025481565b60166020528060005260406000206000915090505481565b60075481565b60008060005b601580549050811015611d6957601581815481106114fb576114fa612896565b5b9060005260206000200160009054906101000a900473ffffffffffffffffffffffffffffffffffffffff16925060005b601660008573ffffffffffffffffffffffffffffffffffffffff1673ffffffffffffffffffffffffffffffffffffffff16815260200190815260200160002054811015611d5557601760008573ffffffffffffffffffffffffffffffffffffffff1673ffffffffffffffffffffffffffffffffffffffff16815260200190815260200160002081815481106115c3576115c2612896565b5b90600052602060002090600602019250841561185057600754836001015403611661576003601760008673ffffffffffffffffffffffffffffffffffffffff1673ffffffffffffffffffffffffffffffffffffffff168152602001908152602001600020828154811061163957611638612896565b5b906000526020600020906006020160050160008282546116599190612bbd565b925050819055505b6008548360020154036116e9576003601760008673ffffffffffffffffffffffffffffffffffffffff1673ffffffffffffffffffffffffffffffffffffffff16815260200190815260200160002082815481106116c1576116c0612896565b5b906000526020600020906006020160050160008282546116e19190612bbd565b925050819055505b6013601760008673ffffffffffffffffffffffffffffffffffffffff1673ffffffffffffffffffffffffffffffffffffffff168152602001908152602001600020828154811061173c5761173b612896565b5b906000526020600020906006020190806001815401808255809150506001900390600052602060002090600602016000909190919091506000820160009054906101000a900473ffffffffffffffffffffffffffffffffffffffff168160000160006101000a81548173ffffffffffffffffffffffffffffffffffffffff021916908373ffffffffffffffffffffffffffffffffffffffff160217905550600182015481600101556002820154816002015560038201548160030155600482015481600401556005820154816005015550507f72b70d4f70717c443c3f728467b5c6595439e31928db630e2892cab279692b2e600754600854604051611843929190612bf1565b60405180910390a1611d42565b6009548360030154036118d8576007601760008673ffffffffffffffffffffffffffffffffffffffff1673ffffffffffffffffffffffffffffffffffffffff16815260200190815260200160002082815481106118b0576118af612896565b5b906000526020600020906006020160050160008282546118d09190612bbd565b925050819055505b600b54601760008673ffffffffffffffffffffffffffffffffffffffff1673ffffffffffffffffffffffffffffffffffffffff168152602001908152602001600020828154811061192c5761192b612896565b5b90600052602060002090600602016005015411156119ae57601760008573ffffffffffffffffffffffffffffffffffffffff1673ffffffffffffffffffffffffffffffffffffffff168152602001908152602001600020818154811061199557611994612896565b5b906000526020600020906006020160050154600b819055505b60186000601760008773ffffffffffffffffffffffffffffffffffffffff1673ffffffffffffffffffffffffffffffffffffffff1681526020019081526020016000208381548110611a0357611a02612896565b5b9060005260206000209060060201600501548152602001908152602001600020849080600181540180825580915050600190039060005260206000200160009091909190916101000a81548173ffffffffffffffffffffffffffffffffffffffff021916908373ffffffffffffffffffffffffffffffffffffffff16021790555060196000601760008773ffffffffffffffffffffffffffffffffffffffff1673ffffffffffffffffffffffffffffffffffffffff1681526020019081526020016000208381548110611ad957611ad8612896565b5b9060005260206000209060060201600501548152602001908152602001600020601760008673ffffffffffffffffffffffffffffffffffffffff1673ffffffffffffffffffffffffffffffffffffffff1681526020019081526020016000208281548110611b4a57611b49612896565b5b906000526020600020906006020190806001815401808255809150506001900390600052602060002090600602016000909190919091506000820160009054906101000a900473ffffffffffffffffffffffffffffffffffffffff168160000160006101000a81548173ffffffffffffffffffffffffffffffffffffffff021916908373ffffffffffffffffffffffffffffffffffffffff160217905550600182015481600101556002820154816002015560038201548160030155600482015481600401556005820154816005015550506014601760008673ffffffffffffffffffffffffffffffffffffffff1673ffffffffffffffffffffffffffffffffffffffff1681526020019081526020016000208281548110611c6f57611c6e612896565b5b906000526020600020906006020190806001815401808255809150506001900390600052602060002090600602016000909190919091506000820160009054906101000a900473ffffffffffffffffffffffffffffffffffffffff168160000160006101000a81548173ffffffffffffffffffffffffffffffffffffffff021916908373ffffffffffffffffffffffffffffffffffffffff160217905550600182015481600101556002820154816002015560038201548160030155600482015481600401556005820154816005015550505b8080611d4d906128f4565b91505061152b565b508080611d61906128f4565b9150506114da565b50505050565b47600d819055506000806000600160186000600b5481526020019081526020016000208054905003611e8a57611df860186000600b548152602001908152602001600020600081548110611dc657611dc5612896565b5b9060005260206000200160009054906101000a900473ffffffffffffffffffffffffffffffffffffffff16600161223f565b7f9c2270628a9b29d30ae96b6c4c14ed646ee134febdce38a5b77f2bde9cea2e2060186000600b548152602001908152602001600020600081548110611e4157611e40612896565b5b9060005260206000200160009054906101000a900473ffffffffffffffffffffffffffffffffffffffff16600b54604051611e7d929190612c1a565b60405180910390a1612212565b60005b60186000600b54815260200190815260200160002080549050811015611fe85760196000600b5481526020019081526020016000208181548110611ed457611ed3612896565b5b90600052602060002090600602019150600a5482600401541115611f0b57600a548260040154611f049190612c43565b9250611f20565b8160040154600a54611f1d9190612c43565b92505b60008103611f3057829350611f3d565b83831015611f3c578293505b5b601a60008481526020019081526020016000208260000160009054906101000a900473ffffffffffffffffffffffffffffffffffffffff169080600181540180825580915050600190039060005260206000200160009091909190916101000a81548173ffffffffffffffffffffffffffffffffffffffff021916908373ffffffffffffffffffffffffffffffffffffffff1602179055508080611fe0906128f4565b915050611e8d565b506001601a600085815260200190815260200160002080549050036120f257612062601a60008581526020019081526020016000206000815481106120305761202f612896565b5b9060005260206000200160009054906101000a900473ffffffffffffffffffffffffffffffffffffffff16600161223f565b7f9c2270628a9b29d30ae96b6c4c14ed646ee134febdce38a5b77f2bde9cea2e20601a60008581526020019081526020016000206000815481106120a9576120a8612896565b5b9060005260206000200160009054906101000a900473ffffffffffffffffffffffffffffffffffffffff16600b546040516120e5929190612c1a565b60405180910390a1612211565b6000601a600085815260200190815260200160002080549050905060005b8181101561220e57612171601a600087815260200190815260200160002082815481106121405761213f612896565b5b9060005260206000200160009054906101000a900473ffffffffffffffffffffffffffffffffffffffff168361223f565b7f9c2270628a9b29d30ae96b6c4c14ed646ee134febdce38a5b77f2bde9cea2e20601a600087815260200190815260200160002082815481106121b7576121b6612896565b5b9060005260206000200160009054906101000a900473ffffffffffffffffffffffffffffffffffffffff16600b546040516121f3929190612c1a565b60405180910390a18080612206906128f4565b915050612110565b50505b5b505050565b60007ff0c57e16840df040f15088dc2f81fe391c3923bec73e23a9662efc9c229c6a00905090565b600081600d5461224f9190612ca6565b905060008373ffffffffffffffffffffffffffffffffffffffff168260405161227790612d08565b60006040518083038185875af1925050503d80600081146122b4576040519150601f19603f3d011682016040523d82523d6000602084013e6122b9565b606091505b50509050806122fd576040517f08c379a00000000000000000000000000000000000000000000000000000000081526004016122f490612d69565b60405180910390fd5b7f31f01f46758b6b42c15b03a08187ad5b638ba4231ca58df20b00c5d53c2e1ac4848360018611866040516123359493929190612da4565b60405180910390a150505050565b6040518060c00160405280600073ffffffffffffffffffffffffffffffffffffffff16815260200160008152602001600081526020016000815260200160008152602001600081525090565b6000819050919050565b6123a28161238f565b82525050565b60006020820190506123bd6000830184612399565b92915050565b600080fd5b600073ffffffffffffffffffffffffffffffffffffffff82169050919050565b60006123f3826123c8565b9050919050565b612403816123e8565b811461240e57600080fd5b50565b600081359050612420816123fa565b92915050565b61242f8161238f565b811461243a57600080fd5b50565b60008135905061244c81612426565b92915050565b60008060408385031215612469576124686123c3565b5b600061247785828601612411565b92505060206124888582860161243d565b9150509250929050565b61249b816123e8565b82525050565b600060c0820190506124b66000830189612492565b6124c36020830188612399565b6124d06040830187612399565b6124dd6060830186612399565b6124ea6080830185612399565b6124f760a0830184612399565b979650505050505050565b600060208284031215612518576125176123c3565b5b60006125268482850161243d565b91505092915050565b60008060408385031215612546576125456123c3565b5b60006125548582860161243d565b92505060206125658582860161243d565b9150509250929050565b600081519050919050565b600082825260208201905092915050565b6000819050602082019050919050565b6125a4816123e8565b82525050565b6125b38161238f565b82525050565b60c0820160008201516125cf600085018261259b565b5060208201516125e260208501826125aa565b5060408201516125f560408501826125aa565b50606082015161260860608501826125aa565b50608082015161261b60808501826125aa565b5060a082015161262e60a08501826125aa565b50505050565b600061264083836125b9565b60c08301905092915050565b6000602082019050919050565b60006126648261256f565b61266e818561257a565b93506126798361258b565b8060005b838110156126aa5781516126918882612634565b975061269c8361264c565b92505060018101905061267d565b5085935050505092915050565b600060208201905081810360008301526126d18184612659565b905092915050565b6000806000806000806000806000806101408b8d0312156126fd576126fc6123c3565b5b600061270b8d828e0161243d565b9a5050602061271c8d828e0161243d565b995050604061272d8d828e0161243d565b985050606061273e8d828e0161243d565b975050608061274f8d828e0161243d565b96505060a06127608d828e0161243d565b95505060c06127718d828e0161243d565b94505060e06127828d828e0161243d565b9350506101006127948d828e0161243d565b9250506101206127a68d828e0161243d565b9150509295989b9194979a5092959850565b600080600080608085870312156127d2576127d16123c3565b5b60006127e08782880161243d565b94505060206127f18782880161243d565b93505060406128028782880161243d565b92505060606128138782880161243d565b91505092959194509250565b60006020820190506128346000830184612492565b92915050565b6000602082840312156128505761284f6123c3565b5b600061285e84828501612411565b91505092915050565b7f4e487b7100000000000000000000000000000000000000000000000000000000600052604160045260246000fd5b7f4e487b7100000000000000000000000000000000000000000000000000000000600052603260045260246000fd5b7f4e487b7100000000000000000000000000000000000000000000000000000000600052601160045260246000fd5b60006128ff8261238f565b91507fffffffffffffffffffffffffffffffffffffffffffffffffffffffffffffffff8203612931576129306128c5565b5b600182019050919050565b6000819050919050565b600067ffffffffffffffff82169050919050565b6000819050919050565b600061297f61297a6129758461293c565b61295a565b612946565b9050919050565b61298f81612964565b82525050565b60006020820190506129aa6000830184612986565b92915050565b600082825260208201905092915050565b7f496e636f727265637420656e747279206665652e000000000000000000000000600082015250565b60006129f76014836129b0565b9150612a02826129c1565b602082019050919050565b60006020820190508181036000830152612a26816129ea565b9050919050565b7f4346502073656c656374696f6e732068617665206e6f74206265656e2066696e60008201527f616c697a65642e00000000000000000000000000000000000000000000000000602082015250565b6000612a896027836129b0565b9150612a9482612a2d565b604082019050919050565b60006020820190508181036000830152612ab881612a7c565b9050919050565b7f456e74727920706572696f642068617320636c6f7365642e0000000000000000600082015250565b6000612af56018836129b0565b9150612b0082612abf565b602082019050919050565b60006020820190508181036000830152612b2481612ae8565b9050919050565b7f416c72656164792068617665206d617820616d6f756e74206f6620656e74726960008201527f65732e0000000000000000000000000000000000000000000000000000000000602082015250565b6000612b876023836129b0565b9150612b9282612b2b565b604082019050919050565b60006020820190508181036000830152612bb681612b7a565b9050919050565b6000612bc88261238f565b9150612bd38361238f565b9250828201905080821115612beb57612bea6128c5565b5b92915050565b6000604082019050612c066000830185612399565b612c136020830184612399565b9392505050565b6000604082019050612c2f6000830185612492565b612c3c6020830184612399565b9392505050565b6000612c4e8261238f565b9150612c598361238f565b9250828203905081811115612c7157612c706128c5565b5b92915050565b7f4e487b7100000000000000000000000000000000000000000000000000000000600052601260045260246000fd5b6000612cb18261238f565b9150612cbc8361238f565b925082612ccc57612ccb612c77565b5b828204905092915050565b600081905092915050565b50565b6000612cf2600083612cd7565b9150612cfd82612ce2565b600082019050919050565b6000612d1382612ce5565b9150819050919050565b7f4661696c656420746f2073656e642077696e6e696e67732e0000000000000000600082015250565b6000612d536018836129b0565b9150612d5e82612d1d565b602082019050919050565b60006020820190508181036000830152612d8281612d46565b9050919050565b60008115159050919050565b612d9e81612d89565b82525050565b6000608082019050612db96000830187612492565b612dc66020830186612399565b612dd36040830185612d95565b612de06060830184612399565b9594505050505056fea264697066735822122012bf9990fafc120988137001bd6803ce1961067fc80a6d9e6574c3993db6caa264736f6c63430008140033",
  "linkReferences": {},
  "deployedLinkReferences": {}
}