{
  "_format": "hh-sol-artifact-1",
  "contractName": "PlayoffPool",
  "sourceName": "contracts/PlayoffPool.sol",
  "abi": [
    {
      "inputs": [
        {
          "internalType": "uint256",
          "name": "_entryFee",
          "type": "uint256"
        },
        {
          "internalType": "uint256",
          "name": "_maxEntries",
          "type": "uint256"
        },
        {
          "internalType": "uint256",
          "name": "_one",
          "type": "uint256"
        },
        {
          "internalType": "uint256",
          "name": "_two",
          "type": "uint256"
        },
        {
          "internalType": "uint256",
          "name": "_three",
          "type": "uint256"
        },
        {
          "internalType": "uint256",
          "name": "_four",
          "type": "uint256"
        },
        {
          "internalType": "uint256",
          "name": "_unlockTimestamp",
          "type": "uint256"
        },
        {
          "internalType": "uint256",
          "name": "_lockTimestamp",
          "type": "uint256"
        },
        {
          "internalType": "uint256",
          "name": "_semisComplete",
          "type": "uint256"
        },
        {
          "internalType": "uint256",
          "name": "_champComplete",
          "type": "uint256"
        }
      ],
      "stateMutability": "nonpayable",
      "type": "constructor"
    },
    {
      "anonymous": false,
      "inputs": [
        {
          "indexed": false,
          "internalType": "uint256",
          "name": "",
          "type": "uint256"
        },
        {
          "indexed": false,
          "internalType": "uint256",
          "name": "",
          "type": "uint256"
        }
      ],
      "name": "ScoredSemis",
      "type": "event"
    },
    {
      "anonymous": false,
      "inputs": [
        {
          "indexed": false,
          "internalType": "address",
          "name": "",
          "type": "address"
        },
        {
          "indexed": false,
          "internalType": "uint256",
          "name": "",
          "type": "uint256"
        }
      ],
      "name": "Winner",
      "type": "event"
    },
    {
      "anonymous": false,
      "inputs": [
        {
          "indexed": false,
          "internalType": "address",
          "name": "",
          "type": "address"
        },
        {
          "indexed": false,
          "internalType": "uint256",
          "name": "",
          "type": "uint256"
        },
        {
          "indexed": false,
          "internalType": "bool",
          "name": "",
          "type": "bool"
        },
        {
          "indexed": false,
          "internalType": "uint256",
          "name": "",
          "type": "uint256"
        }
      ],
      "name": "WinnerPaid",
      "type": "event"
    },
    {
      "inputs": [
        {
          "internalType": "uint256",
          "name": "",
          "type": "uint256"
        }
      ],
      "name": "allBrackets",
      "outputs": [
        {
          "internalType": "address",
          "name": "owner",
          "type": "address"
        },
        {
          "internalType": "uint256",
          "name": "semifinalOneWinner",
          "type": "uint256"
        },
        {
          "internalType": "uint256",
          "name": "semifinalTwoWinner",
          "type": "uint256"
        },
        {
          "internalType": "uint256",
          "name": "champion",
          "type": "uint256"
        },
        {
          "internalType": "uint256",
          "name": "championshipTotalPoints",
          "type": "uint256"
        },
        {
          "internalType": "uint256",
          "name": "bracketPoints",
          "type": "uint256"
        },
        {
          "internalType": "uint256",
          "name": "id",
          "type": "uint256"
        }
      ],
      "stateMutability": "view",
      "type": "function"
    },
    {
      "inputs": [
        {
          "internalType": "address",
          "name": "",
          "type": "address"
        },
        {
          "internalType": "uint256",
          "name": "",
          "type": "uint256"
        }
      ],
      "name": "brackets",
      "outputs": [
        {
          "internalType": "address",
          "name": "owner",
          "type": "address"
        },
        {
          "internalType": "uint256",
          "name": "semifinalOneWinner",
          "type": "uint256"
        },
        {
          "internalType": "uint256",
          "name": "semifinalTwoWinner",
          "type": "uint256"
        },
        {
          "internalType": "uint256",
          "name": "champion",
          "type": "uint256"
        },
        {
          "internalType": "uint256",
          "name": "championshipTotalPoints",
          "type": "uint256"
        },
        {
          "internalType": "uint256",
          "name": "bracketPoints",
          "type": "uint256"
        },
        {
          "internalType": "uint256",
          "name": "id",
          "type": "uint256"
        }
      ],
      "stateMutability": "view",
      "type": "function"
    },
    {
      "inputs": [],
      "name": "champComplete",
      "outputs": [
        {
          "internalType": "uint256",
          "name": "",
          "type": "uint256"
        }
      ],
      "stateMutability": "view",
      "type": "function"
    },
    {
      "inputs": [],
      "name": "champion",
      "outputs": [
        {
          "internalType": "uint256",
          "name": "",
          "type": "uint256"
        }
      ],
      "stateMutability": "view",
      "type": "function"
    },
    {
      "inputs": [],
      "name": "championshipTotalPoints",
      "outputs": [
        {
          "internalType": "uint256",
          "name": "",
          "type": "uint256"
        }
      ],
      "stateMutability": "view",
      "type": "function"
    },
    {
      "inputs": [],
      "name": "commissioner",
      "outputs": [
        {
          "internalType": "address",
          "name": "",
          "type": "address"
        }
      ],
      "stateMutability": "view",
      "type": "function"
    },
    {
      "inputs": [
        {
          "internalType": "uint256",
          "name": "",
          "type": "uint256"
        },
        {
          "internalType": "uint256",
          "name": "",
          "type": "uint256"
        }
      ],
      "name": "differences",
      "outputs": [
        {
          "internalType": "address",
          "name": "",
          "type": "address"
        }
      ],
      "stateMutability": "view",
      "type": "function"
    },
    {
      "inputs": [
        {
          "internalType": "uint256",
          "name": "",
          "type": "uint256"
        },
        {
          "internalType": "uint256",
          "name": "",
          "type": "uint256"
        }
      ],
      "name": "differencesIDs",
      "outputs": [
        {
          "internalType": "uint256",
          "name": "",
          "type": "uint256"
        }
      ],
      "stateMutability": "view",
      "type": "function"
    },
    {
      "inputs": [
        {
          "internalType": "uint256",
          "name": "",
          "type": "uint256"
        }
      ],
      "name": "entrants",
      "outputs": [
        {
          "internalType": "address",
          "name": "",
          "type": "address"
        }
      ],
      "stateMutability": "view",
      "type": "function"
    },
    {
      "inputs": [
        {
          "internalType": "address",
          "name": "",
          "type": "address"
        }
      ],
      "name": "entries",
      "outputs": [
        {
          "internalType": "uint256",
          "name": "",
          "type": "uint256"
        }
      ],
      "stateMutability": "view",
      "type": "function"
    },
    {
      "inputs": [],
      "name": "entryFee",
      "outputs": [
        {
          "internalType": "uint256",
          "name": "",
          "type": "uint256"
        }
      ],
      "stateMutability": "view",
      "type": "function"
    },
    {
      "inputs": [],
      "name": "four",
      "outputs": [
        {
          "internalType": "uint256",
          "name": "",
          "type": "uint256"
        }
      ],
      "stateMutability": "view",
      "type": "function"
    },
    {
      "inputs": [],
      "name": "getAllEntries",
      "outputs": [
        {
          "components": [
            {
              "internalType": "address",
              "name": "owner",
              "type": "address"
            },
            {
              "internalType": "uint256",
              "name": "semifinalOneWinner",
              "type": "uint256"
            },
            {
              "internalType": "uint256",
              "name": "semifinalTwoWinner",
              "type": "uint256"
            },
            {
              "internalType": "uint256",
              "name": "champion",
              "type": "uint256"
            },
            {
              "internalType": "uint256",
              "name": "championshipTotalPoints",
              "type": "uint256"
            },
            {
              "internalType": "uint256",
              "name": "bracketPoints",
              "type": "uint256"
            },
            {
              "internalType": "uint256",
              "name": "id",
              "type": "uint256"
            }
          ],
          "internalType": "struct PlayoffPool.Bracket[]",
          "name": "",
          "type": "tuple[]"
        }
      ],
      "stateMutability": "view",
      "type": "function"
    },
    {
      "inputs": [],
      "name": "getMyBrackets",
      "outputs": [
        {
          "components": [
            {
              "internalType": "address",
              "name": "owner",
              "type": "address"
            },
            {
              "internalType": "uint256",
              "name": "semifinalOneWinner",
              "type": "uint256"
            },
            {
              "internalType": "uint256",
              "name": "semifinalTwoWinner",
              "type": "uint256"
            },
            {
              "internalType": "uint256",
              "name": "champion",
              "type": "uint256"
            },
            {
              "internalType": "uint256",
              "name": "championshipTotalPoints",
              "type": "uint256"
            },
            {
              "internalType": "uint256",
              "name": "bracketPoints",
              "type": "uint256"
            },
            {
              "internalType": "uint256",
              "name": "id",
              "type": "uint256"
            }
          ],
          "internalType": "struct PlayoffPool.Bracket[]",
          "name": "",
          "type": "tuple[]"
        },
        {
          "internalType": "uint256",
          "name": "",
          "type": "uint256"
        }
      ],
      "stateMutability": "view",
      "type": "function"
    },
    {
      "inputs": [],
      "name": "getWinnerIDs",
      "outputs": [
        {
          "internalType": "uint256[]",
          "name": "",
          "type": "uint256[]"
        }
      ],
      "stateMutability": "view",
      "type": "function"
    },
    {
      "inputs": [
        {
          "internalType": "uint256",
          "name": "_semifinalOneWinner",
          "type": "uint256"
        },
        {
          "internalType": "uint256",
          "name": "_semifinalTwoWinner",
          "type": "uint256"
        },
        {
          "internalType": "uint256",
          "name": "_champion",
          "type": "uint256"
        },
        {
          "internalType": "uint256",
          "name": "_championshipTotalPoints",
          "type": "uint256"
        }
      ],
      "name": "joinPool",
      "outputs": [],
      "stateMutability": "payable",
      "type": "function"
    },
    {
      "inputs": [],
      "name": "lockTimestamp",
      "outputs": [
        {
          "internalType": "uint256",
          "name": "",
          "type": "uint256"
        }
      ],
      "stateMutability": "view",
      "type": "function"
    },
    {
      "inputs": [],
      "name": "maxEntries",
      "outputs": [
        {
          "internalType": "uint256",
          "name": "",
          "type": "uint256"
        }
      ],
      "stateMutability": "view",
      "type": "function"
    },
    {
      "inputs": [],
      "name": "mostPoints",
      "outputs": [
        {
          "internalType": "uint256",
          "name": "",
          "type": "uint256"
        }
      ],
      "stateMutability": "view",
      "type": "function"
    },
    {
      "inputs": [],
      "name": "one",
      "outputs": [
        {
          "internalType": "uint256",
          "name": "",
          "type": "uint256"
        }
      ],
      "stateMutability": "view",
      "type": "function"
    },
    {
      "inputs": [
        {
          "internalType": "uint256",
          "name": "",
          "type": "uint256"
        },
        {
          "internalType": "uint256",
          "name": "",
          "type": "uint256"
        }
      ],
      "name": "points",
      "outputs": [
        {
          "internalType": "address",
          "name": "",
          "type": "address"
        }
      ],
      "stateMutability": "view",
      "type": "function"
    },
    {
      "inputs": [],
      "name": "pot",
      "outputs": [
        {
          "internalType": "uint256",
          "name": "",
          "type": "uint256"
        }
      ],
      "stateMutability": "view",
      "type": "function"
    },
    {
      "inputs": [],
      "name": "randNonce",
      "outputs": [
        {
          "internalType": "uint256",
          "name": "",
          "type": "uint256"
        }
      ],
      "stateMutability": "view",
      "type": "function"
    },
    {
      "inputs": [
        {
          "internalType": "uint256",
          "name": "_champion",
          "type": "uint256"
        },
        {
          "internalType": "uint256",
          "name": "_championshipTotalPoints",
          "type": "uint256"
        }
      ],
      "name": "scoreFinal",
      "outputs": [],
      "stateMutability": "nonpayable",
      "type": "function"
    },
    {
      "inputs": [
        {
          "internalType": "uint256",
          "name": "_semifinalOneWinner",
          "type": "uint256"
        },
        {
          "internalType": "uint256",
          "name": "_semifinalTwoWinner",
          "type": "uint256"
        }
      ],
      "name": "scoreSemifinal",
      "outputs": [],
      "stateMutability": "nonpayable",
      "type": "function"
    },
    {
      "inputs": [
        {
          "internalType": "uint256",
          "name": "",
          "type": "uint256"
        }
      ],
      "name": "scoredAfterChamp",
      "outputs": [
        {
          "internalType": "address",
          "name": "owner",
          "type": "address"
        },
        {
          "internalType": "uint256",
          "name": "semifinalOneWinner",
          "type": "uint256"
        },
        {
          "internalType": "uint256",
          "name": "semifinalTwoWinner",
          "type": "uint256"
        },
        {
          "internalType": "uint256",
          "name": "champion",
          "type": "uint256"
        },
        {
          "internalType": "uint256",
          "name": "championshipTotalPoints",
          "type": "uint256"
        },
        {
          "internalType": "uint256",
          "name": "bracketPoints",
          "type": "uint256"
        },
        {
          "internalType": "uint256",
          "name": "id",
          "type": "uint256"
        }
      ],
      "stateMutability": "view",
      "type": "function"
    },
    {
      "inputs": [
        {
          "internalType": "uint256",
          "name": "",
          "type": "uint256"
        }
      ],
      "name": "scoredAfterSemis",
      "outputs": [
        {
          "internalType": "address",
          "name": "owner",
          "type": "address"
        },
        {
          "internalType": "uint256",
          "name": "semifinalOneWinner",
          "type": "uint256"
        },
        {
          "internalType": "uint256",
          "name": "semifinalTwoWinner",
          "type": "uint256"
        },
        {
          "internalType": "uint256",
          "name": "champion",
          "type": "uint256"
        },
        {
          "internalType": "uint256",
          "name": "championshipTotalPoints",
          "type": "uint256"
        },
        {
          "internalType": "uint256",
          "name": "bracketPoints",
          "type": "uint256"
        },
        {
          "internalType": "uint256",
          "name": "id",
          "type": "uint256"
        }
      ],
      "stateMutability": "view",
      "type": "function"
    },
    {
      "inputs": [
        {
          "internalType": "uint256",
          "name": "",
          "type": "uint256"
        },
        {
          "internalType": "uint256",
          "name": "",
          "type": "uint256"
        }
      ],
      "name": "scoredBrackets",
      "outputs": [
        {
          "internalType": "address",
          "name": "owner",
          "type": "address"
        },
        {
          "internalType": "uint256",
          "name": "semifinalOneWinner",
          "type": "uint256"
        },
        {
          "internalType": "uint256",
          "name": "semifinalTwoWinner",
          "type": "uint256"
        },
        {
          "internalType": "uint256",
          "name": "champion",
          "type": "uint256"
        },
        {
          "internalType": "uint256",
          "name": "championshipTotalPoints",
          "type": "uint256"
        },
        {
          "internalType": "uint256",
          "name": "bracketPoints",
          "type": "uint256"
        },
        {
          "internalType": "uint256",
          "name": "id",
          "type": "uint256"
        }
      ],
      "stateMutability": "view",
      "type": "function"
    },
    {
      "inputs": [],
      "name": "semifinalOneWinner",
      "outputs": [
        {
          "internalType": "uint256",
          "name": "",
          "type": "uint256"
        }
      ],
      "stateMutability": "view",
      "type": "function"
    },
    {
      "inputs": [],
      "name": "semifinalTwoWinner",
      "outputs": [
        {
          "internalType": "uint256",
          "name": "",
          "type": "uint256"
        }
      ],
      "stateMutability": "view",
      "type": "function"
    },
    {
      "inputs": [],
      "name": "semisComplete",
      "outputs": [
        {
          "internalType": "uint256",
          "name": "",
          "type": "uint256"
        }
      ],
      "stateMutability": "view",
      "type": "function"
    },
    {
      "inputs": [],
      "name": "three",
      "outputs": [
        {
          "internalType": "uint256",
          "name": "",
          "type": "uint256"
        }
      ],
      "stateMutability": "view",
      "type": "function"
    },
    {
      "inputs": [],
      "name": "totalEntries",
      "outputs": [
        {
          "internalType": "uint256",
          "name": "",
          "type": "uint256"
        }
      ],
      "stateMutability": "view",
      "type": "function"
    },
    {
      "inputs": [],
      "name": "two",
      "outputs": [
        {
          "internalType": "uint256",
          "name": "",
          "type": "uint256"
        }
      ],
      "stateMutability": "view",
      "type": "function"
    },
    {
      "inputs": [],
      "name": "unlockTimestamp",
      "outputs": [
        {
          "internalType": "uint256",
          "name": "",
          "type": "uint256"
        }
      ],
      "stateMutability": "view",
      "type": "function"
    },
    {
      "inputs": [
        {
          "internalType": "uint256",
          "name": "",
          "type": "uint256"
        }
      ],
      "name": "winningIDs",
      "outputs": [
        {
          "internalType": "uint256",
          "name": "",
          "type": "uint256"
        }
      ],
      "stateMutability": "view",
      "type": "function"
    }
  ],
  "bytecode": "0x608060405260016012553480156200001657600080fd5b50604051620036a5380380620036a583398181016040528101906200003c919062000112565b336000806101000a81548173ffffffffffffffffffffffffffffffffffffffff021916908373ffffffffffffffffffffffffffffffffffffffff16021790555089600181905550886002819055508760038190555086600481905550856005819055508460068190555083600e8190555082600f8190555081601081905550806011819055505050505050505050505062000208565b600080fd5b6000819050919050565b620000ec81620000d7565b8114620000f857600080fd5b50565b6000815190506200010c81620000e1565b92915050565b6000806000806000806000806000806101408b8d031215620001395762000138620000d2565b5b6000620001498d828e01620000fb565b9a505060206200015c8d828e01620000fb565b99505060406200016f8d828e01620000fb565b9850506060620001828d828e01620000fb565b9750506080620001958d828e01620000fb565b96505060a0620001a88d828e01620000fb565b95505060c0620001bb8d828e01620000fb565b94505060e0620001ce8d828e01620000fb565b935050610100620001e28d828e01620000fb565b925050610120620001f68d828e01620000fb565b9150509295989b9194979a5092959850565b61348d80620002186000396000f3fe60806040526004361061020f5760003560e01c8063a1fca2b611610118578063cf92a0c7116100a0578063e7b4e5ab1161006f578063e7b4e5ab146107f7578063f189449814610834578063f23f3ba51461085f578063f29ee1251461088a578063ffe81da8146108c75761020f565b8063cf92a0c71461070f578063d60dac3d14610752578063dd917b291461077d578063e3cdda39146107ba5761020f565b8063b7ce8a99116100e7578063b7ce8a9914610620578063be6b33371461064b578063c37996f114610676578063cc789085146106b9578063cf065419146106e45761020f565b8063a1fca2b614610562578063a337a6041461058d578063aa082a9d146105ca578063b544bf83146105f55761020f565b80634d3c3a411161019b5780637fef036e1161016a5780637fef036e1461048a57806388c113d6146104b5578063901717d1146104f2578063931e55aa1461051d57806398f6a197146105465761020f565b80634d3c3a41146103c65780635fdf05d71461040957806361e013561461043457806375662e961461045f5761020f565b8063443e4a39116101e2578063443e4a39146102f1578063448669551461031a57806345caa117146103455780634a0364e8146103705780634ba2363a1461039b5761020f565b8063072ea61c1461021457806318901b711461023f57806334ff56441461026b5780633bca800f146102ae575b600080fd5b34801561022057600080fd5b506102296108f2565b60405161023691906127be565b60405180910390f35b34801561024b57600080fd5b506102546108f8565b604051610262929190612966565b60405180910390f35b34801561027757600080fd5b50610292600480360381019061028d91906129f3565b610ae4565b6040516102a59796959493929190612a42565b60405180910390f35b3480156102ba57600080fd5b506102d560048036038101906102d09190612ab1565b610b63565b6040516102e89796959493929190612a42565b60405180910390f35b3480156102fd57600080fd5b5061031860048036038101906103139190612ade565b610bd5565b005b34801561032657600080fd5b5061032f610ccc565b60405161033c91906127be565b60405180910390f35b34801561035157600080fd5b5061035a610cd2565b60405161036791906127be565b60405180910390f35b34801561037c57600080fd5b50610385610cd8565b6040516103929190612b1e565b60405180910390f35b3480156103a757600080fd5b506103b0610e72565b6040516103bd91906127be565b60405180910390f35b3480156103d257600080fd5b506103ed60048036038101906103e89190612ade565b610e78565b6040516104009796959493929190612a42565b60405180910390f35b34801561041557600080fd5b5061041e610ef7565b60405161042b91906127be565b60405180910390f35b34801561044057600080fd5b50610449610efd565b60405161045691906127be565b60405180910390f35b34801561046b57600080fd5b50610474610f03565b6040516104819190612bef565b60405180910390f35b34801561049657600080fd5b5061049f610f5b565b6040516104ac91906127be565b60405180910390f35b3480156104c157600080fd5b506104dc60048036038101906104d79190612ab1565b610f61565b6040516104e991906127be565b60405180910390f35b3480156104fe57600080fd5b50610507610f85565b60405161051491906127be565b60405180910390f35b34801561052957600080fd5b50610544600480360381019061053f9190612ade565b610f8b565b005b610560600480360381019061055b9190612c11565b61107a565b005b34801561056e57600080fd5b50610577611531565b60405161058491906127be565b60405180910390f35b34801561059957600080fd5b506105b460048036038101906105af9190612ade565b611537565b6040516105c191906127be565b60405180910390f35b3480156105d657600080fd5b506105df611568565b6040516105ec91906127be565b60405180910390f35b34801561060157600080fd5b5061060a61156e565b60405161061791906127be565b60405180910390f35b34801561062c57600080fd5b50610635611574565b60405161064291906127be565b60405180910390f35b34801561065757600080fd5b5061066061157a565b60405161066d91906127be565b60405180910390f35b34801561068257600080fd5b5061069d60048036038101906106989190612ab1565b611580565b6040516106b09796959493929190612a42565b60405180910390f35b3480156106c557600080fd5b506106ce6115f2565b6040516106db91906127be565b60405180910390f35b3480156106f057600080fd5b506106f96115f8565b60405161070691906127be565b60405180910390f35b34801561071b57600080fd5b5061073660048036038101906107319190612ab1565b6115fe565b6040516107499796959493929190612a42565b60405180910390f35b34801561075e57600080fd5b50610767611670565b60405161077491906127be565b60405180910390f35b34801561078957600080fd5b506107a4600480360381019061079f9190612ade565b611676565b6040516107b19190612c78565b60405180910390f35b3480156107c657600080fd5b506107e160048036038101906107dc9190612ade565b6116c4565b6040516107ee9190612c78565b60405180910390f35b34801561080357600080fd5b5061081e60048036038101906108199190612ab1565b611712565b60405161082b9190612c78565b60405180910390f35b34801561084057600080fd5b50610849611751565b6040516108569190612c78565b60405180910390f35b34801561086b57600080fd5b50610874611775565b60405161088191906127be565b60405180910390f35b34801561089657600080fd5b506108b160048036038101906108ac9190612c93565b61177b565b6040516108be91906127be565b60405180910390f35b3480156108d357600080fd5b506108dc611793565b6040516108e991906127be565b60405180910390f35b60015481565b6060600080601960003373ffffffffffffffffffffffffffffffffffffffff1673ffffffffffffffffffffffffffffffffffffffff16815260200190815260200160002090506000818054905067ffffffffffffffff81111561095e5761095d612cc0565b5b60405190808252806020026020018201604052801561099757816020015b610984612752565b81526020019060019003908161097c5790505b50905060005b8280549050811015610a98578281815481106109bc576109bb612cef565b5b90600052602060002090600702016040518060e00160405290816000820160009054906101000a900473ffffffffffffffffffffffffffffffffffffffff1673ffffffffffffffffffffffffffffffffffffffff1673ffffffffffffffffffffffffffffffffffffffff1681526020016001820154815260200160028201548152602001600382015481526020016004820154815260200160058201548152602001600682015481525050828281518110610a7a57610a79612cef565b5b60200260200101819052508080610a9090612d4d565b91505061099d565b5080601860003373ffffffffffffffffffffffffffffffffffffffff1673ffffffffffffffffffffffffffffffffffffffff168152602001908152602001600020549350935050509091565b60196020528160005260406000208181548110610b0057600080fd5b9060005260206000209060070201600091509150508060000160009054906101000a900473ffffffffffffffffffffffffffffffffffffffff16908060010154908060020154908060030154908060040154908060050154908060060154905087565b60158181548110610b7357600080fd5b90600052602060002090600702016000915090508060000160009054906101000a900473ffffffffffffffffffffffffffffffffffffffff16908060010154908060020154908060030154908060040154908060050154908060060154905087565b60008054906101000a900473ffffffffffffffffffffffffffffffffffffffff1673ffffffffffffffffffffffffffffffffffffffff163373ffffffffffffffffffffffffffffffffffffffff1614610c63576040517f08c379a0000000000000000000000000000000000000000000000000000000008152600401610c5a90612df2565b60405180910390fd5b601154421015610ca8576040517f08c379a0000000000000000000000000000000000000000000000000000000008152600401610c9f90612e84565b60405180910390fd5b8160098190555080600a81905550610cc06000611799565b610cc8612052565b5050565b60095481565b60055481565b60606000806015805490501115610cf25760159050610d0f565b60006014805490501115610d095760149050610d0e565b601390505b5b6000818054905067ffffffffffffffff811115610d2f57610d2e612cc0565b5b604051908082528060200260200182016040528015610d6857816020015b610d55612752565b815260200190600190039081610d4d5790505b50905060005b8280549050811015610e6957828181548110610d8d57610d8c612cef565b5b90600052602060002090600702016040518060e00160405290816000820160009054906101000a900473ffffffffffffffffffffffffffffffffffffffff1673ffffffffffffffffffffffffffffffffffffffff1673ffffffffffffffffffffffffffffffffffffffff1681526020016001820154815260200160028201548152602001600382015481526020016004820154815260200160058201548152602001600682015481525050828281518110610e4b57610e4a612cef565b5b60200260200101819052508080610e6190612d4d565b915050610d6e565b50809250505090565b600d5481565b601b6020528160005260406000208181548110610e9457600080fd5b9060005260206000209060070201600091509150508060000160009054906101000a900473ffffffffffffffffffffffffffffffffffffffff16908060010154908060020154908060030154908060040154908060050154908060060154905087565b60045481565b60125481565b60606017805480602002602001604051908101604052809291908181526020018280548015610f5157602002820191906000526020600020905b815481526020019060010190808311610f3d575b5050505050905090565b600c5481565b60178181548110610f7157600080fd5b906000526020600020016000915090505481565b60035481565b60008054906101000a900473ffffffffffffffffffffffffffffffffffffffff1673ffffffffffffffffffffffffffffffffffffffff163373ffffffffffffffffffffffffffffffffffffffff1614611019576040517f08c379a000000000000000000000000000000000000000000000000000000000815260040161101090612df2565b60405180910390fd5b60105442101561105e576040517f08c379a000000000000000000000000000000000000000000000000000000000815260040161105590612f16565b60405180910390fd5b81600781905550806008819055506110766001611799565b5050565b60015434146110be576040517f08c379a00000000000000000000000000000000000000000000000000000000081526004016110b590612f82565b60405180910390fd5b600e54421015611103576040517f08c379a00000000000000000000000000000000000000000000000000000000081526004016110fa90613014565b60405180910390fd5b600f54421115611148576040517f08c379a000000000000000000000000000000000000000000000000000000000815260040161113f90613080565b60405180910390fd5b600254601860003373ffffffffffffffffffffffffffffffffffffffff1673ffffffffffffffffffffffffffffffffffffffff16815260200190815260200160002054106111cb576040517f08c379a00000000000000000000000000000000000000000000000000000000081526004016111c290613112565b60405180910390fd5b60006111d83384846125e9565b90506000601860003373ffffffffffffffffffffffffffffffffffffffff1673ffffffffffffffffffffffffffffffffffffffff1681526020019081526020016000205411611285576016339080600181540180825580915050600190039060005260206000200160009091909190916101000a81548173ffffffffffffffffffffffffffffffffffffffff021916908373ffffffffffffffffffffffffffffffffffffffff1602179055505b601860003373ffffffffffffffffffffffffffffffffffffffff1673ffffffffffffffffffffffffffffffffffffffff16815260200190815260200160002060008154809291906112d590612d4d565b9190505550601960003373ffffffffffffffffffffffffffffffffffffffff1673ffffffffffffffffffffffffffffffffffffffff1681526020019081526020016000206040518060e001604052803373ffffffffffffffffffffffffffffffffffffffff1681526020018781526020018681526020018581526020018481526020016000815260200183815250908060018154018082558091505060019003906000526020600020906007020160009091909190915060008201518160000160006101000a81548173ffffffffffffffffffffffffffffffffffffffff021916908373ffffffffffffffffffffffffffffffffffffffff1602179055506020820151816001015560408201518160020155606082015181600301556080820151816004015560a0820151816005015560c08201518160060155505060136040518060e001604052803373ffffffffffffffffffffffffffffffffffffffff1681526020018781526020018681526020018581526020018481526020016000815260200183815250908060018154018082558091505060019003906000526020600020906007020160009091909190915060008201518160000160006101000a81548173ffffffffffffffffffffffffffffffffffffffff021916908373ffffffffffffffffffffffffffffffffffffffff1602179055506020820151816001015560408201518160020155606082015181600301556080820151816004015560a0820151816005015560c082015181600601555050600c600081548092919061151e90612d4d565b919050555047600d819055505050505050565b60065481565b601d602052816000526040600020818154811061155357600080fd5b90600052602060002001600091509150505481565b600e5481565b600f5481565b60085481565b600a5481565b6013818154811061159057600080fd5b90600052602060002090600702016000915090508060000160009054906101000a900473ffffffffffffffffffffffffffffffffffffffff16908060010154908060020154908060030154908060040154908060050154908060060154905087565b60105481565b600b5481565b6014818154811061160e57600080fd5b90600052602060002090600702016000915090508060000160009054906101000a900473ffffffffffffffffffffffffffffffffffffffff16908060010154908060020154908060030154908060040154908060050154908060060154905087565b60115481565b601c602052816000526040600020818154811061169257600080fd5b906000526020600020016000915091509054906101000a900473ffffffffffffffffffffffffffffffffffffffff1681565b601a60205281600052604060002081815481106116e057600080fd5b906000526020600020016000915091509054906101000a900473ffffffffffffffffffffffffffffffffffffffff1681565b6016818154811061172257600080fd5b906000526020600020016000915054906101000a900473ffffffffffffffffffffffffffffffffffffffff1681565b60008054906101000a900473ffffffffffffffffffffffffffffffffffffffff1681565b60025481565b60186020528060005260406000206000915090505481565b60075481565b60008060005b60168054905081101561204c57601681815481106117c0576117bf612cef565b5b9060005260206000200160009054906101000a900473ffffffffffffffffffffffffffffffffffffffff16925060005b601860008573ffffffffffffffffffffffffffffffffffffffff1673ffffffffffffffffffffffffffffffffffffffff1681526020019081526020016000205481101561203857601960008573ffffffffffffffffffffffffffffffffffffffff1673ffffffffffffffffffffffffffffffffffffffff168152602001908152602001600020818154811061188857611887612cef565b5b906000526020600020906007020192508415611b1f57600754836001015403611926576003601960008673ffffffffffffffffffffffffffffffffffffffff1673ffffffffffffffffffffffffffffffffffffffff16815260200190815260200160002082815481106118fe576118fd612cef565b5b9060005260206000209060070201600501600082825461191e9190613132565b925050819055505b6008548360020154036119ae576003601960008673ffffffffffffffffffffffffffffffffffffffff1673ffffffffffffffffffffffffffffffffffffffff168152602001908152602001600020828154811061198657611985612cef565b5b906000526020600020906007020160050160008282546119a69190613132565b925050819055505b6014601960008673ffffffffffffffffffffffffffffffffffffffff1673ffffffffffffffffffffffffffffffffffffffff1681526020019081526020016000208281548110611a0157611a00612cef565b5b906000526020600020906007020190806001815401808255809150506001900390600052602060002090600702016000909190919091506000820160009054906101000a900473ffffffffffffffffffffffffffffffffffffffff168160000160006101000a81548173ffffffffffffffffffffffffffffffffffffffff021916908373ffffffffffffffffffffffffffffffffffffffff16021790555060018201548160010155600282015481600201556003820154816003015560048201548160040155600582015481600501556006820154816006015550507f72b70d4f70717c443c3f728467b5c6595439e31928db630e2892cab279692b2e600754600854604051611b12929190613166565b60405180910390a1612025565b600954836003015403611ba7576007601960008673ffffffffffffffffffffffffffffffffffffffff1673ffffffffffffffffffffffffffffffffffffffff1681526020019081526020016000208281548110611b7f57611b7e612cef565b5b90600052602060002090600702016005016000828254611b9f9190613132565b925050819055505b600b54601960008673ffffffffffffffffffffffffffffffffffffffff1673ffffffffffffffffffffffffffffffffffffffff1681526020019081526020016000208281548110611bfb57611bfa612cef565b5b9060005260206000209060070201600501541115611c7d57601960008573ffffffffffffffffffffffffffffffffffffffff1673ffffffffffffffffffffffffffffffffffffffff1681526020019081526020016000208181548110611c6457611c63612cef565b5b906000526020600020906007020160050154600b819055505b601a6000601960008773ffffffffffffffffffffffffffffffffffffffff1673ffffffffffffffffffffffffffffffffffffffff1681526020019081526020016000208381548110611cd257611cd1612cef565b5b9060005260206000209060070201600501548152602001908152602001600020849080600181540180825580915050600190039060005260206000200160009091909190916101000a81548173ffffffffffffffffffffffffffffffffffffffff021916908373ffffffffffffffffffffffffffffffffffffffff160217905550601b6000601960008773ffffffffffffffffffffffffffffffffffffffff1673ffffffffffffffffffffffffffffffffffffffff1681526020019081526020016000208381548110611da857611da7612cef565b5b9060005260206000209060070201600501548152602001908152602001600020601960008673ffffffffffffffffffffffffffffffffffffffff1673ffffffffffffffffffffffffffffffffffffffff1681526020019081526020016000208281548110611e1957611e18612cef565b5b906000526020600020906007020190806001815401808255809150506001900390600052602060002090600702016000909190919091506000820160009054906101000a900473ffffffffffffffffffffffffffffffffffffffff168160000160006101000a81548173ffffffffffffffffffffffffffffffffffffffff021916908373ffffffffffffffffffffffffffffffffffffffff16021790555060018201548160010155600282015481600201556003820154816003015560048201548160040155600582015481600501556006820154816006015550506015601960008673ffffffffffffffffffffffffffffffffffffffff1673ffffffffffffffffffffffffffffffffffffffff1681526020019081526020016000208281548110611f4857611f47612cef565b5b906000526020600020906007020190806001815401808255809150506001900390600052602060002090600702016000909190919091506000820160009054906101000a900473ffffffffffffffffffffffffffffffffffffffff168160000160006101000a81548173ffffffffffffffffffffffffffffffffffffffff021916908373ffffffffffffffffffffffffffffffffffffffff16021790555060018201548160010155600282015481600201556003820154816003015560048201548160040155600582015481600501556006820154816006015550505b808061203090612d4d565b9150506117f0565b50808061204490612d4d565b91505061179f565b50505050565b47600d8190555060008060006001601a6000600b548152602001908152602001600020805490500361216d576120db601a6000600b5481526020019081526020016000206000815481106120a9576120a8612cef565b5b9060005260206000200160009054906101000a900473ffffffffffffffffffffffffffffffffffffffff16600161264e565b7f9c2270628a9b29d30ae96b6c4c14ed646ee134febdce38a5b77f2bde9cea2e20601a6000600b54815260200190815260200160002060008154811061212457612123612cef565b5b9060005260206000200160009054906101000a900473ffffffffffffffffffffffffffffffffffffffff16600b5460405161216092919061318f565b60405180910390a16125e4565b60005b601a6000600b5481526020019081526020016000208054905081101561230957601b6000600b54815260200190815260200160002081815481106121b7576121b6612cef565b5b90600052602060002090600702019150600a54826004015411156121ee57600a5482600401546121e791906131b8565b9250612203565b8160040154600a5461220091906131b8565b92505b6000810361221357829350612220565b8383101561221f578293505b5b601d600084815260200190815260200160002082600601549080600181540180825580915050600190039060005260206000200160009091909190915055601c60008481526020019081526020016000208260000160009054906101000a900473ffffffffffffffffffffffffffffffffffffffff169080600181540180825580915050600190039060005260206000200160009091909190916101000a81548173ffffffffffffffffffffffffffffffffffffffff021916908373ffffffffffffffffffffffffffffffffffffffff160217905550808061230190612d4d565b915050612170565b506001601c6000858152602001908152602001600020805490500361246c576017601d60008581526020019081526020016000206000815481106123505761234f612cef565b5b906000526020600020015490806001815401808255809150506001900390600052602060002001600090919091909150556123dc601c60008581526020019081526020016000206000815481106123aa576123a9612cef565b5b9060005260206000200160009054906101000a900473ffffffffffffffffffffffffffffffffffffffff16600161264e565b7f9c2270628a9b29d30ae96b6c4c14ed646ee134febdce38a5b77f2bde9cea2e20601c600085815260200190815260200160002060008154811061242357612422612cef565b5b9060005260206000200160009054906101000a900473ffffffffffffffffffffffffffffffffffffffff16600b5460405161245f92919061318f565b60405180910390a16125e3565b6000601c600085815260200190815260200160002080549050905060005b818110156125e0576017601d600087815260200190815260200160002082815481106124b9576124b8612cef565b5b90600052602060002001549080600181540180825580915050600190039060005260206000200160009091909190915055612543601c6000878152602001908152602001600020828154811061251257612511612cef565b5b9060005260206000200160009054906101000a900473ffffffffffffffffffffffffffffffffffffffff168361264e565b7f9c2270628a9b29d30ae96b6c4c14ed646ee134febdce38a5b77f2bde9cea2e20601c6000878152602001908152602001600020828154811061258957612588612cef565b5b9060005260206000200160009054906101000a900473ffffffffffffffffffffffffffffffffffffffff16600b546040516125c592919061318f565b60405180910390a180806125d890612d4d565b91505061248a565b50505b5b505050565b6000601260008154809291906125fe90612d4d565b9190505550620f424042858585601254604051602001612622959493929190613255565b6040516020818303038152906040528051906020012060001c61264591906132e3565b90509392505050565b600081600d5461265e9190613314565b905060008373ffffffffffffffffffffffffffffffffffffffff168260405161268690613376565b60006040518083038185875af1925050503d80600081146126c3576040519150601f19603f3d011682016040523d82523d6000602084013e6126c8565b606091505b505090508061270c576040517f08c379a0000000000000000000000000000000000000000000000000000000008152600401612703906133d7565b60405180910390fd5b7f31f01f46758b6b42c15b03a08187ad5b638ba4231ca58df20b00c5d53c2e1ac4848360018611866040516127449493929190613412565b60405180910390a150505050565b6040518060e00160405280600073ffffffffffffffffffffffffffffffffffffffff1681526020016000815260200160008152602001600081526020016000815260200160008152602001600081525090565b6000819050919050565b6127b8816127a5565b82525050565b60006020820190506127d360008301846127af565b92915050565b600081519050919050565b600082825260208201905092915050565b6000819050602082019050919050565b600073ffffffffffffffffffffffffffffffffffffffff82169050919050565b600061283082612805565b9050919050565b61284081612825565b82525050565b61284f816127a5565b82525050565b60e08201600082015161286b6000850182612837565b50602082015161287e6020850182612846565b5060408201516128916040850182612846565b5060608201516128a46060850182612846565b5060808201516128b76080850182612846565b5060a08201516128ca60a0850182612846565b5060c08201516128dd60c0850182612846565b50505050565b60006128ef8383612855565b60e08301905092915050565b6000602082019050919050565b6000612913826127d9565b61291d81856127e4565b9350612928836127f5565b8060005b8381101561295957815161294088826128e3565b975061294b836128fb565b92505060018101905061292c565b5085935050505092915050565b600060408201905081810360008301526129808185612908565b905061298f60208301846127af565b9392505050565b600080fd5b6129a481612825565b81146129af57600080fd5b50565b6000813590506129c18161299b565b92915050565b6129d0816127a5565b81146129db57600080fd5b50565b6000813590506129ed816129c7565b92915050565b60008060408385031215612a0a57612a09612996565b5b6000612a18858286016129b2565b9250506020612a29858286016129de565b9150509250929050565b612a3c81612825565b82525050565b600060e082019050612a57600083018a612a33565b612a6460208301896127af565b612a7160408301886127af565b612a7e60608301876127af565b612a8b60808301866127af565b612a9860a08301856127af565b612aa560c08301846127af565b98975050505050505050565b600060208284031215612ac757612ac6612996565b5b6000612ad5848285016129de565b91505092915050565b60008060408385031215612af557612af4612996565b5b6000612b03858286016129de565b9250506020612b14858286016129de565b9150509250929050565b60006020820190508181036000830152612b388184612908565b905092915050565b600081519050919050565b600082825260208201905092915050565b6000819050602082019050919050565b6000612b788383612846565b60208301905092915050565b6000602082019050919050565b6000612b9c82612b40565b612ba68185612b4b565b9350612bb183612b5c565b8060005b83811015612be2578151612bc98882612b6c565b9750612bd483612b84565b925050600181019050612bb5565b5085935050505092915050565b60006020820190508181036000830152612c098184612b91565b905092915050565b60008060008060808587031215612c2b57612c2a612996565b5b6000612c39878288016129de565b9450506020612c4a878288016129de565b9350506040612c5b878288016129de565b9250506060612c6c878288016129de565b91505092959194509250565b6000602082019050612c8d6000830184612a33565b92915050565b600060208284031215612ca957612ca8612996565b5b6000612cb7848285016129b2565b91505092915050565b7f4e487b7100000000000000000000000000000000000000000000000000000000600052604160045260246000fd5b7f4e487b7100000000000000000000000000000000000000000000000000000000600052603260045260246000fd5b7f4e487b7100000000000000000000000000000000000000000000000000000000600052601160045260246000fd5b6000612d58826127a5565b91507fffffffffffffffffffffffffffffffffffffffffffffffffffffffffffffffff8203612d8a57612d89612d1e565b5b600182019050919050565b600082825260208201905092915050565b7f4e6f7420617574686f72697a65642e0000000000000000000000000000000000600082015250565b6000612ddc600f83612d95565b9150612de782612da6565b602082019050919050565b60006020820190508181036000830152612e0b81612dcf565b9050919050565b7f43616e6e6f742073636f726520756e74696c204e6174696f6e616c204368616d60008201527f70696f6e7368697020686173206265656e20706c617965642e00000000000000602082015250565b6000612e6e603983612d95565b9150612e7982612e12565b604082019050919050565b60006020820190508181036000830152612e9d81612e61565b9050919050565b7f43616e6e6f742073636f726520756e74696c2053656d6966696e616c7320686160008201527f7665206265656e20706c617965642e0000000000000000000000000000000000602082015250565b6000612f00602f83612d95565b9150612f0b82612ea4565b604082019050919050565b60006020820190508181036000830152612f2f81612ef3565b9050919050565b7f496e636f727265637420656e747279206665652e000000000000000000000000600082015250565b6000612f6c601483612d95565b9150612f7782612f36565b602082019050919050565b60006020820190508181036000830152612f9b81612f5f565b9050919050565b7f4346502073656c656374696f6e732068617665206e6f74206265656e2066696e60008201527f616c697a65642e00000000000000000000000000000000000000000000000000602082015250565b6000612ffe602783612d95565b915061300982612fa2565b604082019050919050565b6000602082019050818103600083015261302d81612ff1565b9050919050565b7f456e74727920706572696f642068617320636c6f7365642e0000000000000000600082015250565b600061306a601883612d95565b915061307582613034565b602082019050919050565b600060208201905081810360008301526130998161305d565b9050919050565b7f4d6178696d756d20616d6f756e74206f6620656e74726965732072656163686560008201527f6420666f72207468697320616464726573732e00000000000000000000000000602082015250565b60006130fc603383612d95565b9150613107826130a0565b604082019050919050565b6000602082019050818103600083015261312b816130ef565b9050919050565b600061313d826127a5565b9150613148836127a5565b92508282019050808211156131605761315f612d1e565b5b92915050565b600060408201905061317b60008301856127af565b61318860208301846127af565b9392505050565b60006040820190506131a46000830185612a33565b6131b160208301846127af565b9392505050565b60006131c3826127a5565b91506131ce836127a5565b92508282039050818111156131e6576131e5612d1e565b5b92915050565b6000819050919050565b613207613202826127a5565b6131ec565b82525050565b60008160601b9050919050565b60006132258261320d565b9050919050565b60006132378261321a565b9050919050565b61324f61324a82612825565b61322c565b82525050565b600061326182886131f6565b602082019150613271828761323e565b60148201915061328182866131f6565b60208201915061329182856131f6565b6020820191506132a182846131f6565b6020820191508190509695505050505050565b7f4e487b7100000000000000000000000000000000000000000000000000000000600052601260045260246000fd5b60006132ee826127a5565b91506132f9836127a5565b925082613309576133086132b4565b5b828206905092915050565b600061331f826127a5565b915061332a836127a5565b92508261333a576133396132b4565b5b828204905092915050565b600081905092915050565b50565b6000613360600083613345565b915061336b82613350565b600082019050919050565b600061338182613353565b9150819050919050565b7f4661696c656420746f2073656e642077696e6e696e67732e0000000000000000600082015250565b60006133c1601883612d95565b91506133cc8261338b565b602082019050919050565b600060208201905081810360008301526133f0816133b4565b9050919050565b60008115159050919050565b61340c816133f7565b82525050565b60006080820190506134276000830187612a33565b61343460208301866127af565b6134416040830185613403565b61344e60608301846127af565b9594505050505056fea2646970667358221220e636de8c83a0bd1487a64e4bdd2c10d6183724d14c8f55dc1e77509d34e2e4eb64736f6c63430008140033",
  "linkReferences": {},
  "deployedLinkReferences": {}
}